:020000040800F2
:1000000090040020C1010008FB0F0008530F0008F6
:10001000F90F0008A90200085915000800000000A7
:100020000000000000000000000000001F10000899
:10003000AB020008000000001D100008211000089D
:10004000DB010008DB010008DB010008DB01000820
:10005000DB010008DB010008DB010008DB01000810
:10006000DB010008DB010008DB010008DB01000800
:10007000DB010008DB010008DB010008DB010008F0
:10008000DB010008DB010008DB010008DB010008E0
:10009000DB010008DB010008DB010008DB010008D0
:1000A000DB010008DB010008DB010008DB010008C0
:1000B000DB010008DB010008DB010008DB010008B0
:1000C000DB010008DB010008DB010008DB010008A0
:1000D000DB0100084D150008DB010008DB0100080A
:1000E000DB010008DB010008DB010008DB01000880
:1000F000DB010008DB010008DB010008DB01000870
:10010000DB010008DB010008DB010008DB0100085F
:10011000DB010008DB010008DB010008DB0100084F
:10012000DB010008DB010008DB010008DB0100083F
:10013000DB010008DB010008DB010008DB0100082F
:10014000DB010008DB010008DB010008DB0100081F
:10015000DB010008DB010008DB010008DB0100080F
:10016000DB010008DB010008DB010008DB010008FF
:10017000DB010008DB010008DB01000800000000D3
:10018000DB010008DB010008DB010008DB010008DF
:10019000DB010008DB010008DB010008DB010008CF
:1001A0000000000000000000DB010008DFF80CD0B8
:1001B00000F068F800480047C515000890040020CA
:1001C0000648804706480047FEE7FEE7FEE7FEE7F1
:1001D000FEE7FEE7FEE7FEE7FEE7FEE7CD100008DC
:1001E000AD0100082DE9F05F0546002092469B46D0
:1001F00088460646814640241BE02846414647463D
:10020000224600F02FF853465A46C01A914110D3A7
:1002100011461846224600F016F82D1A67EB010821
:100220004F4622460120002100F00DF817EB00098F
:100230004E41201EA4F10104DFDC484631462A4627
:100240004346BDE8F09F202A04DB203A00FA02F181
:10025000002070479140C2F1200320FA03F31943B4
:1002600090407047202A04DB203A21FA02F0002156
:10027000704721FA02F3D040C2F1200291400843B6
:1002800019467047064C074D06E0E06840F0010350
:1002900094E8070098471034AC42F6D3FFF78AFF82
:1002A0005016000870160008FEE770472DE9F0416F
:1002B000040004D094F83C00002518B107E00120A8
:1002C000BDE8F08184F83D50204600F093F802200C
:1002D00084F83C002068016821F002010160206878
:1002E000016841F00101016000F0BAF907460326F8
:1002F00005E000BF00F0B4F9C01B0A2863D82068ED
:100300004068C007F6D020684168C90768D0A16975
:10031000012901683FD021F080010160E0690128D6
:10032000206801683AD021F040010160206A01286C
:100330002068016835D021F020010160606A012841
:100340002068016830D021F010010160A06A012806
:10035000206801682BD021F008010160E06A0128C3
:100360002068016826D021F004010160D4E902016F
:100370000843D4E90412114308436168491E084345
:100380002168C8612068016821F00101016000F066
:1003900067F907461CE041F08001BEE741F04001EB
:1003A000C3E741F02001C8E741F01001CDE741F07B
:1003B0000801D2E741F00401D7E700BF00F050F98F
:1003C000C01B0A2804D904F83C6F0320657077E746
:1003D00020684068C007F1D120684068C00703D09A
:1003E000042084F83C006AE72564012084F83C007E
:1003F000002065E700B500680E4987B0884217D134
:100400000D480021026842F000720260006800F0AE
:10041000007005904FF4C05000900220CDE901011A
:1004200003200390092004906946044800F028F84E
:1004300007B000BD006400404038024000000240A8
:1004400090F83510022903D08021416501207047C2
:10045000052180F835100068016821F00101016074
:100460000020704731B500F0FBF8009C0546601C89
:1004700000D0641C00F0F4F8401BA042FAD338BD51
:100480002DE9F84FDFF890B100224FF001084FF04E
:10049000030A4FF00F090BF1040E00BF0B6808FAB6
:1004A00002F42340A3426ED14D68022D01D0122DDB
:1004B0000ED1D50800EB850CDCF820505607F70E5E
:1004C00009FA07F6B5430E69BE402E43CCF820600A
:1004D000066855000F790AFA05FC07F0030726EABB
:1004E0000C06AF40374307604E68012E05D0022E40
:1004F00003D0112E01D0122E0ED18768CE6827EAC4
:100500000C07AE403E4386604668A6430C79C4F3B0
:100510000014944034434460C4688E6824EA0C0498
:10052000AE402643C6604C68E4006FD53B4C25685E
:1005300045F480452560246822F0030504F48044D6
:100540000094374C2E19D6F8084895072F0F09FA52
:1005500007F5AC43334DA84201D100252EE0324DC2
:10056000A84201D1012529E0304DA84201D1022540
:1005700024E02F4DA84201D103251FE02D4DA842B4
:1005800002D104251AE041E02B4DA84201D10525F6
:1005900014E02A4DA84201D106250FE0284DA842BB
:1005A00001D107250AE0274DA84201D1082505E021
:1005B000254DA84201D1092500E00A25BD4025436B
:1005C000C6F80858DBF800405D464E689C43F603C9
:1005D00000D51C432C60DEF8004075464E689C43F5
:1005E000B60300D51C432C600B4D08352C684E68B3
:1005F0009C43F60200D51C432C60074D0C352C683B
:100600004E689C43B60200D51C432C60521C102A35
:10061000FFF444AFBDE8F88F003C0140443802408D
:100620000030014000000240000402400008024087
:10063000000C02400010024000140240001802406A
:10064000001C0240002002400024024042694A404F
:10065000426170470AB1816170470904FBE70000FD
:10066000014800687047000000000020024801684F
:10067000491C016070470000000000200B4810B5C5
:10068000016841F400710160016841F4806101601A
:10069000016841F480710160032000F075F80020CA
:1006A00000F006F800F018F8002010BD003C0240F1
:1006B00010B5044607484FF47A710068B0FBF1F0BA
:1006C00000F0E7FA00222146501E00F03DF800201D
:1006D00010BD00000400002010B5032000F054F805
:1006E000002211466FF00B0000F02EF80022114698
:1006F0006FF00A0000F028F8002211466FF00900A0
:1007000000F022F800221146501F00F01DF80022D0
:100710001146101F00F018F800221146901E00F03C
:1007200013F80022BDE810401146501E00F00CB82E
:1007300000F01F02012191404009800000F1E020FB
:10074000C0F8001170470000F0B40E4B1B680C4657
:10075000C3F30223C3F10705042D00D90425191D95
:10076000072901D2002300E0DB1E012606FA05F16D
:10077000491E214099409E40761E16403143F0BCF0
:1007800000F03CBC0CED00E0064900F007020868F0
:100790004FF6FF03184040EA0220034A1043086066
:1007A000704700000CED00E00000FA052DE9F0476D
:1007B0000E46050065D0DFF81481D8F80000F7B2C6
:1007C00000F00F00B04207D288F80070D8F800009F
:1007D00000F00F00B04254D128683D4C810712D57B
:1007E000400703D5206840F4E050206028780007D7
:1007F00003D5206840F4604020602068A96820F09C
:10080000F000084320602878C0072DD03049686880
:100810000839012812D0022813D0032811D0096802
:10082000890700292DDA216821F0030101432160A5
:10083000FFF716FF814641F2883A0EE00968890306
:10084000EFE709688901ECE7FFF70AFFA0EB090170
:10085000514502D90320BDE8F0872068696800F09F
:100860000C00B0EB810FEFD1D8F80010404601F03A
:100870000F01B14207D90770006800F00F00B042C5
:1008800001D00120E7E72878400705D52068E9680E
:1008900020F4E050084320602878000706D520683F
:1008A000296920F4604040EAC100206000F03CF873
:1008B0002168084AC1F30311515CC8400649086029
:1008C0000020FFF7F5FE0020C5E70000003C0240D5
:1008D000083802403816000804000020014800686B
:1008E00070470000040000200448054900680968BA
:1008F000044AC1F38221515CC840704704000020C3
:10090000083802404816000804480549006809688C
:10091000044AC1F34231515CC840704704000020D2
:100920000838024048160008154810B5006810F055
:100930000C02144813D04110042A0FD0082A0ED1FB
:100940000F4C241F2268236802F03F025B0207D588
:100950002068C0F38810A0FB010106E0084610BD26
:100960002168C1F38811A1FB00010023FFF73AFCC5
:100970002168C1F30141491C4900B0FBF1F010BDF1
:10098000083802400024F4002DE9F84F050071D02A
:10099000DFF8D0922878A9F1040BC007ABF104046A
:1009A0004AD0D9F800104846C1F38101012908D086
:1009B0000068C0F3810002280AD1DBF80000400281
:1009C00006D52068800337D568680028DFD033E07B
:1009D0006868B0F5803F10D0B0F5A02F206810D027
:1009E00020F480302060206820F480202060686837
:1009F000A8B1FFF735FE06460DE0206840F48030D0
:100A0000F4E740F480202060F7E700BFFFF728FEFE
:100A1000801B642873D820688003F7D50CE0FFF7AB
:100A20001FFE064605E000BFFFF71AFE801B642884
:100A3000F0D820688003F7D428788B4F80074FF0D8
:100A4000010A4FF000083DD5D9F80010484611F0D2
:100A50000C0F08D00068C0F3810002280BD1DBF82E
:100A60000000400207D42068800715D5E8680128F7
:100A700000D111E0F3E0E868B0B1C7F800A0FFF7DB
:100A8000EFFD064605E000BFFFF7EAFD801B0228E8
:100A900035D820688007F7D52068296920F0F8004C
:100AA00040EAC10020600DE0C7F80080FFF7D8FDE4
:100AB000064604E0FFF7D4FD801B02281FD82068FB
:100AC0008007F7D42878000724D56848696981B180
:100AD000C0F800A0FFF7C4FD064604E0FFF7C0FD24
:100AE000801B02280BD85F486C3000688007F5D562
:100AF00010E0C0F80080FFF7B3FD064605E074E0A3
:100B0000FFF7AEFD801B02286FD856486C30006896
:100B10008007F5D42878400753D55248383001680B
:100B200041F080510160006800F080500090504812
:100B3000016841F480710160FFF792FD064604E010
:100B4000FFF78EFD801B02284FD849480068C0057A
:100B5000F6D5444EA868683601280FD005283068BD
:100B600010D020F001003060306820F004003060C8
:100B7000A868B8B1FFF774FD00900FE0306840F04E
:100B80000100F4E740F004003060F7E7FFF768FD8C
:100B90000099411A41F28830814258D83068800764
:100BA000F4D50EE0FFF75CFD009007E0FFF758FD7D
:100BB0000099411A41F28830814248D83068800754
:100BC000F4D4A86990B3D9F80010C1F381010229C7
:100BD00045D00228C7F8608003D0FFF741FD0546E5
:100BE00038E0FFF73DFD064605E030E0FFF738FD51
:100BF000801B02282BD820688001F7D4D5E9070193
:100C00000843A96A1B4A490802EB01416A6A41EAA2
:100C10008211084395F82C1040EA0161CBF80010CE
:100C2000C7F860A0FFF71CFD054606E015E000BF11
:100C3000FFF716FD401B022809D820688001F7D570
:100C40000BE000BFFFF70CFD401B022802D9032078
:100C5000BDE8F88F20688001F4D40020F8E7012077
:100C6000F6E700000838024000004742800E474285
:100C7000007000400000FFFF4FF0E02104280869E9
:100C800003D020F004000861704740F00400FAE748
:100C9000704710B5401EB0F1807F01D3012010BD18
:100CA0004FF0E02460610F21601700F0A7F90020E9
:100CB000A06107202061002010BD10B5FFF7E8FFFC
:100CC00010BD704770B5026804461068D16853695A
:100CD00010F00F0F51D003F0010501F49076354369
:100CE0005DD0C20705D0CA0503D5E26B42F0010210
:100CF000E263420705D5DA0703D0E26B42F0020255
:100D0000E263820705D5DA0703D0E26B42F0040202
:100D1000E263020705D5DA0703D0E26B42F008026E
:100D2000E263E26B002A34D0800604D5880602D53F
:100D3000204600F00BFA20684069E16BC0F3801098
:100D400001F008010143204624D000F0F1F92068A9
:100D5000416949061AD5416921F040014161606B42
:100D6000A0B11B490165606BFFF76AFB002810D03A
:100D7000606B016DBDE87040084783060FD58B0698
:100D80000DD52046BDE8704000F0E0B92046FFF7E1
:100D900098FF70BDFFF795FF0020E06370BD03066C
:100DA00006D50B0604D52046BDE8704000F06ABBAE
:100DB0004006F3D54806F1D5D168204621F0400120
:100DC000D160202184F8391000F0C2F870BD000015
:100DD0002111000870B5040004D094F839000025F2
:100DE00010B106E0012070BD84F83850204600F0B4
:100DF00023F8242084F839002068C16821F40051C8
:100E0000C160204600F0E8F92068016921F49041B2
:100E100001612068416921F02A0141612068C168AF
:100E200041F40051C160E563202084F8390084F862
:100E30003A00002070BD000000B50068124987B07C
:100E400088421FD11148016841F01001016000681B
:100E5000694600F0100005904FF4C0600090022039
:100E6000019001200290032003900720049008487D
:100E7000FFF706FB002211462520FFF765FC252021
:100E8000FFF756FC07B000BD001001404438024097
:100E90000000024070472DE9F843044690F83900FD
:100EA0001F4616460D46202850D1A5B19EB194F894
:100EB000380001284AD0012084F838004FF000089B
:100EC000C4F83C80212084F83900FFF7C9FBA684D0
:100ED0008146E68426E00120BDE8F883E08C401ED0
:100EE000E084A0684B46B0F5805F4FF000024FF001
:100EF00080012046009703D000F0F5FAE8B90DE034
:100F000000F0F1FAC8B928882168C0F308004860E9
:100F1000206908B16D1C05E0AD1C03E0216815F8DF
:100F2000010B4860E08C0028D8D14B4600224021BC
:100F30002046009700F0D7FA08B10320CCE7202024
:100F400084F8390084F838800020C5E70220C3E720
:100F50007047FEE70E4810B50C4901600921416059
:100F600000214FF480228160C0E903124FF4A002F7
:100F7000C0E90521C161016241628162C162FFF77E
:100F800095F9002800D0FEE710BD00000064004085
:100F90000C00002070B5164886B00024016841F0AE
:100FA00080010160016801F080010591016841F054
:100FB00010010160016801F010010591016841F024
:100FC000010101600068012200F00100094ED50313
:100FD000059029463046FFF73DFB01200095CDE9FD
:100FE0000104694630460394FFF74AFA06B070BD23
:100FF0003038024000100240FEE770470907090E32
:10100000002806DA00F00F0000F1E02080F8141D3F
:10101000704700F1E02080F8001470477047704777
:1010200010B5FFF723FBBDE81040FFF746BE0000F8
:1010300030B5244893B00025016841F0805101602B
:10104000006800F0805011901F48016841F4404151
:1010500001600068022400F44040119001200090DB
:10106000000401908001CDE9064008AA0420A821CF
:1010700082E813000B906846FFF786FC00B1FEE79C
:101080000CA90F2081E831004FF4A0500F904FF4CD
:101090008050109005210CA8FFF788FB00B1FEE7F7
:1010A000FFF71CFC4FF47A71B0FBF1F0FFF7F1FD94
:1010B0000420FFF7E1FD00221146501EFFF744FB1C
:1010C00013B030BD40380240007000401048016845
:1010D00041F4700101600F48016841F001010160B5
:1010E0000C4A00210832116002680B4B1A40026062
:1010F000031D0A4A1A60026822F480220260054831
:101100000C300160024958068039086070470000C1
:1011100088ED00E000380240FFFFF6FE10300024AA
:1011200010B5806B0021C185C184FFF7CAFD10BDD9
:101130000168CA6822F49072CA6001684A6922F0A4
:1011400001024A61202180F83A10704710B590F8EA
:101150003A10222901D0022010BD8168B1F5805FCC
:1011600011D00169002901681FD0496801F07F038F
:10117000816A4A1C82620B70C18D491E0904090CE8
:10118000C18518D026E00269816A002A0268526887
:1011900005D0D2B20A80816A491C8162ECE7C2F3B1
:1011A00008020A80816A891CF7E74A68816A4B1C39
:1011B00083620A70E0E70168CA6822F49072CA602C
:1011C00001684A6922F001024A61202180F83A1040
:1011D000FFF760FE002010BD2DE9F04104460068D5
:1011E000016921F44052E168114301612168C86836
:1011F00049F20C6290432369A268E5691A43636966
:101200002B431A430243CA602168486920F44072A4
:10121000A06910434861E1696425B1F5004F974822
:10122000974A21684FF032083FD0914201D0814265
:101230007CD1FFF769FB00EBC00101EB0010616896
:101240008900B0FBF1F6FFF75FFB00EBC00101EB9B
:10125000001061688900B0FBF1F0B0FBF5F06FF0B1
:101260001801484306EB800108EB0110B0FBF5F0D4
:1012700000F0F006FFF748FB00EBC00101EB0010A7
:1012800061688900B0FBF1F0B0FBF5F006EB0016E9
:10129000FFF73AFB00EBC00101EB00106168890029
:1012A000B0FBF1F7FFF730FBD2E0914201D0814271
:1012B0003DD1FFF729FB00EBC00101EB0010616895
:1012C0004900B0FBF1F0B0FBF5F00601FFF71CFBA5
:1012D00000EBC00101EB001061684900B0FBF1F7C1
:1012E000FFF712FB00EBC00101EB00106168490041
:1012F000B0FBF1F0B0FBF5F06FF01801484307EBDD
:10130000800108EBC100B0FBF5F000F0F80006EB3F
:101310004006FFF7F9FA00EBC00101EB001061682D
:101320004900B0FBF1F7FFF7EFFA3CE055E0FFF7BB
:10133000DBFA00EBC00101EB001061684900B0FB73
:10134000F1F0B0FBF5F00601FFF7CEFA00EBC001BB
:1013500001EB001061684900B0FBF1F7FFF7C4FA38
:1013600000EBC00101EB001061684900B0FBF1F037
:10137000B0FBF5F06FF01801484307EB800108EB74
:10138000C100B0FBF5F000F0F80006EB4006FFF7F7
:10139000ABFA00EBC00101EB001061684900B0FB43
:1013A000F1F7FFF7A1FA00EBC00101EB0010616853
:1013B0004900B0FBF1F0B0FBF5F06FF018014843C5
:1013C00007EB800108EBC100B0FBF5F000F007006F
:1013D000216830448860BDE8F081FFF785FA00EBB2
:1013E000C00101EB001061688900B0FBF1F6FFF766
:1013F0007BFA00EBC00101EB001061688900B0FBD3
:10140000F1F0B0FBF5F06FF01801484306EB8001F6
:1014100008EB0110B0FBF5F000F0F006FFF764FAFE
:1014200000EBC00101EB001061688900B0FBF1F036
:10143000B0FBF5F006EB0016FFF756FA00EBC00123
:1014400001EB001061688900B0FBF1F7FFF74CFA7F
:1014500000EBC00101EB001061688900B0FBF1F006
:10146000B0FBF5F06FF01801484307EB800108EB83
:101470000110B0FBF5F000F00F00A9E700140140E7
:101480000010014090F83910212901D00220704746
:101490008168B1F5805F016A0BD04A1C0262026864
:1014A00009785160C18C491E0904090CC1840ED011
:1014B00017E009880268C1F3080151600169002939
:1014C000016A02D0491C0162ECE7891CFBE7016854
:1014D000CA6822F08002CA600068C16841F0400119
:1014E000C160002070472DE9F041984617460E462E
:1014F0000446069D1DE0681C1BD02DB1FFF7B0F817
:10150000A0EB0800A84214D92068C16821F4D0716A
:10151000C1602068416921F001014161202084F807
:10152000390084F83A00002084F838000320BDE830
:10153000F0812068006836EA000004D00020B8423C
:10154000D9D00020F3E70120F9E700000148FFF7B8
:10155000B9BB000050000020FEE70000014A02492C
:1015600000F013B8AD1500080800002002E008C81C
:10157000121F08C1002AFAD170477047002001E00D
:1015800001C1121F002AFBD170472DE9F041164618
:101590000F460446002503E03946B047641C6D1C25
:1015A00020780028F8D12846BDE8F08113B54FF621
:1015B000FF73012269460248FFF76DFC00981CBDCD
:1015C00050000020FFF75AF8FFF732FDFFF7E2FC6A
:1015D000144813490C2201604FF4E13141600021AD
:1015E0008160C160C0E904128161C161FFF7F2FB53
:1015F00000B1FEE7FFF7AEFC0B4E4FF400450A20AA
:10160000FEF730FF641CE4B2642CF8D9002407A074
:10161000FFF7A4FF29463046FFF718F8EFE7000070
:10162000001001405000002000100240D5FDB3A37F
:10163000D4CBD0D00D0A0000000000000000000054
:101640000102030406070809000000000102030468
:1016500070160008000000200C0000006C15000847
:101660007C1600080C000020840400007C15000893
:0C167000000000000024F4000000000056
:04000005080001AD41
:00000001FF
