:020000040800F2
:100000002005002001010008271D0008B51B00087D
:10001000251D000861020008F5200008000000000E
:10002000000000000000000000000000711D00083A
:100030008B03000800000000491D0008731D000824
:100040001B0100081B0100081B0100081B01000820
:100050001B0100081B0100081B0100081B01000810
:100060001B0100081B0100081B0100081B01000800
:100070001B0100081B0100081B0100081B010008F0
:100080001B0100081B010008990100081B01000862
:10009000E92000081B0100081B0100081B010008E3
:1000A0001B0100081B0100081B0100081B010008C0
:1000B0001B0100081B0100081B0100081B010008B0
:1000C0001B0100081B0100081B0100081B010008A0
:1000D0001B0100081B0100081B010008DD200008AF
:1000E0001B0100081B0100081B010008DFF80CD0F1
:1000F00000F040F800480047A52200082005002035
:100100000648804706480047FEE7FEE7FEE7FEE7B1
:10011000FEE7FEE7FEE7FEE7FEE7FEE7FD1D00085F
:10012000ED000008D2B201E000F8012B491EFBD21D
:1001300070470022F6E710B513460A4604461946F2
:10014000FFF7F0FF204610BD30B50B4601460020FA
:100150002022012409E021FA02F59D4205D303FA89
:1001600002F5491B04FA02F52844151EA2F101020A
:10017000F1DC30BD064C074D06E0E06840F00103BD
:1001800094E8070098471034AC42F6D3FFF7B2FF6B
:100190000824000828240008014800F0F9B90000EC
:1001A000EC00002070B5044600688168C943C907A7
:1001B0001CD1816821F00101816000F06BFF0546D0
:1001C0000FE000BF00F066FF401B022809D9A06ABB
:1001D00040F01000A062E06A40F00100E0620120FF
:1001E00070BD20688068C043C007EBD0002070BDA0
:1001F000F8B500260446009600688168C943C9071F
:1002000028D0816841F001018160134813490068DA
:10021000B0FBF1F000E0401E00900028FBD100F0A0
:1002200039FF054611E000BF00F034FF401B0228F3
:100230000BD9A06A40F01000A062E06A40F0010013
:10024000E06284F824600120F8BD20688068C04323
:10025000C007E9D10020F8BD1800002040420F007F
:10026000FEE7000010B5002958D0826B4FF4D87318
:10027000046803EB0113E45814F004049460046868
:10028000E4584DD0E40854600468E35803F00203D6
:10029000D3604FF4DA73046803EB0113E45804F0FD
:1002A0000F04146111620468E358C3F30723D36198
:1002B0004FF4DC73046803EB0113E458147504680D
:1002C000E458240A54750468E458240C94750468AE
:1002D000E3581B0ED3754FF4DE73046803EB011370
:1002E000E45814760468E458240A54760468E45800
:1002F000240C94760468E3581B0ED37603682022FE
:1003000089B11A610268536923F05003536190F870
:100310003C20222A0DD0322A0BD00FE0426BA5E7F9
:10032000640D1460B0E7DA600268536923F00A03D1
:10033000ECE70268536923F40F435361122201234F
:10034000002990F83C1006D0522915D0622916D009
:10035000722906D115E042290ED0622908D07229EF
:1003600008D080F83C3000BF00F01AFD002010BD1E
:10037000322107E0522105E080F83C20F4E72221F9
:1003800000E0422180F83C10EEE770472DE9FC4F79
:10039000DFF8C0900024DFF8B8A00746FF266D46BE
:1003A0004FF01008A9F1040B385D092841D007DC93
:1003B00018D2DFE800F0191B30323436383A3C00EE
:1003C00064283ED008DC20280CD02D283DD06128A0
:1003D00031D0632806D132E0652834D0662801D0B8
:1003E00075282AD02E5503E0C02000E0F9202855BA
:1003F0001AF8040001F0C6FB285D01F0C3FBC9F840
:100400000080CBF80080C9F80080641CE4B2072C9F
:10041000CAD3BDE8FC8FA420E9E7B020E7E7992024
:10042000E5E79220E3E78220E1E7F820DFE780209C
:10043000DDE79020DBE78820D9E7C120D7E7C62099
:10044000D5E7A120D3E78620D1E7BF20CFE7000082
:100450001C000020140801400EB5694600900120E0
:10046000019000200290074800F010F8054800F0C5
:1004700049FA0A21034800F0ADF9024800F085F876
:100480000EBD0000EC00002070470000F8B500240D
:10049000009490F824202546012A12D0012280F8E9
:1004A00024204A681F23072A0DD20668776B521E44
:1004B00002EB820293409F430B6893401F43776394
:1004C00019E00220F8BD06680D2A0AD2376BD21F48
:1004D00002EB820293409F430B6893401F433763B4
:1004E00009E0F76A0D3A02EB820293409F430B68E2
:1004F00093401F43F7620A68072306680A2A0AD353
:10050000F7680A3A02EB420293409F438B6893409C
:100510001F43F76008E0376902EB420293409F43B4
:100520008B6893401F4337610A68102A01D0112A53
:1005300020D1124B02689A4217D193681B0219D43A
:10054000936843F4000393600968102912D10C49A1
:100550000C4A0968B1FBF2F101EB8101490000E0AE
:10056000491E00910029FBD104E0816A41F020017D
:100570008162012480F824502046F8BD0024014007
:100580001800002040420F0070470068C06C7047A0
:1005900010B5044600684168890626D501688907B8
:1005A00023D5A16AC90603D4A16A41F40071A162EE
:1005B0008168C1F34241072910D1E16871B94168EE
:1005C00021F020014160A06A20F48070A062A06A3E
:1005D000C00403D4A06A40F00100A0622046FFF7E7
:1005E000D3FF21686FF01200086020684168090697
:1005F0002ED5016849072BD5A16AC90603D4A16A83
:1006000041F40051A1628168C1F30231072909D088
:100610004168490515D48168C1F34241072910D1C9
:10062000E16871B9416821F080014160A06A20F45D
:100630008050A062A06AC00503D4A06A40F0010007
:10064000A0622046FFF720FF21686FF00C000860D1
:100650002068416849060DD50068C0070AD0A06A25
:1006600040F48030A062204600F094F821686FF0DA
:100670000100086010BD00002DE9F0414FF00007B7
:1006800004003D467ED0A06A002628B9E66284F8C0
:100690002460204600F080F82046FFF783FDA16A21
:1006A00001F01001014304D0A06A40F01000A062E4
:1006B00068E0A16A21F4885141F00201A1626268F8
:1006C000E169E3680A4347EA43010A43A1684FF43A
:1006D0008077B94208D0012906D00021D4F814C08F
:1006E000BCF1010F02D00AE03946F7E7F3B1A36A83
:1006F00043F02003A362E36A43F00103E36223684B
:10070000D3F804C02CF4694C4CEA010CC3F804C0C3
:1007100023689968DFF870C001EA0C011143996001
:10072000A168B9420BD0012909D00CE0DFF85CC008
:10073000A3690CEB43330B4343F40061DFE7218AE9
:100740000D05A5F580152168CB6A23F470032B43B2
:10075000CB62216889680E4B1940914208D1E6624C
:10076000A16A21F0020141F00101A162BDE8F0811E
:10077000A06A20F0020040F01000A062E06A40F0A1
:100780000100E0620120F1E7FDF7E1FF00E0FFFF7B
:10079000FE0E1FFF7047000000B500680A4985B0D3
:1007A00088420FD10948816941F4007181618069F3
:1007B000694600F400700490032000900190044802
:1007C00000F084FB05B000BD002401400010024091
:1007D000000C01402DE9F84300260D460446009622
:1007E00000F058FC804620688168C90508D5A06AD9
:1007F00040F02000A06284F824600120BDE8F88366
:100800004168C90503D4C06A10F4700F26D00220D5
:1008100000F0FEFC38490968B1FBF0F72068036975
:1008200036490B424FEA61014FEAA1121BD1C3685E
:100830004FEA611C13EA0C0F15D103690B4221D159
:10084000C06810421ED114201FE0681C06D045B3BA
:1008500000F020FCA0EB0800A84222D82068006825
:100860008007F2D52AE003690B4202D1C168114228
:1008700006D0026922490A4206D1C068084203D163
:10088000542002E0292000E0FC204743009813E0B8
:10089000681C0ED02DB100F0FDFBA0EB0800A842B3
:1008A00007D9A06A40F00400A06284F82460032005
:1008B000A4E70098401C0090B842E9D321686FF08B
:1008C00012000860A06A40F40070A062206880688E
:1008D000C0F3424007280CD1E06850B9A06A20F468
:1008E0008070A062A06AC00403D4A06A40F0010036
:1008F000A062002082E70000180000202449922412
:100900004992240070B5044690F8240001280DD0C7
:10091000012084F824002046FFF76AFC02004FF013
:10092000000005D084F82400104670BD022070BD80
:10093000A16A40F20123994341F48071A1621F4DE5
:1009400023681F49AB4218D10E6816F4702F14D0DB
:10095000A66A46F48016A6620E68760505D5A66AD4
:1009600026F4005646F48056A662A66AF6040AD516
:10097000E66A26F00606E66206E0A66A26F4801617
:10098000A6625E68E9E7E06284F824006FF0020086
:10099000186020688368C3F34243072B05D1A8423F
:1009A00008D1096811F4702F04D0816841F48011D6
:1009B0008160B9E7816841F4A001F9E700280140AE
:1009C00004240140704700002DE9F041044600680E
:1009D0000026C168C1F300134169C1F3C0021021B0
:1009E00013B10AB14E01C160206802694369C2F3C4
:1009F0000012C3F380131AB113B146F4806601618B
:100A0000216848694FF00105C043C0074ED18A688C
:100A10007648904323D000208B68754A9A4320D0B3
:100A200000228F68734BBB431DD000231043184333
:100A30003CD088688A68C0F340008B68C2F34022CB
:100A400003F001031043184329D04A69204622F0DD
:100A500001024A6194F83C10122906D00AE00120F4
:100A6000DAE70122DDE70123E0E701684A6922F4C1
:100A70000F424A6190F83C10422908D0522908D010
:100A8000722908D080F83C5000F0D2F909E0222108
:100A900002E0322100E0622180F83C10F4E746F4E5
:100AA000006620688168544A114381602168C868E3
:100AB000496910F0030FC1F3400104D019B10021BE
:100AC0002046FFF7CFFB21680869496910F0030F42
:100AD000C1F3001104D019B101212046FFF7C2FB78
:100AE000206C3043206420688169426911F0010F55
:100AF0004369C2F30022C3F3C03305D022B11BB156
:100B0000216C41F0010121648169C1F34003416915
:100B1000C1F340224169C1F3C0312BB122B119B1F7
:100B2000216C41F0020121648169C1F380034169B4
:100B30004269C1F38021C2F3C0322BB121B11AB195
:100B4000216C41F004012164816911F0700F08D01B
:100B500000224169C1F3C0234169C1F3C03112B120
:100B600021E00122F5E7F3B1E9B1816901F07001FB
:100B700040292FD006DC102909D020290BD030299C
:100B80000DD123E0502929D0602908D12AE0216C19
:100B900041F0080102E0216C41F0100121648169FB
:100BA00021F070018161206C00280DD021680420A3
:100BB000486084F83C502068416948F65B72914374
:100BC00041612046FFF7FEFEBDE8F081216C41F057
:100BD0002001E3E7216C41F04001DFE7216C41F0A7
:100BE0008001DBE7216C41F48071D7E7010000044C
:100BF0000001000800000110090501002DE9F04185
:100C000004004FF0000504D094F83C00002618B111
:100C100007E00120BDE8F08184F83D60204600F047
:100C200083F8022084F83C002068016821F002016A
:100C300001602068016841F00101016000F02AFABA
:100C400007464FF0030804E000F024FAC01B0A280E
:100C500053D820684068C007F6D021684868C007AC
:100C600058D0A069012801D145F08005E06901282C
:100C70002FD025F04000226A012A2DD020F020003C
:100C8000626A012A2BD020F01000A26A012A29D022
:100C900020F00800E26A012A27D020F004000A6848
:100CA00022F0FC0202430A60D4E902010843D4E9BD
:100CB0000412114308436168491E08432168C86152
:100CC0002068016821F00101016000F0E3F90546A8
:100CD00018E045F04000CEE740F02000D0E740F0BB
:100CE0001000D2E740F00800D4E740F00400D6E757
:100CF00000F0D0F9401B0A2804D904F83C8F0320E7
:100D0000667087E720684068C007F1D120684068B6
:100D1000C00703D0042084F83C007AE72664012051
:100D200084F83C00002075E710B50068184986B0CB
:100D300088422BD11748C16941F00071C161C06977
:100D4000154C00F0007004904FF4006000900020FB
:100D5000019002906946204600F0B8F8A014009077
:100D600002200190032003906946204600F0AEF86F
:100D70000A480068416941F00201416102221146BE
:100D8000142000F013FA142000F004FA06B010BD8D
:100D9000006400400010024000080140A80000204C
:100DA00070B5134D00242868416941F0020141618A
:100DB000686B01680FA001F09FF9686B81680FA054
:100DC00001F09AF9686BC1680FA001F095F9686BA2
:100DD000016910A001F090F9696B04F114000A5C3C
:100DE00021460FA001F088F9641C082CF4DB70BDCB
:100DF000A800002069643A25640D0A006964653A18
:100E000025640D0A000000007274723A25640D0A10
:100E1000000000006C656E3A25640D0A00000000B9
:100E200072786275665B25645D3A25640D0A000080
:100E30007047000010B590F821100024022903D05B
:100E40000421816301243DE001680A6822F00E025A
:100E50000A6001680A6822F001020A601A4A016801
:100E6000914201D1012121E0174A1432914201D16E
:100E700010211BE0144A2832914201D1891515E056
:100E8000114A3C32914201D189140FE00E4A50328E
:100E9000914202D14FF4803108E00B4A6432914212
:100EA00002D14FF4801101E04FF08071064A083AF8
:100EB0005160012180F82110002180F82010416B41
:100EC00001B18847204610BD080002402DE9F84FC7
:100ED000DFF890A100220AF1040B144601274FF01D
:100EE0000F090BF1040E00BF0B6807FA04F52B4045
:100EF000AB4274D1DFF870C14E68A6EB0C086645B2
:100F00002BD00DDC032E34D005DC36B3012E19D0E6
:100F1000022E2FD11BE0112E16D0122E2AD119E04D
:100F2000B8F5881F19D006DCB8F5803F15D0B8F5A4
:100F3000801F1FD111E0B8F5001F0ED0B8F5041FB7
:100F400018D10AE0CA6815E0CA68121D12E0CA6822
:100F500008320FE0CA680C320CE08A682AB1012A14
:100F60004FF0080203D0456104E0042202E005616D
:100F700000E00022FF2B01D8064601E000F1040644
:100F80004FEA840501D9A5F12005D6F800C009FA79
:100F900005F82CEA080C02FA05F54CEA050CC6F82F
:100FA00000C04D68ED0057D5304DAE6946F00106E2
:100FB000AE61AD6924F0030605F0010500952C4DE6
:100FC00006EB050CDCF80850A6074FEA167809FA7C
:100FD00008F6B543274EB04202D1002610E03BE0B0
:100FE000254EB04201D101260AE0244EB04201D183
:100FF000022605E0224EB04201D1032600E004267D
:1010000006FA08F62E43CCF808604D68DAF800605E
:10101000ED03554601D51E4300E09E432E604D680A
:10102000DBF80060AD035D4601D51E4300E09E4342
:101030002E604D68DEF80060ED02754601D51E4356
:1010400000E09E432E604D68AD020E4D2E6801D526
:101050001E4300E09E432E60641C102CFFF444AF3E
:10106000BDE8F88F0004014000001110001002409C
:101070000000014000080140000C01400010014048
:10108000001401400C0401400AB1016170470904D9
:10109000FBE7000001488068704700000000002066
:1010A0000248816802781144816070470000002086
:1010B000074810B5016841F010010160032000F0FD
:1010C00095F8002000F006F800F024F8002010BD8C
:1010D0000020024070B50D4D04464FF47A71287817
:1010E000B1FBF0F00A490968B1FBF0F000F003FC35
:1010F00048B9102C07D200222146501E00F056F8A5
:1011000000206C6070BD012070BD00000000002058
:10111000180000201D4808B5816941F00101816176
:10112000806900F001000090032000F05FF80022C9
:1011300011466FF00B0000F039F8002211466FF0F5
:101140000A0000F033F8002211466FF0090000F0A9
:101150002DF800221146501F00F028F800221146F9
:10116000101F00F023F800221146901E00F01EF818
:1011700000221146501E00F019F80548416821F080
:10118000E06141F00071416008BD000000100240C4
:101190000000014000F01F02012191404009800041
:1011A00000F1E020C0F8001170470000F0B40E4BD1
:1011B0001B680C46C3F30223C3F10705042D00D9B5
:1011C0000425191D072901D2002300E0DB1E01269A
:1011D00006FA05F1491E214099409E40761E1640B0
:1011E0003143F0BC00F0A0BD0CED00E0064900F07A
:1011F000070208684FF6FF03184040EA0220034A3E
:1012000010430860704700000CED00E00000FA0594
:1012100010B528A401461DCC86B08DE81D0029A07C
:10122000294C006804900020012923D0022939D0DC
:1012300010291DD161682268D20119D5C1F38342FA
:10124000C9031DF8020009D5616804AAC1F3404131
:10125000515C1E4AB2FBF1F1484301E01C4948438E
:101260006168490204D440005FF00301B0FBF1F073
:1012700006B010BD226AC2F30121012903D19207F1
:1012800001D5C803F4E7022905D1626A920702D5A5
:1012900049F64040ECE70329EAD121688903E7D504
:1012A0000C48E5E700F04EF96168C1F38131491C53
:1012B0004900DBE702030405060708090A0B0C0DC9
:1012C0000E0F1010010200000010024000366E01E7
:1012D00000093D006CDC02002DE9F843054600786A
:1012E000354CC00754D0E0690026C00008D4E0693E
:1012F00040F08050E061E069012600F080500090ED
:101300002E480168C90512D40168804641F48071F5
:101310000160FFF7BFFE074605E000BFFFF7BAFE1A
:10132000C01B642823D8D8F80000C005F6D5206A71
:1013300010F4407021D0A98801F4407181421CD082
:10134000206A1F49012220F440700A6000220A60CE
:101350002062C00711D0FFF79DFE074641F2883892
:1013600008E000BFFFF796FEC11B414502D90320EC
:10137000BDE8F883206A8007F4D5206A696820F404
:101380004070084320621EB1E06920F08050E061A7
:101390002878800705D56068A96820F44040084394
:1013A00060602878C00605D56068E96820F4800090
:1013B000084360600020DBE700100240007000403E
:1013C000400442422DE9F047DFF83C8105460E46D5
:1013D000D8F8000000F00700B0420CD2D8F8001096
:1013E00021F007013143C8F80010D8F8000000F0E0
:1013F0000700B04263D12878444C800705D5606867
:10140000A96820F0F000084360602878C00745D044
:101410006868012816D02168022816D0890700299B
:101420004DDA616821F0030101436160FFF732FE8C
:101430006968074641F2883001290FD002298146A8
:1014400019D027E021688903E9E78901E7E700BFB0
:10145000FFF720FEC11B494501D918E081466068AD
:10146000C0F381000128F3D118E000BFFFF712FE9E
:10147000C11B49450BD86068C0F381000228F5D133
:101480000CE000BFFFF706FEC11B494502D903204F
:10149000BDE8F087606810F00C0FF3D1D8F80010A9
:1014A000404601F00701B1420BD9016821F0070164
:1014B00031430160006800F00700B04201D0012014
:1014C000E6E72878400705D56068E96820F4E06021
:1014D000084360602878000706D56068296920F411
:1014E000605040EAC100606000F03CF86168084A62
:1014F000C1F30311515CC840064908600020FFF7A2
:10150000E9FD0020C4E70000002002400010024076
:10151000F023000818000020014800687047000010
:10152000180000200448054900684968044AC1F3CE
:101530000221515CC8407047180000200010024092
:10154000002400080448054900684968044AC1F3BA
:10155000C221515CC84070471800002000100240B2
:101560000024000813A185B00FC98DE80F0015A055
:10157000154A00680490516801F00C00042804D05A
:10158000082804D0114805B070471148FBE7C1F3A3
:101590008343C9031DF8030009D5516804AAC1F3A8
:1015A0004041515C0A4A5043B0FBF1F0EBE7094976
:1015B0004843E8E702030405060708090A0B0C0D77
:1015C0000E0F1010010200000010024000127A00FD
:1015D00000366E0100093D002DE9F84F0446007801
:1015E000B94DC00748D06868C0F38100012807D012
:1015F0006868C0F38100022809D16868C00306D575
:101600002868800338D5606800286FD034E06068AF
:10161000B0F5803F0BD010B1B0F5A02F11D02868E5
:1016200020F480302860286820F4802002E02868B8
:1016300040F480302860606888B1FFF72BFD0646D3
:1016400009E0286840F480202860F0E7FFF722FDD9
:10165000801B642875D828688003F7D50CE0FFF755
:1016600019FD064605E000BFFFF714FD801B642846
:10167000F0D828688003F7D42078944E80074FF084
:1016800001094FF000083BD5686810F00C0F07D037
:101690006868C0F38100022809D16868C00306D4D5
:1016A0002868800714D5206901281FD110E020691F
:1016B000B0B1C6F80090FFF7EDFC074605E000BFAB
:1016C000FFF7E8FCC01B0228C4D828688007F7D5BC
:1016D0002868616920F0F80040EAC10028600FE046
:1016E000C6F80080FFF7D6FC074606E0E9E000BF39
:1016F000FFF7D0FCC01B022823D828688007F7D446
:10170000207800072CD57248A169D9B1C0F80090A3
:10171000FFF7C0FC074604E0FFF7BCFCC01B022833
:101720000FD8686A8007F7D56A484FF4FA51006805
:10173000B0FBF1F0009000BF0098411E0091FAD27A
:101740000EE080E0C0F80080FFF7A4FC074604E04C
:10175000FFF7A0FCC01B022875D8686A8007F7D481
:101760002078400760D5E8690027C00008D4E86900
:1017700040F08050E861E869012700F08050009057
:1017800055480168C90513D40168834641F4807146
:101790000160FFF77FFC824606E000BFFFF77AFC9E
:1017A000A0EB0A0064284ED8DBF80000C005F5D590
:1017B000E06801280AD008B1052813D0286A20F073
:1017C00001002862286A20F0040002E0286A40F044
:1017D00001002862E06841F2883B98B1FFF75AFCAB
:1017E00082460BE0286A40F004002862EEE700BF62
:1017F000FFF750FCA0EB0A0159455AD8286A800728
:10180000F6D50CE0FFF746FC824605E0FFF742FC08
:10181000A0EB0A0159454CD8286A8007F6D41FB1BD
:10182000E86920F08050E861E06988B36968C1F335
:101830008101022945D00228C6F8608004D0FFF754
:1018400029FC044638E034E0FFF724FC074604E0B6
:10185000FFF720FCC01B02282BD828688001F7D492
:10186000206AB0F5803F05D16868A16820F4003097
:1018700008436860D4E908010843696821F47411D9
:1018800008436860C6F86090FFF704FC044606E071
:1018900015E000BFFFF7FEFB001B022809D82868EF
:1018A0008001F7D50BE000BFFFF7F4FB001B022817
:1018B00002D90320BDE8F88F28688001F4D4002005
:1018C000F8E70120F6E70000001002400000424265
:1018D0008004424218000020007000404FF0E021D8
:1018E0000428086903D020F004000861704740F024
:1018F0000400FAE7704710B5401EB0F1807F01D3B5
:10190000012010BD4FF0E02460610F21601700F04E
:101910000BFA0020A06107202061002010BD10B547
:10192000FFF7E8FF10BD704770B502680446106805
:10193000D168536910F00F0F51D003F0010501F485
:10194000907635435DD0C20705D0CA0503D5E26B5A
:1019500042F00102E263420705D5DA0703D0E26BE9
:1019600042F00202E263820705D5DA0703D0E26B98
:1019700042F00402E263020705D5DA0703D0E26B06
:1019800042F00802E263E26B002A34D0800604D5FC
:10199000880602D5204600F06BFA20684069E16BAA
:1019A000C0F3801001F008010143204624D000F06C
:1019B00051FA2068416949061AD5416921F0400170
:1019C0004161606BA0B11B494163606BFFF732FA64
:1019D000002810D0606B416BBDE87040084783065B
:1019E0000FD58B060DD52046BDE8704000F040BAFB
:1019F0002046FFF798FF70BDFFF795FF0020E063DA
:101A000070BD030606D50B0604D52046BDE8704020
:101A100000F032BB4006F3D54806F1D5D168204628
:101A200021F04001D160202184F8391000F09EF8A7
:101A300070BD0000451E000870B5040004D094F885
:101A40003900002510B106E0012070BD84F838503F
:101A5000204600F023F8242084F839002068C1686B
:101A600021F40051C160204600F04EFA206801695F
:101A700021F4904101612068416921F02A0141610E
:101A80002068C16841F40051C160E563202084F8FA
:101A9000390084F83A00002070BD000010B50068DD
:101AA000184986B088422AD11748C16941F480217B
:101AB000C161C069154C00F4802004904FF480602F
:101AC0000090022001900320039069462046FFF712
:101AD000FDF90021E014CDE900010291694620469C
:101AE000FFF7F4F9002202212720FFF75FFB2720F0
:101AF000FFF750FB01220649064800F00DF806B03A
:101B000010BD00000048004000100240000C0140E1
:101B1000150000202800002090F83A30202B22D118
:101B2000F9B1F2B190F83830012B1CD08162828576
:101B3000C2850021C163222280F83A2080F8381043
:101B40000168CA6842F48072CA6001684A6942F05A
:101B500001024A610068C16841F02001C1600020B3
:101B6000704701207047022070477047704700009F
:101B7000034820210160802101601021016070472D
:101B80001008014070B50A4A002180252023141F47
:101B90001360060601D5256000E015604006000EC2
:101BA00023601360491CC9B20829F1D370BD00003D
:101BB00014080140FEE700003EB512480024104919
:101BC0008460C46044610160012505614FF46021B7
:101BD0004460C161FEF750FD18B143210AA000F036
:101BE0008AFA0820CDE90005694602940548FEF707
:101BF0004DFC002803D04D2103A000F07CFA3EBD2F
:101C000000240140EC0000202E2E2F5372632F6120
:101C100064632E63000000000E4810B50C4901609B
:101C20001021416000218160C160016141618161D9
:101C3000C161016241628162C162FEF7DFFF00287B
:101C400005D0BDE810404B2103A000F054BA10BDF0
:101C500000640040A80000202E2E2F5372632F63D3
:101C6000616E2E630000000030B5194885B08169AF
:101C700041F020018161816901F0200104918169B5
:101C800041F004018161816901F0040104918169DD
:101C900041F00801816180690E4D00F00800049058
:101CA0000022B0212846FFF7EFF901241020CDE9EA
:101CB0000004694628460394FFF708F9A020CDE9FF
:101CC0000004694628460394FFF700F905B030BDCB
:101CD00000100240000801400D4810B50B4901609A
:101CE0004FF4E1314160002181600C22C160C0E904
:101CF00004128161C161FFF79FFE002805D0BDE895
:101D00001040512103A000F0F6B910BD004800407A
:101D1000280000202E2E2F5372632F75736172746A
:101D20002E630000FEE770470907090E002806DA57
:101D300000F00F0000F1E02080F8141D704700F162
:101D4000E02080F8001470477047000030B5002391
:101D50005FF00A04B0FBF4F504FB1505B0FBF4F0EA
:101D600041F823505B1CDBB20028F3D1137030BD67
:101D7000704710B5FFF794F9BDE81040FFF7CFBDED
:101D800030B593B001204FF4A02100258DE8230049
:101D9000049002240004CDE90740800009906846C1
:101DA000FFF71AFC00B1FEE70AA90F2081E8310015
:101DB0004FF48060CDE90D0502210AA8FFF702FB70
:101DC00000B1FEE74FF4004011900F940FA8FFF709
:101DD00083FA00B1FEE7FFF79FFB4FF47A71B0FB87
:101DE000F1F0FFF788FD0420FFF778FD002211468F
:101DF000501EFFF7DBF913B030BD00000D4801683D
:101E000041F00101016041680B4A114041600168E5
:101E10000A4A11400160016821F480210160416893
:101E200021F4FE0141604FF41F0181600449C003A9
:101E300008607047001002400000FFF8FFFFF6FE48
:101E400008ED00E010B5406A0021C185C184FFF7AC
:101E50006AFD10BD0168CA6822F49072CA60016808
:101E60004A6922F001024A61202180F83A10704745
:101E700010B590F83A10222901D0022010BD8168D7
:101E8000B1F5805F11D00169002901681FD0496850
:101E900001F07F03816A4A1C82620B70C18D491E6A
:101EA0000904090CC18518D02BE00269816A002A57
:101EB0000268526805D0D2B20A80816A491C8162E8
:101EC000ECE7C2F308020A80816A891CF7E74A68D6
:101ED000816A4B1C83620A70E0E70168CA6822F0DD
:101EE0002002CA600168CA6822F48072CA60016870
:101EF0004A6922F001024A61202180F83A10FFF776
:101F000034FE002010BD00002DE9F04104460068B9
:101F10000169E26821F44051114301612169A0681F
:101F20000843616908432168CA6841F20C639A4317
:101F30000243CA6020684169A26921F440711143DB
:101F400041614C4920686425322688423CD1FFF724
:101F5000F9FA00EBC00101EB001061688900B0FBE9
:101F6000F1F7FFF7EFFA00EBC00101EB0010616839
:101F7000B0468900B0FBF1F0B0FBF5F06FF018014E
:101F8000484307EB800106EB0110B0FBF5F000F0D1
:101F9000F006FFF7D7FA00EBC00101EB0010616813
:101FA0008900B0FBF1F0B0FBF5F006EB0016FFF78F
:101FB000C9FA00EBC00101EB001061688900B0FBB9
:101FC000F1F7FFF7BFFA3BE0FFF7ACFA00EBC00117
:101FD00001EB001061688900B0FBF1F7FFF7A2FA8E
:101FE00000EBC00101EB00106168B0468900B0FB56
:101FF000F1F0B0FBF5F06FF01801484307EB8001FA
:1020000006EB0110B0FBF5F000F0F006FFF78AFADE
:1020100000EBC00101EB001061688900B0FBF1F03A
:10202000B0FBF5F006EB0016FFF77CFA00EBC00101
:1020300001EB001061688900B0FBF1F7FFF772FA5D
:1020400000EBC00101EB001061688900B0FBF1F00A
:10205000B0FBF5F06FF01801484307EB800108EB87
:102060000110B0FBF5F0216800F00F0030448860EB
:10207000BDE8F0810038014090F83910212901D0E5
:10208000022070478168B1F5805F016A0BD04A1C5D
:102090000262026809785160C18C491E0904090C6A
:1020A000C1840ED017E009880268C1F308015160AD
:1020B00001690029016A02D0491C0162ECE7891C10
:1020C000FBE70168CA6822F08002CA600068C16844
:1020D00041F04001C1600020704700000148FFF757
:1020E00023BC0000280000200148FEF76DBC000062
:1020F000A8000020FEE7FEE70FB4054B10B503A9CA
:10210000044A029800F018F810BC5DF814FB0000B7
:102110008D2200082400002002E008C8121F08C118
:10212000002AFAD170477047002001E001C1121F58
:10213000002AFBD1704700002DE9FF4F89B09B4674
:102140000446002506E025280BD05A460B999047F7
:10215000641C6D1C20780028F5D10DB02846BDE820
:10216000F08F0027B8460122474900E0074314F8E2
:10217000013F203B02FA03F00842F7D120782E28D5
:1021800019D114F8010F47F004072A280ED06FF078
:102190002F022078A0F1300109290CD808EB880122
:1021A00002EB410100EB0108641CF2E70A98641C91
:1021B00050F8048B0A9020780028CED0642808D0EC
:1021C000692806D075281ED05A460B9990476D1C79
:1021D00058E00A994FF00A0901C90A91002802DA69
:1021E00040422D2102E0390504D52B218DF8201025
:1021F000012103E0F90704D02021F7E78A4608AE61
:102200000DE00021FAE70A994FF00A0901C90A9185
:10221000F7E74946FDF798FF303106F8011D002821
:10222000F7D1ADEB060000F12009780701D44FF09B
:102230000108C84502DDA8EB090000E00020804647
:10224000002706E008A85A46C05D0B9990476D1C10
:102250007F1C5745F6DB04E030205A460B99904727
:102260006D1CB8F10001A8F10108F5DC05E016F8D5
:10227000010B5A460B9990476D1CB9F10001A9F169
:102280000109F4DC641C65E70928010004490A68B7
:102290005206FCD5024AC1B2121D116070470000FF
:1022A000004800402DE9F04F00258DB02E462F4606
:1022B000142105A8FDF73DFF14216846FDF739FFFD
:1022C000FEF7F6FEFFF75CFDFFF7CEFCFFF7A4FC80
:1022D000FFF702FDFFF770FCFFF74AFCDFF8E8901C
:1022E00061213AA089F80610752189F80210FFF7DC
:1022F00003FF4FF4FA684FF0200B6D1C45455FD18A
:10230000002506F19C040820FEF7A6F800EB8000EB
:10231000000107EB902AB42C02D8BAF1460F07D976
:1023200029490120491E08700DB00020BDE8F08F3A
:102330000AAA05A92046FFF709FD9DF828000128F3
:1023400019D002281CD0032823D02D2089F803009F
:1023500089F8040089F805000BAA69465046FFF782
:10236000F5FC9DF82C00012819D002281DD02D2045
:1023700089F8000016E05946484689F803B003E0A2
:10238000484689F803B008E00171059989F80510FD
:10239000E2E70799484689F803100699F4E789F8B7
:1023A00000B0009889F8010005E0019989F8001053
:1023B000009989F801105246214607A0FFF79CFEBC
:1023C0000148FDF7E3FF98E70D000020496E6974AE
:1023D000204F6B0D0A0000006375723A20256420BF
:1023E00041200920766F6C3A20256420560D0A00A2
:1023F00000000000000000000102030406070809B5
:10240000000000000102030428240008000000204E
:10241000280000001821000850240008280000208F
:10242000F80400002821000801000000100000004E
:10243000000000000020202020202020200000009C
:1024400000A24A040102040810204080000000009D
:04000005080000ED02
:00000001FF
