:020000040800F2
:1000000030050020D5000008C51F0008B51C0008F9
:1000100000000000000000000000000000000000E0
:100020000000000000000000000000000F20000899
:1000300000000000000000000D2000081120000852
:100040000501000805010008050100080501000878
:100050000501000805010008050100080501000868
:100060000501000805010008050100080501000858
:100070000501000805010008050100080501000848
:100080000501000800000000000000000501000854
:100090000000000005010008050100080501000836
:1000A0000000000005010008050100080501000826
:1000B00005010008000000007D0B00080501000894
:1000C0000348854600F08EFC004800476D2F00086D
:1000D000300500200C4880F308880C480168090EA0
:1000E0000B4A914205D10B480B4901600B480C4962
:1000F00001600C4880470C480047FEE7FEE7FEE73A
:10010000FEE7FEE7FEE700003005002004000000E7
:100110001F00000018100240010000000000014014
:100120000000000079200008C100000830B50B462F
:10013000014600202022012409E00D46D5409D42C1
:1001400005D31D469540491B254695404019154647
:10015000521E002DF1DC30BD70B50024254600286C
:1001600001DA01244042002901DA01254942FFF762
:10017000DDFFAC4200D04042002C00D0494270BDAF
:1001800010B5202A04DB0846203AD040002110BDDB
:100190000B46D340D0402024A21A91400843194670
:1001A00010BD0321001D401E037812021A43491E90
:1001B000F9D510467047F8B502464A40D40F4200C0
:1001C0004B0052085B089A4202D20246084611468A
:1001D0004A0023D0C30D4A00DDB2120EAD1A202D05
:1001E00035DA49020126490AF6058A19002C00D0A1
:1001F000524220214F1B1146B9402A411018C20D0E
:100200009A4221D0002C17D0012D08DCDA05801A83
:10021000D20F8019D207DBB200F0EBFAF8BDDA0595
:10022000801A012340001B06C01880185A4280180B
:10023000CA0F1043490007E04908C2071143DA0515
:10024000801A80194008801800F0CBFAF8BD6100D0
:100250000122511A001BF7E70122D2075140AAE7F9
:100260000122D2075040A6E7024670B54A40D30F9C
:10027000DB0740002DD04A002AD0010E140E0002E8
:1002800012020919400A520A8418E501044654432F
:10029000000A120A2E045043A4194219200CC54327
:1002A000AA18120C0125AD03521C521912047F39F1
:1002B000240400D0521C104301D44000491EC2B295
:1002C0000C06C0092018401C4008802A02D003E018
:1002D000002070BD40084000002900DA00201843CB
:1002E00070BD70B502464A40D50F40004A00ED0788
:1002F00040085208002814D0002A12D0C40DD30D93
:1003000041020120C0055202490A520AE41A0918A2
:1003100012187D34914201D3641C00E04900002C86
:1003200001DA002070BD0023914201D3891A0343F2
:10033000400849000028F7D100290AD0914202D193
:100340000121C90705E0914201D2012101E001210B
:10035000C943E005C018401900F043FA70BD4200DF
:1003600005D04200120E52428A4201DB0020704743
:10037000C905081870470000F0B507460846584000
:1003800087B0C00F049048000E4659004008490845
:10039000BC1A884105D2384631461E4617460B46E0
:1003A00002465800400810434CD0300D03904005E1
:1003B0005900400D490D0590401A0290402872DA0C
:1003C00018030121000B09050843019004980092CD
:1003D000002805D0019952420020884100920190E6
:1003E000029840210A1A0199009800F0D7F90546B1
:1003F0000C466B4607CB00F0E1F9C0197141039A36
:100400000E0D0023D71756401A467A40164344D0A3
:10041000049A002A2DD0029A012A039A15DC1205AB
:10042000C01A914101263605001C7141D20F059E6C
:10043000D2070093019202962A46234600F04BFA17
:1004400007B0F0BD38463146FAE71605224A0F4696
:10045000B218C01AB74101210905001C4F4100180C
:100460007F41114618187941E20F10436D1964411C
:1004700013E0E2076D0815436408C2071443039AAA
:1004800001261205C01A91413605001C7141CE07A4
:10049000400830434908C01851412A46234600F01D
:1004A0000DFACDE7FFE7049801224000C117121AA8
:1004B00000238B4104983146C417381AA141EEE756
:1004C00030B40124E407634030BC55E730B4012464
:1004D000E407614030BC4FE70000E0FFF0B51FB417
:1004E00088B00B990998002448400999C00F490029
:1004F00049080991C0070B990090490049080B91E0
:1005000009990898A64608431CD00B990A980843F5
:1005100018D0099801244000420D4800410D099867
:1005200024050003000B204309900B980003000BE7
:1005300020430B9050181C4940180022019014468B
:10054000104605E0002001460DB0F0BD032801DA99
:10055000034600E003239C46C11A0AAE0AE05F008E
:1005600008ADED5B4F00F75B7D430027AA187C4187
:10057000491C5B1E6145F2DD410004AB5A52210467
:10058000120C0A43240C401C0828DFDB019802905F
:100590000099704601910090059B049A079906986E
:1005A00000F099F9D0E700000DFCFFFFF0B50C4614
:1005B0005C4085B0E40FE40703944C000026640817
:1005C00059009446490802460296224321D06246C9
:1005D0000A431ED06200570D4A000E032303550D37
:1005E000012402462C492405781B1B0B360B4018AE
:1005F00023432643614600901C46501AB44103D35E
:100600000098401C009002E0921800985B4100287E
:1006100003DA0020014605B0F0BD002001210905E4
:100620000746864611E064461D46141BB54106D3B5
:100630006546521BB341744607430C43A646CD079B
:1006400040084908284392185B4105460D43EAD10A
:100650001046184313D06046194650407140084375
:1006600006D06046101AB34106D20122002306E0EC
:1006700000220123DB0702E00122D243531000983D
:1006800074460105381C6141029C039D00196941B3
:1006900000F014F9BFE70000FD03000010B50022D0
:1006A0009623114600F0A5F810BDC20F410040028C
:1006B0000123400ADB05D207090EC0187F2901DAA1
:1006C00000207047962903DC9623591AC84001E0A0
:1006D00096398840002AF4D040427047C20FD207B2
:1006E000400040080BD0C10D0723DB01C9184002B0
:1006F0000905400A1143C208400711437047002012
:1007000001467047CB0FDB07490010B54908024688
:100710000A4307D00A0D07240903E401090B121B41
:10072000002A01DC002010BDC900440F0C43C100A9
:10073000E018D205801800F054F810BDF0B51FB4D1
:100740000646002082B005464024019100901BE03F
:10075000019922460F463046FFF712FD049A059B89
:10076000801A994110D310461946224600F016F817
:10077000361A8F410197224601200021009F00F088
:100780000DF838184D4100902046641E0028DFDC2B
:10079000019B00982946324607B0F0BD10B5202ACB
:1007A00004DB0146203A9140002010BD91402023F7
:1007B0009C1A0346E3401943904010BD10B5202A0F
:1007C00006DBCB170846203A1041C1170B4306E061
:1007D0000B461341D0402024A21A914008431946E9
:1007E00010BD002904DA401C490001D14008400036
:1007F000704770B40024050C05D11024000402D108
:10080000002921D01124050E01D100020834050F62
:1008100001D10001241D850F01D18000A41C0028F6
:1008200001DB4000641C002908D020252E1B0D464A
:10083000F540A14000D001212943084301061B1BBC
:10084000000ADB1D02D5002070BC7047DB051818BC
:1008500080180029F8DA401C4900F5D170BC400826
:100860004000704770B5002801DC002070BD4100D9
:1008700040020126400AF605090E8019CA0701D177
:100880004000491E4D10002211463F353346CB40F3
:100890009B18D418844201D8001B1A464000491CFA
:1008A0001729F3DD5100814202D20021C94300E043
:1008B0000021E8058018FFF794FF70BD10B5002BEC
:1008C00008DA0024401C614192185B411A4301D1AF
:1008D0004008400010BDF0B51FB482B005460C00C2
:1008E00003D0084601F06AFD02E001F067FD203008
:1008F0000246009021462846FFF750FF049B059AC8
:1009000004460F4618431143084314D018461043B9
:100910001BD0009840210A1A18460599FFF730FCB1
:1009200005460E46009A05990498FFF737FF0843DD
:1009300005D0012004E02046394607B0F0BD002074
:10094000C11705430E432C43374300990E986305A6
:10095000401A7905E40A00220C43FD0A0A3002D548
:1009600000200146E9E70105101969410C9C0D9D25
:1009700000196941FFF7A2FFDFE700004A00090301
:100980000123090B1B0519430A4B10B5520D9A425E
:1009900002DA0020014610BD064B34339A4203DCD4
:1009A0009A1AFFF7EDFB10BD034BD218FFF7F6FEC6
:1009B00010BD0000FF030000CDFBFFFF10B50029B4
:1009C00004DB0124E40740428C412146002B04DB78
:1009D0001C460123DB075242A341994200D19042B9
:1009E00010BD0000064C0125064E05E0E36807CC6B
:1009F0002B430C3C98471034B442F7D3FFF764FB09
:100A0000443100086431000870B5002959D0826B68
:100A10000B011C46FF340568B1342D5904263540BE
:100A2000956005682D594ED0ED08556005682C5924
:100A3000A407E40FD4601C46FF340568B5342D5973
:100A40002D072D0F156105682C592404240ED4613F
:100A500011621C46FF340568B9342D5915750568B7
:100A60002D592D0A557505682D592D0C957505685C
:100A70002C59FF33240ED4750468BD33E458147622
:100A80000468E458240A54760468E458240C9476E4
:100A90000468E3581B0ED37620220368002915D082
:100AA0001C6914431C61026853695024A3435361B9
:100AB00002462032537F222B0FD0537F322B0CD093
:100AC00011E0426BA4E76D0D1560AFE7DC681443DD
:100AD000DC60026853690A24E8E703685C698F25D3
:100AE0002D02AC435C61122301240029517F06D002
:100AF000522913D0622913D0722906D112E042295B
:100B00000CD0622906D0722906D0547700F0BAFAC8
:100B1000002070BD322106E0522104E05377F5E752
:100B2000222100E042215177F0E7000070B5114C1E
:100B3000002322464032012514632560156B0E4CBC
:100B40006C60156BAB60156BEB60146B216106E09C
:100B50001C46C55C1434166B5B1C35559BB28B422E
:100B6000F6D304486421403000F0E2FA002800D0B7
:100B7000012070BD3C0000201413000010B5024895
:100B800000F0A8F810BD00007C00002010B5094856
:100B90000021416181610160416081600122C16089
:100BA000C261026201610E2141620146683000F0BB
:100BB00003F810BD14000020F0B50B7D01229A400F
:100BC0000368FF33FF3302331C683F252D02AC431B
:100BD0004D6A2D026D1C2C431C600368FF33FF33EC
:100BE0000233DC699443DC610924A401CB69251D2F
:100BF000002B1AD10368FF33FF330233DE689643BC
:100C0000DE608B898E881B04B6B24F693343066859
:100C1000FF003F19F3510B890E881B04B6B24F69D0
:100C200033430668FF007F19F351CB69012B1AD1BA
:100C30000368FF33FF330233DE681643DE600B8840
:100C40008E881B04B6B24F6933430668FF003C1917
:100C500033510B898C891B04A4B24E692343046869
:100C6000F600751963518B69002B036813D0FF33AD
:100C7000FF3302335C6814435C600B69002B03682C
:100C80000FD0FF33FF3302335C6914435C61096AA0
:100C900001290CD012E0FF33FF3302335C68944328
:100CA000EAE7FF33FF3302335C699443EEE7016800
:100CB000FF31FF310231CB691343CB610068FF3054
:100CC000FF30023001684908490001600020F0BD92
:100CD00070470000F8B5044600680026C168102778
:100CE000C943C906002905DB4169C943090701D485
:100CF0007E01C76020680169C943C90607D44169FC
:100D0000C943490603D4012189020E4307612168C2
:100D100048692546C043C0072035002840D18A686D
:100D20006948904307D08A686848904303D08A682E
:100D30006748904334D18868C043800707D58868E6
:100D4000C043800503D58868C043800320D44A6926
:100D50002046520852004A61697F122905D1036872
:100D600059698F22120291435961697F422908D043
:100D7000522908D0722908D00121697700F0AEFA13
:100D800009E0222202E0322200E062226A77F5E7DF
:100D90000120C0020643206881684E4A11438160E9
:100DA00020684169C943890706D4C068800703D019
:100DB00000212046FFF728FE20684169C943C90683
:100DC00006D40069800703D001212046FFF71CFEEE
:100DD000206C3043206420688169C943C9070BD166
:100DE0004169C943C90507D44169C943090403D40A
:100DF000216C0122114321648169C94389070BD405
:100E00004169C943890507D44169C943090403D429
:100E1000216C0222114321648169C9434A070421DC
:100E2000002A0ADB4269D243520506D44269D24302
:100E3000120402D4226C0A43226482695206520FC1
:100E400022D04269D24312051ED44269D243120411
:100E50001AD4836970221340402B2AD006DC102B51
:100E600009D0202B0AD0302B0BD11FE0502B23D0E0
:100E7000602B06D123E0236C082623E0236C3B4340
:100E80002364836993438361206C00280DD020681C
:100E900042680A43426001206877206841690E4A2F
:100EA000114041612046FFF713FFF8BD236C202657
:100EB00008E0236C402605E0236C802602E0236CCA
:100EC000FF2601363343DBE7010000040001000880
:100ED0000000011019050100A470FFFFF8B504001F
:100EE00006D025462035687F0026002802D005E080
:100EF0000120F8BD2E77204600F086F802206877A2
:100F000021680A6882430A6020680168012211434F
:100F1000016000F097FA074604E000F093FAC01B66
:100F20000A285ED820684068C007F6D0206841686B
:100F30000427C907002960D0A2698021012A02681C
:100F40003DD08A430260E0694021012820680268A0
:100F500037D08A430260206A202101282068026875
:100F600031D08A430260616A1020012921680A6831
:100F70002BD082430A60A16A0820012921680A68EF
:100F800025D082430A60E06A01282068016820D0E9
:100F9000B9430160E168A0686269084321691143AF
:100FA00008436168491E08432168C86120680168D8
:100FB00049084900016000F045FA009015E00A4335
:100FC000C0E70A43C6E70A43CCE70243D2E702433D
:100FD000D8E73943DDE700F035FA0099401A0A28CE
:100FE00003D9032068772E77F8BD20684068C007D2
:100FF000F1D120684068C00701D06F7778E7266498
:10100000012068770020F8BDF0B500681A4987B064
:1010100088422ED11948C269012149060A43C2619A
:10102000C069012408400590881300901220032510
:10103000042601AA71C26946800600F05FF9200308
:1010400000900227019702AA70C209206946C006D3
:1010500000F054F90A4800684169394341610022AF
:1010600011461E2000F04AFA1E2000F03DFAFFF75C
:101070008DFD07B0F0BD000000640040001002408C
:101080007C00002070B5164D0024286841690222BA
:1010900011434161686B016812A001F07FF9686B30
:1010A000416813A001F07AF9686B816813A001F020
:1010B00075F9686BC16814A001F070F9686B01697B
:1010C00014A001F06BF92046696B14300A5C2146CC
:1010D00013A001F063F9641C082CF4DB70BD000060
:1010E0007C000020537469643A25640D0A000000F6
:1010F000457869643A307825780D0A006964653A64
:1011000025640D0A000000007274723A25640D0A0D
:10111000000000006C656E3A25640D0A00000000B6
:1011200072786275665B25645D3A25640D0A00007D
:10113000F3B50446006883B081682546490120352F
:10114000002905DB8168090102D48168C9006FD5D7
:10115000297F01290AD001212977697F222908D016
:10116000322908D062290DD0122105E0022005B0F5
:10117000F0BD422100E0522169778168490103D521
:10118000002707E07221F7E78168090101D50127EF
:1011900000E002273E010096FF3681368159C907DB
:1011A000C90F8151206B216883688A59002B40D078
:1011B0001A43C3684068C00003431A438A51206B36
:1011C000017C0907090F016100982168FF30853013
:1011D0000A58120912010A5021680A58236B1B6928
:1011E0001A430A50206B01901530FEF7DAFF010216
:1011F00001982268007D01430098FF30893011502A
:10120000206B01901930FEF7CCFF01020198226893
:10121000007E01430098FF308D30115020688159C5
:1012200001221143815100F00DF90026009029E0C0
:1012300049E0C36800881A4340050243BEE70498AA
:10124000401C1FD00498002806D000F0FBF800993D
:10125000411A0498814215D903206877002F0AD0DB
:101260002068012F81680AD00122D20511438160D4
:101270002E7703207BE7206881688022F6E7012231
:10128000D203F3E7002F0FD02068012F81680FD021
:101290000F488843D3D1687F42280BD052280BD007
:1012A00072280ED0012008E0206881680948F0E724
:1012B0000948EEE7222000E0322068772E770020F0
:1012C00055E76220F9E70420687701204FE7000026
:1012D000000001100100000400010008704731B552
:1012E00000F0B0F8009C0546601C00D0641C00F0C3
:1012F000A9F8401BA042FAD338BD0000F8B500237E
:1013000089E001249C402A46A44622407ED04C68B5
:10131000022C01D0122C0CD1DC08A40027183C6A46
:101320005D07ED0E0F26AE40B4430E69AE40264376
:101330003E6205685E000324B4400F79A543BF07F1
:10134000BF0FB7402F4307604D68012D05D0022D18
:1013500003D0112D01D0122D0ED18568CF68A54381
:10136000B7402F43876047686546AF430D79ED0668
:10137000ED0F9D403D434560C568A5438C68B44072
:101380002C43C4604C68E40044D5264CA569012672
:101390003543A561A4699D0834400094224CAD00FA
:1013A0002F19BC689D072E0F0F25B540AC430925AA
:1013B000ED06A84201D100250AE01C4DA84201D14A
:1013C000012505E01A4DA84201D1022500E00525BE
:1013D000B5402543BD60174C25684E689543F6031C
:1013E00000D51543256065684E689543B60300D562
:1013F00015436560A5684E689543F60200D5154310
:10140000A560E5684E689543B60200E002E000D5AD
:101410001543E5605B1C0A681546DA4000D070E7AA
:10142000F8BD000000100240000001400004004828
:101430000008004800040140002A01D08161704783
:101440008162704701480068704700000800002072
:1014500002480168491C0160704700000800002034
:1014600010B506480168102211430160002000F009
:1014700007F800F017F8002010BD0000002002401F
:1014800010B5044600F0E8F87D21C900FEF74EFED5
:1014900000F036FB00222146501E00F02FF80020FD
:1014A00010BD000008B50E48816901221143816119
:1014B00080691040002200901146501F00F01EF875
:1014C00000221146901E00F019F800221146501E0D
:1014D00000F014F80348016810221143016008BDB0
:1014E0000010024000000140C106C90E01208840E2
:1014F000014908607047000000E100E010B500F00D
:1015000063FD10BDF8B505464E480E460068C0079D
:10151000C00FB0420AD24B48016849084900314324
:1015200001600068C007C00FB04270D12878464CF7
:10153000800705D56068F0218843A968084360608A
:101540002878C00753D06868012817D0022818D01F
:10155000032819D021688907002958DA61688908A9
:10156000890001436160FFF76DFF69680746012943
:1015700013D002291DD0032927D034E02168890324
:10158000EAE721688901E7E7616BC903E4E7FFF750
:1015900059FFC11B2D48814223D860680007800F86
:1015A0000128F4D123E0FFF74DFFC11B27488142FA
:1015B00017D860680007800F0228F4D117E0FFF702
:1015C00041FFC11B214881420BD860680007800F92
:1015D0000328F4D10BE0FFF735FFC11B1B48814204
:1015E00001D90320F8BD60680007800FF3D11548CA
:1015F0000168C907C90FB1420BD901684908490000
:10160000314301600068C007C00FB04201D0012023
:10161000F8BD2878400706D560680721090288438D
:10162000E9680843606000F02DF86168084A09061F
:10163000090F515CC840074908600020FFF720FFF0
:101640000020F8BD00200240001002408813000076
:101650002C31000804000020014800687047000099
:10166000040000200448054900684968044A490507
:10167000490F515CC8407047040000200010024030
:101680003C31000830B516A30FCB89B06C460FC4AF
:1016900017A30FCB0FC41A494A680C201446044004
:1016A0001848042C05D0184B082C04D00C2C00D161
:1016B000184609B030BD9402240F6D462C5DC96AEE
:1016C00004AD0907090FD203695C920F022A02D008
:1016D000032A00D11846FEF729FD6043E9E7000020
:1016E00002030405060708090A0B0C0D0E0F101063
:1016F0000102030405060708090A0B0C0D0E0F1062
:101700000010024000127A00006CDC02FEB50446B4
:101710000078F04EF04DC00748D068680007800F91
:1017200001281FD068680007800F022804D168686C
:10173000C003800F022815D06168012919D001204B
:101740008004002901D0052917D02968B1432960F8
:10175000296881432960606800281BD0FFF772FE6A
:10176000074613E02868800320D56068002876D0FB
:101770001CE0286830432860EDE7296801432960B0
:10178000F7E7FFF75FFEC01B642869D8286880036D
:10179000F7D50BE0FFF756FE074604E0FFF752FED1
:1017A000C01B6428F1D828688003F7D4207880070C
:1017B0003ED568680007800F14D068680007800F66
:1017C000022804D16868C003800F01280AD0E068AD
:1017D000002828681DD0012108432860FFF732FE49
:1017E00007460BE0286880070BD5E068012836D152
:1017F00007E0FFF727FEC01B0228C6D8286880072D
:10180000F7D52868F82188432169C9000843286072
:101810000EE0400840002860FFF714FE074604E091
:10182000FFF710FEC01B0228AFD828688007F7D446
:101830002078000724D5E0690028686A11D00121CA
:1018400008436862FFF7FEFD074604E0FFF7FAFD74
:10185000C01B022899D8686A8007F7D510E036E1E6
:10186000D1E0400840006862FFF7ECFD074604E065
:10187000FFF7E8FDC01B022887D8686A8007F7D405
:10188000207804274007002861DA00200190E869E9
:10189000C00008D4E969B8060143E961E96901407B
:1018A0000120009101908D480168C90511D401689B
:1018B000821511430160FFF7C5FD009005E0FFF7B9
:1018C000C1FD0099401A642897D884480068C00573
:1018D000F5D5A06801280AD0002801D0052811D02C
:1018E000286A400840002862286AB84302E0286A53
:1018F000012108432862A068002812D0FFF7A2FD4A
:1019000000900AE0286A38432862F0E7FFF79AFD62
:101910000099411A7248814275D8286A8007F5D526
:101920000DE0FFF78FFD009006E0FFF78BFD0099BB
:10193000411A6B48814266D8286A8007F5D401981D
:10194000002804D0E969012000078143E96120787B
:10195000C00635D5606901280CD0401D686B24D0C5
:1019600038436863686B400840006863FFF76AFDAE
:10197000074622E0686B38436863686B01210843BF
:101980006863FFF75FFD074604E0FFF75BFDC01BE0
:10199000022838D8686B8007F7D5686BF821884330
:1019A000A169C900084368630AE0B8436863F4E7C3
:1019B000FFF748FDC01B022825D8686B8007F7D4C5
:1019C0002078800637D568680007800F032813D079
:1019D00068680007800F022804D16868C003800F80
:1019E000032809D0206A0028686B16D0304368634A
:1019F000FFF728FD06460CE0686BC0031BD5206A84
:101A0000012864D117E05BE0FFF71CFD801B022872
:101A100056D8686BC003F7D50DE0B0436863FFF795
:101A200011FD064604E0FFF70DFD801B022847D894
:101A3000686BC003F7D4606A002846D0696809075C
:101A4000890F022943D0012636060228286805D0CE
:101A5000B0432860FFF7F6FC044633E0B04328604B
:101A6000FFF7F0FC074604E0FFF7ECFCC01B022880
:101A700026D828688001F7D4E86A216B00090001A4
:101A80000843E862A16AE06A084369687B22D203DE
:101A9000914308436860286830432860FFF7D2FC10
:101AA000044604E0FFF7CEFC001B022808D8286893
:101AB0008001F7D509E0FFF7C5FC001B022801D91A
:101AC0000320FEBD28688001F5D40020FEBD012062
:101AD000FEBD000000000100001002400070004048
:101AE00088130000042204490428086902D09043A6
:101AF000086170471043FBE700E000E0704700001A
:101B0000094910B5401E884201D9012010BD074C7B
:101B100060610321081F00F057FA0020A061072030
:101B20002061002010BD0000FFFFFF0000E000E08A
:101B300010B5FFF7E3FF10BD70B5040005D02546D2
:101B40006035687A002802D006E0012070BD0020D0
:101B50002872204600F026F8242068722068016868
:101B6000490849000160204600F04EFB0128EDD0F5
:101B7000606A002802D0204600F0ACFA2068416874
:101B80000922D20291434160206881682A22914350
:101B9000816020680168012211430160204600F045
:101BA000FFFA70BD00B500680E4987B0884216D1B3
:101BB0000D48C269012149040A43C261C069084055
:101BC00005900C2000900220019001210320039039
:101BD0000291049109206946C006FFF78FFB07B008
:101BE00000BD00000044004000100240FFB5064662
:101BF00004466036707A83B00D46202858D1002DF7
:101C00000CD00598002809D00120A168000381426A
:101C100007D12069002804D1E80702D0012007B0CD
:101C2000F0BD307A012843D0012030720020E066F8
:101C300021207072FFF706FC019027464037059877
:101C400038820598788218E0788A401E7882069853
:101C50000090002280212046019B00F06DFB0028AF
:101C600018D10120A1680003814202D12069002817
:101C700012D02168287808856D1C788A0028E3D165
:101C800006980090002240212046019B00F054FB62
:101C9000002808D00320C2E728882168C005C00DAD
:101CA0000885AD1CE9E72020707200203072B6E78D
:101CB0000220B4E7FEE7000000B5084A0223936261
:101CC00000F0EAF80120906200F0E6F8936100F07D
:101CD000E3F8936200F0E0F800BD00000014004853
:101CE00000B585B0112103200191012100900291DE
:101CF000039069460248FFF701FB05B000BD0000F4
:101D00000014004870B5134D042400F077F8124E0B
:101D1000B04201D1304670BD512000F051F800F0C2
:101D2000A1F8B04202D100F087F8F3E700F02AF8FA
:101D30002870012C0AD0FFF7BFFF641E6D1C24061B
:101D4000240EF3D100F078F8002070BD00F006F802
:101D5000F3E7000000000020FFFF000000B5084A84
:101D60000223936200F098F80120906100F094F84B
:101D7000936100F091F8936200F08EF800BD0000CE
:101D80000014004870B5082300220C4D0126AE61F6
:101D900002240BE05006020EAC6200F07DF8AC614C
:101DA00000F07AF82869C00700D0324318465B1E5D
:101DB000DBB20028EED1AC62104670BD00140048C2
:101DC00070B508230126054602240B4A0DE000F0F9
:101DD00063F8280601D5966100E096626806050E54
:101DE00000F05AF8946100F057F818465B1EDBB219
:101DF00000289462EBD170BD0014004830B50C4A45
:101E0000012494610223936100F046F81069094DA2
:101E1000C00705D0946200F03FF81069C00701D0F8
:101E2000284630BD936200F037F8002030BD000036
:101E300000140048FFFF000010B5094A0223936216
:101E400000F02AF80124946200F026F8936100F073
:101E500023F8946100F020F8936200F01DF810BDA3
:101E60000014004800B50A4B02229A6200F014F8F0
:101E70000120986100F010F89A6100F00DF81869DF
:101E80009A62C00701D0034800BD002000BD0000D9
:101E900000140048FFFF000032200146401EC0B27F
:101EA0000029FAD17047000010B5124810490160AE
:101EB0000146403901631C31416301214160002129
:101EC0000722816012040261C1608161C161016207
:101ED00003224162520581624261C162FEF7FEFF48
:101EE000002803D04A2104A000F057FA10BD0000DA
:101EF000006400407C0000202E2E2F5372632F635D
:101F0000616E2E630000000070B5194886B042690A
:101F1000012189050A43426142690A4005924269EA
:101F200049110A4342614069124E0840059001225E
:101F300003213046FFF780FA032501240194009520
:101F40006946304603950294FFF7D8F90122032130
:101F50003046FFF771FA6802009009200194694643
:101F600003950294C006FFF7C9F906B070BD0000E2
:101F7000001002400014004810B50D480B490160E4
:101F8000E1214902416000218160C16001618161FC
:101F9000C1610C22016242614162FFF7CDFD002860
:101FA00003D0442103A000F0F8F910BD0044004024
:101FB000C00000202E2E2F5372632F757361727430
:101FC0002E630000704700008307FF22DB0E9A405B
:101FD0008907090E994000280BDA0007000F08381E
:101FE000830808489B001818C36993430B43C361D7
:101FF0007047830804489B001B18186890430843E7
:102000001860704700ED00E000E400E070477047A2
:1020100010B5FFF71DFAFFF78BFD10BD10B592B09C
:1020200002200090012003900024102009940490C5
:102030006846FFF76BFB002800D0FEE707200D90F5
:102040000E940F94002110940DA8FFF75BFA00285E
:1020500000D0FEE7FFF700FB7D21C900FEF766F820
:10206000FFF74EFD0420FFF73DFD00221146501EF4
:10207000FFF744FA12B010BD134801680122114362
:1020800001604168114A114041600168104A1140E5
:1020900001600168012292049143016041683F227E
:1020A000120491434160C16A09090901C162016BCF
:1020B000FF22D43291430163416B490849004163D7
:1020C0000021816070470000001002400CB8FF083A
:1020D000FFFFF6FE10B5818CC90707D001684A687A
:1020E00001235B049A43836A1A434A60818C8907FF
:1020F00007D501684A6801231B049A43C36A1A433F
:102100004A60818C490707D501684A6801239B040E
:102110009A43036B1A434A60818C090707D501680B
:102120004A680123DB039A43436B1A434A60818C5C
:10213000C90607D50268916801231B039943836B85
:1021400019439160818C890607D501688A6801234B
:102150005B039A43C36B1A438A60818C490612D58C
:1021600003685A6801210905046C8A4322435A60B6
:10217000026C8A4207D10268516803235B059943C8
:10218000436C19435160818C090607D501684A6880
:102190000123DB04806C9A4302434A6010BD0000B7
:1021A000F8B500260446C666FFF74CF90546144903
:1021B000206888421DD10068124F000709D501210F
:1021C0002B46002249052046009700F0B5F800286C
:1021D0000DD12068006840070BD501212B46002255
:1021E00089052046009700F0A7F8002801D00320B9
:1021F000F8BD202060346072A07226720020F8BD05
:1022000000380140FFFFFF01F8B504462369A268CA
:10221000E5691A43636910202B43002125681A439E
:102220002B680E463E4F3B4013432B6023685A6891
:1022300003252D03AA43E5682A435A60236AA2694D
:1022400025681A43AB680B273F02BB431343AB60BF
:10225000344A2568954210D1334A126B9207920F87
:102260000ED0012A05D0022A05D0032A09D1022066
:1022700007E0042005E0082003E02C4A954200D145
:1022800000200122E369D203934224D100280CD01C
:1022900002280DD0042813D0082817D001260A09D7
:1022A00012010807400F10432FE0FFF7DBF909E0A8
:1022B00061681F4A48088018FDF738FF81B2EEE7D1
:1022C000FFF7E0F9616840004A08F4E7616801221D
:1022D00048081204EFE7002808D0022809D0042893
:1022E0000BD0082814D001263046F8BDFFF7BAF904
:1022F00005E061680F4A48080CE0FFF7C3F9616820
:102300004A088018FDF712FF80B22168C860EBE729
:10231000616848088018FDF709FF80B2E860E3E7CC
:10232000F369FFEF00380140001002400044004014
:102330000024F40000127A00FFB581B017460E4663
:1023400004460A9D1DE0681C1BD0002D05D0FFF738
:1023500079F80499401AA84213D920680168FF222D
:10236000A132914301602068816849084900816079
:10237000202060346072A07200202072032005B01B
:10238000F0BD2068C1693046884304D00020B842BF
:10239000D9D00020F3E70120F9E7FEE70FB410B52C
:1023A00003A9044B044A029800F0E0F810BC08BCF2
:1023B00004B018478D2D00080C0000202021020CCD
:1023C00001D010211046020A01D010460839020936
:1023D00001D01046091F820801D01046891E42080C
:1023E00001D0881E7047081A704702E008C8121F03
:1023F00008C1002AFAD170477047002001E001C1EE
:10240000121F002AFBD17047014908607047000085
:1024100010000020F0B51FB484B007980699020D93
:10242000014314D04A484B491018484305140F98EB
:1024300001280E981CD0281A401C0024464E4749FB
:10244000009401910290002814DA474227E00F9887
:10245000012443A3012808D0002104980F9A846026
:102460000360C260416009B0F0BD0E98C143F4E75B
:102470004042E2E7074612E0F80707D0224633461B
:1024800001990098FEF72AF8019100902246334600
:1024900010461946FEF722F804460E467F10002F1C
:1024A000EAD10298019B0028009A0799069802DA5F
:1024B000FEF714F801E0FEF779F804460E46002214
:1024C000284BFEF77BFA03D80020C043014607E003
:1024D0000022254B20463146FDF74EFFFEF74EFA0F
:1024E000102409E0002C0ADB0A220023FEF726F95B
:1024F000059B30321A55641E02460A43F2D111225E
:10250000641C059B121B1C190F9B012B03D001237C
:1025100008430ED10AE0084304D011200E90002099
:102520000F9084E70E98151A6D1E0BE00E988242EC
:1025300002DD00236D1C03E0824201DA00236D1EE0
:10254000002BEED004980F998260C16030C08AE7FA
:1025500001FCFFFF104D0000000024400000F03F90
:10256000300000000000F0430000E03FFFB597B0EE
:102570000646002518E2252877D100242746FD4984
:10258000049400E00443761C32780120203A904005
:102590000842F7D130782A280ED00222307801463E
:1025A0003039092916D804990A235943303940187B
:1025B0001443761C0490F1E7189802C8049118900F
:1025C000002904DA01204003044348420490022019
:1025D0000443761C30782E2814D1042004437078EC
:1025E000761C2A2809D11898761C80C8189009E012
:1025F0000A214F43303FC719761C307801463039E5
:102600000929F5D930786C2810D006DC4C281AD06E
:1026100068280ED06A2817D104E0742813D07A28CD
:1026200012D110E00120400504430CE0012109050E
:1026300001E0032109050C437178814203D1012097
:1026400000052418761C761C3078119066280BD073
:1026500013DC58287DD009DC00287BD04528F6D033
:102660004628F4D047281AD1A5E118E0632835D0D0
:10267000642870D0652812D19DE170286CD008DCE8
:102680006728F1D069287BD06E280DD06F2806D13D
:10269000BAE073282ED0752871D0782859D01A9AAC
:1026A000199990476D1C7EE16002400F022809D005
:1026B00003280DD00428189801680DD00D60001D66
:1026C000189070E11898EA1701680D604A60F6E703
:1026D000189801680D80F2E70D70F0E718986A46C7
:1026E00001781172001D18900020507202A800900D
:1026F000012005E0189802C8189000200091C043FE
:1027000061070DD5002101E00199491C0191B942F1
:1027100012DA8142F8DB009A515C0029F4D10BE017
:10272000002101E00199491C01918142FADB019AE3
:102730000099895C0029F5D1019904981A9B471AE0
:1027400021463846199A00F097FA01994019451820
:102750000BE04FE02CE113E04EE000980099007888
:10276000491C00911A9A199990470198401E0190AE
:10277000401CF2D1214638461A9B199A10E137E0E5
:102780000A200021009001916002410F022907D028
:10279000189A01CA1892C2179446032908D00AE071
:1027A0001898C01DC108C90005C91891944607E0D2
:1027B00000B2C2179446042902D140B2C1178C4618
:1027C00000226146944506DA0A46002140429141C2
:1027D0008C462D2102E0210504D52B216A46117378
:1027E000012103E0E10701D02021F7E7029155E044
:1027F0000A200AE0102008E01020009000210420A8
:1028000004430191082703E0082000210191009072
:102810006002410F022907D0189A01CA18920022BB
:102820009446032908D008E01898C01DC108C900C3
:1028300005C91891944603E080B2042900D1C0B2C2
:1028400000210291210729D51199702906D0009AFB
:102850001021019B4A401A4305D00EE040216A46F0
:102860001173012108E06146014306D030216A4618
:1028700011731199517302210291009A0821019B51
:102880004A401A430AD16146014301D1610705D587
:1028900030216A46117301217F1E02911199582936
:1028A00004D035A10E910DA90D910DE037A1F9E7E6
:1028B0006146019B009AFDF741FF0E9B8C469B5C95
:1028C0000D9A521E0D92137061460143F0D10D987E
:1028D00005A9081A20300190600703D501200004E3
:1028E000844300E001270198874201DD381A00E0A7
:1028F0000020019900904118029809180498401A84
:102900000490E00306D421461A9B199A049800F01B
:10291000B3F94519002706E003A81A9AC05D199972
:1029200090476D1C7F1C02988742F5DBE0030CD5B5
:1029300021461A9B199A049800F09EF9451904E063
:102940001A9A3020199990476D1C0099481E0090E2
:102950000029F5DC08E00D980D990078491C0D91CF
:102960001A9A199990476D1C0199481E01900029E7
:10297000F1DC63E109280100303132333435363778
:1029800038396162636465660000000030313233BB
:10299000343536373839414243444546000000005B
:1029A00000F05AF94519761C3078002800D0E2E58D
:1029B00028461BB0F0BD600700D406271898C01D3C
:1029C000C108C90048680A680831C30FDB071891BD
:1029D000190001D09CA108E0210501D59BA104E0CC
:1029E000E10701D09AA100E09AA1430011985B0889
:1029F000109165280CD006DC452809D046281DD04A
:102A0000472841D141E0662818D067283CD13CE0F6
:102A10000021112F01DB112000E0781C01910090B2
:102A200008A911A8FFF7F6FC139905910021119A46
:102A300015927F1C12980197009150E00120C00769
:102A400003900120019008A9009711A8FFF7E2FC6C
:102A5000139A149905920022119B009212981593D3
:102A6000059A0192002901D0104602E0791C401815
:102A70000190381A01D5019804E04042401E0090B0
:102A8000781C0190C01B029043E0012F00DA01275F
:102A90000021112F01DD112000E038460191009046
:102AA00008A911A8FFF7B6FC13990591119A002106
:102AB000129815920091019721070CD40599B942FB
:102AC00001DB019900E00191012904DD159A491EFD
:102AD000515C302906D0B84201DA011D05DA012126
:102AE000029115E00199491EEDE7002805DC0099E7
:102AF000411800910199091A03E0019A411C914281
:102B000000DD01910099401A401C02900120C0078D
:102B10000390200706D402990198814202DB00202D
:102B2000C043029000206946C87707AF012103988F
:102B30000337C907884224D0022011902B2012901D
:102B4000039800280CDA404203902D20129007E0F1
:102B50000A210398FDF7EAFA30317F1E039039709D
:102B60001199481E11900029F2DC03980028EFD13A
:102B7000791E129808703078202108404530BF1E19
:102B8000387006A8C01BC01D03901098007800285C
:102B900000D00120019941180298C0170918039824
:102BA00009180498401A401E0490E00306D42146F8
:102BB0001A9B199A049800F05FF84519109800784C
:102BC000002803D01A9A199990476D1CE00324D568
:102BD00021461A9B199A049800F04EF845191CE0FA
:102BE0000098002807DB00990598884203DD1598B6
:102BF000405C199901E0199930201A9A9047009881
:102C00006D1C401C00900298401E0290002804D1C8
:102C10001A9A2E20199990476D1C0199481E01900F
:102C20000029DDDC05E038781A9A7F1C1999904755
:102C30006D1C0399481E03900029F4DC21461A9B61
:102C4000199A0498ACE600002D0000002B0000004B
:102C50002000000000000000F8B5044600251E46D4
:102C60001746880404D405E039462020B0476D1C7F
:102C7000641EF9D52846F8BDFFB50446002581B08D
:102C80001E46C80301D5302700E02027880404D55C
:102C900005E038460399B0476D1C641EF9D52846F7
:102CA00005B0F0BD70B50121C905124C124D884226
:102CB0000DDB0121FDF753FBFDF710FD22462B46EE
:102CC000FDF774FCFDF71EFD00F01AFA70BD400020
:102CD00040080121FDF743FBFDF700FD22462B468E
:102CE000FDF764FCFDF70EFD00F00AFA0121C907AB
:102CF000484070BDF6285C8FC2F5F23F10B504461F
:102D0000104600F0C5F8FDF7E9FC02460B460748FF
:102D10000749FDF74BFCFDF7F5FC00F0F1F9214602
:102D2000FDF7A2FA0349FDF797FA10BDF6285C8F6C
:102D3000C2F5F23F0000204110B5FDF7AFFC054998
:102D4000FDF792FA0449FDF7CCFA0449FDF784FA3D
:102D500010BD00000000484300E0FF44000048426E
:102D600010B5FDF79BFC0749FDF776FA0121FDF749
:102D7000F6FA0549FDF7B5FA7F21C905FDF770FAA6
:102D800010BD00009AC9CC449AC94C4613B5044BF7
:102D9000012269460348FEF729FF00981CBD000088
:102DA000FFFF0000C0000020F7B584B00024012020
:102DB000039016460D46049F0092104607E03349E3
:102DC0003846FDF751FA07460098401E009000284B
:102DD000F5DC3846FDF769FC002806DA404201219F
:102DE000049FC9074F40002103912E2100281ED1C6
:102DF000002E08DD0024302001E02855641CB44278
:102E0000FBDB2955641C302028550398641C0028DE
:102E100023D12D201BE0B44203D1002E01DD2E2151
:102E200003E00A21FDF798F930312955641C002888
:102E3000F1DC3020B44202DA2855641CFAE7B442CF
:102E400008D12E2129550399641C002908D0285542
:102E5000641C02E00399002902D0002028550EE0EE
:102E60007F21C9058F42D4DA2E212955641C2855AB
:102E7000641CCEE7295C2A5D2A542955401C641E37
:102E8000A042F7DB012007B0F0BD000000002041A8
:102E900010B5FDF723FC084A084BFDF76DFA002238
:102EA000074BFDF71BFB02460B4600200549FDF7CB
:102EB0007DFBFDF727FC10BD6666666666127140F5
:102EC00000003D4000BAC340F3B5044622CC83B0B5
:102ED0002846083CFDF7C8F9294601900846FDF749
:102EE000C3F96169FDF7C0F9E168FDF764F9009085
:102EF000A7683946FDF7B8F905463946FDF7B4F934
:102F00002169FDF758F901462846FDF7EAF9A06165
:102F1000064638460199FDF7A7F90499FDF7A0F98F
:102F20003146FDF7A1F90199FDF745F90546206005
:102F300039463046FDF798F97F21C905FDF790F92C
:102F40000099FDF791F96061284605B0F0BD0000D9
:102F5000426101607F21C905416081603F2109060E
:102F6000C1600149016170470000484292B00024ED
:102F7000FEF776FAFFF752F8FEF7C6FFFEF794FF6A
:102F8000FEF7FAFFFEF7ACFE0022114607A8FFF796
:102F9000DFFF35A0FFF702FAFEF7B4FE00280DD0E0
:102FA0003549401806D03549C84201D134A002E065
:102FB00037A000E03AA0FFF7F1F94BE03C4D69780B
:102FC000287808318840FFF7CBFE0646A878C00075
:102FD000FFF7B2FE0290FFF75BFF07463046FDF7B2
:102FE0007DFB344A344BFDF779FA0E460546FDF772
:102FF00089FBFFF757FE3A463049FFF77FFE074649
:10300000014607A8FFF760FF06903846FDF766FB0C
:10301000009001910298FDF761FB07460291069826
:10302000FDF75CFB0B460099019A04910592029909
:1030300003916946E0C1024621A0FFF7AFF90222E1
:103040000EA90698FFF7B0FE002803D008210EA8AD
:10305000FDF76CFD641CE4B26420FEF740F90A2C15
:103060009AD9002498E70000B3F5CABCBBAFCDEAFB
:10307000B3C96F6B0D0A00000100FFFFFFFFE0FF07
:103080004932435F54494D454F55540D0A000000E5
:103090004932435F4F54485F4552520D0A000000C9
:1030A0004932435F544D5F4552520D0A0000000003
:1030B000000000201283C0CAC1EEBA4000D01D46F5
:1030C0004B616C6D616E3A2009252E336620092014
:1030D000252E336620506120092054656D7065727D
:1030E00061747572653A20252E336620092053706D
:1030F0006565643A200920252E33660D0A0000001C
:1031000070B50546FDF7AEFB41000446FF204908B7
:10311000C005411AC90F07D069004908401AC00FFD
:1031200002D10120FFF770F9204670BD00000000B9
:103130000000000001020304060708090000000067
:1031400001020304643100080000002014000000A4
:10315000EA23000878310008140000201C05000054
:10316000FA2300080000000000127A0000000000AE
:08317000000000000000000057
:04000005080000C12E
:00000001FF
