:020000040800F2
:10000000400600209D010008071F00086D1C000825
:10001000051F0008A10800086D2800080000000066
:100020000000000000000000000000002B1F00087E
:10003000A308000800000000291F00082D1F000869
:10004000B7010008B7010008B7010008B7010008B0
:10005000B7010008B7010008A5080008B7010008AB
:10006000B7010008B7010008B7010008B701000890
:10007000B7010008B7010008B7010008B701000880
:10008000B7010008B7010008B7010008B701000870
:10009000B7010008B7010008B7010008B701000860
:1000A000B7010008B7010008B7010008B701000850
:1000B000B701000831200008B7010008B7010008A7
:1000C000B7010008B7010008B7010008B701000830
:1000D000B701000829280008B7010008B701000887
:1000E000B7010008B7010008B7010008B701000810
:1000F000B7010008B7010008B7010008B701000800
:10010000B7010008B701000885200008B701000802
:10011000B7010008B7010008B7010008B7010008DF
:10012000B7010008B7010008B7010008B7010008CF
:10013000B7010008B7010008B7010008B7010008BF
:10014000B7010008B7010008B7010008B7010008AF
:10015000B7010008B7010008B7010008B70100089F
:10016000B7010008B7010008B7010008B70100088F
:10017000B7010008B7010008B7010008000000003F
:10018000B7010008B7010008DFF80CD000F076FBDB
:10019000004800472D2C00084006002006488047F4
:1001A00006480047FEE7FEE7FEE7FEE7FEE7FEE75C
:1001B000FEE7FEE7FEE7FEE7DD1F00088901000815
:1001C0002DE9F05F0546002092469B46884606468C
:1001D000814640241BE0284641464746224600F01F
:1001E00045FA53465A46C01A914110D31146184653
:1001F000224600F02CFA2D1A67EB01084F462246E2
:100200000120002100F023FA17EB00094E41201EC7
:10021000A4F10104DFDC484631462A464346BDE8E6
:10022000F09FD2B201E000F8012B491EFBD27047CB
:100230000022F6E710B513460A4604461946FFF7B2
:10024000F0FF204610BD2DE9FE4F804681EA0300F5
:10025000C00F0C46009021F0004123F00045B8EBA0
:100260000200A94105D24046214690461C460B4655
:10027000024623F00040104347D0270DC7F30A0081
:10028000C3F30A510290401A019040286BDAC3F37D
:10029000130040F4801B0098924620B10023D2EB5B
:1002A000030A63EB0B0B01985946C0F1400250461C
:1002B00000F0CDF906460D4650465946019A00F029
:1002C000E5F910EB08006141002487EA115284EA45
:1002D000E7731A4340D0009A62B3019A012A4FEAA9
:1002E000075215DC001B61EB02014FF0004202EAED
:1002F0000752CDE90042001C41F5801132462B46E1
:1003000000F01CFA03B0BDE8F08F40462146F9E743
:10031000001B61EB0201001C41F5801300185B41DA
:100320002018A2F5001747EB030140EAD570B61973
:100330006D4111E06D084FEA360645EAC0754FEA97
:100340000752001B61EB0201001C41F580114908B6
:100350004FEA30000019514132462B4603B0BDE848
:10036000F04F00F0DCB90098012240000023D0EBF0
:10037000020263EBE073009821464FEAE074B8EBA9
:10038000000061EB0401E9E783F000435BE781F0E3
:10039000004158E72DE9FE4F81EA030404F00044D0
:1003A00021F0004100944FF0000B23F0004350EA8D
:1003B00001045ED052EA03045BD0C3F30A54C1F3D4
:1003C0000A552C44A4F2F3340194A0FB0254C1F367
:1003D000130141F48011C3F3130343F4801301FBB1
:1003E000024400FB034E840A970A44EA815447EA18
:1003F0008357A4FB076802958D0A05FB07854FEA22
:10040000932C04FB0C542705029D4FEA065847EA3B
:100410001637B5EB08056EEB070C870E920E47EA10
:10042000811742EA8312A7FB0201B6EB0B0164EBD2
:1004300000042B0D43EA0C335E1844EB1C50DA46E3
:100440005146E7FB0201C5F313044FEA0B3343EABD
:1004500014534FEA0432019C43EA0603A4F10C044E
:100460000294009CCDE900B400F068F903B0BDE847
:10047000F08F00200146F9E72DE9F04D81EA0304F1
:1004800004F0004B21F0004514464FF0000A23F021
:10049000004150EA050220D054EA01021DD0C5F304
:1004A0000A570246C5F31303C1F31300C1F30A56FA
:1004B00040F4801543F48013A7EB0608101BD646C2
:1004C00008F2FD3873EB050002D308F1010801E0E2
:1004D00092185B41B8F1000F03DA00200146BDE835
:1004E000F08D00204FF48011064684460EE0171B65
:1004F00073EB050705D3121B63EB050306434CEAB8
:10050000010C49084FEA300092185B4150EA01079C
:10051000EDD152EA030012D082EA040083EA050119
:10052000084305D0101BAB4106D20122002306E090
:1005300000224FF0004302E06FF0010253101AEB6B
:1005400006004CEB085110EB0A0041EB0B01BDE833
:10055000F04D00F0E4B80EB5C10F80EAE070084439
:10056000CA07002140F233438DE80E000A460B46CD
:1005700000F0E4F803B000BD0EB540F23341029143
:100580000021CDE900110A460B4600F0D7F803B070
:1005900000BDC1F30A5210B5C1F3130140F2FF339D
:1005A00041F480119A4201DA002010BD40F2334339
:1005B0009A42A2F2334203DC524200F057F810BDD7
:1005C000904010BD00F0004230F000400AD0C10D54
:1005D00001F56071C0F3160042EA0151C2084007FC
:1005E0001143704700200146704701F0004330B4CA
:1005F00021F0004150EA010206D00A0DA2F5607216
:10060000C1F31301002A02DC30BC00207047440F04
:1006100044EAC104C100E01830BC00EBC25000F055
:1006200047B830B50B46014600202022012409E0DE
:1006300021FA02F59D4205D303FA02F5491B04FA9B
:1006400002F52844151EA2F10102F1DC30BD202A7A
:1006500004DB203A00FA02F1002070479140C2F119
:10066000200320FA03F3194390407047202A04DB4B
:10067000203A21FA02F00021704721FA02F3D0401B
:10068000C2F120029140084319467047202A06DB38
:10069000CB17203A41FA02F043EAE07306E041FA50
:1006A00002F3D040C2F1200291400843194670473E
:1006B0000029A8BF7047401C490008BF20F0010076
:1006C000704710B4B0FA80FC00FA0CF050EA010454
:1006D00004BF10BC704749B1CCF1200421FA04F4E6
:1006E00011FA0CF118BF012121430843A3EB0C01BF
:1006F000CB1D4FEA00614FEA102042BF002010BC22
:10070000704700EBC35010440029A4BF10BC7047D1
:10071000401C490008BF20F0010010BC704710B514
:10072000141E73F1000408DA401C41F10001921814
:100730005B411A4301D120F0010010BD2DE9F04DBD
:1007400092469B4611B1B1FA81F202E0B0FA80F212
:1007500020329046FFF77BFF04460F4640EA0A002E
:1007600041EA0B0153465A46084313D0114653EA57
:10077000010019D0C8F140025046FFF777FF054647
:100780000E46504659464246FFF761FF084305D0E2
:10079000012004E020463946BDE8F08D00200543E5
:1007A00046EAE0762C4337430A986305E40AA0EB57
:1007B00008000022FD0A44EA47540A3002D500200E
:1007C0000146E9E7010510196941DDE9084500190D
:1007D0006941BDE8F04DA2E72DE9F04D00231A462E
:1007E0001B1A8A4103DB00200146BDE8F08DC1F3EE
:1007F0000A52C1F3130141F480154FF0000BD107E9
:1008000002D100186D41521E0027044640F2FF112C
:10081000384601EB620A3E468046024600204FF40D
:100820008011FFF723FFC2197141BB1846EB01008D
:10083000B4EB030C75EB000C04D3E41A65EB000574
:1008400017460E46241908F101006D4180463428F0
:10085000E3DDF91946EB0600091BA84103D24FF06E
:10086000FF32134601E0002213461BEB070046EB64
:100870000A51BDE8F04DFFF752BF0000064C074D8E
:1008800006E0E06840F0010394E807009847103460
:10089000AC42F6D3FFF77CFC2C2E00084C2E00084F
:1008A000FEE77047012000F021B890F835100229CA
:1008B00003D08021416501207047052180F8351063
:1008C0000068016821F0010101600020704731B526
:1008D00000F0FAF8009C0546601C00D0641C00F093
:1008E000F3F8401BA042FAD338BD7047044910B555
:1008F0000A68024202D00860FFF7F7FF10BD00004F
:10090000143C01402DE9F84FDFF87CB100224FF094
:1009100001084FF0030A4FF00F090BF1040E00BF5E
:100920000B6808FA02F42340A3426ED14D68022DF1
:1009300001D0122D0ED1D50800EB850CDCF820502B
:100940005607F70E09FA07F6B5430E69BE402E4367
:10095000CCF82060066855000F790AFA05FC07F00C
:10096000030726EA0C06AF40374307604E68012EA6
:1009700005D0022E03D0112E01D0122E0ED1866882
:10098000CF6826EA0C06AF40374387604668A64327
:100990000C79C4F30014944034434460C6688C68F6
:1009A00026EA0C06AC403443C4604C68E40065D5CC
:1009B000364C256845F480452560246822F00305FF
:1009C00004F480440094324C2E19D6F80848950758
:1009D0002F0F09FA07F5AC432E4DA84201D100258F
:1009E00024E02D4DA84201D101251FE02B4DA84246
:1009F00001D102251AE02A4DA84201D1032515E0B4
:100A0000284DA84202D1042510E037E0264DA84227
:100A100001D105250AE0254DA84201D1062505E0B2
:100A2000234DA84201D1072500E00825BD402543FC
:100A3000C6F80858DBF800405D464E689C43F60354
:100A400000D51C432C60DEF8004075464E689C4380
:100A5000B60300D51C432C600B4D08352C684E683E
:100A60009C43F60200D51C432C60074D0C352C68C6
:100A70004E689C43B60200D51C432C60521C102AC1
:100A8000FFF44EAFBDE8F88F003C0140443802400F
:100A90000030014000000240000402400008024013
:100AA000000C0240001002400014024000180240F6
:100AB000001C024042694A40426170470AB18161AC
:100AC00070470904FBE70000014800687047000018
:100AD0001800002002480168491C016070470000AE
:100AE000180000200B4810B5016841F40071016046
:100AF000016841F480610160016841F48071016026
:100B0000032000F075F8002000F006F800F018F857
:100B1000002010BD003C024010B5044607484FF4C9
:100B20007A710068B0FBF1F000F0E7FA002221468C
:100B3000501E00F03DF8002010BD00001400002001
:100B400010B5032000F054F8002211466FF00B009E
:100B500000F02EF8002211466FF00A0000F028F88D
:100B6000002211466FF0090000F022F80022114621
:100B7000501F00F01DF800221146101F00F018F859
:100B800000221146901E00F013F80022BDE810402C
:100B90001146501E00F00CB800F01F0201219140D8
:100BA0004009800000F1E020C0F80011704700000B
:100BB000F0B40E4B1B680C46C3F30223C3F10705C8
:100BC000042D00D90425191D072901D2002300E0B6
:100BD000DB1E012606FA05F1491E214099409E4080
:100BE000761E16403143F0BC01F08EB90CED00E0EA
:100BF000064900F0070208684FF6FF03184040EA74
:100C00000220034A10430860704700000CED00E02A
:100C10000000FA052DE9F0470E46050065D0DFF823
:100C20001481D8F80000F7B200F00F00B04207D2EC
:100C300088F80070D8F8000000F00F00B04254D1DE
:100C400028683D4C810712D5400703D5206840F441
:100C5000E05020602878000703D5206840F4604009
:100C600020602068A96820F0F00008432060287800
:100C7000C0072DD0304968680839012812D00228F1
:100C800013D0032811D00968890700292DDA2168BB
:100C900021F0030101432160FFF716FF814641F275
:100CA000883A0EE009688903EFE709688901ECE7F3
:100CB000FFF70AFFA0EB0901514502D90320BDE867
:100CC000F0872068696800F00C00B0EB810FEFD16D
:100CD000D8F80010404601F00F01B14207D9077063
:100CE000006800F00F00B04201D00120E7E728784B
:100CF000400705D52068E96820F4E05008432060EB
:100D00002878000706D52068296920F4604040EA69
:100D1000C100206000F03CF82168084AC1F30311CB
:100D2000515CC840064908600020FFF7F5FE00202E
:100D3000C5E70000003C024008380240842D00084E
:100D400014000020014800687047000014000020D3
:100D50000448054900680968044AC1F38221515CCE
:100D6000C84070471400002008380240942D000845
:100D70000448054900680968044AC1F34231515CDE
:100D8000C84070471400002008380240942D000825
:100D9000154810B5006810F00C02144813D041102B
:100DA000042A0FD0082A0ED10F4C241F2268236872
:100DB00002F03F025B0207D52068C0F38810A0FB59
:100DC000010106E0084610BD2168C1F38811A1FBAE
:100DD00000010023FFF7F4F92168C1F30141491C28
:100DE0004900B0FBF1F010BD083802400024F400C7
:100DF0002DE9F84F050071D0DFF8D0922878A9F1DD
:100E0000040BC007ABF104044AD0D9F800104846DF
:100E1000C1F38101012908D00068C0F381000228D4
:100E20000AD1DBF80000400206D52068800337D5E0
:100E300068680028DFD033E06868B0F5803F10D0E4
:100E4000B0F5A02F206810D020F4803020602068FA
:100E500020F4802020606868A8B1FFF735FE0646C0
:100E60000DE0206840F48030F4E740F480202060FA
:100E7000F7E700BFFFF728FE801B642873D82068BF
:100E80008003F7D50CE0FFF71FFE064605E000BF24
:100E9000FFF71AFE801B6428F0D820688003F7D47F
:100EA00028788B4F80074FF0010A4FF000083DD59E
:100EB000D9F80010484611F00C0F08D00068C0F3B4
:100EC000810002280BD1DBF80000400207D4206823
:100ED000800715D5E868012800D111E0F3E0E86843
:100EE000B0B1C7F800A0FFF7EFFD064605E000BF70
:100EF000FFF7EAFD801B022835D820688007F7D568
:100F00002068296920F0F80040EAC10020600DE067
:100F1000C7F80080FFF7D8FD064604E0FFF7D4FDD0
:100F2000801B02281FD820688007F7D42878000784
:100F300024D56848696981B1C0F800A0FFF7C4FDF5
:100F4000064604E0FFF7C0FD801B02280BD85F486F
:100F50006C3000688007F5D510E0C0F80080FFF71E
:100F6000B3FD064605E074E0FFF7AEFD801B0228E6
:100F70006FD856486C3000688007F5D42878400751
:100F800053D552483830016841F080510160006803
:100F900000F0805000905048016841F48071016079
:100FA000FFF792FD064604E0FFF78EFD801B022846
:100FB0004FD849480068C005F6D5444EA868683641
:100FC00001280FD00528306810D020F001003060D3
:100FD000306820F004003060A868B8B1FFF774FDF5
:100FE00000900FE0306840F00100F4E740F00400AA
:100FF0003060F7E7FFF768FD0099411A41F2883049
:10100000814258D830688007F4D50EE0FFF75CFDC8
:10101000009007E0FFF758FD0099411A41F288302F
:10102000814248D830688007F4D4A86990B3D9F8D1
:101030000010C1F38101022945D00228C7F8608061
:1010400003D0FFF741FD054638E0FFF73DFD0646BA
:1010500005E030E0FFF738FD801B02282BD8206820
:101060008001F7D4D5E907010843A96A1B4A49085A
:1010700002EB01416A6A41EA8211084395F82C109B
:1010800040EA0161CBF80010C7F860A0FFF71CFD33
:10109000054606E015E000BFFFF716FD401B0228DD
:1010A00009D820688001F7D50BE000BFFFF70CFDE1
:1010B000401B022802D90320BDE8F88F2068800178
:1010C000F4D40020F8E70120F6E7000008380240D9
:1010D00000004742800E4742007000400000FFFFC2
:1010E0004FF0E0210428086903D020F004000861D3
:1010F000704740F00400FAE7704710B5401EB0F1A9
:10110000807F01D3012010BD4FF0E02460610F21EA
:10111000601700F0F9FE0020A06107202061002088
:1011200010BD10B5FFF7E8FF10BD7047704730B530
:1011300090F83820012A20D0012280F8382002239C
:1011400080F8393003685C6824F070045C600368E0
:101150005C680D682C435C6003689C6824F0800424
:101160009C6003689C6849680C439C6080F8392047
:10117000002180F83810084630BD022030BD10B57F
:10118000040003D094F8390010B107E0012010BD2D
:10119000002084F83800204600F00CF8022084F883
:1011A0003900211D206800F073FF012084F8390008
:1011B000002010BD08B5114A01681148914211D1B3
:1011C000016841F0020101600068002200F00200A5
:1011D000009011461D20FFF7EBFCBDE808401D20E4
:1011E000FFF7DABC074A914207D1016841F48071E8
:1011F0000160006800F48070009008BD00040040A9
:10120000403802400020004070B5044690F8380095
:10121000012817D0012584F83850022084F83900BD
:101220002068826822F0770222F47F428260086898
:10123000502837D00DDC202859D005DC88B3102881
:1012400041D151E0022070BD302853D040283AD11E
:101250003FE060282ED070280BD0B0F5805F03D01F
:10126000B0F5005F2FD110E02068816821F0070100
:1012700015E0CB68D1E90121206800F074FF2168F6
:10128000886840F0770088601DE0CB68D1E90121D3
:10129000206800F068FF2068816841F48041816027
:1012A00011E01EE0CA684968206801F025F8502165
:1012B000206806E0CA684968206801F071F860217A
:1012C000206800F05AFF84F83950002084F8380074
:1012D00070BDCA684968206801F00EF84021206896
:1012E000EFE700212068ECE710212068E9E72021E2
:1012F0002068E6E730212068E3E7000070B51F4C66
:101300002078010615D41E4D41064FF6F57611D50D
:1013100040F0800020700021284600F0E5FA60606F
:101320002868016A314001622868016A41F00201BF
:10133000016270BD00214020616020702868026A4F
:1013400041F211131A4207D1026A9B101A4203D1CB
:10135000026822F001020260286841622868016A7E
:10136000314001622868016A41F002010162286887
:10137000016841F00101016070BD00001C00002007
:10138000F00000202DE9F041044690F838000D46A9
:1013900001283DD0012684F83860022084F8390005
:1013A000AAB3042A46D02068082A55D0D5E90027D8
:1013B000E968036A23F480530362D0F81CC0036A0F
:1013C0002CF4407C4CEA07274FF6FF7C27F470474B
:1013D0000CEA013139434FF4204723F4204307EA54
:1013E00002321A43C16102622068C16921F440617E
:1013F000C1612068C169AA6841EA0221C0F81C10D5
:1014000084F83960002084F83800BDE8F08101E0FC
:101410000220FAE7D5E90012EB68206800F07EFFB1
:101420002068816921F00C01816120688169AA68C6
:1014300011430FE0D5E90012EB68206800F0C2FF0D
:101440002068816921F44061816120688169AA680E
:1014500041EA02218161D3E7D5E9002C2F7B016AA3
:1014600021F480710162C169036A21F0030141EA3C
:101470000C0121F0F00C39074FF420674CEA1161A0
:1014800023F4206307EA02221A43C1610262206842
:10149000C16921F00C01C1612068C169AA681143CA
:1014A000ACE710B5040003D094F8390010B107E0A0
:1014B000012010BD002084F83800204600F00CF810
:1014C000022084F83900211D206800F0E1FD012090
:1014D00084F83900002010BD194800B5016887B0B4
:1014E00041F008010160016801F0080105910168FF
:1014F00041F002010160006800F002000590104810
:101500001038016841F0010101600068032100F01A
:1015100001000590012000900220CDE90201019018
:10152000049069460748FFF7EDF9002202213220B6
:10153000FFF73EFB3220FFF72FFB07B000BD000096
:10154000403802400000024010B50268044631B144
:10155000042908D0082915D00C2908D116E0D06834
:1015600040F0020002E0D06840F00400D0600122A8
:10157000206800F0EDFD2068016841F00101016084
:10158000002010BDD06840F00800EFE7D06840F0C0
:101590001000EBE770B50446006801694FF00005E4
:1015A000C943890715D4C168C943890711D4E91E05
:1015B000016101202076206880698007204602D0E2
:1015C000FFF79CFE04E000F0C3F8204600F058F955
:1015D000257620680169C943490717D4C168C94302
:1015E000490713D46FF004010161022020762068BE
:1015F000806910F4407F204602D0FFF77FFE04E0B0
:1016000000F0A6F8204600F03BF925762068016935
:10161000C943090716D4C168C943090712D46FF03A
:1016200008010161042020762068C06980072046F7
:1016300002D0FFF763FE04E000F08AF8204600F0D5
:101640001FF9257620680169C943C90617D4C16806
:10165000C943C90613D46FF0100101610820207638
:101660002068C06910F4407F204602D0FFF746FE94
:1016700004E000F06DF8204600F002F925762068BD
:101680000169C943C90708D1C168C943C90704D161
:10169000891E0161204600F011F920680169C943E3
:1016A000090609D4C168C943090605D46FF0800151
:1016B00001612046FFF739FD20680169C9434906E9
:1016C00009D4C168C943490605D46FF040010161DE
:1016D000204600F02BF920680169C94389060BD424
:1016E000C168C943890607D46FF020010161204613
:1016F000BDE87040FFF71ABD70BD000000B5104B8B
:1017000002680021022085B09A4208D1402200924E
:10171000CDE90101CDE9031069460A480BE00A4B07
:101720009A420AD152150092CDE901010390092095
:10173000049069460548FFF7E5F805B000BD0000D4
:101740000008004000040240002000400014024055
:10175000704770B5044690F838000D4601280DD04A
:10176000012684F83860022084F8390042B1042A46
:1017700018D0082A2AD00C2A4DD139E0022070BD99
:10178000206800F003FD2068816941F00801816153
:101790002068816921F004018161206881692A69DA
:1017A000114311E0206800F01DFD2068816941F4BB
:1017B000006181612068816921F480618161206814
:1017C00081692A6941EA0221816124E0206800F0F0
:1017D0003BFD2068C16941F00801C1612068C16911
:1017E00021F00401C1612068C1692A69114311E037
:1017F000206800F059FD2068C16941F40061C161B1
:101800002068C16921F48061C1612068C1692A69C9
:1018100041EA0221C16184F83960002084F838006F
:1018200070BD10B5040003D094F8390010B107E082
:10183000012010BD002084F83800204600F00CF88C
:10184000022084F83900211D206800F021FC0120CD
:1018500084F83900002010BD08B5006806498842A8
:1018600008D10648016841F004010160006800F0F9
:101870000400009008BD000000080040403802400D
:101880007047000010B504460068012200F060FCBB
:1018900008492068884202D00749884203D1416C38
:1018A00041F4004141642068016841F00101016098
:1018B000002010BD000001400004014009490878E3
:1018C000020606D4420604D5C243920602D0401C4A
:1018D0000870704740F0800008704FF0FF3048609B
:1018E000704700001C00002090F838300022012BC7
:1018F0000AD0012380F8383041B1042909D00829E1
:101900000AD00C290DD10AE00220704701684A6B09
:1019100007E001688A6B04E00168CA6B01E00168B6
:101920000A6C002180F838101046704770477047E5
:1019300010F8391F407808437047000070B50268FE
:1019400004461068D168536910F00F0F51D003F0AE
:10195000010501F4907635435DD0C20705D0CA0574
:1019600003D5E26B42F00102E263420705D5DA07D4
:1019700003D0E26B42F00202E263820705D5DA0788
:1019800003D0E26B42F00402E263020705D5DA07F6
:1019900003D0E26B42F00802E263E26B002A34D02B
:1019A000800604D5880602D5204600F03CFD20685C
:1019B0004069E16BC0F3801001F00801014320464B
:1019C00024D000F022FD2068416949061AD54169FA
:1019D00021F040014161606BA0B11B490165606B62
:1019E000FEF763FF002810D0606B016DBDE870400A
:1019F000084783060FD58B060DD52046BDE87040FD
:101A000000F011BD2046FFF792FF70BDFFF78FFF7A
:101A10000020E06370BD030606D50B0604D5204602
:101A2000BDE8704000F09CBE4006F3D54806F1D5F5
:101A3000D168204621F04001D160202184F839107E
:101A400000F013F970BD0000FB23000870B504001E
:101A500004D094F83900002510B106E0012070BDD3
:101A600084F83850204600F023F8242084F8390008
:101A70002068C16821F40051C160204600F01AFDC1
:101A80002068016921F4904101612068416921F0D9
:101A90002A0141612068C16841F40051C160E563D9
:101AA000202084F8390084F83A00002070BD00003E
:101AB00000B50068124987B088421FD111480168FB
:101AC00041F0100101600068694600F010000590C7
:101AD0004FF4C0600090022001900120029003208A
:101AE0000390072004900848FEF70CFF2520FFF71D
:101AF00053F8032211462520FFF75AF807B000BD1E
:101B000000100140443802400000024090F83A3092
:101B1000202B1DD1D1B1CAB190F83830012B17D08C
:101B200081628285C2850021C163222280F83A2029
:101B300080F8381001684A6942F001024A61006881
:101B4000C16841F49071C160002070470120704766
:101B50000220704730B50068124988420CD1124803
:101B600001880A0408D4114A4C044FF0000312788B
:101B700006D50A2A01D0038030BD41F400410EE0B1
:101B80000D2A0AD0C1F30D04084D491CC83D89B285
:101B90002A550180C729EED830BD41F4804101802B
:101BA00030BD00000010014024000020F40100209E
:101BB0002DE9F843044690F839001F4616460D46B5
:101BC000202850D1A5B19EB194F8380001284AD000
:101BD000012084F838004FF00008C4F83C80212030
:101BE00084F83900FEF770FFA6848146E68426E07B
:101BF0000120BDE8F883E08C401EE084A0684B46DD
:101C0000B0F5805F4FF000024FF080012046009752
:101C100003D000F0D6FDE8B90DE000F0D2FDC8B960
:101C200028882168C0F308004860206908B16D1C4D
:101C300005E0AD1C03E0216815F8010B4860E08C5D
:101C40000028D8D14B46002240212046009700F0C2
:101C5000B8FD08B10320CCE7202084F8390084F8CF
:101C600038800020C5E70220C3E77047FEE7000088
:101C700070B52F4886B00024016841F01001016062
:101C8000016801F010010591016841F00401016053
:101C9000016801F004010591016841F02001016033
:101CA000016801F020010591016841F080010160A7
:101CB000016801F080010591016841F001010160B6
:101CC000016801F001010591016841F00201016024
:101CD0000068184E00F002004FF480650590002265
:101CE00029463046FEF7EAFE3820CDE90004694671
:101CF00011480294FEF706FE00950125CDE9015436
:101D0000694630460394FEF7FDFD0C480095CDE989
:101D1000010469460A48FEF7F5FD00221146062037
:101D2000FEF746FF0620FEF737FF06B070BD000045
:101D30003038024000140240001002400000111030
:101D40000000024010B5194888B01749016040F200
:101D500047310024C0E9011440F2CF71C0E90314F7
:101D6000FFF70DFA18B1802111A000F080FD0F4897
:101D7000FFF757FD18B185210DA000F078FD602018
:101D8000CDE9000402940022694608480494FFF754
:101D9000E0FC18B18E2106A000F069FD0348FFF7B2
:101DA000ADFC08B010BD000000200040B4000020D1
:101DB0002E2E2F5372632F74696D2E630000000066
:101DC00010B5164886B014490024C0E90014846098
:101DD000C4600461FFF7D3F918B1402110A000F0EE
:101DE00046FD4FF48050009069460C48FFF70CFA0E
:101DF00018B146210AA000F03AFD049404A907484E
:101E00000594FFF794F9002803D04D2104A000F0B9
:101E10002EFD06B010BD0000000400403C00002074
:101E20002E2E2F5372632F74696D2E6300000000F5
:101E300010B51A488AB01849016040F247310024B1
:101E4000C0E9011440F2D771C0E90314FFF7E9FCBF
:101E500018B15E2112A000F00AFD079407A90F48EF
:101E60000894FFF764F918B165210DA000F0FFFC9C
:101E70006020CDE9000402940022694607480494DA
:101E8000FFF767FC18B16E2105A000F0F0FC0348D5
:101E9000FFF734FC0AB010BD0008004078000020B5
:101EA0002E2E2F5372632F74696D2E630000000075
:101EB0000F4810B50D4901604FF4E1314160002138
:101EC00081600C22C160C0E904128161C161FFF729
:101ED000BDFD18B1482107A000F0C9FC04490A2241
:101EE000BDE810400C390248FFF710BE0010014059
:101EF000000200202E2E2F5372632F7573617274AF
:101F00002E630000FEE770470907090E002806DA75
:101F100000F00F0000F1E02080F8141D704700F180
:101F2000E02080F8001470477047704710B5FEF746
:101F3000D1FDBDE81040FFF7F4B8000030B52548EA
:101F400093B00025016841F080510160006800F005
:101F5000805011902048016841F480410160006880
:101F6000022400F48040119001200390102004907E
:101F7000009406940820CDE90750A820CDE9090473
:101F800004200B906846FEF733FF00B1FEE70CA972
:101F90000F2081E831004FF4A0500F904FF4805093
:101FA000109005210CA8FEF735FE00B1FEE7FEF704
:101FB000C9FE4FF47A71B0FBF1F0FFF79EF80420F0
:101FC000FFF78EF800221146501EFEF7F1FD13B008
:101FD00030BD0000403802400070004010480168E9
:101FE00041F4700101600F48016841F00101016096
:101FF0000C4A00210832116002680B4B1A40026043
:10200000031D0A4A1A60026822F480220260054811
:102010000C300160024958068039086070470000A2
:1020200088ED00E000380240FFFFF6FE103000248B
:102030000148FFF7AFBA00003C0000207FB5104C0C
:1020400000250E4AC4E902502561C4E9002120465A
:10205000FFF727FA0120CDE90050029500226946DA
:1020600020460395FFF78EF900212046FFF76CFA12
:102070002068C16841F00101C1607FBD000C0040D3
:10208000F00000200148FFF785BA0000F0000020B2
:10209000F0B50268234B244D244E254F254C4FF0BC
:1020A000804C984209D0604507D0A84205D0B04284
:1020B00003D0B84201D0A04204D122F0700E4A6889
:1020C00042EA0E0298421BD0604519D0A84217D0B0
:1020D000B04215D0B84213D0A04211D0164DA8423C
:1020E0000ED0164DA8420BD0154DA84208D0154D64
:1020F000A84205D0144DA84202D0144DA84203D1E5
:1021000022F44075CA682A4302608A68C2620A687B
:102110008262984201D0A04201D109690163012184
:102120004161F0BD00000140000400400008004093
:10213000000C004000040140004001400044014008
:102140000048014000180040001C004000200040F2
:1021500010B50123046A8B409C430462036A8A40E1
:102160001343036210BD10B5846842EA032224F4CD
:102170007F440A432243826010BD826822F07002CD
:102180000A4342F0070181607047000030B5026ADF
:1021900022F001020262026A436884690D6824F039
:1021A0007304254322F002048A6822430B4CA042A8
:1021B00002D00B4CA0420BD122F00804CA6823F4D1
:1021C000407322434C6922F004021C438B69234371
:1021D0004360856149684163026230BD000001408F
:1021E0000004014030B5026A22F010020262026A65
:1021F000436884690D6824F4E64444EA05248D6844
:1022000022F0200242EA05120D4DA84202D00D4DE7
:10221000A8420ED1CD6822F0800242EA05124D6933
:1022200023F4406343EA85038D6922F0400243EAC8
:1022300085034360846149688163026230BD0000A8
:10224000000001400004014030B5026A22F48072AF
:102250000262036A4268C46923F4007324F07305C0
:102260000C682C438D6843EA05230D4DA84202D02B
:102270000C4DA8420ED1CD6823F4006343EA052338
:102280004D6922F4405242EA05128D6923F48063BD
:1022900042EA05124260C4614968C163036230BD0D
:1022A000000001400004014030B5026A22F480526F
:1022B0000262046A4268C3690D6823F4E64343EA94
:1022C00005238D6824F4005444EA0534084DA842DF
:1022D00002D0084DA84204D14D6922F4804242EA5E
:1022E00085124260C36149680164046230BD000028
:1022F000000001400004014010B5036A046A24F0A4
:1023000001040462846924F0F00444EA021423F016
:102310000A020A438461026210BD000070B5046ABB
:1023200024F0010404628469056A164EB04214D098
:10233000B0F1804F11D0144EB0420ED0134EB042C7
:102340000BD0134EB04208D0124EB04205D0124E00
:10235000B04202D0114EB04203D124F00304144322
:1023600003E024F0030242F001041A0724F0F00411
:1023700044EA126225F00A0301F00A01194382615E
:10238000016270BD000001400004004000080040F0
:10239000000C0040000401400040014000180040D3
:1023A00010B5036A23F0100303628369046A23F4FF
:1023B000704343EA023224F0A00343EA0111826130
:1023C000016210BD30B5046A24F01004046284690F
:1023D000056A24F4407444EA022222F470444FF661
:1023E000FF7202EA03322243A02425F0A00304EA8C
:1023F000011119438261016230BD10B5806B00216B
:10240000C185C184FFF793FA10BD0168CA6822F440
:102410009072CA6001684A6922F001024A61202173
:1024200080F83A10704710B590F83A10222901D080
:10243000022010BD8168B1F5805F11D001690029CB
:1024400001681FD0496801F07F03816A4A1C8262DB
:102450000B70C18D491E0904090CC18518D026E0F6
:102460000269816A002A0268526805D0D2B20A80E5
:10247000816A491C8162ECE7C2F308020A80816A22
:10248000891CF7E74A68816A4B1C83620A70E0E79F
:102490000168CA6822F49072CA6001684A6922F031
:1024A00001024A61202180F83A10FFF753FB002017
:1024B00010BD00002DE9F04104460068016921F4D7
:1024C0004052E168114301612168C86849F20C6219
:1024D00090432369A268E5691A4363692B431A4351
:1024E0000243CA602168486920F44072A069104321
:1024F0004861E1696425B1F5004F9748974A216822
:102500004FF032083FD0914201D081427CD1FEF79A
:102510002FFC00EBC00101EB001061688900B0FBEB
:10252000F1F6FEF725FC00EBC00101EB001061683D
:102530008900B0FBF1F0B0FBF5F06FF018014843F3
:1025400006EB800108EB0110B0FBF5F000F0F0069F
:10255000FEF70EFC00EBC00101EB00106168890082
:10256000B0FBF1F0B0FBF5F006EB0016FEF700FC57
:1025700000EBC00101EB001061688900B0FBF1F7CE
:10258000FEF7F6FBD2E0914201D081423DD1FEF749
:10259000EFFB00EBC00101EB001061684900B0FBEC
:1025A000F1F0B0FBF5F00601FEF7E2FB00EBC00135
:1025B00001EB001061684900B0FBF1F7FEF7D8FBB2
:1025C00000EBC00101EB001061684900B0FBF1F0C5
:1025D000B0FBF5F06FF01801484307EB800108EB02
:1025E000C100B0FBF5F000F0F80006EB4006FEF786
:1025F000BFFB00EBC00101EB001061684900B0FBBC
:10260000F1F7FEF7B5FB3CE055E0FEF7A1FB00EB70
:10261000C00101EB001061684900B0FBF1F0B0FBB4
:10262000F5F00601FEF794FB00EBC00101EB001092
:1026300061684900B0FBF1F7FEF78AFB00EBC001CF
:1026400001EB001061684900B0FBF1F0B0FBF5F060
:102650006FF01801484307EB800108EBC100B0FBA5
:10266000F5F000F0F80006EB4006FEF771FB00EB1A
:10267000C00101EB001061684900B0FBF1F7FEF703
:1026800067FB00EBC00101EB001061684900B0FB83
:10269000F1F0B0FBF5F06FF01801484307EB800153
:1026A00008EBC100B0FBF5F000F0070021683044F2
:1026B0008860BDE8F081FEF74BFB00EBC00101EB49
:1026C000001061688900B0FBF1F6FEF741FB00EBFA
:1026D000C00101EB001061688900B0FBF1F0B0FBB4
:1026E000F5F06FF01801484306EB800108EB01108C
:1026F000B0FBF5F000F0F006FEF72AFB00EBC0019E
:1027000001EB001061688900B0FBF1F0B0FBF5F05F
:1027100006EB0016FEF71CFB00EBC00101EB0010FE
:1027200061688900B0FBF1F7FEF712FB00EBC00116
:1027300001EB001061688900B0FBF1F0B0FBF5F02F
:102740006FF01801484307EB800108EB0110B0FB64
:10275000F5F000F00F00A9E700140140001001405F
:1027600090F83910212901D0022070478168B1F515
:10277000805F016A0BD04A1C0262026809785160CE
:10278000C18C491E0904090CC1840ED017E00988C8
:102790000268C1F30801516001690029016A02D091
:1027A000491C0162ECE7891CFBE70168CA6822F05A
:1027B0008002CA600068C16841F04001C160002029
:1027C00070472DE9F041984617460E460446069D8F
:1027D0001DE0681C1BD02DB1FEF776F9A0EB0800B8
:1027E000A84214D92068C16821F4D071C160206862
:1027F000416921F001014161202084F8390084F809
:102800003A00002084F838000320BDE8F0812068F9
:10281000006836EA000004D00020B842D9D0002079
:10282000F3E70120F9E7000070B500240D4D0E48D4
:10283000FFF784F802E0641CAC4204D80A48FFF7B2
:1028400077F82028F7D1002402E0641CAC4207D8B6
:1028500005490A220C390448FFF758F90028F4D139
:1028600070BD0000FFFF010000020020FEE7FEE750
:102870000FB4054B10B503A9044A029800F05AF8AA
:1028800010BC5DF814FB0000952B00082800002008
:1028900000B52DED048BB0EE409AF0EE609A83B057
:1028A00051EC190BFDF798FF41EC180B18EE100ACC
:1028B00018EE901A8DED008B002818BF01200843F8
:1028C00020F00040C0F17F6000F1E040C00F14D064
:1028D00019EE101A19EE900A8DED009B002918BF11
:1028E0000121084320F00040C0F17F6000F1E0408A
:1028F000C00F04BF012000F017F8B0EE480A03B083
:10290000F0EE680ABDEC048B00BD02E008C8121F9F
:1029100008C1002AFAD170477047002001E001C1C8
:10292000121F002AFBD17047014908607047000060
:102930002C0000202DE9FF4F89B09B46044600255E
:1029400006E025280BD05A460B999047641C6D1C55
:1029500020780028F5D10DB02846BDE8F08F00277B
:10296000B8460122474900E0074314F8013F203BE5
:1029700002FA03F00842F7D120782E2819D114F872
:10298000010F47F004072A280ED06FF02F0220789D
:10299000A0F1300109290CD808EB880102EB4101B4
:1029A00000EB0108641CF2E70A98641C50F8048BE1
:1029B0000A9020780028CED0642808D0692806D054
:1029C00075281ED05A460B9990476D1C58E00A99FD
:1029D0004FF00A0901C90A91002802DA40422D216C
:1029E00002E0390504D52B218DF82010012103E0E8
:1029F000F90704D02021F7E78A4608AE0DE0002150
:102A0000FAE70A994FF00A0901C90A91F7E749461E
:102A1000FDF707FE303106F8011D0028F7D1ADEBB8
:102A2000060000F12009780701D44FF00108C845DD
:102A300002DDA8EB090000E000208046002706E048
:102A400008A85A46C05D0B9990476D1C7F1C5745DE
:102A5000F6DB04E030205A460B9990476D1CB8F124
:102A60000001A8F10108F5DC05E016F8010B5A4653
:102A70000B9990476D1CB9F10001A9F10109F4DC33
:102A8000641C65E7092801009FED1B0A10B5F0EEF4
:102A9000400A002210E000BF50F8223001EE103A48
:102AA0005B43521CB8EEC11A31EE000A01EE103A37
:102AB000B8EEC11A71EE200A8A42EDDB01EE101A5F
:102AC000F8EEC11A80EE211A00EE101AF8EEC01AC4
:102AD00080EEA10A01EE410A10EE100AFDF772FD28
:102AE00041EC100BFFF7D4FE51EC100BFDF77DFD10
:102AF00000EE100A10BD00000000000070B5214C6F
:102B000005462DED048B03221D48217840F8215005
:102B1000491CC9B2B1FBF2F302FB13112170A5F2FB
:102B20005331B1F5006F07D80321FFF7ADFF10EE69
:102B3000100A1549884202DDE068206102E0256143
:102B40002846E560FDF707FD9FED109B53EC192B20
:102B5000FDF720FC41EC180BA068FDF7FCFC53ECE2
:102B6000192BFDF717FC53EC182BFDF76CFBFDF749
:102B700010FD80B26060A060BDEC048B70BD0000F1
:102B8000300000200000002000007A430000000018
:102B90000000E03F13B54FF6FF730122694602487B
:102BA000FFF706F800981CBD00020020B0EE402A96
:102BB00090EC020A90ED051AD0ED031A90ED043A5C
:102BC00020EE800A60EEA00A40EE811AD0ED020AE3
:102BD00000EEC02A61EEA02A02EEA03A82EE831A2D
:102BE00080ED061A01EE020AB7EE002A01EE602A15
:102BF00080ED000A62EE210AC0ED050A7047000070
:102C000080ED000AC0ED050AB7EE000A80ED010A6A
:102C100080ED020AB1EE040A80ED030A9FED020A7C
:102C200080ED040A704700000000FA4488B0C8250F
:102C300000241C216846FDF7FBFAFDF753FFFFF760
:102C40007DF9FFF715F8FFF7BBF8FFF77BF8FFF703
:102C50002FF9FFF7EDF89FED350A6846F0EE400AD0
:102C6000FFF7CEFF00213248FEF70CFE002131486D
:102C7000FEF708FE5321601EFFF7E0F92E48FFF72C
:102C8000F7FDDFF8B88000BF98F800100A062FD5CE
:102C90002B4A01F03F011268501A002288F80020E8
:102CA000FDF76AFC9FED271B53EC112BFDF7E4FBAE
:102CB000FDF79BFC00EE100ADFED240A80EE801A7F
:102CC000BCEEC10A10EE106A3046FFF717FF00EEA7
:102CD000106A81466846B8EE400AFFF767FFBCEE0F
:102CE000C00A4A46314610EE103A1948FFF7C0FDB7
:102CF000C82D03D0B5F5FA6F02D003E0642701E0D8
:102D00004FF69C77E81985B2284600F025F8641C38
:102D1000E4B23220FDF7DBFD052CB5D900244FF4D9
:102D200080610C48FDF7C6FEAEE700000000484495
:102D3000B400002078000020E02D00081C000020D6
:102D4000200000200000000000408F400060EA46A4
:102D50009C2D00080014024000B587B06021CDE929
:102D60000010002002900246049069460448FEF7D5
:102D7000F0FC00210248FEF785FD07B000BD000011
:102D8000B400002000000000000000000102030465
:102D9000060708090000000001020304CAB5B2E2F8
:102DA000D7AACBD9A3BA092564096E2F706D200963
:102DB0000920C2CBB2A8D7AACBD9A3BA09202564CF
:102DC00009206E2F706D20BFA8B6FBD7AACBD9A360
:102DD000BA0920256409206E2F706D200A000000BA
:102DE0000A0D2055415254205072696E7466204578
:102DF00078616D706C653A20726574617267657494
:102E0000207468652043206C696272617279207059
:102E100072696E74662066756E6374696F6E207475
:102E20006F2074686520554152540A004C2E0008EA
:102E300000000020300000000A2900087C2E000855
:102E400030000020100600001A29000800000000D1
:102E50005203000052030000520300000000000073
:102E60000024F4000000000000000000000000004A
:0C2E700000000000000000000000000056
:040000050800018965
:00000001FF
