:020000040800F2
:1000000070090020390A00080D0800080F080008D0
:1000100013080008170800081B080008000000006B
:100020000000000000000000000000001F080008A1
:100030002108000800000000230800082508000827
:10004000530A0008530A0008530A0008530A00081C
:10005000530A0008530A0008530A0008530A00080C
:10006000530A0008530A0008530A0008530A0008FC
:10007000530A0008530A0008530A0008530A0008EC
:10008000530A0008530A0008530A0008530A0008DC
:10009000530A0008530A0008530A0008530A0008CC
:1000A000530A0008530A0008E72D00080527000836
:1000B000530A0008530A0008BB320008530A00081C
:1000C000530A0008530A0008530A0008530A00089C
:1000D000530A00080F2C0008530A00088F28000854
:1000E000530A0008530A0008530A0008530A00087C
:1000F000530A0008530A0008530A0008530A00086C
:10010000530A0008530A0008530A0008530A00085B
:10011000530A0008530A0008530A0008530A00084B
:10012000530A0008530A0008530A0008530A00083B
:10013000530A0008530A0008530A0008530A00082B
:10014000530A0008530A0008530A0008530A00081B
:10015000530A0008530A0008530A0008572F0008E2
:10016000530A0008530A0008530A0008530A0008FB
:10017000530A0008530A0008530A0008530A0008EB
:10018000530A0008530A000800F002F800F054F87F
:100190000AA090E8000C82448344AAF10107DA45E2
:1001A00001D100F049F8AFF2090EBAE80F0013F0E0
:1001B000010F18BFFB1A43F0010318478C510000D0
:1001C000AC510000103A24BF78C878C1FAD8520761
:1001D00024BF30C830C144BF04680C6070470000C1
:1001E0000023002400250026103A28BF78C1FBD840
:1001F000520728BF30C148BF0B607047662904F022
:10020000C68703681B0A28BF41F08001642903F0F8
:10021000E180E42903F01A81002070471FB504F043
:10022000ACFF03F0F5FC04000020002104F008FA04
:10023000E0601FBD10B510BD03F0BCFD1146FFF717
:10024000EDFF00F043F803F0DAFD03B4FFF7F2FF2F
:1002500003BC02F07BFC000010B5044621464FF0C1
:10026000804001F08CFB10BD10B504462146FE48CD
:1002700001F085FB10BD0FB400B58DB01E980C9039
:100280009DED1C0B8DED0A0B9DED1A0B8DED080BF2
:100290009DED180B8DED060B9DED160B8DED040BF2
:1002A0009DED120B8DED020B9DED100B8DED000BF6
:1002B0009DED0E1BB0EE410AF0EE610A53EC102BDF
:1002C000EA4803F07BF80DB05DF814FB2DED068BCA
:1002D000A4B04FF4A06000F0CFFBA82002F02EF9EC
:1002E00002F023FC53214FF6FF7002F003FA02F0F4
:1002F000D8FC02F074FE02F02FFB53214FF6FF7082
:1003000002F07BFFDA4802F089FE4822D94912A8A0
:1003100003F08AF90025AB460020119010900F9051
:100320000E904CE2D448008800F4004000286FD0C2
:10033000D2488478FF2C02D101200E909AE0CF4859
:1003400090F803804FF6FF7000EA0828CB48007948
:1003500040441FFA80F800200E9044B99FEDC80B6E
:100360008DED140B9FEDC60B8DED160B81E0F12C7E
:1003700011D1404604F04DFC41EC190B9DED141BCE
:10038000B0EE410AF0EE610A53EC102B04F0A0F934
:10039000CDE914016DE0F02C26D1404604F039FC83
:1003A00041EC190B9DED141BB0EE410AF0EE610A11
:1003B00053EC102B04F040FC11D8404604F029FC0B
:1003C00041EC190B9DED141BB0EE410AF0EE610AF1
:1003D00053EC102B04F06AFDCDE9140149E09FEDC8
:1003E000AA0B8DED140B44E01F2C12D1404604F0F3
:1003F00010FC41EC190B9DED161BB0EE410AF0EE1E
:10040000610A53EC102B04F063F9CDE9160130E0DA
:1004100034E00F2C26D1404604F0FBFB41EC190BD5
:100420009DED161BB0EE410AF0EE610A53EC102B65
:1004300004F002FC11D8404604F0EBFB41EC190B30
:100440009DED161BB0EE410AF0EE610A53EC102B45
:1004500004F02CFDCDE916010BE09FED8B0B8DED2B
:10046000160B06E0EA2C04D1404604F0D2FBCDE99D
:10047000180100BF00208049088000BF8448008820
:1004800000F4004030B383498A7A497A02EB0120B4
:1004900004F057FB41EC190B9FED7F0B53EC102B35
:1004A00004F0CAF9CDE920017A498A7B497B02EB45
:1004B000012004F046FB41EC190B9FED790B53EC46
:1004C000102B04F0B9F9CDE91E0100207049088015
:1004D0000BF1010B7448008800F4004098B3734896
:1004E000447990F8068090F807A0007A0D902406D1
:1004F0004FEA08484FEA0A2A444454440D980444F9
:10050000204604F01EFB41EC190B684890F8099056
:100510000DE09FED670B53EC102B51EC190B04F021
:100520008BF941EC190BA9F1010000F0FF09B9F1B9
:10053000000FEEDC8DED1A9B00205B4908801198BE
:10054000401C119000BF5C48007800F08000C0B1F2
:100550005A48D0F8008000205749087044464FF4AC
:100560006160604341F2040190FBF1F909EBD9713C
:10057000481004F0E6FACDE91C011098401C1090D8
:1005800000BF4F48007800F08000C0B14D48D0F85F
:10059000009000204A4908704C464FF46160604367
:1005A00041F2040190FBF1F808EBD871481004F017
:1005B000C8FACDE912010F98401C0F9000BF4248C5
:1005C00095FBF0F100FB115000BB0024BBF1000FC4
:1005D00000DD641C1198002800DD0A341098002802
:1005E00000DD64340F98002801DD04F57A7422944C
:1005F000382216A9684603F017F812A80FC8FFF7AB
:100600003AFE00200F901090119000BF2F4895FBEC
:10061000F0F100FB115010B94FF0000B01256D1CDB
:100620000E9801286ED19DED201BB0EE410AF0EE30
:10063000610A51EC100B04F019F809EE100A9DED57
:10064000181BB0EE410AF0EE610A51EC100B04F0F9
:100650000DF809EE900AF0EE490AB0EE690A044876
:1006600002F005FD34E00000000400407452000870
:100670006C000020985100083C0000205E01002022
:100680000000000000689040000000000000000032
:100690003400002096000020000000000000104000
:1006A0007B14AE47E17A84404C00002030020020E9
:1006B0000000000000002440280000202C00002042
:1006C0004000002044000020A086010040420F00AE
:1006D000F0EE408A9FED3A0AC8EE800A10EE904A8A
:1006E000204604F0D9FC41EC190B9DED141BB0EE33
:1006F000410AF0EE610A53EC102B03F0E9FFCDE95B
:10070000140100BF9DED141BB0EE410AF0EE610A2A
:1007100051EC100B04F0E8F943F6A721081A84B253
:100720002046FFF7A1FD9DED161BB0EE410AF0EE4D
:10073000610A51EC100B04F0D7F943F6A721081A0F
:1007400084B22046FFF788FD1E48007800F0800044
:10075000A8B31D480027066800201A4908703246D1
:100760003B461AA002F02AFE3046394604F000FA51
:100770009FED1A0B53EC102B04F05EF803F076FF9C
:1007800008EE100A9FED170AC0EE080AB0EE608A64
:10079000BCEEC80A10EE100A02F0B8FC064618EECD
:1007A000100A04F079FC41EC190B53EC192B0EA044
:1007B00002F004FE32463B460FA002F0FFFDB1E519
:1007C0000050C347600000206400002048494748AB
:1007D0003A256C6C642075730D0A0000000000005F
:1007E00000408F4000606A47D7AACBD93A252E66D1
:1007F000206E2F706D0D0A00C2CBB2A8D7AACBD93C
:100800003A2564206E2F706D0D0A0000704700BFFE
:10081000FEE700BFFEE700BFFEE700BFFEE7704750
:1008200070477047704700000CB5002001900090A1
:100830007648006840F480307449086000BF73480F
:10084000006800F4003000900198401C019000986E
:1008500018B90198B0F5A04FF1D16C48006800F4C8
:10086000003010B10120009001E0002000900098BD
:10087000012846D165484030006840F08050634907
:10088000403108606248006840F4404060490860B8
:100890005E48083000685D49083108600846006815
:1008A00040F4004008600846006840F4A05008602A
:1008B0005848091F0860081F006840F08070091F31
:1008C000086000BF5148006800F000700028F9D0AF
:1008D00040F20570504908604C480830006820F02C
:1008E00003004A49083108600846006840F00200E9
:1008F000086000BF45480830006800F00C00082878
:10090000F8D10CBD10B54548006840F4700043496B
:1009100008603E48006840F001003C490860002043
:100920003A4908310860394800683D49084037496C
:1009300008603C48091D0860081F006820F48020FA
:10094000091F0860002031490C310860FFF76CFF77
:100950004FF0006031498039086010BD70B500204B
:100960000022022300240221284D08352D6805F0BD
:100970000C0020B1042806D0082834D107E02A4D05
:100980002A4E356033E02A4D284E35602FE01F4D4A
:100990002D1D2D68C5F380541C4D2D1D2D6805F0AF
:1009A0003F0154B1224DB5FBF1F5184E361D3668A6
:1009B000C6F3881605FB06F209E01B4DB5FBF1F501
:1009C000124E361D3668C6F3881605FB06F20F4D2B
:1009D0002D1D2D68C5F301456D1C6B00B2FBF3F5B1
:1009E000124E356003E0104D104E356000BF00BF61
:1009F000064D08352D68C5F303150E4E705D0B4D81
:100A00002D68C540094E356070BD000000380240B9
:100A10000070004008544007003C024088ED00E0B0
:100A2000FFFFF6FE103000240024F4000000002038
:100A300000127A0004000020094880470948004756
:100A4000FEE7FEE7FEE7FEE7FEE7FEE7FEE7FEE77E
:100A5000FEE7FEE704480549054A064B70470000DB
:100A600005090008890100087003002070090020B2
:100A7000700500207005002032490143324A1160A0
:100A8000704770B5002100230F22C4781CB32E4C90
:100A9000246804F4E064C4F5E064C4F30721C1F100
:100AA0000404E3B20A4144789C40E1B284781440E3
:100AB00021430C07210E254C05786155047804F07C
:100AC0001F050124AC4005786D11AD0005F1E0254E
:100AD000C5F8004109E0047804F01F050124AC408A
:100AE0001B4D0678761145F8264070BD194A0A401C
:100AF0000243154B1B1F1A60704739B1124A121D71
:100B000012680243104B1B1D1A6006E00E4A121DAC
:100B1000126882430C4B1B1D1A607047042808D1D1
:100B20004FF0E021096941F004014FF0E02211612A
:100B300007E04FF0E021096921F004014FF0E022C5
:100B4000116170470000FA050CED00E000E400E0E0
:100B500080E100E080FFFF1F10B504469848844202
:100B600008D10121084600F086FB0021012000F099
:100B700082FB76E09348844208D10121022000F0F4
:100B80007AFB0021022000F076FB6AE08E48844266
:100B900008D10121042000F06EFB0021042000F0A8
:100BA0006AFB5EE08948844208D10121082000F0F8
:100BB00062FB0021082000F05EFB52E08448844282
:100BC00008D10121102000F056FB0021102000F078
:100BD00052FB46E07F48844208D10121202000F0EA
:100BE0004AFB0021202000F046FB3AE07A4884428C
:100BF00008D10121402000F03EFB0021402000F000
:100C00003AFB2EE07548844208D10121802000F093
:100C100032FB0021802000F02EFB22E0704884424D
:100C200008D10121801500F026FB0021A01500F05D
:100C300022FB16E06B48844208D10121401500F0E8
:100C40001AFB0021601500F016FB0AE0664884429A
:100C500007D10121001500F00EFB0021201500F046
:100C60000AFB10BDF0B50A4600210023002400BF96
:100C70003DE0012505FA01F3156805EA03049C42ED
:100C800034D105684F000326BE40B5430560157991
:100C90004E00B5400668354305601579012D02D038
:100CA0001579022D16D185684F000326BE40B54345
:100CB000856055794E00B540866835438560456846
:100CC00001268E40B5434560456896798E40B6B2A0
:100CD00035434560C5684F000326BE40B543C56037
:100CE000D5794E00B540C6683543C560491C10290A
:100CF000BFD3F0BD4FF6FF7101600021017141715A
:100D00008171C171704708B54FF480320092009A2A
:100D10000A430092009AC261C161009AC261C2692D
:100D20000092C269009208BD0246002013690B4080
:100D30000BB1012000E0002070470146086980B235
:100D400070470246002053690B400BB1012000E0C0
:100D5000002070470146486980B2704701837047A0
:100D6000418370470AB1018300E0418370474161CC
:100D7000704742694A4042617047F0B50023002441
:100D80004D07ED0E02FA05F3CE1000F1200555F8DF
:100D900026504E07F70E0F26BE40B543CF1000F188
:100DA000200646F82750CE1000F1200555F82650B1
:100DB00045EA0304CE1000F1200545F82640F0BDB9
:100DC000000002400004024000080240000C024003
:100DD000001002400014024000180240001C0240B3
:100DE000002002400024024000280240F948006828
:100DF00040F00100F74908600020F649083108601A
:100E0000F4480068F4490840F2490860F348091DB5
:100E10000860F348EF4984310860F0481038091D34
:100E20000860EC48006820F48020EA49086000204F
:100E3000E8490C310860E7498C31086070470021AF
:100E4000E44A921C117011460870704710B50146B3
:100E50000022002300204A11012A02D1DD4C236820
:100E600008E0022A03D1DB4C7034236802E0D94C3D
:100E70007434236801F01F02012494401C400CB11B
:100E8000012000E0002010BD38B5002000900024B3
:100E9000002500BF3120FFF7D9FF05460098401C10
:100EA00000900098B0F5A04F01D0002DF2D0312075
:100EB000FFF7CCFF08B1012400E00024204638BD34
:100EC00001460020C34A106820F0F80040EAC10043
:100ED00010607047C349086070470021BD4A7032F6
:100EE00011701170012802D004280AD104E00121F8
:100EF000B84A7032117005E00521B64A703211709F
:100F000000E000BF00BF7047B7490860704770B588
:100F1000049C41EA82150126C6EB530645EA0645C4
:100F2000054345EA0465AB4E361D356070BDAD49DD
:100F300008667047820142EA0172A64B84331A6048
:100F40007047A8498866704710B5830143EA01637A
:100F500043EA02739F4C8834236010BDA14908679F
:100F60007047A049C864704702460020994B083377
:100F7000186820F0EC6042EA01031843954B0833EF
:100F80001860704702460020924B0833186820F022
:100F9000784042EA010318438E4B083318607047CB
:100FA000014600208B4A0832106820F003000843F5
:100FB0001060704787480830006800F00C007047E8
:100FC00001460020834A0832106820F0F0000843F0
:100FD00010607047014600207E4A0832106820F4F5
:100FE000E05008431060704701460020794A0832FB
:100FF000106820F4604040EAC10010607047F0B50E
:10100000002100220024022500260223714F083708
:101010003F6807F00C0121B1042905D0082937D118
:1010200005E0724F076036E0714F076033E0694FAB
:101030003F1D3F68C7F38056664F3F1D3F6807F06E
:101040003F036EB16A4FB7FBF3F7DFF888C10CF1CD
:10105000040CDCF800C0CCF3881C07FB0CF40CE09B
:10106000624FB7FBF3F7DFF86CC10CF1040CDCF84E
:1010700000C0CCF3881C07FB0CF4564F3F1D3F68A3
:10108000C7F301477F1C7D00B4FBF5F7076002E062
:10109000564F076000BF00BF4E4F08373F6807F04C
:1010A000F0010909534F7A5C0768D7404760494F00
:1010B00008373F6807F4E051890A4E4F7A5C476869
:1010C000D7408760434F08373F6807F46041490BBA
:1010D000484F7A5C4768D740C760F0BD002100F4F4
:1010E0004072B2F5407F0AD13A4A0832116821F4C1
:1010F000F811414A02401143364A08321160354A1C
:1011000070321268C0F30B031A43324B70331A600B
:1011100070473549443908607047334940390860A1
:10112000704736490860704701460020294A8C32D2
:10113000106820F01F004A1E1043264A8C321060AF
:10114000704701460020234A8C32106820F4F85082
:101150004A1E40EA02201F4A8C3210607047014646
:1011600000201C4A8C32106820F4401008431060A4
:10117000704701460020174A8C32106820F4400066
:1011800008431060704701460020124A8C321068F4
:1011900020F44030084310607047194908607047D8
:1011A00039B10C4A3032126802430A4B30331A60AC
:1011B00006E0084A303212688243064B30331A6028
:1011C0007047F9B1034A343212680243014B343399
:1011D0001A601CE000380240FFFFF6EA10300024DD
:1011E0000030002000004742800E47420024F400F7
:1011F00000127A0014000020FFFCFF0F5C01474240
:10120000E01147428F4A126882438E4B1A60704742
:1012100039B18C4A121D126802438A4B1B1D1A6099
:1012200006E0884A121D12688243864B1B1D1A6015
:10123000704739B1834A0C3212680243814B0C3338
:101240001A6006E07F4A0C32126882437D4B0C33F1
:101250001A60704739B17B4A103212680243794BE9
:1012600010331A6006E0774A103212688243754BD9
:1012700010331A60704739B1724A243A1268024337
:10128000704B243B1A6006E06E4A243A126882438F
:101290006C4B243B1A60704739B16A4A203A126895
:1012A0000243684B203B1A6006E0664A203A126807
:1012B0008243644B203B1A60704739B1614A1C3A43
:1012C000126802435F4B1C3B1A6006E05D4A1C3A01
:1012D000126882435B4B1C3B1A60704739B1594A14
:1012E000143A12680243574B143B1A6006E0554A01
:1012F000143A12688243534B143B1A60704739B159
:10130000504A103A126802434E4B103B1A6006E0F6
:101310004C4A103A126882434A4B103B1A6070479D
:1013200039B1484A1C3212680243464B1C331A60DA
:1013300006E0444A1C3212688243424B1C331A6056
:10134000704739B13F4A2032126802433D4B203387
:101350001A6006E03B4A203212688243394B203340
:101360001A60704739B1374A243212680243354B4C
:1013700024331A6006E0334A243212688243314B28
:1013800024331A60704739B12E4A2C321268024356
:101390002C4B2C331A6006E02A4A2C321268824306
:1013A000284B2C331A60704739B1264A3032126804
:1013B0000243244B30331A6006E0224A303212686E
:1013C0008243204B30331A607047012808D11D49F1
:1013D0003C31096841F008011A4A3C32116007E0CB
:1013E00018493C31096821F00801164A3C32116065
:1013F000704739B1134A273A12780243114B273B01
:101400001A7006E00F4A273A127882430D4B273BA9
:101410001A7070470B484030006840F080700949EE
:1014200040310860704701460020064A283A126899
:101430000A400AB1012000E0002070470149263926
:10144000087070473438024010B50446FE488442A4
:1014500008D101210846FFF752FF00210120FFF7C4
:101460004EFF9DE0B4F1804F08D101210846FFF7FF
:1014700035FF00210120FFF731FF91E0F34884425E
:1014800008D101210220FFF729FF00210220FFF7E8
:1014900025FF85E0EE48844208D101210420FFF7B2
:1014A0001DFF00210420FFF719FF79E0E94884427D
:1014B00008D101210820FFF711FF00210820FFF7C4
:1014C0000DFF6DE0E448844208D101211020FFF7B0
:1014D00005FF00211020FFF701FF61E0DF48844293
:1014E00008D101212020FFF7F9FE00212020FFF77D
:1014F000F5FE55E0DA48844208D101210220FFF7C9
:10150000FEFE00210220FFF7FAFE49E0D5488442A2
:1015100009D101210804FFF7F2FE00214FF48030C9
:10152000FFF7EDFE3CE0D048844209D10121480498
:10153000FFF7E5FE00214FF40030FFF7E0FE2FE05B
:10154000CA48844209D101218804FFF7D8FE00214E
:101550004FF48020FFF7D3FE22E0C548844208D133
:1015600001214020FFF7BAFE00214020FFF7B6FE20
:1015700016E0C048844208D101218020FFF7AEFE6A
:1015800000218020FFF7AAFE0AE0BB48844207D171
:1015900001218015FFF7A2FE0021A015FFF79EFE96
:1015A00010BD00220288A84B98420ED0AC4B984246
:1015B0000BD0B0F1804F08D0A44B984205D0A44B7B
:1015C000984202D0A34B984204D14FF68F731A4031
:1015D0004B881A43A04B984207D0A04B984204D0A6
:1015E0004FF6FF431A400B891A4302804B68C362CF
:1015F0000B880385944B984202D0994B984201D1B5
:101600008B7A03860123838270474FF0FF3141605C
:1016100000210180018141808172704701858282B1
:1016200070470A46002101884FF68F731940114315
:101630000180704741627047C16270470146486A45
:1016400070470146088D704721B1028842F00202BE
:10165000028004E002884FF6FD731A400280704752
:1016600021B1028842F00402028004E002884FF6B1
:10167000FB731A400280704721B1028842F0800259
:10168000028004E002884FF67F731A4002807047A0
:1016900002884FF6F7731A40028002880A430280DC
:1016A000704702884FF6FF431A40028002880A43BF
:1016B0000280704721B1028842F00102028004E0FA
:1016C00002884FF6FE731A400280704770B50024FE
:1016D00000220023058C4FF6FE7635400584028CEF
:1016E0008388048B4FF68F752C40B51E2C400D88D7
:1016F0002C43751E2A408D892A434D882A43524D1A
:10170000A84202D0564DA84213D14FF6F7752A4091
:10171000CD892A434FF6FB752A408D882A434FF620
:10172000FF652B404FF6FF552B400D8A2B434D8A0A
:101730002B43838004838D684563028470BD70B53C
:10174000002400220023058C4FF6EF7635400584F7
:10175000028C8388048B48F6FF752C404FF6FF45BA
:101760002C400D884FF6FF7606EA05252C434FF6F0
:10177000DF752A408D8906EA05152A434D8806EA59
:1017800005152A43304DA84202D0354DA8421DD13F
:101790004FF67F752A40CD894FF6FF7606EA05158C
:1017A0002A434FF6BF752A408D8806EA05152A435D
:1017B0004FF6FF352B404FF2FF752B400D8A06EA9E
:1017C00085052B434D8A06EA85052B4383800483D8
:1017D0008D688563028470BD70B5002400220023EB
:1017E000058C4FF6FF6635400584028C8388848B18
:1017F0004FF68F752C404FF6FC752C400D882C430E
:101800004FF6FF552A408D894FF6FF7606EA0525EB
:101810002A434D8806EA05252A430B4DA84202D0EB
:101820000F4DA84238D14FF2FF752A40CD894FF6AF
:10183000FF7606EA05252A434FF6FF352A408D88B4
:1018400006EA05252A4319E0000001400004004093
:1018500000080040000C0040001000400014004050
:1018600000040140004001400044014000480140A4
:1018700000180040001C0040002000404EF6FF759C
:101880002B404DF6FF752B400D8A06EA05152B43BC
:101890004D8A06EA05152B43838084838D68C563D2
:1018A000028470BD70B5002200230024058C4EF622
:1018B000FF7635400584038C8488828B48F6FF755B
:1018C0002A404FF6FF452A400D884FF6FF7606EA7C
:1018D00005252A434DF6FF752B408D8906EA05350F
:1018E0002B434D8806EA05352B43FE4DA84202D016
:1018F000FD4DA84208D14BF6FF752C400D8A4FF6DE
:10190000FF7606EA85152C43848082838D68056402
:10191000038470BD002101804180818081608181CC
:10192000C18101824182704770B5034600200024C6
:101930001846183001258D40ACB21D8CA5431D847E
:1019400009B108290AD100EB610005684FF68F76CE
:10195000354005600568154305600FE00D1FC5F3B0
:101960004E052844056848F6FF7635400560056851
:101970004FF6FF7606EA02263543056070BD4163E7
:10198000704781637047C1637047016470470A46BE
:101990000021018B4FF68F7319401143018370476B
:1019A0000A460021018B48F6FF7319404FF6FF737A
:1019B00003EA02231943018370470A460021818B01
:1019C0004FF68F7319401143818370470A460021F7
:1019D000818B48F6FF7319404FF6FF7303EA022329
:1019E0001943818370470A460021018B4FF6F77334
:1019F00019401143018370470A460021018B4FF2C1
:101A0000FF7319404FF6FF7303EA02231943018362
:101A100070470A460021818B4FF6F7731940114336
:101A2000818370470A460021818B4FF2FF73194072
:101A30004FF6FF7303EA02231943818370470A4676
:101A40000021018B4FF6FB7319401143018370474E
:101A50000A460021018B4FF6FF3319404FF6FF7302
:101A600003EA02231943018370470A460021818B50
:101A70004FF6FB7319401143818370470A460021DA
:101A8000818B4FF6FF3319404FF6FF7303EA0223B1
:101A90001943818370470A460021018B4FF67F73FB
:101AA00019401143018370470A460021018BC1F39D
:101AB0000E014FF6FF7303EA0223194301837047B7
:101AC0000A460021818B4FF67F73194011438183B1
:101AD00070470A460021818BC1F30E014FF6FF7358
:101AE00003EA02231943818370470A460021018CCF
:101AF0004FF6FD7319401143018470470A460021D7
:101B0000018C4FF6F77319401143018470470A4660
:101B10000021018C4FF6DF7319404FF6FF7303EA83
:101B200002131943018470470A460021018C4FF6C5
:101B30007F7319404FF6FF7303EA021319430184C0
:101B400070470A460021018C4FF6FF5319404FF6AB
:101B5000FF7303EA02231943018470470A460021F8
:101B6000018C4FF2FF7319404FF6FF7303EA022313
:101B70001943018470470A460021018C4DF6FF731A
:101B800019404FF6FF7303EA02331943018470478B
:101B900030B5002301248C40A3B2048C9C43048400
:101BA000048C02FA01F5ADB22C43048430BD30B58B
:101BB000002304248C40A3B2048C9C430484048C32
:101BC00002FA01F5ADB22C43048430BD828B4FF292
:101BD000FF331A408283828B4FF6FF7303EA01239F
:101BE0001A4382837047F0B50C4615460021002247
:101BF0000026078C4EF6FF7C07EA0C070784818BD2
:101C0000028C4FF6FF7707EA043640F6FF4739406B
:101C10004FF6FF7707EA052739434FF6FF7707EAC4
:101C20000337394345F6FF773A4046F480573A4345
:101C300081830284F0BD828B4FF6F3731A40828356
:101C4000828B0A4382837047F0B50C46154600210B
:101C500000220026078C4FF6FF6C07EA0C0707846A
:101C6000818B028C4FF6FF7707EA04264FF60C773C
:101C700039404FF6FF7707EA03172F4339434FF2F6
:101C8000FF573A4046F480773A4381830284F0BD9F
:101C9000028B4FF2FF331A400283028B4FF6FF7321
:101CA00003EA01231A4302837047F0B50C46154638
:101CB000002100220026078C4FF6EF7C07EA0C0774
:101CC0000784018B028C4FF6FF7707EA041640F673
:101CD000FF4739404FF6FF7707EA033739434FF69E
:101CE000FF7703E0000001400004014007EA0527F8
:101CF00039434FF65F773A4046F010073A43018385
:101D00000284F0BD028B4FF6F3731A400283028BFC
:101D10000A4302837047F0B50C46154600210022A5
:101D2000068C4FF6FE773E400684018B028C4FF600
:101D30000C7631407E1C06EA03162E4331434FF6E3
:101D4000F576324044F00106324301830284F0BD4F
:101D500070B505460C46208850B92389A288618851
:101D60002846FFF7D8FFE1882846FFF7CBFF25E09C
:101D7000208804280AD12389A28861882846FFF791
:101D800094FFE1882846FFF783FF17E020880828A2
:101D90000AD12389A28861882846FFF755FFE18888
:101DA0002846FFF748FF09E02389A2886188284672
:101DB000FFF719FFE1882846FFF708FF70BD0021F3
:101DC00001804180012181800021C1800181704713
:101DD0002DE9F04105460C4600260127608808B928
:101DE000022600E00026A088012801D1022700E099
:101DF00001272088A0B92389A28861882846FFF797
:101E00008AFFE1882846FFF77DFF23893A4631465D
:101E10002846FFF74AFFE1882846FFF739FF13E01D
:101E20002389A28861882846FFF73FFFE18828467A
:101E3000FFF72EFF23893A4631462846FFF76BFF0E
:101E4000E1882846FFF75EFFBDE8F0810146486B58
:101E500070470146886B70470146C86B7047014662
:101E6000086C70470A884B881A438B881A43CB88C2
:101E70001A430B891A434B891A438B891A43A0F8DA
:101E8000442070470021018041808180C180018110
:101E900041818181704731B1B0F8442042F4004261
:101EA000A0F8442005E0B0F84420C2F30E02A0F8E8
:101EB0004420704721B1828842F00402828004E00D
:101EC00082884FF6FB731A408280704721B1828866
:101ED00042F00102828004E082884FF6FE731A40CD
:101EE000828070471AB183890B43838102E0838922
:101EF0008B43838170478182704702460020138A9A
:101F00000B400BB1012000E000207047CA43028261
:101F1000704730B50246002000230024158A05EAE8
:101F20000103958905EA010413B10CB1012000E019
:101F3000002030BDCA430282704741EA0203A0F884
:101F4000483070471AB183890B43838102E083894B
:101F50008B438381704721B1828842F008028280DE
:101F600004E082884FF6F7731A4082807047018937
:101F70004FF6F8721140018170470A46002101892D
:101F80004FF68F73194011430181704730B50446F5
:101F90000D4629462046FFF7F0FF208940F0070054
:101FA000208130BD2DE9F04104460D4616461F46FE
:101FB000602D06D13B46012231462046FFF775FED3
:101FC00005E03B46012231462046FFF7A4FE2946A4
:101FD0002046FFF7D2FF208940F007002081BDE8AE
:101FE000F08130B50C4600210189C9B24FF6FF756A
:101FF00005EA0325154325432943018130BD2DE919
:10200000F04105460E4617469846002443463A4698
:1020100031462846FFF7E5FF2C894FF6F87004405B
:1020200044F007044FF68F70044044F070042C8194
:10203000BDE8F081F0B504460D4616461F463B4606
:10204000324629462046FFF7CCFF208940F48040E5
:102050002081F0BD82884FF68F731A40828082887B
:102060000A438280704702894FF6F8731A40028152
:1020700002890A430281704702894FF67F731A4032
:10208000028102890A4302817047F0B50C46154669
:102090001E460021002200230189028B038C4FF68B
:1020A000F877394021434FF6FC473A4040F2011798
:1020B0003A434FF6DD773B404FF6FF7707EA0617C6
:1020C0002F433B43018102830384F0BD21B1828809
:1020D00042F08002828004E082884FF67F731A40CB
:1020E00082807047A0F850107047000010B5044679
:1020F000F948844208D101211020FFF700F900219E
:102100001020FFF7FCF857E0F448844209D1012180
:102110004804FFF7E3F800214FF40030FFF7DEF842
:102120004AE0EF48844209D101218804FFF7D6F83C
:1021300000214FF48020FFF7D1F83DE0E9488442C8
:1021400009D10121C804FFF7C9F800214FF400208C
:10215000FFF7C4F830E0E448844209D101210805C2
:10216000FFF7BCF800214FF48010FFF7B7F823E029
:10217000DE48844208D101212020FFF7C0F8002169
:102180002020FFF7BCF817E0D948844209D101218B
:102190008807FFF7A3F800214FF08040FFF79EF873
:1021A0000AE0D448844207D101214005FFF796F8A0
:1021B00000216005FFF792F810BD2DE9FF470546A5
:1021C0000E460024A14600BFA046B08900B100BF62
:1021D0002C8A24F44054F08804432C82AC8941F2C8
:1021E0000C608443B08831890843718908430443F3
:1021F000AC81AC8A24F44074B0890443AC82684654
:10220000FEF7FDFEB448854202D0B848854202D1AF
:10221000DDF80C9001E0DDF80890A88900F400409A
:1022200040B109EBC90000EB091031684900B0FB6F
:10223000F1F707E009EBC90000EB091031688900EC
:10224000B0FBF1F76420B7FBF0F004012009642132
:1022500001FB1078A88900F4004040B1322000EB67
:10226000C800B0FBF1F000F00700044308E03220A2
:1022700000EB08106421B0FBF1F000F00F00044304
:102280002C81BDE8FF874FF4165101600021818049
:10229000C18001810C21418100218181704710B5ED
:1022A00002460020108A20F470600B884C8823437B
:1022B0008C882343CC8823431843108210BD00210F
:1022C000018041808180C180704721B1828942F4C0
:1022D0000052828104E082894DF6FF731A408281A8
:1022E0007047028B02F47F420283028B0A4302830F
:1022F000704721B1828942F40042828103E08289E1
:10230000C2F30E028281704721B1828A42F40062D8
:10231000828204E0828A4FF2FF731A408282704701
:102320008180704701468888C0F308007047028AA0
:102330004FF6F0731A400282028A0A430282704703
:1023400021B1828942F00202828104E082894FF643
:10235000FD731A408281704782894FF2FF731A40E1
:10236000828182890A4382817047028A4FF6DF7335
:102370001A400282028A0A430282704721B1028A0D
:1023800042F48042028204E0028A4BF6FF731A4054
:1023900002827047818941F001018181704721B13A
:1023A000828A42F00802828204E0828A4FF6F77342
:1023B0001A4082827047028BD2B20283028B42EAB9
:1023C00001220283704721B1828A42F02002828278
:1023D00004E0828A4FF6DF731A408282704721B18F
:1023E000828A42F01002828204E0828A4FF6EF7302
:1023F0001A4082827047828A4FF6FB731A408282AB
:10240000828A0A438282704721B1828A42F00202A4
:10241000828204E0828A4FF6FD731A4082827047FE
:102420001AB1838A0B43838202E0838A8B438382BF
:102430007047F0B50346002400260025002040F632
:102440006A17B94200D100BF1846C1F3421401F027
:102450001F06012707FA06F5012C01D10C3004E014
:10246000022C01D1103000E014301AB107682F435C
:10247000076002E00768AF430760F0BD0246002036
:10248000B1F5007F00D100BF13880B400BB10120D4
:1024900000E00020704701F40072B2F5007F00D127
:1024A00000BFCA430280704770B502460024002373
:1024B0000025002040F66A16B14200D100BFC1F3EA
:1024C000421501F01F03012606FA03F3012D13D173
:1024D0009689334017E0000000100140004400409E
:1024E00000480040004C00400050004000140140F3
:1024F00000780040007C0040022D02D1168A334053
:1025000001E0968A33400C12012606FA04F416887C
:10251000344013B10CB1012000E0002070BD10B5B3
:102520000022002340F66A14A14200D100BF0A1223
:1025300001249440A3B2DC43048010BD10B50446CE
:102540006FF00400FEF7EAFAE11704EB5171C1F3F2
:10255000C701394A11701046007800EB4001C1EB09
:10256000C0104FF6FF7101EAC0003449088010BD69
:102570000146314A12784A434FF0E0235A61002263
:102580009A611A46126942F001021A6100BF4FF0C7
:10259000E022106900F001021AB100F48032002A32
:1025A000F5D04FF0E022126922F001024FF0E02353
:1025B0001A6100229A6170470146204A12884A43F4
:1025C0004FF0E0235A6100229A611A46126942F0E4
:1025D00001021A6100BF4FF0E022106900F0010211
:1025E0001AB100F48032002AF5D04FF0E0221269CF
:1025F00022F001024FF0E0231A6100229A61704735
:1026000070B504464FF4077094FBF0F0C6B24FF477
:10261000077094FBF0F100FB114085B205E04FF428
:102620000770FFF7C9FF701EC6B2002EF7D115B1B3
:102630002846FFF7C1FF70BD2400002026000020BF
:1026400030B587B004460D4601210846FEF702FE6C
:1026500001211020FEF7A4FD4FF400700590022028
:102660008DF8180003208DF8190000208DF81A004D
:1026700002208DF81B0005A95548FEF7F3FA012248
:1026800009215348FEF779FB5248FEF7DDFEADF80D
:1026900008500020ADF80A000394ADF810008DF842
:1026A000120002A94B48FEF77CFF00204A4908802F
:1026B0004880012088800020C88008814548FFF7B5
:1026C00047FB012203214348FFF70CFC1B208DF838
:1026D000040003208DF805008DF8060001208DF818
:1026E000070001A8FEF7CDF901213A48FEF7E2FF05
:1026F00007B030BD70B504460D4629462046FFF7A9
:102700009FFF70BD10B53548007800F080000028AC
:1027100059D101212F48FFF7FCFBD0B12F48007899
:1027200000F04000A8B12D48007800F03F003F289D
:102730000AD12A48007840F08000284908704FF0FC
:10274000FF302749086004E024480078401C2349F2
:10275000087002211F48FFF7DCFBA0B31F48007878
:1027600000F04000A0B11D48007840F080001B49F7
:1027700008701848FFF76AFB194908601548FFF709
:1027800068FB1849086000211248FFF7AEF91AE00B
:10279000002012490870124908601048007840F083
:1027A00040000E49087000210A48FEF783FF00210F
:1027B0000848FEF73FFF02210648FFF796F901217E
:1027C0000448FEF777FF03210248FFF7B3FB10BD73
:1027D00000100240000001408C0000202800002072
:1027E0002C0000203000002010B588B004460121E4
:1027F0000220FEF7D5FC01218804FEF71AFD07220E
:102800000A217448FEF7B9FA07220B217148FEF736
:10281000B4FA4FF44060069002208DF81C008DF849
:102820001D0000208DF81E0001208DF81F0006A954
:102830006848FEF717FA02940020ADF80C00ADF8D6
:102840000E00ADF81000ADF814000C20ADF8120029
:1028500002A96148FFF7B1FC01215F48FFF735FD90
:10286000012240F225515C48FFF7E3FD27208DF857
:10287000040003208DF8050002208DF806000120D9
:102880008DF8070001A8FEF7FCF808B010BD10B5E0
:1028900040F225515048FFF707FE00285AD04E4815
:1028A000FFF740FDC4B24D48008800F40040002806
:1028B00050D14A48008828B9802C03D000204749CD
:1028C000088010BD45480088012805D18F2C03D011
:1028D000002042490880F4E740480088022805D1DA
:1028E000EA2C03D000203D490880EAE73B480088F5
:1028F000032805D1162C03D0002038490880E0E7D2
:1029000036480088042805D1502C03D000203349D4
:102910000880D6E731480088052805D1042C03D06B
:1029200000202E490880CCE72C480088C0F30D0019
:102930002B490C5429480088192806DB27480088B1
:1029400040F4004025490880BBE724480088401C2B
:102950002249088000BFB4E710B59EB04FF4E130C3
:10296000FFF742FF4FF4FA70FFF74AFE14221DA151
:1029700019A800F059FE64221F49684600F054FE71
:1029800000240DE019A8015D1348FFF7C9FC00BF42
:1029900040211148FFF772FD0128F9D1601CC4B233
:1029A000142CEFD34FF4FA70FFF72AFE00240DE049
:1029B0001DF804100848FFF7B3FC00BF402106488B
:1029C000FFF75CFD0128F9D1601CC4B2622CEFD383
:1029D0001EB010BD0004024000480040340000203A
:1029E00096000020808FEA0320020725808FEA01ED
:1029F0009B95808FEA01A19BE452000830B58BB013
:102A000004460D4601210220FEF713FC0121084671
:102A1000FEF7C6FB4020099002208DF82800032015
:102A20008DF8290000208DF82A0002208DF82B0057
:102A300009A94448FEF716F9022206214148FEF78B
:102A40009CF9A8B2ADF818000020ADF81A00079460
:102A5000ADF8200006A93C48FEF7A3FD6020ADF8C4
:102A600004000120ADF806000220ADF8100001A915
:102A70003548FEF72BFE08213348FEF7B4FF01214D
:102A80003148FEF7F9FD01212F48FEF713FE0BB088
:102A900030BD30B58BB004460D4601210846FEF727
:102AA000C8FB01210846FEF77BFB2020099002208D
:102AB0008DF8280003208DF8290000208DF82A00C9
:102AC00002208DF82B0009A91E48FEF7CBF8012241
:102AD00005211C48FEF751F9A8B2ADF818000020F6
:102AE000ADF81A000794ADF8200006A94FF0804019
:102AF000FEF757FD6020ADF804000120ADF8060098
:102B00000220ADF8100001A94007FEF7DFFD082103
:102B1000C806FEF768FF01218807FEF7ADFD012119
:102B20008807FEF7C7FD0BB030BD10B5532143F643
:102B3000A620FFF7AEFF532143F6A620FFF75EFF66
:102B400010BD0000000002400004004000BF7047BC
:102B500000BF704700BF604A128802F04002002A9E
:102B6000F9D0C2B25C4B9A80704710B588B0044669
:102B700001210846FEF714FB01211020FEF76AFB35
:102B8000072209215548FEF7F8F807220A21534881
:102B9000FEF7F3F84FF4C060069002208DF81C0099
:102BA0008DF81D0000208DF81E0001208DF81F00FB
:102BB00006A94A48FEF756F802940020ADF80C002A
:102BC000ADF80E00ADF81000ADF814000C20ADF813
:102BD000120002A94048FFF7F0FA01213E48FFF732
:102BE00074FB012240F225513B48FFF722FC2520CF
:102BF0008DF8040003208DF805008DF806000120F3
:102C00008DF8070001A8FDF73CFF08B010BD10B516
:102C100040F225513048FFF747FC002840D02E48AD
:102C2000FFF780FBC4B22E48008800F40040B8BB18
:102C30002B48008800F4804060B10A2C03D00020AB
:102C40002749088020E02648008840F400402449B5
:102C5000088019E00D2C06D12148008840F48040FE
:102C60001F49088010E01E480088C0F30D001D4970
:102C70000C541B480088401C1949088008460088ED
:102C8000C72801DD002008801548008818B11448C5
:102C90000088012804D14F2C02D000201049088060
:102CA00010BD10B54FF4E130FFF75FFF6420FFF770
:102CB000A7FC0DA000F082FB6420FFF7A1FC17A089
:102CC00000F07CFB6420FFF79BFC18A000F076FB73
:102CD0006420FFF795FC10BD001001400000024089
:102CE0003C0000205E01002041542B4349505354C6
:102CF0004152543D22554450222C223235352E3239
:102D000035352E3235352E323535222C33303030B4
:102D10002C353030302C300D0A00000041542B434C
:102D200049504D4F44453D310D0A000041542B435D
:102D3000495053454E440D0A0000000030B587B09D
:102D400004460D4601218804FEF784FA0121022081
:102D5000FEF726FA4FF40070059002208DF8180057
:102D600003208DF8190000208DF81A0002208DF83C
:102D70001B0005A99F48FDF775FF032209219D4807
:102D8000FDF7FBFFADF808500020ADF80A000394F2
:102D9000ADF8100002A99848FEF703FC00209749FF
:102DA00008804880012088800020C88008819248DF
:102DB000FEF7CEFF012203218F48FFF793F8012190
:102DC0008D48FEF777FC1A208DF8040003208DF85B
:102DD00005008DF8060001208DF8070001A8FDF719
:102DE00050FE07B030BD10B58548007800F0800077
:102DF000002859D101218048FFF78BF8D0B18048D5
:102E0000007800F04000A8B17D48007800F03F0055
:102E10003F280AD17A48007840F08000784908704D
:102E20004FF0FF307749086004E075480078401C97
:102E30007349087002217048FFF76BF8A0B370481F
:102E4000007800F04000A0B16D48007840F08000AC
:102E50006B4908706848FEF7F9FF6A4908606648E0
:102E6000FEF7F7FF6849086000216348FEF73DFE62
:102E70001AE00020624908706249086060480078E2
:102E800040F040005E49087000215B48FEF712FCEC
:102E900000215948FEF7CEFB02215748FEF725FED8
:102EA00001215548FEF706FC03215348FFF742F87D
:102EB00010BD10B588B0044601210420FEF770F95A
:102EC00001212020FEF7C6F9082206214F48FDF710
:102ED00054FF082207214D48FDF74FFFC020069000
:102EE00002208DF81C008DF81D0000208DF81E00BA
:102EF00001208DF81F0006A94448FDF7B3FE029497
:102F00000020ADF80C00ADF80E00ADF81000ADF8E3
:102F100014000C20ADF8120002A93D48FFF74DF94E
:102F200001213B48FFF7D1F9012240F225513848F1
:102F3000FFF77FFA47208DF8040003208DF8050085
:102F400002208DF8060001208DF8070001A8FDF78A
:102F500098FD08B010BD10B540F225512C48FFF780
:102F6000A3FA002839D02A48FFF7DCF9C4B229486F
:102F7000008800F4004080BB2648008838B125480E
:102F80000088012803D023480088022805D1BB2CE3
:102F900003D000201F49088010BD1E480088042867
:102FA00005D1A12C03D000201A490880F4E7194864
:102FB0000088C0F30D0018490C54164800880B28EF
:102FC00006DB1448008840F4004012490880E3E71B
:102FD00010480088401C0F49088000BFDCE710B58E
:102FE000532142F2A770FFF7A9FE4FF41650FFF7E6
:102FF00060FF10BD0004024000480140260200208E
:10300000400000204400002048000020000802404A
:10301000001401404C0000203002002010B504468E
:103020002DA000F0CBF99FED310A84ED000A9FED51
:103030002F0A84ED010A9FED2D0A84ED020A9FED0F
:103040002B0A84ED040A9FED290A84ED030A9FED03
:10305000280A84ED050A9FED270A84ED060A9FEDF4
:10306000260A84ED070A25A000F0A8F910BDB0EEED
:10307000401A80ED001AD0ED001A71EEE01AC0ED92
:10308000021AD0ED021A90ED032A71EEC21A90EDE9
:10309000052A61EE821A90ED062AD0ED022A42EE50
:1030A000221A90ED022AD0ED032AB0EE003A03EE88
:1030B000622AD0ED042A32EE222AD0ED072A42EE0F
:1030C000821AB0EE610AD0ED031AC0ED041AD0EDF9
:1030D000021AC0ED031A70475049445F696E697463
:1030E00020626567696E200D0A0000000000000084
:1030F000CDCCCC3E9A99993ECDCCCC3D5049445F45
:10310000696E697420656E64200D0A002DE9F04136
:103110002DED088B044600250026984F40F6B83068
:10312000844201D9044604E040F25230844200D285
:10313000044693480068201A642804D89048006820
:10314000001B642804D98E4800688E49086003E09B
:103150008C4804608A4804608A48006801F059FD80
:1031600041EC1B0B9FED880B53EC102B01F0A0FDE5
:1031700041EC190B8648006801F04BFD41EC1B0B3C
:103180009FED840B53EC102B01F092FD41EC1A0BD8
:1031900053EC192B01F09CFA41EC180B01F0A4FC44
:1031A00080B27E49086008460068794908607B481B
:1031B000008881B27A4802780078401C784B1870F9
:1031C00027F8121018460078062190FBF1F201FB57
:1031D000120019460870002505E037F81500304444
:1031E00086B2681C85B2062DF7DB062096FBF0F050
:1031F00080B2BDEC088BBDE8F08130B587B00446E5
:103200000D4601210420FEF714F801210220FDF7EC
:10321000C7FF4FF48070059002208DF8180003203E
:103220008DF8190000208DF81A0001208DF81B0080
:1032300005A95C48FDF716FD4FF480715948FDF76C
:103240008DFD022208215748FDF797FDADF8085083
:103250000020ADF80A000394ADF8100002A952480E
:10326000FEF79FF909215048FEF764FE08204F49F8
:10327000088002204880012088800020C8800881C2
:103280004948FEF765FD012209214748FEF72AFE5D
:1032900001214548FEF70EFA1E208DF80400022099
:1032A0008DF8050000208DF8060001208DF807003C
:1032B00001A8FDF7E6FB07B030BD10B53C4800782B
:1032C00000F08000002854D101213748FEF721FE8C
:1032D000D0B13748007800F04000A8B134480078F9
:1032E00000F03F003F280AD13148007840F08000CC
:1032F0002F4908704FF0FF302E49086004E02C4839
:103300000078401C2A49087008212748FEF701FE72
:1033100078B32748007800F0400078B1244800785E
:1033200040F08000224908701F48FEF795FD2149B2
:10333000086002211C48FEF704FC1AE000201C492A
:1033400008701C4908601A48007840F0400018498D
:10335000087000211448FEF7ADF900211248FEF76D
:1033600069F902211048FEF7ECFB01210E48FEF737
:10337000A1F909210C48FEF7DDFD10BDF80200207F
:10338000580000205C000020343333333333C33F14
:1033900054000020333333333333EB3F50000020ED
:1033A00068000020000402400008004004030020E0
:1033B0006000002064000020704700000FB4044942
:1033C00010B503AA029800F011FC10BC5DF814FBC4
:1033D000380000202DE9F0410646002410687529C8
:1033E000314616A510D0AFF30080002802DA404223
:1033F00013A507E031688A0701D512A502E0490745
:1034000004D511A5012401E0AFF3008000210A22B8
:1034100006F1240709E0B0FBF2FCB0FBF2F302FB7B
:103420001C00303078541846491C0028F3D123463C
:103430002A463046BDE8F04100F071B900000000B6
:103440002D0000002B000000200000002DE9F041BD
:103450008046D21D22F007020025D2E90002F5299C
:1034600015A614D0011E72F1000106DA0023D0EB7C
:10347000030063EB020211A608E0D8F800108B07E6
:1034800001D50FA602E0490701D50EA60125114678
:10349000002408F1240704E000F0FCF830323A552B
:1034A000641C50EA0102F7D12B46324621464046C1
:1034B000BDE8F04100F033B9000000002D0000002D
:1034C0002B000000200000002DE9F0474FF0000A1B
:1034D00089460446C0F820A02046E16888470028B5
:1034E00076D0252806D0D4E901219047206A401CD7
:1034F0002062F1E7E168204600268847C4F81CA056
:1035000005460027C4F818A02A2D09D0284601F046
:1035100090F838B304EB8708303DC8F8185019E02C
:1035200059F8041B204604EB87029161E168884743
:10353000012F054618D1E069002820DA26F0200680
:103540001DE0D8F8180000EB800005EB4000303893
:10355000C8F818002046E1688847054601F069F878
:103560000028EED1012F0AD02E2D08D12046E16887
:1035700088477F1C0546022F46F02006C4DBA06961
:10358000002803DA404246F00106A061F00701D0AE
:1035900026F010066C2D0AD0682D08D04C2D39D09D
:1035A0006A2D35D0742D35D07A2D33D016E0E168F0
:1035B0002F4620468847B84205460AD16C2F27D0AF
:1035C0004FF48060E168064320468847054605E0E1
:1035D00027E06C2F1AD04FF4807006430DB3A5F18D
:1035E0004100192802D8203546F400664A4629468B
:1035F000204626604E46FCF701FE80B101280BD024
:10360000F61D26F0070000F1080965E74020E4E711
:103610008020D7E70020D5E706F104095CE72846BB
:1036200061E7206ABDE8F08710B5203AC0F00B8052
:10363000B1E81850203AA0E81850B1E81850A0E8B6
:103640001850BFF4F5AF5FEA027C24BFB1E8185010
:10365000A0E8185044BF18C918C0BDE810405FEA80
:10366000827C24BF51F8043B40F8043B08BF7047FC
:10367000D20728BF31F8023B48BF11F8012B28BF01
:1036800020F8023B48BF00F8012B70477047704795
:103690007047704730B5B0F10A024FEA900E71F1F1
:1036A00000034EEA817EB0EB0E0061EB91014FEA20
:1036B000101E4EEA017E10EB0E0041EB11114FEA95
:1036C000102E4EEA016E10EB0E0041EB11214FEA75
:1036D000104E4EEA014E10EB0E0041EB1141401826
:1036E00041F100014FEAD00040EA41704FEAD101B8
:1036F00010EB80054FEA810444EA907444EB010426
:103700006D1944EB0404521BA3414FF0000348BF62
:103710000A3200D530BD401C41F1000130BD2DE919
:10372000F0470D4699469246044600F12408016888
:10373000880604D5E06921F01001216000E0012035
:10374000A84201DD471B00E00027A1697A1902EBBE
:103750000900081AA0612078C00602D42046AFF301
:103760000080002608E0D4E901211AF806009047FD
:10377000206A401C761C20624E45F4DB2078C0068F
:103780000AD52046AFF3008006E0D4E901213020BD
:103790009047206A401C2062381EA7F10107F4DC24
:1037A00007E0D4E9012118F805009047206A401C81
:1037B0002062281EA5F10105F3DC2046AFF300804E
:1037C0002078000602D50220BDE8F0870120FBE743
:1037D00070472DE9FF4F0C461E464FF0FF378BB068
:1037E000D2E90001DDF860800A908A46C1F30A55EB
:1037F00005B93D46002108464FF00000BAF1000F20
:1038000000F4400005DA00EB80004FF4400101EACB
:1038100050004FEA9059B9F1010F00DDB9460A98FE
:1038200050EA4A000ED044F61050A5F2FF35454349
:103830002F14B8F1000F1ED07542291E1EDDC9F1EC
:1038400000021CE0B8F1010F4FF0000001D0302160
:1038500003E0F24305E02154401CB042FBDB30465C
:103860000022002121540B99C1F80880C1E90020F1
:103870000FB0BDE8F08FBD1B6D1CDEE74A4600DAD5
:10388000694206A800F020FA06AB93E8070003ABF4
:1038900083E8070050460A9900F0F8FA8DE807001F
:1038A000A0F500501F3800900398002D09DD42F26A
:1038B0001F014A46084403A90390684600F057FDDB
:1038C00008E0A0F500504A461F3803A90390684657
:1038D00000F061FD8DE807000004000C03D04FF0FC
:1038E000FF30410800E01046B8F1000F03D000227D
:1038F000009215461EE0751E05D4FFF7CBFE303250
:1039000062556D1EF9D5B3460122084302D000224C
:103910007F1C04E02078302801D100227F1E002A7D
:10392000099786D01DE0112D07DAFFF7B3FE30327C
:1039300062556D1C50EA0102F5D1084302D000988F
:10394000C8B10EE00021681E05E0235C625C635490
:103950002254401E491C8142F7DBAB46A81B401E87
:103960000990002004F80B000B98099AC0F8088011
:10397000C0E9002B7CE711264FF0000859E72DE93C
:10398000F04F88460446D21D22F0070191B0D1E9DC
:103990000001CDE90A0100F034FE02460B98C00F89
:1039A00001D02D2007E02068810701D52B2002E0FF
:1039B000202101EAC000032A099001D0072A05DB73
:1039C00003464146204600F03FF90BE1207880068F
:1039D00001D5E06900E00620B8F1650F814606D008
:1039E000B8F1660F18D0B8F1670F70D131E0002040
:1039F000B9F1110F009001DB112301E009F101037E
:103A00000AAA01A90CA8FFF7E4FEDDE90C70002664
:103A100009F10105834647E001204B4600904FF035
:103A200000470AAA01A90CA8FFF7D3FEDDE90DB0F3
:103A30000C995D46002610B909F101000D18B9EB8B
:103A4000050003D4C0F1FF3609F10105A5EB09001B
:103A50002BE0B9F1010F01DA4FF001090020B9F1B3
:103A6000110F0090484601DD112300E003460AAA29
:103A700001A90CA8FFF7ADFEDDE90C704D4600264C
:103A80008346207800070AD4AB4500DA5D4601A8DA
:103A9000012D04DD411911F8011C302907D04F45D3
:103AA00002DA17F1040F04DA012082460FE06D1EDE
:103AB000EEE7002F02DCED1B3E4403E0781CA84239
:103AC00000DD7D1CB81B00F1010A4FF00047207893
:103AD000000703D4AA4501DB4FF0FF3A0021B7F1FC
:103AE000004F0DF143088DF8431024D002202B2302
:103AF000002F01DA7F422D230A21021EA0F10100CE
:103B000000DC5FB197FBF1FC97FBF1F201FB1C7C41
:103B100017460CF1300C08F801CDEEE7A8F10100D2
:103B200003702188090501D5452100E06521A0F138
:103B3000010800F8011C09980FA9A1EB0807FF1D57
:103B400000B10120411901EBEA70A1693844081A5B
:103B5000401EA0612078C00602D42046AFF300804A
:103B6000099828B1D4E901219047206A401C2062BD
:103B70002078C00622D52046AFF300801EE0002E3C
:103B800004DBB34502DD01A8805D00E03020D4E90C
:103B900001219047206A401C2062761CAAF1010096
:103BA0005FEA000A0AD100F033F8C0680168405C9F
:103BB000D4E901219047206A401C2062281EA5F10B
:103BC0000105DCDC07E0D4E9012118F8010B90477E
:103BD000206A401C2062381EA7F10107F3DC204652
:103BE000AFF30080032011B043E60000074B70B52F
:103BF0000D467B4400F015F80446284600F0D2F844
:103C000010B14FF0FF3070BD204670BD5FEFFFFF79
:103C1000004870473003002001694A1C026108789F
:103C2000704700B58FB0CDE90131002105910549FC
:103C30007944CDE9031011466846FFF745FC0FB003
:103C400000BD0000E5FFFFFF2DE9F0411F460446DF
:103C500003260168072A01F4006004DB08B116A5F9
:103C600005E016A503E008B115A500E015A521F0B3
:103C700010002060A069C01EA0610FB1401EA061AD
:103C80002046AFF300804FB1D4E901213846904778
:103C9000206A401C2062C01C206206E0206AFAE70D
:103CA000D4E9012115F8010B9047761EF8D2204681
:103CB000AFF30080BDE8F0814E414E006E616E00B2
:103CC000494E4600696E66002DE9F047814616466A
:103CD0008AB0334878440DC88DE80D0030487844E8
:103CE000801C03AC0DC884E80D0041F69B300844ED
:103CF000372190FBF1F290FBF1F5A5F1800501FB76
:103D000012041B3C02D56442012000E00020DFF8D1
:103D100090A080460027FA44AAF1BE0A0DE0E00711
:103D200009D03246684607EB47010AEB810100F0F3
:103D300032FB8DE8070064107F1C002CEFD1184F78
:103D40007F44AC3F18E0E80714D007EB04100DF1F6
:103D5000180A90E80E008AE80E00C068F04201D10F
:103D600098190890324606A903A800F014FB03AB8B
:103D700083E807006D10641C002DE4D132466946CB
:103D8000B8F1000F03A802D000F0F1FA01E000F052
:103D900002FBC9E90001C9F808200AB0BDE8F087B4
:103DA00084150000007B00F08000704700487047D9
:103DB000100300207546FFF7F9FFAE46050069467F
:103DC000534620F00700854618B020B5FCF742FEA8
:103DD000BDE820404FF000064FF000074FF000080C
:103DE0004FF0000B21F00701AC46ACE8C009ACE88D
:103DF000C009ACE8C009ACE8C0098D46704704466C
:103E0000AFF300802046FCF720FA00004FF0013CA1
:103E100050F8042B51F8043B9A4221D1A2EB0C0339
:103E2000934313EACC1317D150F8042B51F8043BF9
:103E30009A4215D1A2EB0C03934313EACC130BD196
:103E400050F8042B51F8043B9A4209D1A2EB0C0321
:103E5000934313EACC13DBD04FF00000704700BF50
:103E6000D01A01BAB1FA81F101F0180122FA01F079
:103E7000CB40C1F12001DBB2C0B2C01A2CFA01F371
:103E8000D11A914311EAC311E6D170475FEA400CA1
:103E900008BF91F0000F4FEA8C234FEAC12243EA9A
:103EA00051514FEA1C5018BF00F5F0404FEA300066
:103EB00018BF41F000415FEA6C5C00F02980BCF162
:103EC000FF3F08BF40F080407047130C06BF12044C
:103ED0004FF0100C4FF0000C130E04BF12020CF147
:103EE000080C130F04BF12010CF1040C930F04BF54
:103EF00092000CF1020CD30F04BF52000CF1010C24
:103F000011464FF00002A0F11F00A0EB0C0070471B
:103F100011F0004F08BF704731F000413FF4D5AFBA
:103F20000B0C06BF09044FF0100C4FF0000C0B0EE9
:103F300004BF09020CF1080C0B0F04BF09010CF1BE
:103F4000040C8B0F04BF89000CF1020CCB0F04BFD3
:103F500049000CF1010CCCF12003A0EB0C0022FA7B
:103F600003F302FA0CF241EA030100F10100704789
:103F700020F07F4C80EA030023F07F47ACEB07037F
:103F800003F57C5300F0004003F1FF032DE9804965
:103F90004FEA154B09B44FEA144325EA0B4E24EAC5
:103FA00003480FF2042606EB132749083E785FEA20
:103FB000320203FB0667C7F5000707FB06F64FEA68
:103FC00054374FEAD64606F1020607FB066CCCF1E1
:103FD000005C4FEA1C472CEA074C07FB06F40CFB7D
:103FE00006F504EB15464FEA961634BF00204FF055
:103FF00000404FEAD13706FB07FC4FEA1C4C0CFB94
:104000000BF7D21B03FB0CF761EB07010CFB0EF760
:10401000B0EB074072EB17420CFB08F734BFA2EB82
:104020000742B2EB074261EB17414FEA0C444FEAFB
:10403000910706FB07FC4FEA1C4C0CFB0BF7B0EB9F
:10404000C74072EB573203FB0CF734BFA2EBC742F9
:10405000B2EBC74261EB57310CFB0EF7B0EBC70078
:1040600072EB57720CFB08F734BFA2EBC702B2EB3E
:10407000C70261EB5771039F4FEA816141EA9211D8
:1040800004EBCC044FEAD1374FEA826206FB07FC0F
:1040900042EA90124FEA80604FEA1C4C0CFB0BF78F
:1040A000D21B03FB0CF761EB07010CFB0EF7B0EB27
:1040B000074072EB17420CFB08F734BFA2EB074234
:1040C000B2EB074261EB17414FEA8C554FEA91077B
:1040D00004EB9C2406FB07FC4FEA1C4C0CFB0BF783
:1040E000B0EBC74072EB573203FB0CF734BFA2EBC7
:1040F000C742B2EBC74261EB57310CFB0EF7B0EB96
:10410000C70072EB57720CFB08F734BFA2EBC70273
:10411000B2EBC70261EB577115EB4C254FEA816199
:1041200041EA92114FEA82624FEAD13742EA901295
:1041300006FB07FC44F100044FEA80604FEA1C4C88
:104140000CFB0BF7D21B03FB0CF761EB07010CFB1D
:104150000EF7B0EB074072EB17420CFB08F734BFC9
:10416000A2EB0742B2EB074261EB174115EB1C15BE
:104170004FEA813141EA92414FEA823242EA90426B
:104180004FEA80304FEA0C7644F1000448EA0343DA
:104190004EEA0B484FF0000EB2EB080C71EB030730
:1041A00024BF624639464EEB0E0E4FF0000B00184E
:1041B000524149414BEB0B0BB2EB080C71EB03077F
:1041C0007BF1000B24BF624639464EEB0E0E4FF0DA
:1041D000000B0018524149414BEB0B0BB2EB080CA2
:1041E00071EB03077BF1000B24BF624639464EEBAF
:1041F0000E0E51EA020718BF46F0010616EB0E76C6
:1042000055F1000254F1000103D5BDE88901BDE874
:104210000088BDE88901BDE80048B619524141EB6C
:104220000101A3F10103704780807F7E7D7C7B7A52
:104230007978777676757473727171706F6E6E6D52
:104240006C6C6B6A6A6968686766666564646363F8
:1042500062616160605F5F5E5E5D5D5C5C5B5B5A7E
:104260005A595958585757565655555554545353EB
:1042700052525251515050504F4F4F4E4E4D4D4D46
:104280004C4C4C4B4B4B4A4A4A4949494848484791
:1042900047474746464645454544444444434343CF
:1042A0004342424242414141002B26D4770021D073
:1042B0001CB54FEA370703B44FF010004FF0100160
:1042C0004FF000000FBCBDE810400BF1010BBBF13B
:1042D000010F08BF5FEA170722BF12F1010211F1B7
:1042E00001014FF0004143F1000300F0004043EAB8
:1042F00000007047F9D35708DAE746EA064613F19B
:10430000400F4FEA16461FDD13F1200FDFBF1643A3
:104310000A46002120335B42C8D0C3F1200746EA99
:10432000064602FA07F74FEA164646EA0706C3F1C1
:10433000200722FA03F201FA07F721FA03F14FF0FE
:10434000000342EA0702B1E746EA020646EA0646E9
:104350004FEA164646EA0106BCBF46EA0646360C58
:104360004FF000034FF000024FF000019EE72DE9EF
:10437000C048934630B491E8380007C831EA400C91
:1043800048BF34EA430C03D5FFF7F2FDFFF78CFF7B
:10439000F0BCBDE800882DE9C048934630B491E8F0
:1043A000380007C810F0804F08BF13F0804F03D1CA
:1043B00000F005F8FFF778FFF0BCBDE8008820F0BA
:1043C0007F4780EA030023F07F4C07EB0C03A3F543
:1043D0007C5300F00040A3F1FE0392F0000F00F0C8
:1043E000B38095F0000F00F077802DE901494FEA86
:1043F00011404FEA144621EA004800FB06FC24EA7B
:10440000064708FB06F607FB08F800FB07F718EB62
:1044100006484CEB164C4FEA124B18EB07484FEA94
:1044200015464CEB174022EA0B4E0BFB06FC25EA27
:1044300006470EFB06F607FB0EFE0BFB07F71EEB0F
:10444000064E4CEB164C4FF000061EEB074E4CEBA5
:10445000174B18EB0B0840F1000018EB0E0B58EB54
:10446000000840F100008F1A4FF000013CBFC94323
:10447000661B14BFB5EB040C00213CBFC943F61BFF
:104480004FEA17444EEA8E0E27EA04454FEA1C47CE
:1044900004FB07622CEA074C05FB07F70CFB05F64B
:1044A00004FB0CFC16EB074642EB174216EB0C46DE
:1044B00042EB1C421BEB060658EB0202414146EA66
:1044C0009E0601D5BDE80189B619524141EB0101B3
:1044D000A3F10103BDE801894FEA14454FEA1147F2
:1044E00024EA054621EA074C05FB07F406FB07F71B
:1044F0000CFB06F105FB0CFC11EB074144EB1744E8
:104500004FEA124711EB0C4144EB1C4422EA074CE2
:1045100005FB07F206FB07F70CFB06F605FB0CFC98
:1045200016EB074642EB174216EB0C4642EB1C45D6
:104530006A1854F1000148BF7047B619524141EB67
:104540000101A3F10103704795F0000F37D04FEA46
:1045500011424FEA144721EA024624EA074C02FBC3
:1045600007F106FB07F70CFB06F402FB0CFC14EB4F
:10457000074441EB17414FEA154714EB0C4441EB5C
:104580001C4125EA074C02FB07F506FB07F70CFB6D
:1045900006F602FB0CFC16EB074645EB174516EB3F
:1045A0000C4645EB1C42121951F1000148BF7047FF
:1045B000B619524141EB0101A3F1010370474FEAE3
:1045C00014454FEA114724EA054621EA074C05FB4A
:1045D00007F106FB07F70CFB06F24FF0000605FBA0
:1045E0000CFC12EB074241EB174112EB0C4251EB72
:1045F0001C4148BF7047921841EB0101A3F1010330
:10460000704703B401984100009850EAC12018BFD8
:1046100004204A0D18BF40F0010040F2FF72B2EBD7
:10462000515F08BF40F00200012808BF052002B01A
:10463000704730380A2801D20120704700207047A7
:1046400010B500290AD00878002807D0054878441A
:10465000FFF7DCFB002801D0002010BD02487844A1
:1046600010BD00001A0D0000120D000021F00042E4
:10467000A2F16052B2F5801F01F0004328BFD2F1D1
:104680007F6C0BD95FEA001C43EAC20242EB507018
:1046900018BF704728BF20F001007047B2F5801F97
:1046A000BCBF184670474FEA410C1CF5001F02D2F0
:1046B000084600F067BD70B500F0A4FB000000895B
:1046C000FFF7F6BF4FF00040A0F5800070470000F4
:1046D00010B591EA030F48BF83F0004300F1FA835D
:1046E000841A71EB030C05D2121943EB0C03001B67
:1046F00061EB0C01DFF824E14FEA1154A4EB135CE9
:104700001EEA430F18BF9EEA445F73D023EA0E03EC
:10471000DCF1200E21EA045143F4801332D322FA53
:104720000CFE10EB0E0023FA0CFE41EB0E01CCF157
:10473000200E03FA0EFE10EB0E0051F10001B1F550
:10474000801FCCF1200E32D201EB045112FA0EF28E
:10475000BDE8104058BF7047401C38BF5FEA4202B6
:1047600018BF7047002814BF20F0010041F100017C
:104770004FEA410313F5001F38BF7047A1F1C04154
:1047800000F08EBB012A43EB0302ACF1200CDCF1FC
:104790001F0E32BF4FF0000E23FA0CF310EB030094
:1047A00041EB0451B4EB115FD0D0A1EB045101F502
:1047B000801149085FEA300001EB04510ED350F13B
:1047C000000038BF12FA0EFE08D1BDE81040C9E75C
:1047D000401C38BF5FEA4202CAD1C3E7BDE81040BF
:1047E0004FEA410313F5001F38BF7047A1F1C041E4
:1047F00000F056BB9EEA445F08D011EA5E0FBDE8A8
:10480000104004BF01F0004100207047BDE8104097
:1048100070B500F0F7FA00BF64FBBE3E0000E0FF99
:10482000491058BFC1F140415B1058BFC3F140432C
:104830008B42EFF3008070472DE9C04130B4DFF8C0
:10484000A0C23CEA111418BF3CEA131400F0EC803B
:1048500081EA03051CEA111444EAD57418BF1CEA66
:10486000131500F0C780A4EB05044FF0004545EA9E
:10487000C12145EAC32341EA505143EA525304F1AE
:104880007F74994204F500344FEAC0204FEAC222F7
:1048900008BF904200F09C804FEA13650FF240166B
:1048A000765D4FEA134506FB05F7C7F1807706FBF7
:1048B00007F74FEAD737A7FB03687642C8F5803879
:1048C000A7FB06CE38BFA8F1010807FB08E64FF0AA
:1048D000000EA6FB028CE6FB03CEDCF1000CCEF151
:1048E000004E38BFAEF1010EA6FB0C584FF000078A
:1048F0004FF00005E6FB0E87A1FB08C6A0FB07CE24
:1049000016EB0E0645F10005E1FB076515F1E04EDB
:104910007EBFA4F580345FEA46066D4116F180073C
:1049200045F100054FEA17274FEA066647EA056793
:10493000A6F1DE46B6F1805F4FEA15251FD938464D
:1049400024F0010C05EBC471BCF1FE6F01EB0C11FE
:1049500002D8F0BCBDE8008124425CBF01F5801E96
:104960009EEAC47F02D4F0BCBDE80081244238D462
:10497000F0BCA1F1C041BDE8004100F091BA4FEA9E
:10498000D22242EA43524FEAD323A7FB02864FEAE0
:10499000D02040EA415007FB03661EEA0E0F4FEAA3
:1049A000D12105FB026658BFA6EB0056B6EB0056B8
:1049B0004FEA520E4EEAC37E18EB0E0E56EB530E24
:1049C000BDD518EB02085E417F1C55F10005B6E726
:1049D0004FF480154FF000074FF000064FF000082D
:1049E000ADE7F0BC4FF0000001F1C04101F0004123
:1049F000BDE8008111EA0C1F0CEA131500D00CE091
:104A000013EA0C1F00F025804FF00000F0BC81EA93
:104A1000030101F00041BDE80081F0BCBDE80041A8
:104A200081EA030100F03CBAF0BCBDE8004170B57A
:104A300000F0E8F9097EFC3E00F007B881EA0301C6
:104A40004FF0000001F00041704781EA030100F0DF
:104A500027BAF0BCBDE800414FF000002149704783
:104A6000FFFDFBF9F7F5F4F2F0EEEDEBE9E8E6E433
:104A7000E3E1E0DEDDDBDAD8D7D5D4D3D1D0CFCDBA
:104A8000CCCBCAC8C7C6C5C4C2C1C0BFBEBDBCBBF3
:104A9000BAB9B8B7B6B5B4B3B2B1B0AFAEADACABEE
:104AA000AAA9A8A8A7A6A5A4A3A3A2A1A09F9F9EC8
:104AB0009D9C9C9B9A99999897979695959493937A
:104AC000929191908F8F8E8E8D8C8C8B8B8A898911
:104AD0008888878786858584848383828281818094
:104AE0000000FF070000F87F4FEA1153A3F5806331
:104AF000D3F11E03A8BFD3F1200C08DB4FF0004216
:104B000042EAC12252EA505232FA03F07047094297
:104B10000BD4102BC4BF0020704703F5787CBCF188
:104B2000FF3F05D04FF0FF3070474FF00000704757
:104B300070B500F067F900BF4992248000207047EB
:104B4000F0E710F0004248BF4042B0FA80F310FA9C
:104B500003F10AD0C3F11D0303F580634FEA41500E
:104B600002EB035202EBD12170474FF00000704777
:104B70007FEAE17202D1101A62EB0101B1FA81F30E
:104B80000B3B24D3994012D1B0FA80F310FA03F111
:104B900008BF7047C3F11D0303F5406303EBC22355
:104BA0004FEAD1224FEA415002EB03517047C3F163
:104BB000200C20FA0CFC9840C3F1320303F540634B
:104BC00003EBC22341EA0C0101EB0351704710B51E
:104BD000C3F1320CC3F10004C4F1200E0CF5406C9B
:104BE0000CEBC22201FA0EFC21FA04F100FA0EF3DA
:104BF000E040BDE8104040EA0C0001EB025138BF34
:104C00007047401C41F100015B0008BF20F001002B
:104C10007047B0FA80F310FA03F10AD0C3F11D0314
:104C200003F580634FEA41504FEA035202EBD12172
:104C300070474FF00000704751EA030C17D41CF581
:104C4000801F58BFBCF5801F00F10680994218BF35
:104C5000704708BF9042704707D711F5801F58BFB3
:104C600013F5801F19D499427047894270471CF58B
:104C7000801F08D5BCF5801FF7D58B4218BF704741
:104C800008BF824270474FF4001C1CEB410F38BF35
:104C90001CEB430F01D28B42704770B500F0B2F8A5
:104CA000922449004FF000514FF08053FFF7B8BDF8
:104CB000DFF848C170B51CEA111E1EBF1CEA1315AF
:104CC0009EEA0C0F95EA0C0F00F06F8081EA030456
:104CD00023EA4C134EEAD47E21EA4C1141F48011B0
:104CE00043F48013AE44A1FB024CA0FB0365AEF17C
:104CF0007F7E361955EB0C05A1FB034C4CF10003EC
:104D0000A0FB021C16EB0C06654153F1000309429F
:104D100018BF46F0010613F4007F0BD14FEA0331B0
:104D20004FEA0530340341EA155140EA16506FF05E
:104D300003020AE04FEAC3214FEAC520F40241EA28
:104D4000555140EA56506FF0020202EB2E4201EB41
:104D5000025585EACE710AD05FEA440C18BF24F0F0
:104D6000004450F1000041F1000120EAD47040F20B
:104D7000FE7C624500D270BDA84214BF4FF0804453
:104D80004FF04044002E08BF0024BEF1806FA8BF42
:104D9000A1F1C041BDE8704080F282804FF0000078
:104DA00001F1C04101F0004170479EEA0C0F0CEA8E
:104DB000131518BF95EA0C0F06D04FF0000081EADA
:104DC000030E0EF0004170BD00F01CF88900013E9A
:104DD00000F007B800F009B84FEA430C5FEA5C5CEA
:104DE00008D081EA030100F05BB84FEA410C5FEAAA
:104DF0005C5CF6D14FF00000014970470000FF07EE
:104E00000000F87F0EF1020E2EF0030E5EF8046B28
:104E1000364205D4012A43EB030515F5001F12D8CD
:104E2000012841EB010C1CF5001F0CD80ED14FEAF4
:104E3000D17C15F5001F0CEB4C0C0CF1020C08BFDB
:104E40004CEBD37C04E04FF0080C01E04FEAD37C3C
:104E50000CEB4C0526FA05F606F00706B6F1040C35
:104E600006D20EEB860CBDE870404CF0010C60479A
:104E7000DFE80CF0090B02024FF000414FF0000098
:104E8000A1F5002170BD19461046012851EB01041F
:104E900018BFD4F5001484BF002001F0004170BD9C
:104EA0000808A0F500114FEA3101704791EA030F9D
:104EB00010B581F000413FF513AC83F0004300F0E2
:104EC00009B8000010B591EA030F48BF83F0004312
:104ED0003FF506AC841A71EB030C07D212198CF063
:104EE000004C43EB0C03001B61EB0C01DFF8A4E169
:104EF0004FEA1154A4EB135C1EEA430F18BF9EEA5D
:104F0000445F00F0B08023EA6E03524221EA04516C
:104F1000C3EB6E0338BF5B1EDCF1200E25D322FAF3
:104F20000CFE10EB0E0043FA0CFE41EB0E01CCF12F
:104F3000200E03FA0EFE10EB0E0051F10001CCF131
:104F4000200E29D412FA0EF201EB0451BDE81040F4
:104F500058BF7047401C1CBFB2F1004F704700287B
:104F60000CBF491C20F00100704712EB020E43EB0E
:104F7000030218BF4FF0010E4EEA4202ACF1200CC2
:104F8000DCF11E0E54D943FA0CFE10EB0E0051F169
:104F9000FF31CCF11E0ED5D50EF1010E12FA0EFE28
:104FA000404141EB010101EB445C5FEA5C5C10D9DC
:104FB00010EBDE7001EB045138BFBEF1004FBDE8CD
:104FC000104018BF704700280CBF491C20F001009A
:104FD000704730D24FEAD42C11F5001124F400644C
:104FE0001BD0B1FA81F20B3AA41AA41ED2F120030D
:104FF000914030FA03F31943904001EBCC71002C3F
:1050000001EB0451BDE81040A8BF704701F1C04159
:105010004FF0000001F000417047B0FA80F310FA41
:1050200003F100D110BDE41A173C4805C90AE4E7B2
:1050300001EB045110BD491001EB0451BDE81040D3
:105040004FEA300002E04FF0000170474A0008BF0D
:105050000042F8D0B2F5001F28BF704701F00041B0
:105060004FF0000070479EEA445F07D011EA5E0FE0
:10507000BDE8104004BF002100207047BDE810408B
:1050800070B5FFF7BFFE00BF40DFF63E83F0004182
:10509000104670470000E0FF43004FEAD30C4FEA90
:1050A0003C0C43401FBF40070CF1605113F0FE4F12
:1050B00070471CF0006F03D100200CF000417047D6
:1050C0000CF0004343EA507010B540EACC0000F009
:1050D0000EF800BF000000924FEA0001FFF7E0BEAB
:1050E0004FF000414FF00000A1F5002170470EF194
:1050F000020E2EF0030E5EF8044B244204D44FEA55
:105100004102B2F17F4F11D84FEA4003B3F17F4F14
:105110000CD80ED14FEAD07CB2F17F4F0CEB4C0C87
:105120000CF1020C08BF4CEBD17C04E04FF0080CF2
:1051300001E04FEAD17C0CEB4C0324FA03F404F0B9
:105140000704B4F1040C06D20EEB840CBDE8104049
:105150004CF0010C6047DFE80CF0070802024FF04A
:105160000040A0F5800010BD0846420018BFD2F1F3
:10517000807288BF00F0004010BD4FF04070E1EE3B
:10518000100A7047FF2141EAD050C0057047FEF772
:10519000F6BB00000000000000000000000000005E
:1051A000000000000068904000000000006890408F
:1051B0000000000000409F400000000000000000D0
:1051C00000000000000000000000000000000000DF
:1051D00000000000000000000000000000000000CF
:1051E00002400000000000A0000000000540000098
:1051F000000000C8000000000C4000000000409CBF
:1052000000000000194000000020BCBE00000000AB
:1052100034400000BFC91B8E00000004B5400000F0
:10522000504BCFD06607E2CF010000006C41000078
:105230003E8251AADFEEA73401000000D9420000EF
:10524000DCB5A0E23A301F97FFFFFFFFB445000036
:10525000FD25A0C8E9A3C14FFFFFFFFFFF3F0000EE
:105260000000008000000000FF3F00000000008000
:10527000000000002D2D2D2D2D53746172747B22A2
:105280004B506F77223A25662C224B547073223A8A
:1052900025662C224B416E67223A25662C22506FE0
:1052A00077223A25662C22416E67223A252E662CFB
:1052B00022547073223A252E33662C2252706D22AE
:1052C0003A25662C224572726F72223A25647D451A
:1052D0004E44442D2D2D2D2D2D2D2D2D2D0D0A0916
:1052E00000000000808FEA0320020725808FEA2259
:1052F00010820401022CF4022CD2022F2C012DA6C4
:10530000012DAC023041012CF6022C8A022C8C02B9
:105310002CB3C8808FEA2E10820101012E19022EB3
:105320005501286E02288F022F0C022C4102287D85
:10533000022865022F2C022CF4022CD0022C4D01E5
:105340002DAC023041FF0000845300080000002013
:105350006C000000C4010008F05300086C0000203D
:1053600004090000E00100081C00000043000000E8
:10537000F8FFFFFF0C0000000E0000000F0000000F
:105380002E000000007A030A000000000000000068
:1053900001020304060708090000000001020304DB
:1053A00001020304060708090000000000000000D5
:1053B00000000000000000000000000000000000ED
:1053C00000000000000000000000000000000000DD
:1053D00000000000E8030000E8030000E80300000C
:1053E00000000000000000000000000000000000BD
:040000050800018965
:00000001FF
