:020000040800F2
:1000000028040020D5000008DD000008DF000008FB
:1000100000000000000000000000000000000000E0
:10002000000000000000000000000000E1000008E7
:100030000000000000000000E3000008E5000008E8
:10004000E7000008E7000008E7000008E7000008F4
:10005000E7000008E7000008E7000008E7000008E4
:10006000E7000008E7000008E7000008E7000008D4
:10007000E7000008E7000008E7000008150A00088C
:10008000E70000080000000000000000E700000892
:1000900000000000E7000008E7000008E700000893
:1000A00000000000E7000008E7000008E700000883
:1000B000E700000800000000E7000008E700000873
:1000C0000348854600F02AF800480047FD0C000868
:1000D000280400200448804704480047FEE7FEE764
:1000E000FEE7FEE7FEE7FEE799090008C100000809
:1000F00030B50B46014600202022012409E00D46C0
:10010000D5409D4205D31D469540491B2546954047
:1001100040191546521E002DF1DC30BD064C01255C
:10012000064E05E0E36807CC2B430C3C984710349F
:10013000B442F7D3FFF7C8FF480D0008680D000868
:1001400010B50021837A01229A401146394A12687B
:1001500001231A43374B1A601A46D2698A43DA617F
:10016000027B002A1AD11A46D2688A43DA60C28812
:10017000120443881A43304B0924A4011B19847AC2
:10018000E4001A518288120403881A432A4B092476
:10019000A4011B19847AE4001B195A60027B012A0E
:1001A0001BD1244AD2680A43224BDA600288120427
:1001B00043881A43204B0924A4011B19847AE400C4
:1001C0001A5182881204C3881A431B4B0924A401C4
:1001D0001B19847AE4001B195A60C27A002A05D1DF
:1001E000144A52688A43134B5A6004E0114A526819
:1001F0000A43104B5A600289002A04D10D4A526901
:100200008A430C4B5A610289012A04D1094A526976
:100210000A43084B5A61427B012A04D1054AD2693C
:100220000A43044BDA61034A126852085200014B38
:100230001A6010BD006600400064004030B5024600
:100240000020002314680225AC43146014680125C3
:100250002C43146000E05B1C5468E407E40F002C9E
:1002600002D13C4CA342F6D15468E407E40F002CC1
:1002700001D100206DE08C79012C04D11468802517
:100280002C43146003E014688025AC431460CC79DF
:10029000012C04D1146840252C43146003E0146839
:1002A0004025AC4314600C7A012C04D1146820253D
:1002B0002C43146003E014682025AC4314604C7A8E
:1002C000012C04D1146810252C43146003E0146839
:1002D0001025AC4314608C7A012C04D114680825D5
:1002E0002C43146003E014680825AC431460CC7AF6
:1002F000012C04D1146804252C43146003E0146815
:100300000425AC4314608C78A407CD782D062C43CB
:100310000D792D042C434D792D052C430D886D1E30
:100320002C43D4611468640864001460002300E066
:100330005B1C5468E407E40F002C02D0054CA34278
:10034000F6D15468E407E40F002C01D0002000E04F
:10035000012030BDFFFF0000F0B589B004460D4616
:1003600016461F460121480400F068FA012148069C
:1003700000F074FA0121084600F080FA2B4800686A
:10038000102108432949086004220B210920C006D6
:1003900000F0E0F904220C210920C00600F0DAF98F
:1003A000012000030790022108A801700121C170FB
:1003B00007A90920C00600F085F90120C0020790B6
:1003C000022108A8017000218170032141700121E0
:1003D000C17007A90920C00600F074F90021684621
:1003E0008175C17501760121417600218176C17642
:1003F0000E998174C47406754575078204A90C486A
:10040000FFF71CFF002168468172C1720121017350
:100410000021018041808180C180018101214173DF
:10042000FFF78EFE002009B0F0BD00000000014083
:100430000064004008B51E2168460170002141702B
:100440000121817000F0C2F908BD30B502460020DC
:1004500093680124A4062340A34200D110E09368CE
:100460000124E4062340A34201D1012008E093685F
:10047000012424072340A34201D1022000E00420EC
:1004800004287BD004011346FF3381331B59DC075A
:10049000E40F05011346FF3381335C510B7A002BC7
:1004A0000FD10B885B054C7A234305011446FF34BA
:1004B00081346459234305011446FF348134635168
:1004C00010E04B68DB000C7A23434C7A2343050190
:1004D0001446FF3481346459234305011446FF3424
:1004E000813463518B7A1B071B0F8B7204011346F7
:1004F000FF338133E3185B681C09240105011346AF
:10050000FF338133EB185C6004011346FF33813302
:10051000E3185B688C7A234305011446FF34813469
:100520002C1963608B7B1B064C7B240423430C7BC0
:1005300024022343CC7A234305011446FF3481343B
:100540002C19A3608B7C1B064C7C240423430C7C5D
:1005500024022343CC7B234305011446FF3481341A
:100560002C19E36004011346FF3381331B59012426
:10057000234305011446FF348134635130BD00002C
:1005800010B502460023002904D0012907D0022912
:100590000FD109E09068204C204003460BE09068A2
:1005A0001E4C2040034606E090681D4C2040034648
:1005B00001E0002300BF00BF1A4C181BA3421BD050
:1005C00008DC002B14D018481818002812D0022874
:1005D0001CD115E0FF38FF380238002812D0134C28
:1005E000001900280AD001246404001B0ED10BE07E
:1005F00002230DE000230BE0002309E0002307E0C5
:10060000012305E0012303E0012301E0002300BFF3
:1006100000BFD8B210BD00000300000400030008B2
:100620000000031000010008FFFFFFFB0003FFF7BD
:10063000F0B585B007460D460024122000900190C9
:100640000021684601724172857200BF05E0395D84
:1006500002A803300155601C84B2AC42F7DB694646
:100660000C48FFF7F2FE0646002401E0601C84B24D
:1006700031460848FFF784FF002802D1064884422B
:10068000F4DB0548844202DB012005B0F0BD002008
:10069000FBE7000000640040FF0F000001494860D4
:1006A000704700000000024001460020044A126822
:1006B0000A40002A01D0012000E00020704700001D
:1006C00000000240F0B50A4600210023002400BFCC
:1006D0003DE001258D402B4615681D402C469C426F
:1006E00034D11579012D02D01579022D16D18568E6
:1006F0004F000326BE40B543856055794E00B54096
:10070000866835438560858801268E40B54385809F
:10071000858896798E40B6B23543858005684F004E
:100720000326BE40B543056015794E00B540066806
:1007300035430560C5684F000326BE40B543C5601C
:10074000D5794E00B540C6683543C560491C1029AF
:10075000BFD3F0BDF0B5002300244D07EE0E1546C3
:10076000B5402B46CD10AE0005462035AD594E079D
:10077000F70E0F26BE40B543CE10B6000746203711
:10078000BD51CD10AE003D46AD591D432C46CD1098
:10079000AD003E467451F0BDF8B504460D46002646
:1007A000002708E060000849085A8619012000F077
:1007B0007DFA781CC7B2AF42F4DB29463046FFF71A
:1007C00097FC80B2F8BD000026000020002182784E
:1007D000002A27D0184A03231B02D21803789B1043
:1007E0009B00D15802789207D30EFF229A400B4605
:1007F0009343194642789207120E03789B07DB0E4B
:100800009A4011430C4A03231B02D21803789B1011
:100810009B00D1500278D306DB0E01229A40064B92
:100820001A6007E00278D306DB0E01229A40024BE1
:1008300080331A607047000000E100E0002905D015
:10084000054A52690243044B5A6104E0024A526964
:100850008243014B5A61704700100240002905D0C5
:10086000054AD2690243044BDA6104E0024AD269C4
:100870008243014BDA61704700100240002905D025
:10088000054A92690243044B9A6104E0024A926964
:100890008243014B9A617047001002400CB5002062
:1008A00001900090314800680121090408432F4954
:1008B000086000BF2D4800680121490408400090ED
:1008C0000198401C01900098002804D105210903DB
:1008D00001988842EED1254800680121490408406A
:1008E000002802D00120009001E000200090009834
:1008F000012839D111201E4908601C4840681B4955
:100900004860084640684860084640687F21C9033F
:100910008843164948600846406811210904084385
:1009200012494860084600680121090608430F493A
:10093000086000BF0D4800680121490608400028F2
:10094000F8D00A4840688008800008494860084696
:100950004068022108430549486000BF03484068D9
:100960000C2108400828F9D10CBD000000100240FD
:1009700000200240042806D10649096904221143D7
:10098000044A116105E00349096904229143014ABF
:100990001161704700E000E010B51B4800680121BC
:1009A0000843194908600846406818490840164934
:1009B0004860084600681649084013490860084620
:1009C00000680121890488430F490860084640688F
:1009D0003F21090488430C4948600846C06A000961
:1009E0000001C8620846006BFF2154318843064964
:1009F00008630846406B4008400048630020886058
:100A0000FFF74CFF10BD0000001002400CB8FFF8CB
:100A1000FFFFF6FE3EB50121880700F008F9002827
:100A200070D00121880700F0FFF80920C006808AF5
:100A3000022148400921C90688820846808A04218B
:100A400048400921C9068882012000F02FF900BF23
:100A50000220FFF729FE0028FAD00220FFF71EFE31
:100A60000A210020FFF798FE0446684884421DDAF8
:100A700066486438844219DD6548008801214902CE
:100A8000884206DA624800884000401C60490880BD
:100A90008CE05F4800885F49088000205C4908803E
:100AA0005D480078401C5C4908707FE0962C01DDB1
:100AB000012000E00020FA2C01DA012100E00021F1
:100AC0000840002819D05548008801214902884271
:100AD00006DA524800884000401C5049088065E012
:100AE0004E4800884E49088000204C4908804D48F7
:100AF0000078401C4B49087058E04448844202DDAD
:100B0000012001E080E0002041490988012901DD40
:100B1000012100E000210840002819D03C4800884D
:100B200001214902884206DA394800884004000C55
:100B3000374908803AE03648008836490880002066
:100B40003349088034480078401C334908702DE050
:100B5000962C01DA012000E00020304909880129A3
:100B600001DD012100E00021084000281ED02B48B3
:100B7000008801214902884206DA2848008840049A
:100B8000000C2649088011E0244800882449088088
:100B9000002022490880224800886921C900884233
:100BA00004DD20480078401C1E4908706846047027
:100BB00021124170174801786846817015480088F5
:100BC00001126846C17016480178684601711448E0
:100BD00000880112684641710D48017868468171AC
:100BE0000B48008801126846C1710C4801786846BC
:100BF00001720A4800880112684641720A21FFF713
:100C000017FD012000F052F83EBD00000A0F000061
:100C10001C0000201E0000202400002020000020D6
:100C20002200002025000020CA430282704730B510
:100C30000246002000230024158A0D402B4695898A
:100C40000D402C46002B03D0002C01D0012000E0E9
:100C5000002030BD02E008C8121F08C1002AFAD1E6
:100C600070477047002001E001C1121F002AFBD12C
:100C70007047000010B50420C043FFF77BFE074912
:100C800007480068FFF734FA0649087008460078FC
:100C90007D21C90048430449088010BD006CDC0276
:100CA00000000020180000201A0000200146114A10
:100CB00012884A43104B5A6100229A611A461269FF
:100CC00001231A430C4B1A6100BF0B4A1069C2077B
:100CD000D20F002A04D0012212040240002AF4D0CC
:100CE000054A126952085200034B1A6100229A61A8
:100CF000704700001A00002000E000E008B5002462
:100D0000104D0026FFF748FEFFF7B4FFFFF792FBF8
:100D100001230722062100200096FFF71DFB10E0AB
:100D200028190121FFF784FC601CC4B22046E1179A
:100D3000890F091889108900611ACCB26420FFF765
:100D4000B5FFEDE714000020680D0008000000204A
:100D500028000000540C0008900D00082800002016
:100D600000040000640C0008006CDC0200000000BD
:100D70000000000001020304060708090102030441
:100D80000000000000000000000000000000000063
:04000005080000C12E
:00000001FF
