:020000040800F2
:1000000028050020010100081F0C0008450B00080E
:100010001D0C000849010008E10E00080000000066
:10002000000000000000000000000000430C000879
:100030009501000800000000410C0008450C000874
:100040001B0100081B0100081B0100081B01000820
:100050001B0100081B0100081B0100081B01000810
:100060001B0100081B0100081B0100081B01000800
:100070001B0100081B0100081B0100081B010008F0
:100080001B0100081B0100081B0100081B010008E0
:100090001B0100081B0100081B0100081B010008D0
:1000A0001B0100081B0100081B0100081B010008C0
:1000B0001B0100081B0100081B0100081B010008B0
:1000C0001B0100081B0100081B0100081B010008A0
:1000D0001B010008710E00081B0100081B0100082D
:1000E0001B0100081B0100081B010008DFF80CD0F1
:1000F00000F018F8004800474D0F000828050020C0
:100100000648804706480047FEE7FEE7FEE7FEE7B1
:10011000FEE7FEE7FEE7FEE7FEE7FEE7B90C0008B4
:10012000ED000008064C074D06E0E06840F00103D2
:1001300094E8070098471034AC42F6D3FFF7DAFF93
:1001400084110008A4110008FEE7000010B5A1F119
:10015000310300220D4C082B02D23039CBB203E020
:10016000612900D022600A2309490B70A0F13003F5
:10017000092B01D8D8B206E0612802D36138C0B299
:1001800001E00A202260487010BD0000100000202D
:100190000C0000207047000070B5044600F0F2F833
:1001A0000546601C02D004480078044400F0EAF8D8
:1001B000401BA042FAD370BD000000202DE9F84F8B
:1001C000DFF890A100220AF1040B144601274FF03A
:1001D0000F090BF1040E00BF0B6807FA04F52B4062
:1001E000AB4274D1DFF870C14E68A6EB0C086645CF
:1001F0002BD00DDC032E34D005DC36B3012E19D004
:10020000022E2FD11BE0112E16D0122E2AD119E06A
:10021000B8F5881F19D006DCB8F5803F15D0B8F5C1
:10022000801F1FD111E0B8F5001F0ED0B8F5041FD4
:1002300018D10AE0CA6815E0CA68121D12E0CA683F
:1002400008320FE0CA680C320CE08A682AB1012A31
:100250004FF0080203D0456104E0042202E005618A
:1002600000E00022FF2B01D8064601E000F1040661
:100270004FEA840501D9A5F12005D6F800C009FA96
:1002800005F82CEA080C02FA05F54CEA050CC6F84C
:1002900000C04D68ED0057D5304DAE6946F00106FF
:1002A000AE61AD6924F0030605F0010500952C4D03
:1002B00006EB050CDCF80850A6074FEA167809FA99
:1002C00008F6B543274EB04202D1002610E03BE0CD
:1002D000254EB04201D101260AE0244EB04201D1A0
:1002E000022605E0224EB04201D1032600E004269A
:1002F00006FA08F62E43CCF808604D68DAF800607C
:10030000ED03554601D51E4300E09E432E604D6827
:10031000DBF80060AD035D4601D51E4300E09E435F
:100320002E604D68DEF80060ED02754601D51E4373
:1003300000E09E432E604D68AD020E4D2E6801D543
:100340001E4300E09E432E60641C102CFFF444AF5B
:10035000BDE8F88F000401400000111000100240B9
:100360000000014000080140000C01400010014065
:10037000001401400C0401400AB1016170470904F6
:10038000FBE7000001488068704700000000002083
:1003900002488168027811448160704700000020A3
:1003A000074810B5016841F010010160032000F01A
:1003B00095F8002000F006F800F024F8002010BDA9
:1003C0000020024070B50D4D04464FF47A71287834
:1003D000B1FBF0F00A490968B1FBF0F000F025FB31
:1003E00048B9102C07D200222146501E00F056F8C2
:1003F00000206C6070BD012070BD00000000002076
:10040000140000201D4808B5816941F00101816197
:10041000806900F001000090032000F05FF80022E6
:1004200011466FF00B0000F039F8002211466FF012
:100430000A0000F033F8002211466FF0090000F0C6
:100440002DF800221146501F00F028F80022114616
:10045000101F00F023F800221146901E00F01EF835
:1004600000221146501E00F019F80548416821F09D
:10047000E06141F00071416008BD000000100240E1
:100480000000014000F01F0201219140400980005E
:1004900000F1E020C0F8001170470000F0B40E4BEE
:1004A0001B680C46C3F30223C3F10705042D00D9D2
:1004B0000425191D072901D2002300E0DB1E0126B7
:1004C00006FA05F1491E214099409E40761E1640CD
:1004D0003143F0BC00F0A4BB0CED00E0064900F095
:1004E000070208684FF6FF03184040EA0220034A5B
:1004F00010430860704700000CED00E00000FA05B2
:100500002DE9F047DFF83C8105460E46D8F800009B
:1005100000F00700B0420CD2D8F8001021F007011B
:100520003143C8F80010D8F8000000F00700B042CE
:1005300063D12878444C800705D56068A96820F00D
:10054000F000084360602878C00745D0686801283B
:1005500016D02168022816D0890700294DDA616873
:1005600021F0030101436160FFF70CFF6968074652
:1005700041F2883001290FD00229814619D027E0A5
:1005800021688903E9E78901E7E700BFFFF7FAFE81
:10059000C11B494501D918E081466068C0F381005C
:1005A0000128F3D118E000BFFFF7ECFEC11B49455D
:1005B0000BD86068C0F381000228F5D10CE000BFC1
:1005C000FFF7E0FEC11B494502D90320BDE8F087D3
:1005D000606810F00C0FF3D1D8F80010404601F01D
:1005E0000701B1420BD9016821F0070131430160D5
:1005F000006800F00700B04201D00120E6E728784B
:10060000400705D56068E96820F4E0600843606051
:100610002878000706D56068296920F4605040EA10
:10062000C100606000F03CF86168084AC1F3031142
:10063000515CC840064908600020FFF7C3FE002057
:10064000C4E7000000200240001002406C110008C6
:1006500014000020014800687047000014000020CA
:100660000448054900684968044AC1F30221515C05
:10067000C840704714000020001002407C110008A0
:100680000448054900684968044AC1F3C221515C25
:10069000C840704714000020001002407C11000880
:1006A00012A185B00FC98DE80F0014A0144A00688C
:1006B00004905168134801F00C03042B10D0082B50
:1006C0000ED1C1F38343C9031DF803000AD5516855
:1006D00004AAC1F34041515C0A4A5043B0FBF1F017
:1006E00005B0704708494843FAE7000002030405D3
:1006F000060708090A0B0C0D0E0F1010010200006E
:100700000010024000127A0000093D002DE9F84F68
:1007100004460078B94DC00748D06868C0F381002E
:10072000012807D06868C0F38100022809D16868F1
:10073000C00306D52868800338D5606800286FD0CC
:1007400034E06068B0F5803F0BD010B1B0F5A02F59
:1007500011D0286820F480302860286820F4802098
:1007600002E0286840F480302860606888B1FFF7B4
:1007700009FE064609E0286840F480202860F0E77A
:10078000FFF700FE801B642875D828688003F7D522
:100790000CE0FFF7F7FD064605E000BFFFF7F2FDAE
:1007A000801B6428F0D828688003F7D42078944E02
:1007B00080074FF001094FF000083BD5686810F042
:1007C0000C0F07D06868C0F38100022809D168685F
:1007D000C00306D42868800714D5206901281FD1DA
:1007E00010E02069B0B1C6F80090FFF7CBFD0746D6
:1007F00005E000BFFFF7C6FDC01B0228C4D828686B
:100800008007F7D52868616920F0F80040EAC10048
:1008100028600FE0C6F80080FFF7B4FD074606E049
:10082000E9E000BFFFF7AEFDC01B022823D828680F
:100830008007F7D4207800072CD57248A169D9B178
:10084000C0F80090FFF79EFD074604E0FFF79AFD11
:10085000C01B02280FD8686A8007F7D56A484FF492
:10086000FA510068B0FBF1F0009000BF0098411E03
:100870000091FAD20EE080E0C0F80080FFF782FD20
:10088000074604E0FFF77EFDC01B022875D8686AA2
:100890008007F7D42078400760D5E8690027C000BA
:1008A00008D4E86940F08050E861E869012700F069
:1008B0008050009055480168C90513D401688346EB
:1008C00041F480710160FFF75DFD824606E000BFE4
:1008D000FFF758FDA0EB0A0064284ED8DBF80000B3
:1008E000C005F5D5E06801280AD008B1052813D065
:1008F000286A20F001002862286A20F0040002E043
:10090000286A40F001002862E06841F2883B98B113
:10091000FFF738FD82460BE0286A40F004002862A9
:10092000EEE700BFFFF72EFDA0EB0A0159455AD8AC
:10093000286A8007F6D50CE0FFF724FD824605E023
:10094000FFF720FDA0EB0A0159454CD8286A800723
:10095000F6D41FB1E86920F08050E861E06988B3FF
:100960006968C1F38101022945D00228C6F8608078
:1009700004D0FFF707FD044638E034E0FFF702FD3E
:10098000074604E0FFF7FEFCC01B02282BD82868AE
:100990008001F7D4206AB0F5803F05D16868A1686E
:1009A00020F4003008436860D4E90801084369680E
:1009B00021F4741108436860C6F86090FFF7E2FC08
:1009C000044606E015E000BFFFF7DCFC001B022830
:1009D00009D828688001F7D50BE000BFFFF7D2FCEB
:1009E000001B022802D90320BDE8F88F2868800187
:1009F000F4D40020F8E70120F6E7000000100240E0
:100A00000000424280044242140000200070004076
:100A10004FF0E0210428086903D020F004000861A9
:100A2000704740F00400FAE7704710B5401EB0F17F
:100A3000807F01D3012010BD4FF0E02460610F21C1
:100A4000601700F0EDF80020A06107202061002071
:100A500010BD10B5FFF7E8FF10BD70B5040004D05D
:100A600094F83900002510B106E0012070BD84F82B
:100A70003850204600F022F8242084F839002068FD
:100A8000C16821F40051C160204600F039F92068A6
:100A9000016921F4904101612068416921F02A0136
:100AA00041612068C16841F40051C160E5632020C4
:100AB00084F8390084F83A00002070BD10B5006851
:100AC0001B4986B0884231D11A48816941F480417E
:100AD00081618069184C00F48040049040200090AF
:100AE000022001900320039069462046FFF766FB31
:100AF00000218020CDE90001029169462046FFF7E0
:100B00005DFB0E48416841F0E06141F00401416045
:100B1000002201212720FFF7C1FC2520FFF7B2FCAE
:100B200007480068C16841F02001C16006B010BDEF
:100B30000038014000100240000C0140000001405C
:100B4000E4000020FEE700002DE9F0411D4886B0DA
:100B5000816941F004018161816901F0040104911E
:100B6000816941F0080181618069174F00F0080038
:100B70000490012238213846FFF7FEFBDFF84C8055
:100B80004FF47046002231464046FFF7F5FB002245
:100B90004FF4E0613846FFF7EFFB4FF4E7600124C4
:100BA000CDE900040225694603953846FFF706FBA8
:100BB000CDE90064694640460395FFF7FFFA06B0A9
:100BC000BDE8F0810010024000080140000C014027
:100BD0000D4810B50B4901604FF4E131416000212F
:100BE00081600C22C160C0E904128161C161FFF71C
:100BF00034FF002805D0BDE81040512103A000F0CB
:100C000070B910BD00380140E40000202E2E2F5393
:100C100072632F75736172742E630000FEE7704774
:100C20000907090E002806DA00F00F0000F1E020A5
:100C300080F8141D704700F1E02080F80014704720
:100C40007047704710B5FFF7A3FBBDE81040FFF7F2
:100C500000BF30B58FB00225012004900095102010
:100C6000059000244FF46010CDE9084007956846D0
:100C7000FFF74CFD00B1FEE70F20CDE90A054FF468
:100C80008060CDE90C4002210AA80E94FFF738FCE1
:100C900000B1FEE7FFF7DEFC4FF47A71B0FBF1F034
:100CA000FFF7C3FE0420FFF7B3FE00221146501EDB
:100CB000FFF7F4FB0FB030BD0D48016841F00101B2
:100CC000016041680B4A1140416001680A4A1140C5
:100CD0000160016821F480210160416821F4FE0176
:100CE00041604FF41F0181600449C00308607047F0
:100CF000001002400000FFF8FFFFF6FE08ED00E0E4
:100D00002DE9F041044600680169E26821F4405190
:100D1000114301612169A0680843616908432168A2
:100D2000CA6841F20C639A430243CA602068416971
:100D3000A26921F44071114341614C492068642546
:100D4000322688423CD1FFF79BFC00EBC00101EB4F
:100D5000001061688900B0FBF1F7FFF791FC00EB30
:100D6000C00101EB00106168B0468900B0FBF1F0F2
:100D7000B0FBF5F06FF01801484307EB800106EB7C
:100D80000110B0FBF5F000F0F006FFF779FC00EB86
:100D9000C00101EB001061688900B0FBF1F0B0FB0D
:100DA000F5F006EB0016FFF76BFC00EBC00101EB62
:100DB000001061688900B0FBF1F7FFF761FC3BE0D0
:100DC000FFF74EFC00EBC00101EB001061688900E9
:100DD000B0FBF1F7FFF744FC00EBC00101EB0010A2
:100DE0006168B0468900B0FBF1F0B0FBF5F06FF040
:100DF0001801484307EB800106EB0110B0FBF5F04A
:100E000000F0F006FFF72CFC00EBC00101EB001036
:100E100061688900B0FBF1F0B0FBF5F006EB00165D
:100E2000FFF71EFC00EBC00101EB001061688900B8
:100E3000B0FBF1F7FFF714FC00EBC00101EB001071
:100E400061688900B0FBF1F0B0FBF5F06FF01801BC
:100E5000484307EB800108EB0110B0FBF5F0216877
:100E600000F00F0030448860BDE8F0810038014098
:100E7000194830B40068016889061DD54068C3B2BE
:100E8000164801680A0417D4134A4D044FF00004B1
:100E9000A2F1C80212D50A2B0DD141F40041016024
:100EA0001178302907D15178582904D19178D07818
:100EB00030BCFFF74BB9046030BC70470D2B07D036
:100EC000C1F30D05491C53550160C729F3D8F3E759
:100ED00041F480410160EFE7E400002010000020B1
:100EE000FEE7FEE7014A024900F013B8350F00089B
:100EF0001800002002E008C8121F08C1002AFAD119
:100F000070477047002001E001C1121F002AFBD189
:100F100070472DE9F04116460F460446002503E0D0
:100F20003946B047641C6D1C20780028F8D128464B
:100F3000BDE8F08104490A685206FCD5024AC1B2F4
:100F4000121D11607047000000380140FFF728FAB9
:100F5000FFF77FFEFFF7F8FDFFF73AFE40F2DC54A3
:100F60002046FFF719F965A0FFF7BCFF2046FFF701
:100F700013F96FA0FFF7B6FF4FF448742046FFF750
:100F80000BF96FA0FFF7AEFF2046FFF705F9704E93
:100F900000224FF400513046FFF7EEF9DFF8B4813C
:100FA0000022B11544464046FFF7E6F9002231150C
:100FB0002046FFF7E1F94FF48059002249463046B8
:100FC000FFF7DAF900224FF480413046FFF7D4F9F9
:100FD000002271152046FFF7CFF95F4F5F4C4FF4A9
:100FE000204A4FF4A06B0025388800047ED55CA011
:100FF000FFF778FF3D60207800F00F00042813D041
:1010000004DC01282BD0022802D109E0082822D0D4
:10101000002251463046FFF7AFF9002259461CE046
:1010200001225103304602E00122110215E0FFF7D0
:10103000A3F9607810F001001CD0D8B10122494614
:101040003046FFF799F9607810F0020001D00228CD
:1010500012D0002211E0012291024046E7E701226E
:1010600051033046FFF788F9012211024046FFF78D
:1010700083F9F0E70022E2E701224FF48041304695
:10108000FFF77AF9607810F0040001D0042801D04D
:10109000002200E001224FF400714046FFF76CF996
:1010A000607810F008001FD008280ED000224946B2
:1010B0003046FFF761F900224FF480413046FFF7D8
:1010C0005BF900224FF400710BE0012249463046E3
:1010D000FFF752F9012291033046FFF74DF9012243
:1010E00049464046FFF748F91F4800E002E0057115
:1010F000C57085700A20FFF74FF875E741542B4300
:10110000495053544152543D22554450222C2232CE
:1011100035352E3235352E3235352E323535222CB9
:10112000353030302C313030302C300D0A0000009A
:1011300041542B4349504D4F44453D310D0A000069
:1011400041542B43495053454E440D0A00000000C2
:10115000000C014000080140100000200C0000209D
:101160004F4B0D0A000000001C0000200000000092
:101170000000000001020304060708090000000047
:1011800001020304A4110008000000201C0000005C
:10119000F40E0008C01100081C0000200C0500001F
:1011A000040F000801000000100000000000000013
:1011B000AAAA00000000000000A24A0400000000EB
:04000005080000ED02
:00000001FF
