:020000040800F2
:10000000400A00209D0B00087109000873090008D0
:10001000770900087B0900087F090008000000003C
:10002000000000000000000000000000830900083C
:1000300085090008000000008709000889090008F8
:10004000B70B0008B70B0008B70B0008B70B000888
:10005000B70B0008B70B0008B70B0008B70B000878
:10006000B70B0008B70B0008B70B0008B70B000868
:10007000B70B0008B70B0008B70B0008B70B000858
:10008000B70B0008B70B0008B70B0008B70B000848
:10009000B70B0008B70B0008B70B0008B70B000838
:1000A000B70B0008B70B00089F300008692800084C
:1000B000B70B0008B70B000819350008B70B00088C
:1000C000B70B0008B70B0008B70B0008B70B000808
:1000D000B70B0008C32E0008E32B0008F329000823
:1000E000B70B0008B70B0008B70B0008B70B0008E8
:1000F000B70B0008B70B0008B70B0008B70B0008D8
:10010000B70B0008B70B0008B70B0008B70B0008C7
:10011000B70B0008B70B0008B70B0008B70B0008B7
:10012000B70B0008B70B0008B70B0008B70B0008A7
:10013000B70B0008B70B0008B70B0008B70B000897
:10014000B70B0008B70B0008B70B0008B70B000887
:10015000B70B0008B70B0008B70B00080F320008F8
:10016000B70B0008B70B0008B70B0008B70B000867
:10017000B70B0008B70B0008B70B0008B70B000857
:10018000B70B0008B70B000800F002F800F04CF8BD
:100190000AA090E8000C82448344AAF10107DA45E2
:1001A00001D100F041F8AFF2090EBAE80F0013F0E8
:1001B000010F18BFFB1A43F00103184788560000CF
:1001C000A8560000103A24BF78C878C1FAD8520760
:1001D00024BF30C830C144BF04680C6070470000C1
:1001E0000023002400250026103A28BF78C1FBD840
:1001F000520728BF30C148BF0B607047662905F021
:100200003682642903F08E82002070471FB505F006
:1002100024FA03F003FE04000020002104F09EFBFA
:10022000E0601FBD10B510BD03F014FF1146FFF7CD
:10023000EDFF00F04BF803F032FF03B4FFF7F2FFDD
:1002400003BC02F0DDFD000010B5044621464FF06E
:10025000804001F046FC10BD10B504462146FE4822
:1002600001F03FFC10BD0FB400B593B09DED1A0B2B
:100270008DED100B9DED260B8DED0E0B24980C9043
:100280009DED220B8DED0A0B9DED200B8DED080BE6
:100290009DED1E0B8DED060B9DED1C0B8DED040BE6
:1002A0009DED180B8DED020B9DED160B8DED000BEA
:1002B0009DED141BB0EE410AF0EE610A53EC102BD9
:1002C000E64803F023FA13B05DF814FB2DED088B1C
:1002D000A8B04FF4A06000F081FCA82002F0E0F983
:1002E00002F07DFD53214FF6FF7002F0B5FA02F0E7
:1002F00032FE02F0D0FF02F032FC53214FF6FF70C5
:1003000003F0AAF8D64803F087F95022D54914A87B
:1003100003F0CBFA00250026AA46AB460020139036
:1003200012901190FFE2D048008800F400400028AD
:100330007DD0CE488478FF2C02D10120119099E025
:10034000CA48C7784FF6FF7000EA0727C748007908
:10035000384487B20020119044B99FEDC50B8DED54
:10036000160B9FEDC30B8DED180B82E0F12C11D114
:10037000384604F0BBFD41EC180B9DED161BB0EEAA
:10038000410AF0EE610A53EC102B04F02FFBCDE98B
:1003900016016EE0F02C26D1384604F0A7FD41ECA2
:1003A000180B9DED161BB0EE410AF0EE610A53ECFE
:1003B000102B04F0AFFD11D8384604F097FD41EC46
:1003C000180B9DED161BB0EE410AF0EE610A53ECDE
:1003D000102B04F00FFFCDE916014AE09FEDA60BAC
:1003E0008DED160B45E01F2C11D1384604F07EFD33
:1003F00041EC180B9DED181BB0EE410AF0EE610ABE
:1004000053EC102B04F0F2FACDE9180131E00F2C77
:1004100028D1384604F06AFD41EC180B9DED181BFD
:10042000B0EE410AF0EE610A53EC102B00E025E03B
:1004300004F070FD11D8384604F058FD41EC180B5B
:100440009DED181BB0EE410AF0EE610A53EC102B43
:1004500004F0D0FECDE918010BE09FED870B8DED88
:10046000180B06E0EA2C04D1384604F03FFDCDE934
:100470001A0100BF00207C49088000BF8048008826
:1004800000F4004028B37F498A7A497A02EB0120C0
:1004900004F015FD41EC180B9FED7B0B53EC102B7A
:1004A00004F058FBCDE9220176498A7B497B02EBB7
:1004B000012004F004FD41EC180B9FED750B53EC8B
:1004C000102B04F047FBCDE9200100206C49088087
:1004D000761C7148008800F4004080B36F4844796E
:1004E000877990F80780007A109024063F044FEA3D
:1004F00008283C44444410980444204604F0DFFC9F
:1005000041EC180B654890F809900DE09FED640BE5
:1005100053EC102B51EC180B04F01CFB41EC180BA6
:10052000A9F1010000F0FF09B9F1000FEEDC8DED3B
:100530001C8B0020584908800AF1010A00BF5A4864
:10054000008800F4004010B1002057490880574847
:10055000007800F0800090B35548046800205349AB
:100560000870204604F0C2FC41EC1B0B9FED510BC0
:1005700053EC102B04F00AFD41EC1A0B53EC1A2B30
:100580009FED4E0B51EC100B04F0E4FA41EC190B0B
:1005900004F0FAF908EE100ABCEEC80A10EE100AD0
:1005A00002F0EDFE00EE100AB8EEC00AB0EE408A8E
:1005B00018EE100A04F0E0FFCDE9260100BF414823
:1005C000007800F08000B8B13F48D0F800800020EB
:1005D0003C49087044464FF46160604341F20401B5
:1005E00090FBF1F707EBD771481004F068FCCDE9F8
:1005F0001E010BF1010B00BF3448007800F08000B1
:10060000002828D032480468002030490870274666
:10061000B84607EBD8714910481C04F050FCCDE9EE
:1006200014019DED141BB0EE410AF0EE610A9FED3E
:10063000291B53EC112B51EC100B04F0A5FD72D8C3
:100640009DED141BB0EE410AF0EE610A9FED211BF7
:1006500053EC112B42E09FE0000400405C5700087F
:100660007400002078560008400000202E02002070
:100670000000000000E090400000000000000000CA
:10068000340000209E000020000000000000104008
:100690007B14AE47E17A8440500000200003002024
:1006A0000000000000002440380000206800002006
:1006B0006C000020000000000000F03F000000007F
:1006C000389C8C41280000202C0000204400002091
:1006D00048000020000000000080924051EC100B08
:1006E00004F060FE41EC1A0B9FED8F0B53EC102BC6
:1006F00004F04CFC41EC190B9FED8D0B53EC102BCF
:1007000004F028FA41EC180B04F07CFB41F288312C
:1007100000EB0108404604F0D2FBCDE91A010120AC
:10072000119035E0FFE79DED141BB0EE410AF0EEAD
:10073000610A9FED811B53EC112B51EC100B04F05F
:1007400023FD23D89DED141BB0EE410AF0EE610AA3
:100750009FED7B1B53EC112B51EC100B04F022FE90
:1007600041EC190B9FED780B53EC102B04F00EFCB1
:1007700041EC180B04F046FB00F58768404604F096
:100780009EFBCDE916010020119001E000201190A0
:100790001298401C129000BF6D4895FBF0F100FBD1
:1007A000115028BB0024002E00DD641CBAF1000F9C
:1007B00000DD0A34BBF1000F00DD6434129800281C
:1007C00001DD04F57A741398002802DD42F21070FE
:1007D00004442494402218A9684603F066F814A83B
:1007E0000FC8FFF740FD002083468246129000BFED
:1007F000584895FBF0F100FB115018B9002006464F
:10080000139001256D1C119801286AD19DED221BC2
:10081000B0EE410AF0EE610A51EC100B04F0B4F8AE
:1008200009EE100A9DED1A1BB0EE410AF0EE610AC6
:1008300051EC100B04F0A8F809EE900AF0EE490A0A
:10084000B0EE690A444802F010FFF0EE408A9FEDD6
:10085000430AC8EE800AB0EE608A9FED410AB4EE0A
:10086000C08AF1EE10FA03DD9FED3E0AB0EE408A39
:1008700018EE100A04F080FE41EC190B9DED161BDA
:10088000B0EE410AF0EE610A53EC102B04F0AEF822
:10089000CDE916019DED161BB0EE410AF0EE610A9E
:1008A0001FED8D1B53EC112B51EC100B04F032FBA0
:1008B00003D21FED910B8DED160B9DED161BB0EEC7
:1008C000410AF0EE610A9FED281B53EC112B51EC0D
:1008D000100B04F059FC03D29FED230B8DED160B8A
:1008E00000BF9DED161BB0EE410AF0EE610A51EC1F
:1008F000100B04F0B7FA43F6A721081A84B2204679
:10090000FFF7AAFC9DED181BB0EE410AF0EE610A5C
:1009100051EC100B04F0A6FA43F6A721081A84B292
:100920002046FFF791FCFEE4000000000000594063
:100930000000000000003C40000000000038914032
:100940000000000000309140000000000000044062
:10095000A086010040420F007400002000401C46A9
:1009600000007A44000061440000000000D09B4079
:10097000704700BFFEE700BFFEE700BFFEE700BF15
:10098000FEE7704770477047704700000CB50020C5
:10099000019000907648006840F480307449086007
:1009A00000BF7348006800F4003000900198401CBC
:1009B0000190009818B90198B0F5A04FF1D16C489A
:1009C000006800F4003010B10120009001E0002028
:1009D00000900098012846D165484030006840F0FA
:1009E00080506349403108606248006840F44040EC
:1009F000604908605E48083000685D490831086059
:100A00000846006840F4004008600846006840F46A
:100A1000A05008605848091F0860081F006840F08F
:100A20008070091F086000BF5148006800F0007026
:100A30000028F9D040F20570504908604C48083051
:100A4000006820F003004A49083108600846006841
:100A500040F00200086000BF45480830006800F020
:100A60000C000828F8D10CBD10B54548006840F4CA
:100A70007000434908603E48006840F001003C496E
:100A8000086000203A4908310860394800683D494B
:100A90000840374908603C48091D0860081F006885
:100AA00020F48020091F0860002031490C310860C3
:100AB000FFF76CFF4FF0006031498039086010BDCE
:100AC00070B500200022022300240221284D0835A1
:100AD0002D6805F00C0020B1042806D0082834D178
:100AE00007E02A4D2A4E356033E02A4D284E356006
:100AF0002FE01F4D2D1D2D68C5F380541C4D2D1D5D
:100B00002D6805F03F0154B1224DB5FBF1F5184EAB
:100B1000361D3668C6F3881605FB06F209E01B4D44
:100B2000B5FBF1F5124E361D3668C6F3881605FB87
:100B300006F20F4D2D1D2D68C5F301456D1C6B0090
:100B4000B2FBF3F5124E356003E0104D104E3560E8
:100B500000BF00BF064D08352D68C5F303150E4EC6
:100B6000705D0B4D2D68C540094E356070BD0000AD
:100B7000003802400070004008544007003C02402A
:100B800088ED00E0FFFFF6FE103000240024F400A2
:100B90000000002000127A0004000020094880476D
:100BA00009480047FEE7FEE7FEE7FEE7FEE7FEE74F
:100BB000FEE7FEE7FEE7FEE704480549054A064B67
:100BC00070470000690A00088901000840040020FD
:100BD000400A002040060020400600203249014320
:100BE000324A1160704770B5002100230F22C4788B
:100BF0001CB32E4C246804F4E064C4F5E064C4F330
:100C00000721C1F10404E3B20A4144789C40E1B2F7
:100C10008478144021430C07210E254C057861553A
:100C2000047804F01F050124AC4005786D11AD0077
:100C300005F1E025C5F8004109E0047804F01F053E
:100C40000124AC401B4D0678761145F8264070BD56
:100C5000194A0A400243154B1B1F1A60704739B1ED
:100C6000124A121D12680243104B1B1D1A6006E047
:100C70000E4A121D126882430C4B1B1D1A607047EE
:100C8000042808D14FF0E021096941F004014FF038
:100C9000E022116107E04FF0E021096921F0040131
:100CA0004FF0E022116170470000FA050CED00E002
:100CB00000E400E080E100E080FFFF1F10B5044683
:100CC0009848844208D10121084600F086FB0021A3
:100CD000012000F082FB76E09348844208D1012194
:100CE000022000F07AFB0021022000F076FB6AE08F
:100CF0008E48844208D10121042000F06EFB0021BF
:100D0000042000F06AFB5EE08948844208D101219A
:100D1000082000F062FB0021082000F05EFB52E09A
:100D20008448844208D10121102000F056FB0021A4
:100D3000102000F052FB46E07F48844208D1012198
:100D4000202000F04AFB0021202000F046FB3AE082
:100D50007A48844208D10121402000F03EFB002166
:100D6000402000F03AFB2EE07548844208D1012172
:100D7000802000F032FB0021802000F02EFB22E0DA
:100D80007048844208D10121801500F026FB002123
:100D9000A01500F022FB16E06B48844208D1012127
:100DA000401500F01AFB0021601500F016FB0AE068
:100DB0006648844207D10121001500F00EFB002196
:100DC000201500F00AFB10BDF0B50A4600210023F3
:100DD000002400BF3DE0012505FA01F3156805EA8E
:100DE00003049C4234D105684F000326BE40B5433E
:100DF000056015794E00B5400668354305601579E4
:100E0000012D02D01579022D16D185684F000326D9
:100E1000BE40B543856055794E00B5408668354380
:100E20008560456801268E40B543456045689679E2
:100E30008E40B6B235434560C5684F000326BE40BC
:100E4000B543C560D5794E00B540C6683543C56029
:100E5000491C1029BFD3F0BD4FF6FF71016000217E
:100E6000017141718171C171704708B54FF48032D1
:100E70000092009A0A430092009AC261C161009AEE
:100E8000C261C2690092C269009208BD0246002098
:100E900013690B400BB1012000E0002070470146B0
:100EA000086980B270470246002053690B400BB1BD
:100EB000012000E0002070470146486980B2704779
:100EC00001837047418370470AB1018300E0418389
:100ED00070474161704742694A4042617047F0B5CE
:100EE000002300244D07ED0E02FA05F3CE1000F1A9
:100EF000200555F826504E07F70E0F26BE40B54385
:100F0000CF1000F1200646F82750CE1000F1200542
:100F100055F8265045EA0304CE1000F1200545F8A7
:100F20002640F0BD000002400004024000080240DC
:100F3000000C024000100240001402400018024061
:100F4000001C024000200240002402400028024011
:100F5000F948006840F00100F74908600020F649B0
:100F600008310860F4480068F4490840F249086014
:100F7000F348091D0860F348EF4984310860F048E0
:100F80001038091D0860EC48006820F48020EA4908
:100F900008600020E8490C310860E7498C3108609E
:100FA00070470021E44A921C117011460870704786
:100FB00010B501460022002300204A11012A02D167
:100FC000DD4C236808E0022A03D1DB4C703423682F
:100FD00002E0D94C7434236801F01F0201249440CC
:100FE0001C400CB1012000E0002010BD38B50020ED
:100FF00000900024002500BF3120FFF7D9FF0546EF
:101000000098401C00900098B0F5A04F01D0002D32
:10101000F2D03120FFF7CCFF08B1012400E000241A
:10102000204638BD01460020C34A106820F0F80071
:1010300040EAC10010607047C34908607047002152
:10104000BD4A703211701170012802D004280AD1F3
:1010500004E00121B84A7032117005E00521B64A5A
:101060007032117000E000BF00BF7047B7490860E0
:10107000704770B5049C41EA82150126C6EB530601
:1010800045EA0645054345EA0465AB4E361D356025
:1010900070BDAD4908667047820142EA0172A64BF5
:1010A00084331A607047A8498866704710B5830179
:1010B00043EA016343EA02739F4C8834236010BD06
:1010C000A14908677047A049C864704702460020DC
:1010D000994B0833186820F0EC6042EA010318438A
:1010E000954B08331860704702460020924B083336
:1010F000186820F0784042EA010318438E4B083309
:1011000018607047014600208B4A0832106820F0B2
:10111000030008431060704787480830006800F0FB
:101120000C00704701460020834A0832106820F006
:10113000F000084310607047014600207E4A0832E4
:10114000106820F4E050084310607047014600200A
:10115000794A0832106820F4604040EAC10010600B
:101160007047F0B50021002200240225002602234A
:10117000714F08373F6807F00C0121B1042905D0F1
:10118000082937D105E0724F076036E0714F0760DC
:1011900033E0694F3F1D3F68C7F38056664F3F1DE0
:1011A0003F6807F03F036EB16A4FB7FBF3F7DFF814
:1011B00088C10CF1040CDCF800C0CCF3881C07FBE0
:1011C0000CF40CE0624FB7FBF3F7DFF86CC10CF1E5
:1011D000040CDCF800C0CCF3881C07FB0CF4564F61
:1011E0003F1D3F68C7F301477F1C7D00B4FBF5F747
:1011F000076002E0564F076000BF00BF4E4F083740
:101200003F6807F0F0010909534F7A5C0768D7403F
:101210004760494F08373F6807F4E051890A4E4F4D
:101220007A5C4768D7408760434F08373F6807F4C8
:101230006041490B484F7A5C4768D740C760F0BDB2
:10124000002100F44072B2F5407F0AD13A4A0832D8
:10125000116821F4F811414A02401143364A08321C
:101260001160354A70321268C0F30B031A43324BD7
:1012700070331A6070473549443908607047334904
:1012800040390860704736490860704701460020C1
:10129000294A8C32106820F01F004A1E1043264A4B
:1012A0008C321060704701460020234A8C3210684F
:1012B00020F4F8504A1E40EA02201F4A8C32106087
:1012C0007047014600201C4A8C32106820F4401000
:1012D00008431060704701460020174A8C3210689E
:1012E00020F4400008431060704701460020124A75
:1012F0008C32106820F44030084310607047194960
:101300000860704739B10C4A3032126802430A4B08
:1013100030331A6006E0084A303212688243064BC6
:1013200030331A607047F9B1034A3432126802430D
:10133000014B34331A601CE000380240FFFFF6EA2C
:10134000103000240030002000004742800E474249
:101350000024F40000127A0014000020FFFCFF0FAC
:101360005C014742E01147428F4A126882438E4B2C
:101370001A60704739B18C4A121D126802438A4BB9
:101380001B1D1A6006E0884A121D12688243864BB4
:101390001B1D1A60704739B1834A0C321268024330
:1013A000814B0C331A6006E07F4A0C32126882438C
:1013B0007D4B0C331A60704739B17B4A103212688A
:1013C0000243794B10331A6006E0774A10321268F4
:1013D0008243754B10331A60704739B1724A243A10
:1013E00012680243704B243B1A6006E06E4A243AAE
:1013F000126882436C4B243B1A60704739B16A4AC9
:10140000203A12680243684B203B1A6006E0664AA5
:10141000203A12688243644B203B1A60704739B10E
:10142000614A1C3A126802435F4B1C3B1A6006E09B
:101430005D4A1C3A126882435B4B1C3B1A60704742
:1014400039B1594A143A12680243574B143B1A6097
:1014500006E0554A143A12688243534B143B1A6013
:10146000704739B1504A103A126802434E4B103B54
:101470001A6006E04C4A103A126882434A4B103B0D
:101480001A60704739B1484A1C3212680243464B11
:101490001C331A6006E0444A1C3212688243424BF5
:1014A0001C331A60704739B13F4A20321268024338
:1014B0003D4B20331A6006E03B4A203212688243DB
:1014C000394B20331A60704739B1374A24321268D9
:1014D0000243354B24331A6006E0334A2432126843
:1014E0008243314B24331A60704739B12E4A2C3273
:1014F000126802432C4B2C331A6006E02A4A2C3225
:1015000012688243284B2C331A60704739B1264A3F
:10151000303212680243244B30331A6006E0224A0C
:10152000303212688243204B30331A6070470128F2
:1015300008D11D493C31096841F008011A4A3C3282
:10154000116007E018493C31096821F00801164A8A
:101550003C321160704739B1134A273A127802437E
:10156000114B273B1A7006E00F4A273A1278824344
:101570000D4B273B1A7070470B484030006840F015
:101580008070094940310860704701460020064AD2
:10159000283A12680A400AB1012000E00020704792
:1015A00001492639087070473438024010B50446A6
:1015B000FE48844208D101210846FFF752FF00216E
:1015C0000120FFF74EFF9DE0B4F1804F08D10121CB
:1015D0000846FFF735FF00210120FFF731FF91E0BA
:1015E000F348844208D101210220FFF729FF00219E
:1015F0000220FFF725FF85E0EE48844208D1012153
:101600000420FFF71DFF00210420FFF719FF79E0F8
:10161000E948844208D101210820FFF711FF002189
:101620000820FFF70DFF6DE0E448844208D1012156
:101630001020FFF705FF00211020FFF701FF61E0F8
:10164000DF48844208D101212020FFF7F9FE002164
:101650002020FFF7F5FE55E0DA48844208D1012149
:101660000220FFF7FEFE00210220FFF7FAFE49E00C
:10167000D548844209D101210804FFF7F2FE002178
:101680004FF48030FFF7EDFE3CE0D048844209D1B2
:1016900001214804FFF7E5FE00214FF40030FFF779
:1016A000E0FE2FE0CA48844209D101218804FFF7F7
:1016B000D8FE00214FF48020FFF7D3FE22E0C5487A
:1016C000844208D101214020FFF7BAFE00214020CA
:1016D000FFF7B6FE16E0C048844208D10121802001
:1016E000FFF7AEFE00218020FFF7AAFE0AE0BB480C
:1016F000844207D101218015FFF7A2FE0021A01529
:10170000FFF79EFE10BD00220288A84B98420ED023
:10171000AC4B98420BD0B0F1804F08D0A44B98420C
:1017200005D0A44B984202D0A34B984204D14FF667
:101730008F731A404B881A43A04B984207D0A04B96
:10174000984204D04FF6FF431A400B891A43028097
:101750004B68C3620B880385944B984202D0994B27
:10176000984201D18B7A03860123838270474FF020
:10177000FF31416000210180018141808172704709
:101780000185828270470A46002101884FF68F73D7
:10179000194011430180704741627047C162704730
:1017A0000146486A70470146088D704721B102889A
:1017B00042F00202028004E002884FF6FD731A40F4
:1017C0000280704721B1028842F00402028004E0E6
:1017D00002884FF6FB731A400280704721B10288DD
:1017E00042F08002028004E002884FF67F731A40C4
:1017F0000280704702884FF6F7731A400280028811
:101800000A430280704702884FF6FF431A40028065
:1018100002880A430280704721B1028842F0010227
:10182000028004E002884FF6FE731A40028070477F
:1018300070B5002400220023058C4FF6FE7635405B
:101840000584028C8388048B4FF68F752C40B51E5F
:101850002C400D882C43751E2A408D892A434D88C3
:101860002A43524DA84202D0564DA84213D14FF6FA
:10187000F7752A40CD892A434FF6FB752A408D889B
:101880002A434FF6FF652B404FF6FF552B400D8A3C
:101890002B434D8A2B43838004838D6845630284E8
:1018A00070BD70B5002400220023058C4FF6EF7642
:1018B00035400584028C8388048B48F6FF752C40E4
:1018C0004FF6FF452C400D884FF6FF7606EA0525BA
:1018D0002C434FF6DF752A408D8906EA05152A4309
:1018E0004D8806EA05152A43304DA84202D0354DF1
:1018F000A8421DD14FF67F752A40CD894FF6FF765D
:1019000006EA05152A434FF6BF752A408D8806EA78
:1019100005152A434FF6FF352B404FF2FF752B403C
:101920000D8A06EA85052B434D8A06EA85052B4379
:10193000838004838D688563028470BD70B5002444
:1019400000220023058C4FF6FF6635400584028C8B
:101950008388848B4FF68F752C404FF6FC752C4096
:101960000D882C434FF6FF552A408D894FF6FF76A0
:1019700006EA05252A434D8806EA05252A430B4D2C
:10198000A84202D00F4DA84238D14FF2FF752A402D
:10199000CD894FF6FF7606EA05252A434FF6FF3537
:1019A0002A408D8806EA05252A4319E000000140F7
:1019B0000004004000080040000C004000100040FF
:1019C0000014004000040140004001400044014078
:1019D0000048014000180040001C0040002000406A
:1019E0004EF6FF752B404DF6FF752B400D8A06EA2B
:1019F00005152B434D8A06EA05152B438380848306
:101A00008D68C563028470BD70B500220023002478
:101A1000058C4EF6FF7635400584038C8488828BD6
:101A200048F6FF752A404FF6FF452A400D884FF6CD
:101A3000FF7606EA05252A434DF6FF752B408D8972
:101A400006EA05352B434D8806EA05352B43FE4D46
:101A5000A84202D0FD4DA84208D14BF6FF752C409C
:101A60000D8A4FF6FF7606EA85152C438480828323
:101A70008D680564038470BD0021018041808180F0
:101A800081608181C18101824182704770B50346C6
:101A9000002000241846183001258D40ACB21D8C62
:101AA000A5431D8409B108290AD100EB610005682E
:101AB0004FF68F76354005600568154305600FE0E9
:101AC0000D1FC5F34E052844056848F6FF763540DE
:101AD000056005684FF6FF7606EA02263543056085
:101AE00070BD4163704781637047C1637047016493
:101AF00070470A460021018B4FF68F73194011433E
:101B0000018370470A460021018B48F6FF73194094
:101B10004FF6FF7303EA02231943018370470A4615
:101B20000021818B4FF68F731940114381837047D9
:101B30000A460021818B48F6FF7319404FF6FF7368
:101B400003EA02231943818370470A460021018B6F
:101B50004FF6F77319401143018370470A4600217D
:101B6000018B4FF2FF7319404FF6FF7303EA022314
:101B70001943018370470A460021818B4FF6F773A2
:101B800019401143818370470A460021818B4FF22F
:101B9000FF7319404FF6FF7303EA02231943818351
:101BA00070470A460021018B4FF6FB731940114321
:101BB000018370470A460021018B4FF6FF3319401D
:101BC0004FF6FF7303EA02231943018370470A4665
:101BD0000021818B4FF6FB731940114381837047BD
:101BE0000A460021818B4FF6FF3319404FF6FF73F1
:101BF00003EA02231943818370470A460021018BBF
:101C00004FF67F7319401143018370470A46002144
:101C1000018BC1F30E014FF6FF7303EA0223194350
:101C2000018370470A460021818B4FF67F7319406C
:101C30001143818370470A460021818BC1F30E0155
:101C40004FF6FF7303EA02231943818370470A4664
:101C50000021018C4FF6FD73194011430184704738
:101C60000A460021018C4FF6F77319401143018495
:101C700070470A460021018C4FF6DF7319404FF67A
:101C8000FF7303EA02131943018470470A460021D7
:101C9000018C4FF67F7319404FF6FF7303EA02136E
:101CA0001943018470470A460021018C4FF6FF5307
:101CB00019404FF6FF7303EA02231943018470476A
:101CC0000A460021018C4FF2FF7319404FF6FF7353
:101CD00003EA02231943018470470A460021018C5C
:101CE0004DF6FF7319404FF6FF7303EA02331943B1
:101CF0000184704730B5002301248C40A3B2048CCA
:101D00009C430484048C02FA01F5ADB22C43048494
:101D100030BD30B5002304248C40A3B2048C9C4316
:101D20000484048C02FA01F5ADB22C43048430BD66
:101D3000828B4FF2FF331A408283828B4FF6FF7300
:101D400003EA01231A4382837047F0B50C46154617
:101D5000002100220026078C4EF6FF7C07EA0C07C4
:101D60000784818B028C4FF6FF7707EA043640F632
:101D7000FF4739404FF6FF7707EA052739434FF60B
:101D8000FF7707EA0337394345F6FF773A4046F4D1
:101D900080573A4381830284F0BD828B4FF6F37300
:101DA0001A408283828B0A4382837047F0B50C46C7
:101DB0001546002100220026078C4FF6FF6C07EA2B
:101DC0000C070784818B028C4FF6FF7707EA042605
:101DD0004FF60C7739404FF6FF7707EA03172F438A
:101DE00039434FF2FF573A4046F480773A438183B4
:101DF0000284F0BD028B4FF2FF331A400283028B44
:101E00004FF6FF7303EA01231A4302837047F0B5CC
:101E10000C461546002100220026078C4FF6EF7C69
:101E200007EA0C070784018B028C4FF6FF7707EA5D
:101E3000041640F6FF4739404FF6FF7707EA0337AD
:101E400039434FF6FF7703E00000014000040140F2
:101E500007EA052739434FF65F773A4046F0100707
:101E60003A4301830284F0BD028B4FF6F3731A40AC
:101E70000283028B0A4302837047F0B50C46154675
:101E800000210022068C4FF6FE773E400684018B2F
:101E9000028C4FF60C7631407E1C06EA03162E4368
:101EA00031434FF6F576324044F001063243018368
:101EB0000284F0BD70B505460C46208850B92389D0
:101EC000A28861882846FFF7D8FFE1882846FFF7F7
:101ED000CBFF25E0208804280AD12389A2886188C5
:101EE0002846FFF794FFE1882846FFF783FF17E0B5
:101EF000208808280AD12389A28861882846FFF70C
:101F000055FFE1882846FFF748FF09E02389A288AA
:101F100061882846FFF719FFE1882846FFF708FF88
:101F200070BD002101804180012181800021C1809C
:101F3000018170472DE9F04105460C460026012736
:101F4000608808B9022600E00026A088012801D197
:101F5000022700E001272088A0B92389A288618890
:101F60002846FFF78AFFE1882846FFF77DFF23898F
:101F70003A4631462846FFF74AFFE1882846FFF7F0
:101F800039FF13E02389A28861882846FFF73FFFC5
:101F9000E1882846FFF72EFF23893A463146284636
:101FA000FFF76BFFE1882846FFF75EFFBDE8F08191
:101FB0000146486B70470146886B70470146C86B05
:101FC00070470146086C70470A884B881A438B8813
:101FD0001A43CB881A430B891A434B891A438B89BE
:101FE0001A43A0F84420704700210180418081807D
:101FF000C180018141818181704731B1B0F84420B5
:1020000042F40042A0F8442005E0B0F84420C2F3B6
:102010000E02A0F84420704721B1828842F00402E9
:10202000828004E082884FF6FB731A4082807047FA
:1020300021B1828842F00102828004E082884FF65A
:10204000FE731A40828070471AB183890B438381E3
:1020500002E083898B438381704781827047024607
:102060000020138A0B400BB1012000E000207047D4
:10207000CA430282704730B5024600200023002484
:10208000158A05EA0103958905EA010413B10CB12B
:10209000012000E0002030BDCA430282704741EABF
:1020A0000203A0F8483070471AB183890B4383813B
:1020B00002E083898B438381704721B1828842F09B
:1020C0000802828004E082884FF6F7731A4082800B
:1020D000704701894FF6F8721140018170470A4636
:1020E000002101894FF68F73194011430181704718
:1020F00030B504460D4629462046FFF7F0FF2089FB
:1021000040F00700208130BD2DE9F04104460D4626
:1021100016461F46602D06D13B4601223146204619
:10212000FFF775FE05E03B46012231462046FFF7EA
:10213000A4FE29462046FFF7D2FF208940F0070081
:102140002081BDE8F08130B50C4600210189C9B27B
:102150004FF6FF7505EA0325154325432943018101
:1021600030BD2DE9F04105460E461746984600243D
:1021700043463A4631462846FFF7E5FF2C894FF69D
:10218000F870044044F007044FF68F70044044F0A8
:1021900070042C81BDE8F081F0B504460D4616466A
:1021A0001F463B46324629462046FFF7CCFF208992
:1021B00040F480402081F0BD82884FF68F731A4032
:1021C000828082880A438280704702894FF6F873C2
:1021D0001A40028102890A430281704702894FF640
:1021E0007F731A40028102890A4302817047F0B569
:1021F0000C4615461E460021002200230189028B51
:10220000038C4FF6F877394021434FF6FC473A40AC
:1022100040F201173A434FF6DD773B404FF6FF7728
:1022200007EA06172F433B43018102830384F0BD75
:1022300021B1828842F08002828004E082884FF6D9
:102240007F731A4082807047A0F8501070470000DA
:1022500010B50446F948844208D101211020FFF747
:1022600000F900211020FFF7FCF857E0F448844201
:1022700009D101214804FFF7E3F800214FF40030B1
:10228000FFF7DEF84AE0EF48844209D101218804D3
:10229000FFF7D6F800214FF48020FFF7D1F83DE09A
:1022A000E948844209D10121C804FFF7C9F8002197
:1022B0004FF40020FFF7C4F830E0E448844209D12D
:1022C00001210805FFF7BCF800214FF48010FFF74B
:1022D000B7F823E0DE48844208D101212020FFF72F
:1022E000C0F800212020FFF7BCF817E0D94884424D
:1022F00009D101218807FFF7A3F800214FF08040A2
:10230000FFF79EF80AE0D448844207D10121400536
:10231000FFF796F800216005FFF792F810BD2DE950
:10232000FF4705460E460024A14600BFA046B089DF
:1023300000B100BF2C8A24F44054F08804432C825E
:10234000AC8941F20C608443B088318908437189BB
:1023500008430443AC81AC8A24F44074B08904433C
:10236000AC826846FEF7FDFEB448854202D0B8480C
:10237000854202D1DDF80C9001E0DDF80890A889D3
:1023800000F4004040B109EBC90000EB09103168CE
:102390004900B0FBF1F707E009EBC90000EB0910B9
:1023A00031688900B0FBF1F76420B7FBF0F004015D
:1023B0002009642101FB1078A88900F4004040B195
:1023C000322000EBC800B0FBF1F000F0070004433E
:1023D00008E0322000EB08106421B0FBF1F000F0BF
:1023E0000F0004432C81BDE8FF874FF416510160B4
:1023F00000218180C18001810C21418100218181E6
:10240000704710B502460020108A20F470600B88D7
:102410004C8823438C882343CC8823431843108261
:1024200010BD0021018041808180C180704721B1B1
:10243000828942F40052828104E082894DF6FF7362
:102440001A4082817047028B02F47F420283028B22
:102450000A430283704721B1828942F4004282819B
:1024600003E08289C2F30E028281704721B1828A21
:1024700042F40062828204E0828A4FF2FF731A40C3
:10248000828270478180704701468888C0F30800C7
:102490007047028A4FF6F0731A400282028A0A439A
:1024A0000282704721B1828942F00202828104E0F7
:1024B00082894FF6FD731A408281704782894FF2FC
:1024C000FF731A40828182890A4382817047028A9F
:1024D0004FF6DF731A400282028A0A430282704773
:1024E00021B1028A42F48042028204E0028A4BF661
:1024F000FF731A4002827047818941F00101818196
:10250000704721B1828A42F00802828204E0828A06
:102510004FF6F7731A4082827047028BD2B2028361
:10252000028B42EA01220283704721B1828A42F083
:102530002002828204E0828A4FF6DF731A40828290
:10254000704721B1828A42F01002828204E0828ABE
:102550004FF6EF731A4082827047828A4FF6FB7300
:102560001A408282828A0A438282704721B1828A1B
:1025700042F00202828204E0828A4FF6FD731A4022
:10258000828270471AB1838A0B43838202E0838A76
:102590008B4383827047F0B5034600240026002554
:1025A000002040F66A17B94200D100BF1846C1F3B7
:1025B000421401F01F06012707FA06F5012C01D18C
:1025C0000C3004E0022C01D1103000E014301AB1BC
:1025D00007682F43076002E00768AF430760F0BD5C
:1025E00002460020B1F5007F00D100BF13880B40E8
:1025F0000BB1012000E00020704701F40072B2F539
:10260000007F00D100BFCA430280704770B5024608
:10261000002400230025002040F66A16B14200D1B4
:1026200000BFC1F3421501F01F03012606FA03F3B0
:10263000012D13D19689334017E0000000100140AE
:102640000044004000480040004C00400050004062
:102650000014014000780040007C0040022D02D1AF
:10266000168A334001E0968A33400C12012606FA9E
:1026700004F41688344013B10CB1012000E00020AE
:1026800070BD10B50022002340F66A14A14200D1AB
:1026900000BF0A1201249440A3B2DC43048010BDA1
:1026A00010B504466FF00400FEF7EAFAE11704EBF8
:1026B0005171C1F3C701394A11701046007800EB1F
:1026C0004001C1EBC0104FF6FF7101EAC000344970
:1026D000088010BD0146314A12784A434FF0E0238A
:1026E0005A6100229A611A46126942F001021A6187
:1026F00000BF4FF0E022106900F001021AB100F4AF
:102700008032002AF5D04FF0E022126922F0010257
:102710004FF0E0231A6100229A6170470146204A77
:1027200012884A434FF0E0235A6100229A611A4608
:10273000126942F001021A6100BF4FF0E0221069F5
:1027400000F001021AB100F48032002AF5D04FF0F7
:10275000E022126922F001024FF0E0231A61002208
:102760009A61704770B504464FF4077094FBF0F01F
:10277000C6B24FF4077094FBF0F100FB114085B234
:1027800005E04FF40770FFF7C9FF701EC6B2002EB8
:10279000F7D115B12846FFF7C1FF70BD2400002016
:1027A0002600002030B587B004460D4601210846BA
:1027B000FEF702FE01211020FEF7A4FD4FF4007089
:1027C000059002208DF8180003208DF819000020D4
:1027D0008DF81A0002208DF81B0005A95548FEF758
:1027E000F3FA012209215348FEF779FB5248FEF71C
:1027F000DDFEADF808500020ADF80A000394ADF8F6
:1028000010008DF8120002A94B48FEF77CFF002053
:102810004A4908804880012088800020C8800881BB
:102820004548FFF747FB012203214348FFF70CFC13
:102830001B208DF8040003208DF805008DF806009C
:1028400001208DF8070001A8FEF7CDF901213A48D3
:10285000FEF7E2FF07B030BD70B504460D462946CD
:102860002046FFF79FFF70BD10B53548007800F097
:102870008000002859D101212F48FFF7FCFBD0B17F
:102880002F48007800F04000A8B12D48007800F0F3
:102890003F003F280AD12A48007840F080002849AC
:1028A00008704FF0FF302749086004E024480078A2
:1028B000401C2349087002211F48FFF7DCFBA0B32E
:1028C0001F48007800F04000A0B11D48007840F09B
:1028D00080001B4908701848FFF76AFB1949086017
:1028E0001548FFF768FB1849086000211248FFF7F8
:1028F000AEF91AE000201249087012490860104829
:10290000007840F040000E49087000210A48FEF7A8
:1029100083FF00210848FEF73FFF02210648FFF72A
:1029200096F901210448FEF777FF03210248FFF7DB
:10293000B3FB10BD001002400000014094000020D5
:10294000280000202C0000203000002010B588B0A6
:10295000044601210220FEF7D5FC01218804FEF780
:102960001AFD07220A21C448FEF7B9FA07220B21F3
:10297000C148FEF7B4FA4FF44060069002208DF88B
:102980001C008DF81D0000208DF81E0001208DF820
:102990001F0006A9B848FEF717FA02940020ADF808
:1029A0000C00ADF80E00ADF81000ADF814000C20CE
:1029B000ADF8120002A9B148FFF7B1FC0121AF4800
:1029C000FFF735FD012240F22551AC48FFF7E3FD4A
:1029D00027208DF8040003208DF8050002208DF8D3
:1029E000060001208DF8070001A8FEF7FCF808B0EA
:1029F00010BD10B540F22551A048FFF707FE002892
:102A00005AD09E48FFF740FDC4B29D48008800F4AC
:102A10000040002850D19A48008828B9802C03D063
:102A200000209749088010BD95480088012805D1ED
:102A30008F2C03D0002092490880F4E7904800884A
:102A4000022805D1EA2C03D000208D490880EAE74E
:102A50008B480088032805D1162C03D00020884914
:102A60000880E0E786480088042805D1502C03D070
:102A7000002083490880D6E781480088052805D1D1
:102A8000042C03D000207E490880CCE77C480088D5
:102A9000C0F30D007B490C5479480088192806DBE7
:102AA0007748008840F4004075490880BBE77448C7
:102AB0000088401C7249088000BFB4E710B588B098
:102AC000044601210846FEF71DFC01214804FEF7DB
:102AD00062FC072202216C48FEF701FA072203215B
:102AE0006948FEF7FCF90C20069002208DF81C00C6
:102AF0008DF81D0000208DF81E0001208DF81F00AC
:102B000006A96148FEF760F902940020ADF80C00B8
:102B1000ADF80E00ADF81000ADF814000C20ADF8C3
:102B2000120002A95948FFF7FAFB01215748FFF7A5
:102B30007EFC012240F225515448FFF72CFD26204F
:102B40008DF8040003208DF805008DF806000120A3
:102B50008DF8070001A8FEF746F808B010BD10B5C3
:102B60009EB04FF4E130FFF7A9FF4FF4E130FFF7DB
:102B7000EDFE4FF4FA70FFF7F5FD142244A119A8F9
:102B800000F093FE64224749684600F08EFE002460
:102B90000DE019A8015D3948FFF774FC00BF402122
:102BA0003648FFF71DFD0128F9D1601CC4B2142C72
:102BB000EFD34FF4FA70FFF7D5FD00240DE01DF8B8
:102BC00004102E48FFF75EFC00BF40212B48FFF7A2
:102BD00007FD0128F9D1601CC4B2622CEFD31EB0EE
:102BE00010BD10B540F225512848FFF70FFD002811
:102BF00040D02648FFF748FCC4B22B48008800F4B8
:102C00000040B8BB2848008800F4804060B10A2C1E
:102C100003D000202449088020E02348008840F4A5
:102C200000402149088019E00D2C06D11E4800887B
:102C300040F480401C49088010E01B480088C0F325
:102C40000D001A490C5418480088401C1649088089
:102C500008460088C72801DD002008801248008847
:102C600018B111480088012804D14F2C02D000204F
:102C70000D49088010BD00000004024000480040DB
:102C8000340000209E00002000000240004400406C
:102C9000808FEA0320020725808FEA019B95808FB1
:102CA000EA01A19BE05700083800002066010020DF
:102CB00030B58BB004460D4601210220FEF76BFBB8
:102CC00001210846FEF71EFB4020099002208DF8E6
:102CD000280003208DF8290000208DF82A0002200A
:102CE0008DF82B0009A94448FEF76EF80222062150
:102CF0004148FEF7F4F8A8B2ADF818000020ADF88E
:102D00001A000794ADF8200006A93C48FEF7FBFC2A
:102D10006020ADF804000120ADF806000220ADF8F7
:102D2000100001A93548FEF783FD08213348FEF75E
:102D30000CFF01213148FEF751FD01212F48FEF71C
:102D40006BFD0BB030BD30B58BB004460D46012194
:102D50000846FEF720FB01210846FEF7D3FA2020A3
:102D6000099002208DF8280003208DF8290000200A
:102D70008DF82A0002208DF82B0009A91E48FEF7C5
:102D800023F8012205211C48FEF7A9F8A8B2ADF8E6
:102D900018000020ADF81A000794ADF8200006A92D
:102DA0004FF08040FEF7AFFC6020ADF8040001203A
:102DB000ADF806000220ADF8100001A94007FEF7AB
:102DC00037FD0821C806FEF7C0FE01218807FEF77F
:102DD00005FD01218807FEF71FFD0BB030BD10B5C2
:102DE000532143F6A620FFF7AEFF532143F6A6205A
:102DF000FFF75EFF10BD000000000240000400402D
:102E000000BF704700BF704700BF614A128802F0E0
:102E10004002002AF9D0C2B25D4B9A80704710B5CB
:102E200088B0044601210846FEF76CFA0121102003
:102E3000FEF7C2FA072209215648FEF750F807228A
:102E40000A215448FEF74BF84FF4C0600690022068
:102E50008DF81C008DF81D0000208DF81E0001204B
:102E60008DF81F0006A94B48FDF7AEFF0294002025
:102E7000ADF80C00ADF80E00ADF81000ADF8140080
:102E80000C20ADF8120002A94148FFF748FA0121D1
:102E90003F48FFF7CCFA012240F225513C48FFF7AA
:102EA0007AFB25208DF8040003208DF805008DF8AD
:102EB000060001208DF8070001A8FDF794FE08B078
:102EC00010BD10B540F225513148FFF79FFB002897
:102ED00040D02F48FFF7D8FAC4B22F48008800F43A
:102EE0000040B8BB2C48008800F4804060B10A2C38
:102EF00003D000202849088020E02748008840F4BB
:102F000000402549088019E00D2C06D12248008890
:102F100040F480402049088010E01F480088C0F33A
:102F20000D001E490C541C480088401C1A4908809A
:102F300008460088C72801DD002008801648008860
:102F400018B115480088012804D14F2C02D0002068
:102F50001149088010BD10B54FF4E130FFF75FFF55
:102F60004FF4FA70FFF7FEFB0DA000F0CFFB6420DA
:102F7000FFF7F8FB17A000F0C9FB6420FFF7F2FB96
:102F800018A000F0C3FB6420FFF7ECFB10BD0000AD
:102F90000010014000000240400000202E020020EE
:102FA00041542B43495053544152543D22554450AF
:102FB000222C223235352E3235352E3235352E3211
:102FC0003535222C333030302C353030302C300D2C
:102FD0000A00000041542B4349504D4F44453D31B8
:102FE0000D0A000041542B43495053454E440D0AED
:102FF0000000000030B587B004460D46012188046A
:10300000FEF7DAF901210220FEF77CF94FF4007097
:10301000059002208DF8180003208DF8190000207B
:103020008DF81A0002208DF81B0005A99F48FDF7B6
:10303000CBFE032209219D48FDF751FFADF8085052
:103040000020ADF80A000394ADF8100002A99848DA
:10305000FEF759FB002097490880488001208880AE
:103060000020C88008819248FEF724FF0122032136
:103070008F48FEF7E9FF01218D48FEF7CDFB1A20AE
:103080008DF8040003208DF805008DF8060001205E
:103090008DF8070001A8FDF7A6FD07B030BD10B5FB
:1030A0008548007800F08000002859D1012180482F
:1030B000FEF7E1FFD0B18048007800F04000A8B1F1
:1030C0007D48007800F03F003F280AD17A48007818
:1030D00040F08000784908704FF0FF307749086071
:1030E00004E075480078401C73490870022170485C
:1030F000FEF7C1FFA0B37048007800F04000A0B117
:103100006D48007840F080006B4908706848FEF711
:103110004FFF6A4908606648FEF74DFF684908603E
:1031200000216348FEF793FD1AE000206249087011
:10313000624908606048007840F040005E490870CD
:1031400000215B48FEF768FB00215948FEF724FB8D
:1031500002215748FEF77BFD01215548FEF75CFB35
:1031600003215348FEF798FF10BD10B588B0044600
:1031700001210420FEF7C6F801212020FEF71CF9EA
:10318000082206214F48FDF7AAFE082207214D48D4
:10319000FDF7A5FEC020069002208DF81C008DF8DA
:1031A0001D0000208DF81E0001208DF81F0006A9CB
:1031B0004448FDF709FE02940020ADF80C00ADF87C
:1031C0000E00ADF81000ADF814000C20ADF81200A0
:1031D00002A93D48FFF7A3F801213B48FFF727F973
:1031E000012240F225513848FFF7D5F947208DF8E4
:1031F000040003208DF8050002208DF80600012050
:103200008DF8070001A8FDF7EEFC08B010BD10B561
:1032100040F225512C48FFF7F9F9002839D02A4807
:10322000FFF732F9C4B22948008800F4004080BB9F
:103230002648008838B125480088012803D0234853
:103240000088022805D1BB2C03D000201F4908802C
:1032500010BD1E480088042805D1A12C03D00020F1
:103260001A490880F4E719480088C0F30D0018498E
:103270000C54164800880B2806DB1448008840F4DC
:10328000004012490880E3E710480088401C0F49BD
:10329000088000BFDCE710B5532142F2A770FFF7AA
:1032A000A9FE4FF41650FFF760FF10BD0004024066
:1032B00000480140F60200204400002048000020A1
:1032C0004C00002000080240001401405000002083
:1032D0000003002070B52DED068B06460C469FEDD1
:1032E000BF0AB0EE408A9FEDBD0AF0EE408A00258D
:1032F00015E056F8250000EE100AB8EEC00A30EED0
:10330000080AB0EE408A56F82500404300EE100A45
:10331000B8EEC00A30EE280AF0EE408A6D1CA542D5
:10332000E7DB00EE104AB8EEC00AC8EE000AB0EEC5
:10333000608A00EE104AB8EEC00AC8EE800AF0EECD
:10334000608AB0EE680A08EE480A10EE101A0846C5
:1033500002F012F941EC1A0BB0EE4A0AF0EE6A0ADA
:1033600001F0B7FAB0EE409AF0EE609A51EC190B0A
:1033700001F00AFB00EE100ABDEC068B70BD70B5C3
:103380002DED0A8B0446964D9FED940AB0EE408ACF
:10339000944801780078401C924A107045F821400A
:1033A00010460078032190FBF1F201FB12008D49D9
:1033B000087040F6543084421ADA40F252308442A7
:1033C00016DD03212846FFF785FFB0EE408A9FED0A
:1033D000860AB4EEC08AF1EE10FA04DD8348006874
:1033E0008349086008E0824804608048046003E084
:1033F0007E4800687E4908607D48006801F05FFDF6
:1034000041EC1C0B9FED7B0B53EC102B01F0BEFD30
:1034100041EC1A0B7948006801F051FD41EC1C0B9E
:103420009FED740B53EC102B01F0B0FD41EC1B0B26
:1034300053EC1A2B01F0DAFA41EC190B01F012FDF2
:1034400080B26F490860084600686C4908606C48A3
:103450000068BDEC0A8B70BD30B587B004460D46E0
:1034600001210420FDF797FF01210220FDF74AFF0B
:103470004FF48070059002208DF8180003208DF81D
:10348000190000208DF81A0001208DF81B0005A9F5
:103490005C48FDF799FC4FF480715A48FDF710FD28
:1034A000022208215748FDF71AFDADF80850002008
:1034B000ADF80A000394ADF8100002A95248FEF7D7
:1034C00022F909215048FEF7E7FD08204F490880FE
:1034D00002204880012088800020C88008814A4856
:1034E000FEF7E8FC012209214748FEF7ADFD012166
:1034F0004548FEF791F91E208DF8040002208DF852
:10350000050000208DF8060001208DF8070001A8B5
:10351000FDF769FB07B030BD10B53D48007800F0FD
:103520008000002854D101213748FEF7A4FDD0B116
:103530003748007800F04000A8B13548007800F026
:103540003F003F280AD13248007840F080003049DF
:1035500008704FF0FF302F49086004E02C480078D5
:10356000401C2B49087008212748FEF784FD78B3DA
:103570002748007800F0400078B12548007840F0F6
:103580008000234908702048FEF718FD2149086093
:1035900002211D48FEF787FB1AE000201C49087035
:1035A0001C4908601A48007840F04000184908702B
:1035B00000211548FEF730F900211348FEF7ECF81A
:1035C00002211148FEF76FFB01210F48FEF724F995
:1035D00009210D48FEF760FD10BD0000000000004D
:1035E000C80300207000002000007A43640000201F
:1035F00060000020000000000000E03F58000020B4
:10360000540000200004024000080040D4030020C1
:10361000680000206C00002010B504462DA000F0CA
:1036200075F89FED310A84ED000A9FED2F0A84EDB5
:10363000010A9FED2D0A84ED020A9FED2B0A84ED0D
:10364000040A9FED290A84ED030A9FED280A84ED00
:10365000050A9FED270A84ED060A9FED260A84EDF0
:10366000070A25A000F052F810BDB0EE401A80ED18
:10367000001AD0ED001A71EEE01AC0ED021AD0ED7A
:10368000021A90ED032A71EEC21A90ED052A61EE3E
:10369000821A90ED062AD0ED022A42EE221A90ED0F
:1036A000022AD0ED032AB0EE003A03EE622AD0EDF2
:1036B000042A32EE222AD0ED072A42EE821AB0EE18
:1036C000610AD0ED031AC0ED041AD0ED021AC0ED64
:1036D000031A70475049445F696E697420626567D8
:1036E000696E200D0A000000000000005C8FC23DE2
:1036F0000AD7233C5E63973A5049445F696E697408
:1037000020656E64200D0A00704700000FB4044964
:1037100010B503AA029800F06FFB10BC5DF814FB13
:103720003C0000202DE9F041064600241068752970
:10373000314616A510D0AFF30080002802DA4042CF
:1037400013A507E031688A0701D512A502E04907F1
:1037500004D511A5012401E0AFF3008000210A2265
:1037600006F1240709E0B0FBF2FCB0FBF2F302FB28
:103770001C00303078541846491C0028F3D12346E9
:103780002A463046BDE8F04100F0D0B80000000005
:103790002D0000002B000000200000002DE9F04764
:1037A0004FF0000A89460446C0F820A02046E16890
:1037B0008847002876D0252806D0D4E901219047F3
:1037C000206A401C2062F1E7E16820460025884716
:1037D000C4F81CA006460027C4F818A02A2E09D059
:1037E000304601F0B3F838B304EB8708303EC8F830
:1037F000186019E059F8041B204604EB8702916118
:10380000E1688847012F064618D1E069002820DAD0
:1038100025F020051DE0D8F8180000EB800006EB2D
:1038200040003038C8F818002046E168884706464E
:1038300001F08CF80028EED1012F0AD02E2E08D1ED
:103840002046E16888477F1C0646022F45F0200588
:10385000C4DBA069002803DA404245F00105A061FD
:10386000E80701D025F01005B6B1A6F141001928EE
:1038700002D8203645F400654A4631462046256088
:103880004D46FCF7BBFC58B1012806D0ED1D25F0D4
:10389000070000F1080989E704E005F1040985E75C
:1038A00030468AE7206ABDE8F08710B5203AC0F0BC
:1038B0000B80B1E81850203AA0E81850B1E8185031
:1038C000A0E81850BFF4F5AF5FEA027C24BFB1E86E
:1038D0001850A0E8185044BF18C918C0BDE81040DF
:1038E0005FEA827C24BF51F8043B40F8043B08BFE8
:1038F0007047D20728BF31F8023B48BF11F8012BAF
:1039000028BF20F8023B48BF00F8012B70477047E2
:1039100070477047704710B500F084FA006810BD1A
:1039200010B5044600F07EFA046010BD2DE9F047A2
:103930000D4699469246044600F12408016888061F
:1039400004D5E06921F01001216000E00120A842C7
:1039500001DD471B00E00027A1697A1902EB09008D
:10396000081AA0612078C00602D42046AFF3008078
:10397000002608E0D4E901211AF806009047206AE1
:10398000401C761C20624E45F4DB2078C0060AD528
:103990002046AFF3008006E0D4E9012130209047B3
:1039A000206A401C2062381EA7F10107F4DC07E002
:1039B000D4E9012118F805009047206A401C2062D4
:1039C000281EA5F10105F3DC2046AFF30080207826
:1039D000000602D50220BDE8F0870120FBE7704712
:1039E0002DE9FF4F0C461E464FF0FF378BB0D2E952
:1039F0000001DDF860800A908A46C1F30A5505B9D6
:103A00003D46002108464FF00000BAF1000F00F4D7
:103A1000400005DA00EB80004FF4400101EA50005D
:103A20004FEA9059B9F1010F00DDB9460A9850EA02
:103A30004A000ED044F61050A5F2FF3545432F142E
:103A4000B8F1000F1ED07542291E1EDDC9F100021B
:103A50001CE0B8F1010F4FF0000001D0302103E06D
:103A6000F24305E02154401CB042FBDB304600220B
:103A7000002121540B99C1F80880C1E900200FB042
:103A8000BDE8F08FBD1B6D1CDEE74A4600DA6942D7
:103A900006A800F069FA06AB93E8070003AB83E8D9
:103AA000070050460A9900F041FB8DE80700A0F599
:103AB00000501F3800900398002D09DD42F21F01CD
:103AC0004A46084403A90390684600F0A0FD08E0B8
:103AD000A0F500504A461F3803A90390684600F03D
:103AE000AAFD8DE807000004000C03D04FF0FF3062
:103AF000410800E01046B8F1000F03D00022009208
:103B000015461EE0751E05D400F090F9303262555E
:103B10006D1EF9D5B3460122084302D000227F1C56
:103B200004E02078302801D100227F1E002A099766
:103B300086D01DE0112D07DA00F078F93032625599
:103B40006D1C50EA0102F5D1084302D00098C8B1BB
:103B50000EE00021681E05E0235C625C6354225481
:103B6000401E491C8142F7DBAB46A81B401E099052
:103B7000002004F80B000B98099AC0F80880C0E9EF
:103B8000002B7CE711264FF0000859E72DE9F04F94
:103B900088460446D21D22F0070191B0D1E9000108
:103BA000CDE90A0100F07DFE02460B98C00F01D05E
:103BB0002D2007E02068810701D52B2002E020217D
:103BC00001EAC000032A099001D0072A05DB034659
:103BD0004146204600F088F90BE12078800601D5A7
:103BE000E06900E00620B8F1650F814606D0B8F123
:103BF000660F18D0B8F1670F70D131E00020B9F12D
:103C0000110F009001DB112301E009F101030AAA61
:103C100001A90CA8FFF7E4FEDDE90C70002609F10C
:103C20000105834647E001204B4600904FF00047D6
:103C30000AAA01A90CA8FFF7D3FEDDE90DB00C9983
:103C40005D46002610B909F101000D18B9EB050019
:103C500003D4C0F1FF3609F10105A5EB09002BE003
:103C6000B9F1010F01DA4FF001090020B9F1110F8C
:103C70000090484601DD112300E003460AAA01A98D
:103C80000CA8FFF7ADFEDDE90C704D46002683461B
:103C9000207800070AD4AB4500DA5D4601A8012D63
:103CA00004DD411911F8011C302907D04F4502DA13
:103CB00017F1040F04DA012082460FE06D1EEEE7D3
:103CC000002F02DCED1B3E4403E0781CA84200DD1F
:103CD0007D1CB81B00F1010A4FF000472078000757
:103CE00003D4AA4501DB4FF0FF3A0021B7F1004FA2
:103CF0000DF143088DF8431024D002202B23002F10
:103D000001DA7F422D230A21021EA0F1010000DC0E
:103D10005FB197FBF1FC97FBF1F201FB1C7C1746AE
:103D20000CF1300C08F801CDEEE7A8F101000370AA
:103D30002188090501D5452100E06521A0F1010890
:103D400000F8011C09980FA9A1EB0807FF1D00B19D
:103D50000120411901EBEA70A1693844081A401E9C
:103D6000A0612078C00602D42046AFF300800998F5
:103D700028B1D4E901219047206A401C20622078B4
:103D8000C00622D52046AFF300801EE0002E04DBE3
:103D9000B34502DD01A8805D00E03020D4E90121B7
:103DA0009047206A401C2062761CAAF101005FEA5D
:103DB000000A0AD100F032F8C0680168405CD4E91A
:103DC00001219047206A401C2062281EA5F10105B0
:103DD000DCDC07E0D4E9012118F8010B9047206AE8
:103DE000401C2062381EA7F10107F3DC2046AFF328
:103DF0000080032011B043E6074B70B50D467B44AD
:103E000000F05FF80446284600F01CF910B14FF0AE
:103E1000FF3070BD204670BD07F0FFFF00487047BF
:103E20000004002000487047E003002030B5B0F1E6
:103E30000A024FEA900E71F100034EEA817EB0EB68
:103E40000E0061EB91014FEA101E4EEA017E10EB6D
:103E50000E0041EB11114FEA102E4EEA016E10EBED
:103E60000E0041EB11214FEA104E4EEA014E10EBCD
:103E70000E0041EB1141401841F100014FEAD00022
:103E800040EA41704FEAD10110EB80054FEA81040E
:103E900044EA907444EB01046D1944EB0404521B92
:103EA000A3414FF0000348BF0A3200D530BD401C8B
:103EB00041F1000130BD000001694A1C026108782F
:103EC000704700B58FB0CDE901310021059105495A
:103ED0007944CDE9031011466846FFF75FFC0FB047
:103EE00000BD0000E5FFFFFF2DE9F0411F4604463D
:103EF00003260168072A01F4006004DB08B116A557
:103F000005E016A503E008B115A500E015A521F010
:103F100010002060A069C01EA0610FB1401EA0610A
:103F20002046AFF300804FB1D4E9012138469047D5
:103F3000206A401C2062C01C206206E0206AFAE76A
:103F4000D4E9012115F8010B9047761EF8D22046DE
:103F5000AFF30080BDE8F0814E414E006E616E000F
:103F6000494E4600696E66002DE9F04781461646C7
:103F70008AB0334878440DC88DE80D003048784445
:103F8000801C03AC0DC884E80D0041F69B3008444A
:103F9000372190FBF1F290FBF1F5A5F1800501FBD3
:103FA00012041B3C02D56442012000E00020DFF82F
:103FB00090A080460027FA44AAF1BE0A0DE0E0076F
:103FC00009D03246684607EB47010AEB810100F051
:103FD00032FB8DE8070064107F1C002CEFD1184FD6
:103FE0007F44AC3F18E0E80714D007EB04100DF154
:103FF000180A90E80E008AE80E00C068F04201D16D
:1040000098190890324606A903A800F014FB03ABE8
:1040100083E807006D10641C002DE4D13246694628
:10402000B8F1000F03A802D000F0F1FA01E000F0AF
:1040300002FBC9E90001C9F808200AB0BDE8F08711
:10404000CC170000007B00F08000704700487047EC
:10405000E00300207546FFF7F9FFAE46050069460C
:10406000534620F00700854618B020B5FCF7A4FDA4
:10407000BDE820404FF000064FF000074FF0000869
:104080004FF0000B21F00701AC46ACE8C009ACE8EA
:10409000C009ACE8C009ACE8C0098D4670470446C9
:1040A000AFF300802046FCF7C8F800004FF0013C59
:1040B00050F8042B51F8043B9A4221D1A2EB0C0397
:1040C000934313EACC1317D150F8042B51F8043B57
:1040D0009A4215D1A2EB0C03934313EACC130BD1F4
:1040E00050F8042B51F8043B9A4209D1A2EB0C037F
:1040F000934313EACC13DBD04FF00000704700BFAE
:10410000D01A01BAB1FA81F101F0180122FA01F0D6
:10411000CB40C1F12001DBB2C0B2C01A2CFA01F3CE
:10412000D11A914311EAC311E6D170475FEA400CFE
:1041300008BF91F0000F4FEA8C234FEAC12243EAF7
:1041400051514FEA1C5018BF00F5F0404FEA3000C3
:1041500018BF41F000415FEA6C5C00F02980BCF1BF
:10416000FF3F08BF40F080407047130C06BF1204A9
:104170004FF0100C4FF0000C130E04BF12020CF1A4
:10418000080C130F04BF12010CF1040C930F04BFB1
:1041900092000CF1020CD30F04BF52000CF1010C81
:1041A00011464FF00002A0F11F00A0EB0C00704779
:1041B00011F0004F08BF704731F000413FF4D5AF18
:1041C0000B0C06BF09044FF0100C4FF0000C0B0E47
:1041D00004BF09020CF1080C0B0F04BF09010CF11C
:1041E000040C8B0F04BF89000CF1020CCB0F04BF31
:1041F00049000CF1010CCCF12003A0EB0C0022FAD9
:1042000003F302FA0CF241EA030100F101007047E6
:1042100020F07F4C80EA030023F07F47ACEB0703DC
:1042200003F57C5300F0004003F1FF032DE98049C2
:104230004FEA154B09B44FEA144325EA0B4E24EA22
:1042400003480FF2042606EB132749083E785FEA7D
:10425000320203FB0667C7F5000707FB06F64FEAC5
:1042600054374FEAD64606F1020607FB066CCCF13E
:10427000005C4FEA1C472CEA074C07FB06F40CFBDA
:1042800006F504EB15464FEA961634BF00204FF0B2
:1042900000404FEAD13706FB07FC4FEA1C4C0CFBF1
:1042A0000BF7D21B03FB0CF761EB07010CFB0EF7BE
:1042B000B0EB074072EB17420CFB08F734BFA2EBE0
:1042C0000742B2EB074261EB17414FEA0C444FEA59
:1042D000910706FB07FC4FEA1C4C0CFB0BF7B0EBFD
:1042E000C74072EB573203FB0CF734BFA2EBC74257
:1042F000B2EBC74261EB57310CFB0EF7B0EBC700D6
:1043000072EB57720CFB08F734BFA2EBC702B2EB9B
:10431000C70261EB5771039F4FEA816141EA921135
:1043200004EBCC044FEAD1374FEA826206FB07FC6C
:1043300042EA90124FEA80604FEA1C4C0CFB0BF7EC
:10434000D21B03FB0CF761EB07010CFB0EF7B0EB84
:10435000074072EB17420CFB08F734BFA2EB074291
:10436000B2EB074261EB17414FEA8C554FEA9107D8
:1043700004EB9C2406FB07FC4FEA1C4C0CFB0BF7E0
:10438000B0EBC74072EB573203FB0CF734BFA2EB24
:10439000C742B2EBC74261EB57310CFB0EF7B0EBF3
:1043A000C70072EB57720CFB08F734BFA2EBC702D1
:1043B000B2EBC70261EB577115EB4C254FEA8161F7
:1043C00041EA92114FEA82624FEAD13742EA9012F3
:1043D00006FB07FC44F100044FEA80604FEA1C4CE6
:1043E0000CFB0BF7D21B03FB0CF761EB07010CFB7B
:1043F0000EF7B0EB074072EB17420CFB08F734BF27
:10440000A2EB0742B2EB074261EB174115EB1C151B
:104410004FEA813141EA92414FEA823242EA9042C8
:104420004FEA80304FEA0C7644F1000448EA034337
:104430004EEA0B484FF0000EB2EB080C71EB03078D
:1044400024BF624639464EEB0E0E4FF0000B0018AB
:10445000524149414BEB0B0BB2EB080C71EB0307DC
:104460007BF1000B24BF624639464EEB0E0E4FF037
:10447000000B0018524149414BEB0B0BB2EB080CFF
:1044800071EB03077BF1000B24BF624639464EEB0C
:104490000E0E51EA020718BF46F0010616EB0E7623
:1044A00055F1000254F1000103D5BDE88901BDE8D2
:1044B0000088BDE88901BDE80048B619524141EBCA
:1044C0000101A3F10103704780807F7E7D7C7B7AB0
:1044D0007978777676757473727171706F6E6E6DB0
:1044E0006C6C6B6A6A696868676666656464636356
:1044F00062616160605F5F5E5E5D5D5C5C5B5B5ADC
:104500005A59595858575756565555555454535348
:1045100052525251515050504F4F4F4E4E4D4D4DA3
:104520004C4C4C4B4B4B4A4A4A49494948484847EE
:10453000474747464646454545444444444343432C
:104540004342424242414141002B26D4770021D0D0
:104550001CB54FEA370703B44FF010004FF01001BD
:104560004FF000000FBCBDE810400BF1010BBBF198
:10457000010F08BF5FEA170722BF12F1010211F114
:1045800001014FF0004143F1000300F0004043EA15
:1045900000007047F9D35708DAE746EA064613F1F8
:1045A000400F4FEA16461FDD13F1200FDFBF164301
:1045B0000A46002120335B42C8D0C3F1200746EAF7
:1045C000064602FA07F74FEA164646EA0706C3F11F
:1045D000200722FA03F201FA07F721FA03F14FF05C
:1045E000000342EA0702B1E746EA020646EA064647
:1045F0004FEA164646EA0106BCBF46EA0646360CB6
:104600004FF000034FF000024FF000019EE72DE94C
:10461000C048934630B491E8380007C831EA400CEE
:1046200048BF34EA430C03D5FFF7F2FDFFF78CFFD8
:10463000F0BCBDE800882DE9C048934630B491E84D
:10464000380007C810F0804F08BF13F0804F03D127
:1046500000F005F8FFF778FFF0BCBDE8008820F017
:104660007F4780EA030023F07F4C07EB0C03A3F5A0
:104670007C5300F00040A3F1FE0392F0000F00F025
:10468000B38095F0000F00F077802DE901494FEAE3
:1046900011404FEA144621EA004800FB06FC24EAD8
:1046A000064708FB06F607FB08F800FB07F718EBC0
:1046B00006484CEB164C4FEA124B18EB07484FEAF2
:1046C00015464CEB174022EA0B4E0BFB06FC25EA85
:1046D00006470EFB06F607FB0EFE0BFB07F71EEB6D
:1046E000064E4CEB164C4FF000061EEB074E4CEB03
:1046F000174B18EB0B0840F1000018EB0E0B58EBB2
:10470000000840F100008F1A4FF000013CBFC94380
:10471000661B14BFB5EB040C00213CBFC943F61B5C
:104720004FEA17444EEA8E0E27EA04454FEA1C472B
:1047300004FB07622CEA074C05FB07F70CFB05F6A8
:1047400004FB0CFC16EB074642EB174216EB0C463B
:1047500042EB1C421BEB060658EB0202414146EAC3
:104760009E0601D5BDE80189B619524141EB010110
:10477000A3F10103BDE801894FEA14454FEA11474F
:1047800024EA054621EA074C05FB07F406FB07F778
:104790000CFB06F105FB0CFC11EB074144EB174445
:1047A0004FEA124711EB0C4144EB1C4422EA074C40
:1047B00005FB07F206FB07F70CFB06F605FB0CFCF6
:1047C00016EB074642EB174216EB0C4642EB1C4534
:1047D0006A1854F1000148BF7047B619524141EBC5
:1047E0000101A3F10103704795F0000F37D04FEAA4
:1047F00011424FEA144721EA024624EA074C02FB21
:1048000007F106FB07F70CFB06F402FB0CFC14EBAC
:10481000074441EB17414FEA154714EB0C4441EBB9
:104820001C4125EA074C02FB07F506FB07F70CFBCA
:1048300006F602FB0CFC16EB074645EB174516EB9C
:104840000C4645EB1C42121951F1000148BF70475C
:10485000B619524141EB0101A3F1010370474FEA40
:1048600014454FEA114724EA054621EA074C05FBA7
:1048700007F106FB07F70CFB06F24FF0000605FBFD
:104880000CFC12EB074241EB174112EB0C4251EBCF
:104890001C4148BF7047921841EB0101A3F101038D
:1048A000704703B401984100009850EAC12018BF36
:1048B00004204A0D18BF40F0010040F2FF72B2EB35
:1048C000515F08BF40F00200012808BF052002B078
:1048D000704700B52DED048BB0EE409AF0EE609A73
:1048E00083B051EC190B00F091FC41EC180B18EE61
:1048F000100A18EE901A8DED008B002818BF0120C9
:10490000084320F00040C0F17F6000F1E040C00F9C
:1049100014D019EE101A19EE900A8DED009B0029A3
:1049200018BF0121084320F00040C0F17F6000F172
:10493000E040C00F04BF0120FEF7F2FFB0EE480ACE
:1049400003B0F0EE680ABDEC048B00BD30380A28D5
:1049500001D20120704700207047000010B50029E7
:104960000AD00878002807D005487844FFF79EFB56
:10497000002801D0002010BD0248784410BD00007E
:10498000FA0E0000F20E000021F00042A2F1605287
:10499000B2F5801F01F0004328BFD2F17F6C0BD924
:1049A0005FEA001C43EAC20242EB507018BF704736
:1049B00028BF20F001007047B2F5801FBCBF184629
:1049C00070474FEA410C1CF5001F02D2084600F068
:1049D00049BE70B500F084FB00000089FFF7F6BF08
:1049E0004FF00040A0F580007047000010B591EA3C
:1049F000030F48BF83F0004300F1DC84841A71EB9D
:104A0000030C05D2121943EB0C03001B61EB0C01E4
:104A1000DFF824E14FEA1154A4EB135C1EEA430FC4
:104A200018BF9EEA445F73D023EA0E03DCF1200E28
:104A300021EA045143F4801332D322FA0CFE10EB26
:104A40000E0023FA0CFE41EB0E01CCF1200E03FA0E
:104A50000EFE10EB0E0051F10001B1F5801FCCF1FC
:104A6000200E32D201EB045112FA0EF2BDE81040D2
:104A700058BF7047401C38BF5FEA420218BF7047FA
:104A8000002814BF20F0010041F100014FEA41036A
:104A900013F5001F38BF7047A1F1C04100F06EBB95
:104AA000012A43EB0302ACF1200CDCF11F0E32BFF4
:104AB0004FF0000E23FA0CF310EB030041EB04510E
:104AC000B4EB115FD0D0A1EB045101F5801149087E
:104AD0005FEA300001EB04510ED350F1000038BF03
:104AE00012FA0EFE08D1BDE81040C9E7401C38BFDD
:104AF0005FEA4202CAD1C3E7BDE810404FEA410372
:104B000013F5001F38BF7047A1F1C04100F036BB5C
:104B10009EEA445F08D011EA5E0FBDE8104004BF72
:104B200001F0004100207047BDE8104070B500F072
:104B3000D7FA00BF64FBBE3E0000E0FF491058BF3B
:104B4000C1F140415B1058BFC3F140438B42EFF3CA
:104B5000008070472DE9C04130B4DFF8A0C23CEAC4
:104B6000111418BF3CEA131400F0EC8081EA03052D
:104B70001CEA111444EAD57418BF1CEA131500F09E
:104B8000C780A4EB05044FF0004545EAC12145EA82
:104B9000C32341EA505143EA525304F17F749942CE
:104BA00004F500344FEAC0204FEAC22208BF904209
:104BB00000F09C804FEA13650FF24016765D4FEAD5
:104BC000134506FB05F7C7F1807706FB07F74FEAA9
:104BD000D737A7FB03687642C8F58038A7FB06CE17
:104BE00038BFA8F1010807FB08E64FF0000EA6FB4E
:104BF000028CE6FB03CEDCF1000CCEF1004E38BF98
:104C0000AEF1010EA6FB0C584FF000074FF0000567
:104C1000E6FB0E87A1FB08C6A0FB07CE16EB0E062F
:104C200045F10005E1FB076515F1E04E7EBFA4F5F7
:104C300080345FEA46066D4116F1800745F10005B4
:104C40004FEA17274FEA066647EA0567A6F1DE46F0
:104C5000B6F1805F4FEA15251FD9384624F0010CC4
:104C600005EBC471BCF1FE6F01EB0C1102D8F0BC76
:104C7000BDE8008124425CBF01F5801E9EEAC47F2E
:104C800002D4F0BCBDE80081244238D4F0BCA1F1CC
:104C9000C041BDE8004100F071BA4FEAD22242EAB9
:104CA00043524FEAD323A7FB02864FEAD02040EAC3
:104CB000415007FB03661EEA0E0F4FEAD12105FBA8
:104CC000026658BFA6EB0056B6EB00564FEA520EEE
:104CD0004EEAC37E18EB0E0E56EB530EBDD518EB05
:104CE00002085E417F1C55F10005B6E74FF48015C0
:104CF0004FF000074FF000064FF00008ADE7F0BCA2
:104D00004FF0000001F1C04101F00041BDE8008119
:104D100011EA0C1F0CEA131500D00CE013EA0C1F6B
:104D200000F025804FF00000F0BC81EA030101F0A3
:104D30000041BDE80081F0BCBDE8004181EA03010B
:104D400000F01CBAF0BCBDE8004170B500F0C8F935
:104D5000097EFC3E00F007B881EA03014FF0000035
:104D600001F00041704781EA030100F007BAF0BC8E
:104D7000BDE800414FF0000021497047FFFDFBF9FD
:104D8000F7F5F4F2F0EEEDEBE9E8E6E4E3E1E0DE7E
:104D9000DDDBDAD8D7D5D4D3D1D0CFCDCCCBCAC8F0
:104DA000C7C6C5C4C2C1C0BFBEBDBCBBBAB9B8B717
:104DB000B6B5B4B3B2B1B0AFAEADACABAAA9A8A80A
:104DC000A7A6A5A4A3A3A2A1A09F9F9E9D9C9C9BD8
:104DD0009A99999897979695959493939291919083
:104DE0008F8F8E8E8D8C8C8B8B8A89898888878714
:104DF0008685858484838382828181800000FF0789
:104E00000000F87F4FEA41034FEA5353A3F5806354
:104E1000D3F11E03C8BFD3F1210C0CDD4FF00042CB
:104E200042EAC12242EA505232FA03FC8CEAE17CA7
:104E3000ACEBE1707047102BC4BF0020704703F546
:104E4000787CBCF1FF3F04D06FF0004282EA210081
:104E5000704770B500F044F94992248000207047F3
:104E6000F2E700004FEA1153A3F58063D3F11E036C
:104E7000A8BFD3F1200C08DB4FF0004242EAC12268
:104E800052EA505232FA03F0704709420BD4102B09
:104E9000C4BF0020704703F5787CBCF1FF3F05D00C
:104EA0004FF0FF3070474FF00000704770B500F0D2
:104EB00017F900BF4992248000207047F0E710F0F6
:104EC000004248BF4042B0FA80F310FA03F10AD022
:104ED000C3F11D0303F580634FEA415002EB035217
:104EE00002EBD12170474FF000007047B0FA80F319
:104EF00010FA03F10AD0C3F11D0303F580634FEAF2
:104F000041504FEA035202EBD12170474FF00000AD
:104F10007047000051EA030C17D41CF5801F58BFDE
:104F2000BCF5801F00F10680994218BF704708BF8A
:104F30009042704707D711F5801F58BF13F5801FA7
:104F400019D499427047894270471CF5801F08D5D3
:104F5000BCF5801FF7D58B4218BF704708BF82424F
:104F600070474FF4001C1CEB410F38BF1CEB430F84
:104F700001D28B42704770B500F0B2F8922449001C
:104F80004FF000514FF08053FFF7D8BDDFF848C114
:104F900070B51CEA111E1EBF1CEA13159EEA0C0F09
:104FA00095EA0C0F00F06F8081EA030423EA4C13AA
:104FB0004EEAD47E21EA4C1141F4801143F480136F
:104FC000AE44A1FB024CA0FB0365AEF17F7E361917
:104FD00055EB0C05A1FB034C4CF10003A0FB021C9C
:104FE00016EB0C06654153F10003094218BF46F069
:104FF000010613F4007F0BD14FEA03314FEA05306D
:10500000340341EA155140EA16506FF003020AE0FA
:105010004FEAC3214FEAC520F40241EA555140EA64
:1050200056506FF0020202EB2E4201EB025585EA68
:10503000CE710AD05FEA440C18BF24F0004450F14E
:10504000000041F1000120EAD47040F2FE7C62458C
:1050500000D270BDA84214BF4FF080444FF04044CE
:10506000002E08BF0024BEF1806FA8BFA1F1C0418F
:10507000BDE8704080F282804FF0000001F1C04135
:1050800001F0004170479EEA0C0F0CEA131518BF9F
:1050900095EA0C0F06D04FF0000081EA030E0EF0E7
:1050A000004170BD00F01CF88900013E00F007B817
:1050B00000F009B84FEA430C5FEA5C5C08D081EA73
:1050C000030100F05BB84FEA410C5FEA5C5CF6D18B
:1050D0004FF00000014970470000FF070000F87F13
:1050E0000EF1020E2EF0030E5EF8046B364205D46C
:1050F000012A43EB030515F5001F12D8012841EBE7
:10510000010C1CF5001F0CD80ED14FEAD17C15F50F
:10511000001F0CEB4C0C0CF1020C08BF4CEBD37CC9
:1051200004E04FF0080C01E04FEAD37C0CEB4C0597
:1051300026FA05F606F00706B6F1040C06D20EEBC9
:10514000860CBDE870404CF0010C6047DFE80CF0C5
:10515000090B02024FF000414FF00000A1F50021C1
:1051600070BD19461046012851EB010418BFD4F553
:10517000001484BF002001F0004170BD0808A0F5B4
:1051800000114FEA3101704753EA010C17D41CF5A6
:10519000801F58BFBCF5801F00F106808B4218BFEE
:1051A000704708BF8242704707D713F5801F58BF6A
:1051B00011F5801F19D48B4270479B4270471CF534
:1051C000801F08D5BCF5801FF7D5994218BF7047DE
:1051D00008BF904270474FF4001C1CEB430F38BFD0
:1051E0001CEB410F01D2994270470FB40CBC03BCB9
:1051F000FFF7C1BE91EA030F10B581F000413FF502
:10520000FDAB83F0004300F0D5B800002DE9F0417C
:1052100001F5801CBCF5001FC0F2A9804FEA115CAB
:1052200021EA0C510CF1FD0C41F480115FEA5C0C99
:105230000CF5C07C01D34000494130A4890241EA09
:10524000905187028E0E0A0CA45D04FB04F602FB4B
:1052500006F6C6F14046A4FB0662F60D46EA422673
:1052600006FB06F4A4FB01235242C3F1404338BFBE
:105270005B1EA6FB02420024E6FB0324D20B42EA9B
:105280004446A6FB0623A1FB02E2A3FB07E4E3FBE3
:1052900061426442C2F1404E38BFAEF1010EA6FB3E
:1052A00004234FF00002E6FB0E32A2FB034634005B
:1052B000E2FB6264A1FB06E6A4FB07E8E4FB61688D
:1052C0007642C8F1405838BFA8F10108A2FB06E4B5
:1052D000A3FB08E5E2FB6854A1FB05E6A7FB04E895
:1052E000E1FB648618F1200556F10006A809A8F133
:1052F0001B08B10908F03F08B8F10A0F40EA8660C0
:105300001CD901EB0C51BDE8F08100BFFCF5EEE8C3
:10531000E2DDD8D3CFCBC7C3C0BDB9B6B4B1AEAC54
:10532000A9A7A5A3A19F9D9B9A9896959392908FCC
:105330008D8C8B898887868584838281A0FB006819
:1053400000FB01F208EB4208B8EB872807D53418B8
:1053500058EB0104D5D5401C51F10001D1E7341AB6
:1053600078EB0104CDD4401E71F10001C9E75FEA7A
:105370004C0C5FEA9C5C0DD105D34FF0000001F0AE
:105380000041BDE8F081BDE8F04170B5FFF7A8FE2F
:105390006DDBFFBEBDE8F0414FF0000000497047F3
:1053A0000000F87F10B591EA030F48BF83F0004377
:1053B0003FF524AB841A71EB030C07D212198CF061
:1053C000004C43EB0C03001B61EB0C01DFF8A4E184
:1053D0004FEA1154A4EB135C1EEA430F18BF9EEA78
:1053E000445F00F0B08023EA6E03524221EA045188
:1053F000C3EB6E0338BF5B1EDCF1200E25D322FA0F
:105400000CFE10EB0E0043FA0CFE41EB0E01CCF14A
:10541000200E03FA0EFE10EB0E0051F10001CCF14C
:10542000200E29D412FA0EF201EB0451BDE810400F
:1054300058BF7047401C1CBFB2F1004F7047002896
:105440000CBF491C20F00100704712EB020E43EB29
:10545000030218BF4FF0010E4EEA4202ACF1200CDD
:10546000DCF11E0E54D943FA0CFE10EB0E0051F184
:10547000FF31CCF11E0ED5D50EF1010E12FA0EFE43
:10548000404141EB010101EB445C5FEA5C5C10D9F7
:1054900010EBDE7001EB045138BFBEF1004FBDE8E8
:1054A000104018BF704700280CBF491C20F00100B5
:1054B000704730D24FEAD42C11F5001124F4006467
:1054C0001BD0B1FA81F20B3AA41AA41ED2F1200328
:1054D000914030FA03F31943904001EBCC71002C5A
:1054E00001EB0451BDE81040A8BF704701F1C04175
:1054F0004FF0000001F000417047B0FA80F310FA5D
:1055000003F100D110BDE41A173C4805C90AE4E7CD
:1055100001EB045110BD491001EB0451BDE81040EE
:105520004FEA300002E04FF0000170474A0008BF28
:105530000042F8D0B2F5001F28BF704701F00041CB
:105540004FF0000070479EEA445F07D011EA5E0FFB
:10555000BDE8104004BF002100207047BDE81040A6
:1055600070B5FFF7BDFD00BF40DFF63E83F00041A0
:10557000104670470000E0FF43004FEAD30C4FEAAB
:105580003C0C43401FBF40070CF1605113F0FE4F2D
:1055900070471CF0006F03D100200CF000417047F1
:1055A0000CF0004343EA507010B540EACC0000F024
:1055B0000EF800BF000000924FEA0001FFF7DEBDC9
:1055C0004FF000414FF00000A1F5002170470EF1AF
:1055D000020E2EF0030E5EF8044B244204D44FEA70
:1055E0004102B2F17F4F11D84FEA4003B3F17F4F30
:1055F0000CD80ED14FEAD07CB2F17F4F0CEB4C0CA3
:105600000CF1020C08BF4CEBD17C04E04FF0080C0D
:1056100001E04FEAD17C0CEB4C0324FA03F404F0D4
:105620000704B4F1040C06D20EEB840CBDE8104064
:105630004CF0010C6047DFE80CF0070802024FF065
:105640000040A0F5800010BD0846420018BFD2F10E
:10565000807288BF00F0004010BD4FF04070E1EE56
:10566000100A7047FF2141EAD050C0057047FEF78D
:105670008DBA0000000000000000000000000000E3
:105680000000000000E09040000000000068904032
:10569000000000000088B34000000000000000008F
:1056A00000000000000000000000000000000000FA
:1056B00000000000000000000000000000000000EA
:1056C000000000000000000002400000000000A0F8
:1056D0000000000005400000000000C800000000BD
:1056E0000C4000000000409C000000001940000039
:1056F0000020BCBE0000000034400000BFC91B8E6B
:1057000000000004B5400000504BCFD06607E2CF48
:10571000010000006C4100003E8251AADFEEA73478
:1057200001000000D9420000DCB5A0E23A301F972A
:10573000FFFFFFFFB4450000FD25A0C8E9A3C14F4E
:10574000FFFFFFFFFF3F000000000080000000009F
:10575000FF3F000000000080000000002D2D2D2DD7
:105760002D53746172747B224B506F77223A2566F9
:105770002C224B547073223A25662C224B416E67C3
:10578000223A25662C22506F77223A25662C224138
:105790006E67223A252E662C22547073223A252EEB
:1057A00033662C2252706D223A25662C2245727285
:1057B0006F72223A25642C224A52706D223A256675
:1057C0002C224B52706D223A25667D454E44442D65
:1057D0002D2D2D2D2D2D2D2D2D0D0A090000000014
:1057E000808FEA0320020725808FEA2210820401BD
:1057F000022CF4022CD2022F2C012DA6012DAC027A
:105800003041012CF6022C8A022C8C022CB3C88069
:105810008FEA2E10820101012E19022E5501286EE9
:1058200002288F022F0C022C4102287D02286502DB
:105830002F2C022CF4022CD0022C4D012DAC023066
:1058400041FF0000805800080000002074000000A4
:10585000C4010008F458000874000020CC090000BE
:10586000E00100081C00000043000000F8FFFFFFFB
:105870000C0000000E0000000F0000002E000000D1
:10588000007A030A00000000000000000102030487
:1058900006070809000000000102030401020304D6
:1058A00006070809000000000000000000000000DA
:1058B00000000000000000000000000000000000E8
:1058C00000000000000000000000000000000000D8
:1058D00000000000520300005203000052030000C9
:1058E0000000000052030000000000000000000063
:0458F00000000000B4
:040000050800018965
:00000001FF
