:020000040800F2
:1000000038170020F1010008432C0008A701000860
:10001000412C0008250B0008F1300008000000000A
:10002000000000000000000000000000892C000813
:10003000F90C0008000000002F010008F52C000852
:100040000B0200080B0200080B0200080B0200085C
:100050000B0200080B0200080B0200080B0200084C
:100060000B0200080B0200080B020008ED0C000850
:100070000B0200080B0200080B0200080B0200082C
:100080000B0200080B0200080B0200080B0200081C
:10009000E53000080B0200080B0200080B02000804
:1000A0000B0200080B0200080B0200080B020008FC
:1000B0000B0200080B0200080B0200080B020008EC
:1000C0000B0200080B0200080B0200080B020008DC
:1000D0000B0200080B0200080B020008D9300008D0
:1000E0000B0200080B0200080B020008DFF80CD01E
:1000F00000F0A0FC00480047590A0008381700200B
:10010000EFF3108072B6704780F310887047324A60
:100110001368012B04D04FF0010313602F4A1060C5
:100120002F4A11602F484FF0805101607047EFF364
:10013000108272B62848016891B14FF00001016049
:100140002648016829B1EFF3098121E9F00F006821
:100150000160234909680968B1E8F00F81F3098853
:1001600082F310884EF0040E70471D4908601B4949
:100170004FF00000086018494FF0010008601A486D
:100180004FF47F01D0F8002041EA020101601548D8
:100190004FF08051016015480068006880F30888BE
:1001A00061B662B670471EF0040F14BFEFF308800B
:1001B000EFF3098020E9F00F40F804ED14BF80F35D
:1001C000088880F3098800B504F04EF85DF804EB68
:1001D0004EF0040E704700000C00002004000020C8
:1001E0000800002004ED00E020ED00E008ED00E054
:1001F0000648804706480047FEE7FEE7FEE7FEE7C1
:10020000FEE7FEE7FEE7FEE7FEE7FEE7F92D000862
:10021000ED000008202A04DB203A21FA02F0002138
:10022000704721FA02F3D040C2F120029140084306
:1002300019467047D2B201E000F8012B491EFBD2EB
:1002400070470022F6E710B513460A4604461946E1
:10025000FFF7F0FF204610BDF0B480EA0102D40F92
:100260004200B2EB410F02D20246084611464A0054
:1002700042D0C30DDDB2C1F3C752AD1A202D35DA1D
:10028000C1F3160141F4000204B15242C5F1200647
:1002900002FA06F12A411044B3EBD05F23D0C4B177
:1002A000012DA0EBC35009DCF0BC4FF0004202EA84
:1002B000C352DBB200F5000000F091BA400000F13B
:1002C000807000EBC350A0F1807040EAD17049000B
:1002D00009E0490841EAC071A0EBC35000F50000F5
:1002E000400800EBC350F0BC00F070BA614201223C
:1002F00002EB4101001BF6E7F0BC704781F00041C2
:10030000AAE780F00040A7E780EA010210B502F0FA
:100310000043400022D04A001FD0010E01EB1261C1
:10032000C0F35600C2F3560240F4000042F400024B
:10033000A0FB022000047F39140400D0401C50EAC6
:10034000124001D44000491EC2B20C0604EBD0108A
:10035000401C4008802A02D003E0002010BD20F09D
:100360000100002900DA0020184310BD30B480EAF3
:10037000010202F0004530F0004221F0004013D0AD
:1003800090B1C30DD40DC2F31601C0F31600E41AE8
:1003900041F4000140F400027D34914201D3641C19
:1003A00000E04900002C02DA30BC002070474FF416
:1003B00000000023914201D3891A034340084FEA09
:1003C0004101F7D151B1914202D14FF0004105E016
:1003D00002D24FF0010101E06FF0010103EBC450C4
:1003E000284430BC00F0F2B92DE9FE4F804681EA86
:1003F0000300C00F0C46009021F0004123F000459F
:10040000B8EB0200A94105D24046214690461C4661
:100410000B46024623F00040104347D0270DC7F398
:100420000A00C3F30A510290401A019040286BDA87
:10043000C3F3130040F4801B0098924620B10023C0
:10044000D2EB030A63EB0B0B01985946C0F1400253
:10045000504600F09AF906460D4650465946019A14
:1004600000F0A2F910EB08006141002487EA115264
:1004700084EAE7731A4340D0009A62B3019A012AD2
:100480004FEA075215DC001B61EB02014FF00042FE
:1004900002EA0752CDE90042001C41F580113246C4
:1004A0002B4600F0D9F903B0BDE8F08F4046214655
:1004B000F9E7001B61EB0201001C41F580130018F5
:1004C0005B412018A2F5001747EB030140EAD57005
:1004D000B6196D4111E06D084FEA360645EAC07560
:1004E0004FEA0752001B61EB0201001C41F580112D
:1004F00049084FEA30000019514132462B4603B0FB
:10050000BDE8F04F00F099B90098012240000023A7
:10051000D0EB020263EBE073009821464FEAE074EF
:10052000B8EB000061EB0401E9E783F000435BE70F
:1005300081F0004158E72DE9FE4F81EA030404F001
:10054000004421F0004100944FF0000B23F00043E1
:1005500050EA01045ED052EA03045BD0C3F30A54AC
:10056000C1F30A552C44A4F2F3340194A0FB0254C5
:10057000C1F3130141F48011C3F3130343F4801357
:1005800001FB024400FB034E840A970A44EA8154AB
:1005900047EA8357A4FB076802958D0A05FB078588
:1005A0004FEA932C04FB0C542705029D4FEA065892
:1005B00047EA1637B5EB08056EEB070C870E920E6F
:1005C00047EA811742EA8312A7FB0201B6EB0B014F
:1005D00064EB00042B0D43EA0C335E1844EB1C5013
:1005E000DA465146E7FB0201C5F313044FEA0B3329
:1005F00043EA14534FEA0432019C43EA0603A4F190
:100600000C040294009CCDE900B400F025F903B07D
:10061000BDE8F08F00200146F9E70EB5C10F80EA72
:10062000E0700844CA07002140F233438DE80E0011
:100630000A460B4600F010F903B000BD00F000427E
:1006400020F00040C10DC0F3160040F400007F29E7
:1006500001DA00207047962903DCC1F19601C840F9
:1006600001E096398840002AF4D04042704700F0FB
:10067000004230F000400AD0C10D01F56071C0F3B6
:10068000160042EA0151C20840071143704700209A
:100690000146704730B5041E71F1000404DB4FF0D1
:1006A0000044404264EB0101141E73F1000405DBB9
:1006B0001C464FF00043524263EB04038B4208BFD9
:1006C000824230BD01F0004330B421F0004150EAD5
:1006D000010206D00A0DA2F56072C1F31301002ACF
:1006E00002DC30BC00207047440F44EAC104C10062
:1006F000E01830BC00EBC25000F068B830B50B46D3
:10070000014600202022012409E021FA02F59D4241
:1007100005D303FA02F5491B04FA02F52844151E15
:10072000A2F10102F1DC30BD2DE9F05F05460020A9
:1007300092469B4688460646814640241BE0284652
:10074000414647462246FFF765FD53465A46C01AC2
:10075000914110D311461846224600F016F82D1A82
:1007600067EB01084F4622460120002100F00DF8FA
:1007700017EB00094E41201EA4F10104DFDC4846BE
:1007800031462A464346BDE8F09F202A04DB203A42
:1007900000FA02F1002070479140C2F1200320FAD4
:1007A00003F3194390407047202A06DBCB17203A09
:1007B00041FA02F043EAE07306E041FA02F3D04066
:1007C000C2F1200291400843194670470029A8BF92
:1007D0007047401C490008BF20F00100704710B46A
:1007E000B0FA80FC00FA0CF050EA010404BF10BC1F
:1007F000704749B1CCF1200421FA04F411FA0CF14C
:1008000018BF012121430843A3EB0C01CB1D4FEA84
:1008100000614FEA102042BF002010BC704700EB7F
:10082000C35010440029A4BF10BC7047401C4900AD
:1008300008BF20F0010010BC704710B5141E73F102
:10084000000408DA401C41F1000192185B411A4390
:1008500001D120F0010010BD2DE9F04D92469B46DC
:1008600011B1B1FA81F202E0B0FA80F22032904682
:10087000FFF78BFF04460F4640EA0A0041EA0B01EE
:1008800053465A46084313D0114653EA010019D083
:10089000C8F140025046FFF7BDFC05460E465046E3
:1008A00059464246FFF771FF084305D0012004E096
:1008B00020463946BDE8F08D0020054346EAE07643
:1008C0002C4337430A986305E40AA0EB0800002292
:1008D000FD0A44EA47540A3002D500200146E9E700
:1008E000010510196941DDE9084500196941BDE8B4
:1008F000F04DA2E72DE9F04D81EA030404F0004B2E
:1009000021F0004514464FF0000A23F0004150EA60
:10091000050220D054EA01021DD0C5F30A57024651
:10092000C5F31303C1F31300C1F30A5640F4801555
:1009300043F48013A7EB0608101BD64608F2FD38D7
:1009400073EB050002D308F1010801E092185B4146
:10095000B8F1000F03DA00200146BDE8F08D002059
:100960004FF48011064684460EE0171B73EB050713
:1009700005D3121B63EB050306434CEA010C49083F
:100980004FEA300092185B4150EA0107EDD152EA7C
:10099000030012D082EA040083EA0501084305D06F
:1009A000101BAB4106D20122002306E000224FF0CB
:1009B000004302E06FF0010253101AEB06004CEB0B
:1009C000085110EB0A0041EB0B01BDE8F04DFFF7B9
:1009D00034BFC1F30A52C1F3130140F2FF3341F4B3
:1009E00080119A4202DA00200146704740F23343F8
:1009F0009A42A2F2334202DC5242FFF70BBCFFF7ED
:100A0000C4BE000030B5041E71F1000404DB4FF0D9
:100A10000044404264EB0101141E73F1000405DB45
:100A20001C464FF00043524263EB0403994208BF57
:100A3000904230BD064C074D06E0E06840F00103EF
:100A400094E8070098471034AC42F6D3FFF752FB06
:100A5000185100083851000810B5FFF751FB04F099
:100A60006FFA002010BD000070B504460068816870
:100A7000C943C9071CD1816821F00101816001F0DF
:100A800063FA05460FE000BF01F05EFA401B022842
:100A900009D9A06A40F01000A062E06A40F00100AD
:100AA000E062012070BD20688068C043C007EBD0C1
:100AB000002070BDF8B500260446009600688168E5
:100AC000C943C90728D0816841F0010181601348FA
:100AD00013490068B0FBF1F000E0401E00900028D0
:100AE000FBD101F031FA054611E000BF01F02CFA0C
:100AF000401B02280BD9A06A40F01000A062E06AF7
:100B000040F00100E06284F824600120F8BD206814
:100B10008068C043C007E9D10020F8BDA4000020D0
:100B200040420F00FEE7000010B5044600221146C7
:100B30000A4800F059FE08B1002010BD0021074A04
:100B400006E000BF01F11403C05C6054491CC9B247
:100B5000506B03698B42F5D8007C10BD5012002009
:100B600010B5002958D0826B4FF4D873046803EB9A
:100B70000113E45814F0040494600468E4584DD060
:100B8000E40854600468E35803F00203D3604FF4B0
:100B9000DA73046803EB0113E45804F00F041461E2
:100BA00011620468E358C3F30723D3614FF4DC7385
:100BB000046803EB0113E45814750468E458240A2C
:100BC00054750468E458240C94750468E3581B0EAB
:100BD000D3754FF4DE73046803EB0113E458147605
:100BE0000468E458240A54760468E458240C947683
:100BF0000468E3581B0ED3760368202289B11A617A
:100C00000268536923F05003536190F83C20222A74
:100C10000DD0322A0BD00FE0426BA5E7640D1460B3
:100C2000B0E7DA600268536923F00A03ECE7026870
:100C3000536923F40F43536112220123002990F8D2
:100C40003C1006D0522915D0622916D0722906D13F
:100C500015E042290ED0622908D0722908D080F808
:100C60003C3000BF00F0ACFE002010BD322107E098
:100C7000522105E080F83C20F4E7222100E04221E7
:100C800080F83C10EEE700001CB5002000904FF407
:100C9000FA7401906846FFF747FF010002D004A0F4
:100CA00002F028FA01F0F2FF204603F0C4FDF1E75C
:100CB000746865206C656E6774682069733A256492
:100CC0000D0A0000084801230E220021C361C0E97B
:100CD0000521016041608160C1600161C0E90832A5
:100CE0000146683000F018BBE8110020014800F010
:100CF0009DBF0000F4120020704700002DE9FC4F5A
:100D0000DFF844910024DFF83CA107464FF0FF08CC
:100D10006D461026A9F1040B385D32285FD01ADC2D
:100D2000082850D006DC3AD2DFE800F03C3E4143D0
:100D30004547494B2E284AD006DC092845D02028B3
:100D40002DD02D282BD17AE02F2842D0302842D028
:100D5000312824D141E0642865D010DC362846D003
:100D600006DC33283DD034283DD0352817D13CE06F
:100D700037283ED0612850D0632810D151E06E282A
:100D800059D006DC652850D0662808D0682806D1DE
:100D90004DE06F284DD072284FD075283FD005F810
:100DA000048027E0C02000E0F920285522E0A4209C
:100DB000FBE7B020F9E79920F7E79220F5E78220DA
:100DC000F3E7F820F1E78020EFE79020EDE74020FF
:100DD000EBE77920E9E72420E7E73020E5E7192071
:100DE000E3E71220E1E70220DFE77820DDE70020DB
:100DF000DBE72E551AF8040001F012FE285D01F021
:100E00000FFEC9F80060CBF80060C9F80060641CF0
:100E1000E4B2072C80D3BDE8FC8F8820C5E7C12051
:100E2000C3E7C620C1E7A120BFE78620BDE78B202E
:100E3000BBE7A320B9E7AB20B7E7AF20B5E7BF20FA
:100E4000B3E70000A8000020140801400EB5694671
:100E500000900120019004200290074800F026F83D
:100E6000054800F0F9F90A21034800F05DF902484D
:100E700000F09AF80EBD0000941200200EB56946ED
:100E800000900120019004200290074800F00EF825
:100E9000054800F0E1F90A21034800F045F902484D
:100EA00000F082F80EBD0000C4120020F8B5002446
:100EB000009490F824202546012A12D0012280F8BF
:100EC00024204A681F23072A0DD20668776B521E1A
:100ED00002EB820293409F430B6893401F4377636A
:100EE00019E00220F8BD06680D2A0AD2376BD21F1E
:100EF00002EB820293409F430B6893401F4337638A
:100F000009E0F76A0D3A02EB820293409F430B68B7
:100F100093401F43F7620A68072306680A2A0AD328
:100F2000F7680A3A02EB420293409F438B68934072
:100F30001F43F76008E0376902EB420293409F438A
:100F40008B6893401F4337610A68102A01D0112A29
:100F500020D1124B02689A4217D193681B0219D410
:100F6000936843F4000393600968102912D10C4977
:100F70000C4A0968B1FBF2F101EB8101490000E084
:100F8000491E00910029FBD104E0816A41F0200153
:100F90008162012480F824502046F8BD00240140DD
:100FA000A400002040420F000068C06C70470000A1
:100FB0002DE9F0414FF0000704003D467ED0A06AC5
:100FC000002628B9E66284F82460204600F07EF806
:100FD0002046FFF749FDA16A01F01001014304D04A
:100FE000A06A40F01000A06268E0A16A21F4885174
:100FF00041F00201A1626268E169E3680A4347EADD
:1010000043010A43A1684FF48077B94208D001290F
:1010100006D00021D4F814C0BCF1010F02D00AE0C0
:101020003946F7E7F3B1A36A43F02003A362E36A0A
:1010300043F00103E3622368D3F804C02CF4694C45
:101040004CEA010CC3F804C023689968DFF870C04B
:1010500001EA0C0111439960A168B9420BD0012942
:1010600009D00CE0DFF85CC0A3690CEB43330B4301
:1010700043F40061DFE7218A0D05A5F5801521689D
:10108000CB6A23F470032B43CB62216889680E4B33
:101090001940914208D1E662A16A21F0020141F0B3
:1010A0000101A162BDE8F081A06A20F0020040F0D9
:1010B0001000A062E06A40F00100E0620120F1E768
:1010C000FDF7E1FF00E0FFFFFE0E1FFF10B5124C21
:1010D000036812490322124886B0A34209D18B69E2
:1010E00043F400738B61896901F40071049101215B
:1010F0000BE00C4CA3420DD18B6943F480638B61F0
:10110000896901F4806104910221CDE900126946E8
:1011100000F036FE06B010BD002401400010024071
:10112000000C0140002801402DE9F84300260D463F
:101130000446009600F008FF804620688168C905D3
:1011400008D5A06A40F02000A06284F82460012045
:10115000BDE8F8834168C90503D4C06A10F4700F74
:1011600026D0022000F0A6FF38490968B1FBF0F74D
:101170002068036936490B424FEA61014FEAA11228
:101180001BD1C3684FEA611C13EA0C0F15D1036928
:101190000B4221D1C06810421ED114201FE0681CF0
:1011A00006D045B300F0D0FEA0EB0800A84222D83C
:1011B000206800688007F2D52AE003690B4202D15B
:1011C000C168114206D0026922490A4206D1C068AC
:1011D000084203D1542002E0292000E0FC204743CC
:1011E000009813E0681C0ED02DB100F0ADFEA0EB0E
:1011F0000800A84207D9A06A40F00400A06284F861
:1012000024600320A4E70098401C0090B842E9D372
:1012100021686FF012000860A06A40F40070A062BC
:1012200020688068C0F3424007280CD1E06850B9BC
:10123000A06A20F48070A062A06AC00403D4A06AEF
:1012400040F00100A062002082E70000A40000201E
:10125000244992244992240070B5044690F8240051
:1012600001280DD0012084F824002046FFF722FC3D
:1012700002004FF0000005D084F82400104670BD35
:10128000022070BDA16A40F20123994341F48071AC
:10129000A1621F4D23681F49AB4218D10E6816F496
:1012A000702F14D0A66A46F48016A6620E687605E2
:1012B00005D5A66A26F4005646F48056A662A66AAC
:1012C000F6040AD5E66A26F00606E66206E0A66A95
:1012D00026F48016A6625E68E9E7E06284F82400DE
:1012E0006FF00200186020688368C3F34243072B45
:1012F00005D1A84208D1096811F4702F04D0816883
:1013000041F480118160B9E7816841F4A001F9E7F7
:101310000028014004240140F0B50C7D012303FAAC
:1013200004F20468D4F800524E6A25F47C5503EBAD
:1013300006231D43C4F800520368D3F81C429443AB
:10134000C3F81C424FF41073CD691C1DBDB905686C
:10135000D5F80C629643C5F80C628E894D684F69CA
:1013600066F31F45066803EBC707F5510E890D6844
:101370004F6966F31F45066804EBC707F551CD6951
:10138000012D17D10568D5F80C621643C5F80C621B
:101390000E884D684F6966F31F45066803EBC70367
:1013A000F5500D89CB684E6965F31F43056804EB62
:1013B000C6042B518B69002B0368D3F8044211D06B
:1013C00054EA0204C3F804420B69002B0368D3F803
:1013D000144209D054EA0204C3F81442096A0129EC
:1013E00004D009E09443EDE79443F5E70168D1F8B0
:1013F0001C321343C1F81C320068D0F8001221F0EF
:101400000101C0F800120020F0BD70472DE9F04145
:10141000044600680026C168C1F300134169C1F3A6
:10142000C002102113B10AB14E01C16020680269E7
:101430004369C2F30012C3F380131AB113B146F427
:1014400080660161216848694FF00105C043C0070B
:101450004ED18A687648904323D000208B68754A25
:101460009A4320D000228F68734BBB431DD00023CA
:10147000104318433CD088688A68C0F340008B68EA
:10148000C2F3402203F001031043184329D04A69F4
:10149000204622F001024A6194F83C10122906D03D
:1014A0000AE00120DAE70122DDE70123E0E7016835
:1014B0004A6922F40F424A6190F83C10422908D050
:1014C000522908D0722908D080F83C5000F060FB07
:1014D00009E0222102E0322100E0622180F83C1084
:1014E000F4E746F4006620688168544A114381603D
:1014F0002168C868496910F0030FC1F3400104D0A6
:1015000019B100212046FFF72BFB216808694969C2
:1015100010F0030FC1F3001104D019B101212046CE
:10152000FFF71EFB206C304320642068816942690C
:1015300011F0010F4369C2F30022C3F3C03305D099
:1015400022B11BB1216C41F0010121648169C1F319
:1015500040034169C1F340224169C1F3C0312BB15D
:1015600022B119B1216C41F0020121648169C1F3FA
:10157000800341694269C1F38021C2F3C0322BB1BB
:1015800021B11AB1216C41F004012164816911F08B
:10159000700F08D000224169C1F3C0234169C1F333
:1015A000C03112B121E00122F5E7F3B1E9B181695F
:1015B00001F0700140292FD006DC102909D0202924
:1015C0000BD030290DD123E0502929D0602908D132
:1015D0002AE0216C41F0080102E0216C41F0100189
:1015E0002164816921F070018161206C00280DD097
:1015F00021680420486084F83C502068416948F61E
:101600005B72914341612046FFF7FFFEBDE8F08128
:10161000216C41F02001E3E7216C41F04001DFE75C
:10162000216C41F08001DBE7216C41F48071D7E748
:10163000010000040001000800000110090501007C
:101640002DE9F04104004FF0000504D094F83C006F
:10165000002618B107E00120BDE8F08184F83D6064
:10166000204600F083F8022084F83C0020680168DE
:1016700021F0020101602068016841F00101016070
:1016800000F062FC07464FF0030804E000F05CFC49
:10169000C01B0A2853D820684068C007F6D02168CC
:1016A0004868C00758D0A069012801D145F08005DD
:1016B000E06901282FD025F04000226A012A2DD0B0
:1016C00020F02000626A012A2BD020F01000A26ACC
:1016D000012A29D020F00800E26A012A27D020F050
:1016E00004000A6822F0FC0202430A60D4E9020105
:1016F0000843D4E90412114308436168491E0843B2
:101700002168C8612068016821F00101016000F0D2
:101710001BFC054618E045F04000CEE740F02000F5
:10172000D0E740F01000D2E740F00800D4E740F0E6
:101730000400D6E700F008FC401B0A2804D904F88E
:101740003C8F0320667087E720684068C007F1D1AE
:1017500020684068C00703D0042084F83C007AE782
:101760002664012084F83C00002075E710B500686D
:10177000194986B088422DD11848C16941F00071DD
:10178000C161C069164C00F0007004904FF4006015
:1017900000900020019002906946204600F0F0FA87
:1017A000A014009002200190032003906946204677
:1017B00000F0E6FAFFF786FA0A480068416941F04E
:1017C0000201416102221146142000F041FC142064
:1017D00000F032FC06B010BD006400400010024072
:1017E00000080140501200202DE9F84F17460D0067
:1017F000044602D0012D2BD010E094F83C002228A2
:101800002ED094F83C0042282AD000BF94F83C0027
:10181000622825D094F83C00722821D094F83D002D
:1018200001281DD0012684F83D60622094F83C20F8
:1018300072214FF042094FF0220A4FF0520B95B13E
:10184000122A1AD0222A19D0422A1AD0322015E0A0
:1018500094F83C00322803D094F83C005228D5D1AB
:101860000220BDE8F88F122A05D0322A06D0522A6B
:1018700007D0504602E0484600E0584684F83C0055
:1018800001E084F83C1000F05FFB4FF0000800908E
:101890000EE0781C0CD02FB100F056FB0099401AD6
:1018A000B84205D9032084F83C0084F83D80D8E78D
:1018B0002068EDB3D0F8100010F0030FE9D0C5B3E5
:1018C000D4F838004FF4D871226801EB0511525852
:1018D00012F0040282602268525850D0D20842604E
:1018E0002268515801F00201C1604FF4DA71226898
:1018F00001EB0511525802F00F02026122685158A3
:10190000C1F30721C0E907154FF4DC71226801EB30
:1019100005115258027522685258120A42752268FF
:101920005258120C827522685158090EC17501E097
:1019300021E022E04FF4DE71226801EB05115258DC
:10194000027622685258120A427622685258120CC5
:10195000827622685158090EC17620202268122111
:1019600085B1106194F83C0052281FD0622820D025
:10197000722810D11FE0C0689EE7606BA2E7520D8D
:101980000260ADE7D06094F83C0042280ED0622897
:1019900008D0722808D084F83C6000BF84F83D80ED
:1019A00000205EE7322007E0584605E084F83C104E
:1019B000F4E7504600E0484684F83C00EEE70000BB
:1019C00070B5164D00242868416941F0020141615B
:1019D000686B016812A001F08DFB686B416813A071
:1019E00001F088FB686B816813A001F083FB686BD2
:1019F000C16814A001F07EFB686B016914A001F0BE
:101A000079FB00BF696B04F114000A5C214613A046
:101A100001F070FB641C082CF4DB70BD5012002038
:101A2000537469643A25640D0A00000045786964BE
:101A30003A25640D0A0000006964653A25640D0AC0
:101A4000000000007274723A25640D0A0000000064
:101A50006C656E3A25640D0A0000000072786275AC
:101A6000665B25645D3A25640D0A000070B5036865
:101A70009968490105D49968090102D49968C90097
:101A80007ED590F83D10012907D0012180F83D1046
:101A90009968490103D5002207E0022070BD9968CA
:101AA000090101D5012200E002224FF4C07101EBCF
:101AB00002115C5804F001045C50036B9C68ECB3A9
:101AC000066875582543DC685B6844EAC3031D4318
:101AD0007550036B1C7C04F00F041C614FF4C2733F
:101AE000046803EB0213E55825F00F05E550046880
:101AF000E558066B36693543E550036B4FF4C47502
:101B000005EB02151C7DD3F8153044EA0323046865
:101B10006351036B4FF4C67505EB02121C7ED3F8BC
:101B2000193044EA03230468A35090F83C20222A89
:101B300010D0322A10D0622A23D000E001E0122215
:101B40000BE004686558DE681B88354345EA43535B
:101B50006350BEE7422200E0522280F83C2000227F
:101B6000026480F83D200268535843F0010353504B
:101B70000068416948F6017211434161002070BD5F
:101B800001E07222E9E7042180F83C100120F6E729
:101B90007047000010B590F821100024022903D0EE
:101BA0000421816301243DE001680A6822F00E02ED
:101BB0000A6001680A6822F001020A601A4A016894
:101BC000914201D1012121E0174A1432914201D101
:101BD00010211BE0144A2832914201D1891515E0E9
:101BE000114A3C32914201D189140FE00E4A503221
:101BF000914202D14FF4803108E00B4A64329142A5
:101C000002D14FF4801101E04FF08071064A083A8A
:101C10005160012180F82110002180F82010416BD3
:101C200001B18847204610BD080002402DE9F05F51
:101C3000C16B0C6801680B68D0F840C0042202FA3E
:101C40000CF2494DDFF824A1494E4A4FDFF828B184
:101C5000DFF828E122422CD05A072AD50A689206DA
:101C600003D40A6822F004020A600168A94201D183
:101C7000042219E0514501D1402215E0B14202D1C0
:101C80004FF4806210E0B94202D14FF480420BE081
:101C9000594502D14FF4802206E0714502D14FF43C
:101CA000800201E04FF080622F4908394A60C16A22
:101CB0003BE04FF0020808FA0CF818EA040F4FF066
:101CC00000094FF0010235D05FEA837832D50B6806
:101CD0009B0605D40B6823F00A030B6080F82120D3
:101CE0000168A94201D1022219E0514501D1202207
:101CF00015E0B14202D14FF4007210E0B94202D1B6
:101D00004FF400520BE0594502D14FF4003206E087
:101D1000714502D14FF4001201E04FF000721249F8
:101D200008394A6080F82090816A00291AD0BDE8FD
:101D3000F05F0847082505FA0CF5254212D01B076D
:101D400010D50B6823F00E030B6090F84010C36BA6
:101D500002FA01F15960826380F8212080F8209016
:101D6000016BE2E7BDE8F09F080002401C00024062
:101D70003000024044000240580002406C00024023
:101D80002DE9F84FDFF890A100220AF1040B144668
:101D900001274FF00F090BF1040E00BF0B6807FA83
:101DA00004F52B40AB4274D1DFF870C14E68A6EB4E
:101DB0000C0866452BD00DDC032E34D005DC36B381
:101DC000012E19D0022E2FD11BE0112E16D0122E6B
:101DD0002AD119E0B8F5881F19D006DCB8F5803F84
:101DE00015D0B8F5801F1FD111E0B8F5001F0ED037
:101DF000B8F5041F18D10AE0CA6815E0CA68121DB8
:101E000012E0CA6808320FE0CA680C320CE08A6837
:101E10002AB1012A4FF0080203D0456104E00422F0
:101E200002E0056100E00022FF2B01D8064601E038
:101E300000F104064FEA840501D9A5F12005D6F882
:101E400000C009FA05F82CEA080C02FA05F54CEA7C
:101E5000050CC6F800C04D68ED0057D5304DAE6991
:101E600046F00106AE61AD6924F0030605F00105F8
:101E700000952C4D06EB050CDCF80850A6074FEA40
:101E8000167809FA08F6B543274EB04202D100266B
:101E900010E03BE0254EB04201D101260AE0244E7D
:101EA000B04201D1022605E0224EB04201D1032604
:101EB00000E0042606FA08F62E43CCF808604D68C8
:101EC000DAF80060ED03554601D51E4300E09E435D
:101ED0002E604D68DBF80060AD035D4601D51E4302
:101EE00000E09E432E604D68DEF80060ED0275460E
:101EF00001D51E4300E09E432E604D68AD020E4D9D
:101F00002E6801D51E4300E09E432E60641C102CF9
:101F1000FFF444AFBDE8F88F000401400000111049
:101F2000001002400000014000080140000C014088
:101F300000100140001401400C0401400AB101618D
:101F400070470904FBE70000014880687047000003
:101F500078000020074810B5016841F010010160C9
:101F6000032000F095F8002000F006F800F024F8B7
:101F7000002010BD0020024070B50D4D04464FF406
:101F80007A712878B1FBF0F00A490968B1FBF0F0EA
:101F900000F002FC48B9102C07D200222146501E46
:101FA00000F056F800206C6070BD012070BD00008C
:101FB00078000020A40000201D4808B5816941F088
:101FC00001018161806900F001000090032000F0B0
:101FD0005FF8002211466FF00B0000F039F8002284
:101FE00011466FF00A0000F033F8002211466FF03E
:101FF000090000F02DF800221146501F00F028F8CB
:1020000000221146101F00F023F800221146901EF6
:1020100000F01EF800221146501E00F019F8054885
:10202000416821F0E06141F00071416008BD0000AD
:10203000001002400000014000F01F020121914009
:102040004009800000F1E020C0F800117047000056
:10205000F0B40E4B1B680C46C3F30223C3F1070513
:10206000042D00D90425191D072901D2002300E001
:10207000DB1E012606FA05F1491E214099409E40CB
:10208000761E16403143F0BC00F0DCBD0CED00E0E4
:10209000064900F0070208684FF6FF03184040EABF
:1020A0000220034A10430860704700000CED00E076
:1020B0000000FA0510B528A401461DCC86B08DE8B5
:1020C0001D0029A0294C006804900020012923D07C
:1020D000022939D010291DD161682268D20119D591
:1020E000C1F38342C9031DF8020009D5616804AA3F
:1020F000C1F34041515C1E4AB2FBF1F1484301E09B
:102100001C4948436168490204D440005FF0030160
:10211000B0FBF1F006B010BD226AC2F30121012923
:1021200003D1920701D5C803F4E7022905D1626AF9
:10213000920702D549F64040ECE70329EAD121682D
:102140008903E7D50C48E5E700F04EF96168C1F373
:102150008131491C4900DBE7020304050607080931
:102160000A0B0C0D0E0F10100102000000100240AF
:1021700000366E0100093D006CDC02002DE9F843D9
:1021800005460078354CC00754D0E0690026C000F1
:1021900008D4E06940F08050E061E069012600F079
:1021A000805000902E480168C90512D4016880460D
:1021B00041F480710160FFF7C7FE074605E000BFEC
:1021C000FFF7C2FEC01B642823D8D8F80000C00562
:1021D000F6D5206A10F4407021D0A98801F440712E
:1021E00081421CD0206A1F49012220F440700A60FD
:1021F00000220A602062C00711D0FFF7A5FE074643
:1022000041F2883808E000BFFFF79EFEC11B414540
:1022100002D90320BDE8F883206A8007F4D5206A3C
:10222000696820F44070084320621EB1E06920F024
:102230008050E0612878800705D56068A96820F49F
:102240004040084360602878C00605D56068E968AA
:1022500020F48000084360600020DBE700100240AB
:1022600000700040400442422DE9F047DFF83C8115
:1022700005460E46D8F8000000F00700B0420CD228
:10228000D8F8001021F007013143C8F80010D8F841
:10229000000000F00700B04263D12878444C80076A
:1022A00005D56068A96820F0F000084360602878D0
:1022B000C00745D06868012816D02168022816D0CA
:1022C000890700294DDA616821F00301014361604B
:1022D000FFF73AFE6968074641F2883001290FD0BE
:1022E0000229814619D027E021688903E9E789019D
:1022F000E7E700BFFFF728FEC11B494501D918E0F9
:1023000081466068C0F381000128F3D118E000BF66
:10231000FFF71AFEC11B49450BD86068C0F3810066
:102320000228F5D10CE000BFFFF70EFEC11B4945A6
:1023300002D90320BDE8F087606810F00C0FF3D1DC
:10234000D8F80010404601F00701B1420BD90168EE
:1023500021F0070131430160006800F00700B0423E
:1023600001D00120E6E72878400705D56068E968D4
:1023700020F4E060084360602878000706D56068B4
:10238000296920F4605040EAC100606000F03CF828
:102390006168084AC1F30311515CC84006490860EE
:1023A0000020FFF7E9FD0020C4E700000020024004
:1023B00000100240EE500008A40000200148006810
:1023C00070470000A40000200448054900684968DF
:1023D000044AC1F30221515CC8407047A4000020A8
:1023E00000100240FE500008044805490068496892
:1023F000044AC1F3C221515CC8407047A4000020C8
:1024000000100240FE50000813A185B00FC98DE8EE
:102410000F0015A0154A00680490516801F00C00E7
:10242000042804D0082804D0114805B0704711488A
:10243000FBE7C1F38343C9031DF8030009D55168C5
:1024400004AAC1F34041515C0A4A5043B0FBF1F089
:10245000EBE709494843E8E70203040506070809D2
:102460000A0B0C0D0E0F10100102000000100240AC
:1024700000127A0000366E0100093D002DE9F84F88
:1024800004460078B94DC00748D06868C0F38100A1
:10249000012807D06868C0F38100022809D1686864
:1024A000C00306D52868800338D5606800286FD03F
:1024B00034E06068B0F5803F0BD010B1B0F5A02FCC
:1024C00011D0286820F480302860286820F480200B
:1024D00002E0286840F480302860606888B1FFF727
:1024E00033FD064609E0286840F480202860F0E7C4
:1024F000FFF72AFD801B642875D828688003F7D56C
:102500000CE0FFF721FD064605E000BFFFF71CFDCC
:10251000801B6428F0D828688003F7D42078944E74
:1025200080074FF001094FF000083BD5686810F0B4
:102530000C0F07D06868C0F38100022809D16868D1
:10254000C00306D42868800714D5206901281FD14C
:1025500010E02069B0B1C6F80090FFF7F5FC07461F
:1025600005E000BFFFF7F0FCC01B0228C4D82868B4
:102570008007F7D52868616920F0F80040EAC100BB
:1025800028600FE0C6F80080FFF7DEFC074606E093
:10259000E9E000BFFFF7D8FCC01B022823D8286859
:1025A0008007F7D4207800072CD57248A169D9B1EB
:1025B000C0F80090FFF7C8FC074604E0FFF7C4FC32
:1025C000C01B02280FD8686A8007F7D56A484FF405
:1025D000FA510068B0FBF1F0009000BF0098411E76
:1025E0000091FAD20EE080E0C0F80080FFF7ACFC6A
:1025F000074604E0FFF7A8FCC01B022875D8686AEC
:102600008007F7D42078400760D5E8690027C0002C
:1026100008D4E86940F08050E861E869012700F0DB
:102620008050009055480168C90513D4016883465D
:1026300041F480710160FFF787FC824606E000BF2D
:10264000FFF782FCA0EB0A0064284ED8DBF80000FC
:10265000C005F5D5E06801280AD008B1052813D0D7
:10266000286A20F001002862286A20F0040002E0B5
:10267000286A40F001002862E06841F2883B98B186
:10268000FFF762FC82460BE0286A40F004002862F3
:10269000EEE700BFFFF758FCA0EB0A0159455AD8F6
:1026A000286A8007F6D50CE0FFF74EFC824605E06D
:1026B000FFF74AFCA0EB0A0159454CD8286A80076D
:1026C000F6D41FB1E86920F08050E861E06988B372
:1026D0006968C1F38101022945D00228C6F86080EB
:1026E00004D0FFF731FC044638E034E0FFF72CFC5F
:1026F000074604E0FFF728FCC01B02282BD82868F7
:102700008001F7D4206AB0F5803F05D16868A168E0
:1027100020F4003008436860D4E908010843696880
:1027200021F4741108436860C6F86090FFF70CFC50
:10273000044606E015E000BFFFF706FC001B022878
:1027400009D828688001F7D50BE000BFFFF7FCFB34
:10275000001B022802D90320BDE8F88F28688001F9
:10276000F4D40020F8E70120F6E700000010024052
:102770000000424280044242A40000200070004059
:102780004FF0E0210428086903D020F0040008611C
:10279000704740F00400FAE710B5401EB0F1807FAA
:1027A00001D3012010BD4FF0E02460610F216017BC
:1027B00000F048FA0020A06107202061002010BD31
:1027C0007047000070B5026804461068D16853690C
:1027D00010F00F0F51D003F0010501F4907635434E
:1027E0005DD0C20705D0CA0503D5E26B42F00102F5
:1027F000E263420705D5DA0703D0E26B42F002023A
:10280000E263820705D5DA0703D0E26B42F00402E7
:10281000E263020705D5DA0703D0E26B42F0080253
:10282000E263E26B002A34D0800604D5880602D524
:10283000204600F01BFB20684069E16BC0F380106C
:1028400001F008010143204624D000F001FB20687C
:10285000416949061AD5416921F040014161606B27
:10286000A0B11B494163606BFFF794F9002810D0B9
:10287000606B416BBDE87040084783060FD58B063F
:102880000DD52046BDE8704000F0F0BA2046FFF7B5
:1028900097FF70BDFFF794FF0020E06370BD030653
:1028A00006D50B0604D52046BDE8704000F0E2BB1B
:1028B0004006F3D54806F1D5D168204621F0400105
:1028C000D160202184F8391000F09EF870BD00001E
:1028D000412E000870B5040004D094F8390000259A
:1028E00010B106E0012070BD84F83850204600F099
:1028F00023F8242084F839002068C16821F40051AD
:10290000C160204600F0FEFA2068016921F4904180
:1029100001612068416921F02A0141612068C16894
:1029200041F40051C160E563202084F8390084F847
:102930003A00002070BD000010B50068184986B04C
:1029400088422AD11748C16941F48021C161C06918
:10295000154C00F4802004904FF480600090022019
:1029600001900320039069462046FFF709FA0021F1
:10297000E014CDE90001029169462046FFF700FA14
:10298000002202212720FFF763FB2720FFF754FBDB
:1029900001220649064800F00DF806B010BD0000FF
:1029A0000048004000100240000C0140A000002040
:1029B000A811002090F83A30202B22D1F9B1F2B1C1
:1029C00090F83830012B1CD081628285C2850021AD
:1029D000C163222280F83A2080F838100168CA6862
:1029E00042F48072CA6001684A6942F001024A6199
:1029F0000068C16841F02001C160002070470120DB
:102A0000704702207047704770470000034820213C
:102A100001608021016010210160704710080140B1
:102A200070B50A4A002180252023141F1360060672
:102A300001D5256000E015604006000E236013609C
:102A4000491CC9B20829F1D370BD00001408014027
:102A50003EB5134811490124016000218160C16025
:102A600041614FF460220461C2614160FEF7A0FA47
:102A700018B147210BA000F03CFB0820CDE9000471
:102A80000420029069460648FEF710FA002803D099
:102A9000512104A000F02DFB3EBD000000240140A8
:102AA000941200202E2E2F5372632F6164632E63C5
:102AB000000000003EB513481149012401600021C7
:102AC0008160C16041614FF460220461C261416074
:102AD000FEF76EFA18B165210BA000F00AFB092081
:102AE000CDE900040420029069460648FEF7DEF9AD
:102AF000002803D06F2104A000F0FBFA3EBD0000C7
:102B000000280140C41200202E2E2F5372632F6123
:102B100064632E6300000000144810B51249016080
:102B2000A0F1400101631C314163062141604FF077
:102B30008041816000214FF44032C0E9031252010C
:102B4000C0E905210122C161C0E908128162C162A8
:102B5000FEF776FD002805D0BDE810404D2104A009
:102B600000F0C7BA10BD0000006400405012002001
:102B70002E2E2F5372632F63616E2E6300000000B0
:102B800030B51A4885B0816941F0200181618169C1
:102B900001F020010491816941F0040181618169A2
:102BA00001F004010491816941F0080181618069AB
:102BB0000F4D00F0080004900022B0212846FFF7D6
:102BC000BDF901241020CDE900046946284603948C
:102BD000FFF7D6F8A020CDE9000402200390694653
:102BE0002846FFF7CDF805B030BD000000100240C8
:102BF000000801400D4810B50B4901604FF4E13168
:102C00004160002181600C22C160C0E90412816131
:102C1000C161FFF75FFE002805D0BDE810405121DB
:102C200003A000F066BA10BD00480040A8110020C3
:102C30002E2E2F5372632F75736172742E630000F2
:102C4000FEE770470907090E002806DA00F00F00BA
:102C500000F1E02080F8141D704700F1E02080F8BA
:102C60000014704730B500235FF00A04B0FBF4F5A0
:102C700004FB1505B0FBF4F041F823505B1CDBB2FC
:102C80000028F3D1137030BD70470000184A02F1DC
:102C90004000A0F12401C0E90C2100211160036B68
:102CA00041F211225A60026BD160026B04219160E3
:102CB000026B08211161026B43211175026B4121E6
:102CC0005175026B4E219175026B2021D175026BFB
:102CD00054211176026B65215176026B7321917636
:102CE000006B6321C17602484030FEF7BFBE000092
:102CF0001012002010B501F0CDFB01F0F7FEBDE889
:102D0000104001F0D5BB30B593B001204FF4A021A5
:102D100000258DE82300049002240004CDE907403B
:102D2000800009906846FFF7A9FB00B1FEE70AA9F9
:102D30000F2081E831004FF48060CDE90D050221BC
:102D40000AA8FFF791FA00B1FEE74FF40040119096
:102D50000F940FA8FFF712FA00B1FEE7FFF72EFB62
:102D60004FF47A71B0FBF1F0FFF716FD0420FFF786
:102D700007FD00221146501EFFF76AF913B030BD5F
:102D8000164A10B55068164B10F00C01154803D0C8
:102D9000042903D0082903D0036016E0124913E088
:102DA0005168536801F470114FF0020413F4803F2E
:102DB00004EB914104D053689B0303D50B4B02E015
:102DC0000B4B00E0084B594301605168094AC1F3BD
:102DD0000311515C0268CA40026010BD001002403D
:102DE00000127A00A400002000366E01001BB7001C
:102DF00000093D00EE5000080D48016841F0010156
:102E0000016041680B4A1140416001680A4A114063
:102E10000160016821F480210160416821F4FE0114
:102E200041604FF41F0181600449C003086070478E
:102E3000001002400000FFF8FFFFF6FE08ED00E082
:102E400010B5406A0021C185C184FFF7B9FC10BDEF
:102E50000168CA6822F49072CA6001684A6922F067
:102E600001024A61202180F83A10704710B590F8AD
:102E70003A10222901D0022010BD8168B1F5805F8F
:102E800011D00169002901681FD0496801F07F0352
:102E9000816A4A1C82620B70C18D491E0904090CAB
:102EA000C18518D02BE00269816A002A0268526845
:102EB00005D0D2B20A80816A491C8162ECE7C2F374
:102EC00008020A80816A891CF7E74A68816A4B1CFC
:102ED00083620A70E0E70168CA6822F02002CA60D3
:102EE0000168CA6822F48072CA6001684A6922F0E7
:102EF00001024A61202180F83A10FFF784FD00208A
:102F000010BD00002DE9F041044600680169E26847
:102F100021F44051114301612169A06808436169AE
:102F200008432168CA6841F20C639A430243CA60AD
:102F300020684169A26921F44071114341614C4903
:102F400020686425322688423CD1FFF74DFA00EB19
:102F5000C00101EB001061688900B0FBF1F7FFF7D9
:102F600043FA00EBC00101EB00106168B046890034
:102F7000B0FBF1F0B0FBF5F06FF01801484307EB40
:102F8000800106EB0110B0FBF5F000F0F006FFF752
:102F90002BFA00EBC00101EB001061688900B0FB67
:102FA000F1F0B0FBF5F006EB0016FFF71DFA00EBB1
:102FB000C00101EB001061688900B0FBF1F7FFF779
:102FC00013FA3BE0FFF700FA00EBC00101EB001041
:102FD00061688900B0FBF1F7FFF7F6F900EBC0017B
:102FE00001EB00106168B0468900B0FBF1F0B0FB66
:102FF000F5F06FF01801484307EB800106EB011074
:10300000B0FBF5F000F0F006FFF7DEF900EBC001D1
:1030100001EB001061688900B0FBF1F0B0FBF5F046
:1030200006EB0016FFF7D0F900EBC00101EB001032
:1030300061688900B0FBF1F7FFF7C6F900EBC0014A
:1030400001EB001061688900B0FBF1F0B0FBF5F016
:103050006FF01801484307EB800108EB0110B0FB4B
:10306000F5F0216800F00F0030448860BDE8F08181
:103070000038014090F83910212901D00220704712
:103080008168B1F5805F016A0BD04A1C0262026858
:1030900009785160C18C491E0904090CC1840ED005
:1030A00017E009880268C1F308015160016900292D
:1030B000016A02D0491C0162ECE7891CFBE7016848
:1030C000CA6822F08002CA600068C16841F040010D
:1030D000C1600020704700000148FFF773BB00008B
:1030E000A81100200148FEF791B9000050120020FD
:1030F000FEE7FEE70FB4054B10B503A9044A02989A
:1031000000F0F6F810BC5DF814FB0000B53A0008BA
:10311000B0000020002806D00E4910F0FF0F03D0A9
:10312000C0B2085C401C704710F47F4F04D0C0F35D
:103130000720085C0930704710F47F0F04D0C0F3FB
:103140000740085C1130704701EB106000781930BF
:1031500070470000CC4F000802E008C8121F08C1E9
:10316000002AFAD170477047002001E001C1121F08
:10317000002AFBD1704700002DE9FF5FDDE9022046
:10318000010DDDF838B0024318D044F61050A1F21A
:10319000FF3141430D140F98012820D0A5EB0B00FF
:1031A000401C5FEA000A4FF00004474EDFF81C9114
:1031B000A046504616D5CAF1000728E00F98012412
:1031C00043A2012808D0002100980F9BC0E90021EC
:1031D000C0E90243BDE8FF9F6FEA0B01F4E7CBF1C2
:1031E0000000DEE7074612E0F80707D02246334624
:1031F00040464946FDF79FF98046894622463346B8
:1032000010461946FDF797F904460E467F10002F29
:10321000EAD1DDE90201BAF1000F42464B4602DA7B
:10322000FDF789F901E0FDF765FB04460E46002233
:10323000284BFDF7E7FB03D84FF0FF30014607E0CE
:103240000022254B20463146FDF7CEF8FDF7C1FBA5
:10325000102409E0002C0ADB0A220023FDF764FA9F
:10326000019B30321A55641E50EA0102F2D1641CEF
:10327000019AC4F1110314440F9A012A03D00122C8
:1032800008430DD10AE0084304D000204FF0110B91
:103290000F9080E7A3EB0B056D1E0DE05B4504DD91
:1032A0004FF0000205F1010504E003DA4FF00002DF
:1032B000A5F10105002AECD000980F99C0E9023170
:1032C000C0E9004586E70000000024400000F03F10
:1032D000300000000000F0430000E03F03480168B8
:1032E000814201D001207047002070476400002017
:1032F0002DE9FF4F95B09B468946064600250FE213
:10330000252877D100242746F84A0121059400E0BA
:10331000044316F8013F203B01FA03F01042F7D1B5
:1033200030782A2811D06FF02F033078A0F13002C6
:10333000092A16D8059A44F0020402EB820203EB34
:1033400042021044761C0590EFE759F8042B0592D1
:10335000002A03DA504244F40054059044F0020479
:10336000761C30782E2816D116F8010F44F004048C
:103370002A280DD06FF02F023078A0F13003092BEE
:1033800009D807EB870302EB4303C718761CF3E762
:1033900059F8047B761C30786C280FD006DC4C285A
:1033A00017D068280DD06A2814D104E0742810D0F2
:1033B0007A280FD10DE044F400140AE044F480149C
:1033C00001E044F440147278824202D104F5801482
:1033D000761C761C307866280BD013DC582877D002
:1033E00009DC002875D04528F6D04628F4D04728B7
:1033F0001AD19DE118E0632835D0642879D065287A
:1034000012D195E1702873D008DC6728F1D06928C3
:103410006FD06E280DD06F2806D1B5E073282CD060
:10342000752875D0782874D05A46179990476D1C26
:1034300075E1C4F30250022809D003280DD0D9F851
:10344000001004280DD00D6009F1040967E1D9F8D6
:103450000010EA17C1E90052F6E7D9F800100D8014
:10346000F2E70D70F0E719F8041B8DF8001000204A
:103470008DF80100EA46012003E059F804AB4FF053
:10348000FF3061074FF0000102D40DE008F10101A7
:103490008846B9420FDA8045F8DB1AF8081000298F
:1034A000F4D108E008F1010188468142FADB1AF8FC
:1034B00008100029F6D105985B46A0EB08072146C5
:1034C0003846179A00F094FA284400EB080507E004
:1034D0004DE029E10DE01AF8010B5A461799904783
:1034E000B8F10108F7D25B4621463846179A13E136
:1034F00042E00A220092C4F302524FF0000A022A6C
:1035000008D059F804CB032A4FEAEC710AD00DE039
:1035100029E02AE009F1070121F00702F2E802C1DF
:10352000914609E00FFA8CFC4FEAEC71042A03D1B2
:103530004FFA8CFC4FEAEC71002907DA0A460021A9
:10354000DCF1000C61EB02012D2202E0220504D522
:103550002B228DF80420012203E0E20701D0202273
:10356000F7E7904659E00A2102E010220DE0102111
:103570004FF0000A00910BE010224FF0000A44F0D7
:1035800004040827009203E008224FF0000A00928A
:10359000C4F30252022A05D059F804CB0021032AB1
:1035A00008D009E009F1070121F00702F2E802C1A1
:1035B000914605E01FFA8CFC042A01D10CF0FF0CA7
:1035C0004FF00008220728D5702806D0009B83F012
:1035D000100353EA0A0305D00EE040228DF80420C0
:1035E000012208E05CEA010206D030228DF80420B6
:1035F0008DF8050002229046009B83F0080353EAF1
:103600000A030AD15CEA010201D1620705D5302222
:103610008DF804204FF001087F1E582804D034A0F4
:1036200003900EA802900DE036A0F9E753466046DD
:10363000009AFDF779F884460398825C0298401E50
:10364000029002705CEA0100F0D1029806A9081A03
:1036500000F1200A600702D524F4803400E001273D
:10366000574502DDA7EB0A0000E0002000EB0A014D
:10367000009005984144401A0590E00306D45B464B
:103680002146179A059800F0B3F90544002706E093
:1036900001A85A46C05D179990476D1C7F1C47458D
:1036A000F6DBE0030CD55B462146179A059800F03F
:1036B0009FF9054404E030205A46179990476D1C45
:1036C0000099481E00900029F5DC08E00298029954
:1036D0005A460078491C0291179990476D1CBAF11F
:1036E0000001AAF1010AF1DC65E1000009280100EE
:1036F0003031323334353637383961626364656668
:103700000000000030313233343536373839414229
:10371000434445460000000000F058F90544761C7B
:10372000307800287FF4ECAD19B02846BDE8F08F62
:10373000620700D4062709F1070222F0070CFCE813
:103740000223E14603F000485FEA080C02D00FF2C2
:10375000702C0DE05FEA045C02D50FF2682C07E0E4
:103760005FEAC47C02D00FF2602C01E0AFF2700C73
:103770004FF0FF3823F00043CDF850C065280CD03F
:1037800006DC452809D046281DD047283DD13DE01C
:10379000662818D067287ED138E00021112F01DB80
:1037A000112000E0781CCDE9000106A90EA8FFF762
:1037B000E3FCDDE90F010E9A03910021009207F16D
:1037C000010A04914DE04FF000400097CDE901104F
:1037D00006A90EA8FFF7D0FCDDE90F0203920E9BAD
:1037E00011990022DDF80CA00093049211B9791C04
:1037F00000EB010AB7EB0A0004D4C0F1FF3007F177
:10380000010A0490AAEB0700019044E0012F00DABE
:1038100001270021112F01DD112000E03846CDE9FC
:10382000000106A90EA8FFF7A7FCDDE90F010E9A1B
:103830000391002104910092BA4621070CD4039908
:10384000514500DA8A46BAF1010F05DD009AAAF166
:103850000101515C302908D0B84202DA10F1040F9E
:1038600006DA0121CDE9011015E0AAF10101E9E72D
:10387000002805DC049901440491AAEB000102E050
:10388000411C514500DD8A460499401A401C0190B4
:103890004FF000400290200704D40198504501DB0E
:1038A000CDF8048000208DF84F0002980DF14F07ED
:1038B000B0F1004F25D02B200E9002984FF0020857
:1038C00000280CDA404202902D200E9007E00A21D9
:1038D0000298FCF713FF3031029007F8011DB8F190
:1038E0000001A8F10108F2DC02980028EFD1791E4E
:1038F0000E980870307800F0200040F0450007F87E
:10390000020D12A8C01B00F107081498007800B13E
:10391000012000EB0A01019801EBE0710598414498
:10392000401A401E0590E00306D45B462146179AD4
:10393000059800F05DF805441498007818B15A46CF
:10394000179990476D1CE00324D55B462146179AD2
:10395000059800F04DF805441CE00498002807DBAA
:10396000DDE90301884203DD0098405C179901E01E
:10397000179930205A469047049805F10105401CDC
:1039800004900198401E019004D12E205A461799A8
:1039900090476D1CBAF10001AAF1010ADDDC05E0D7
:1039A00017F8010B5A46179990476D1CB8F10001A2
:1039B000A8F10108F4DC5B462146179A0598ABE6AE
:1039C0002D0000002B000000200000002DE9F04138
:1039D000044600251E461746880404D405E03946EF
:1039E0002020B0476D1C641EF9D52846BDE8F08143
:1039F0002DE9F041044600251E469046C80301D536
:103A0000302700E02027880404D505E041463846E9
:103A1000B0476D1C641EF9D52846BDE8F081000052
:103A20002DE9FC411F460446DDE90831DDE90A6560
:103A3000143040600060C4E90827C4E90A310A462E
:103A4000232118461C3400F069FDD4E90301421813
:103A5000D4E90101104B121F00F000FD44F81A0BCD
:103A6000002004F801690D4A04F8036BE4E802053C
:103A700044F8105901C404F83C0B01C444F874091B
:103A8000009023460190194604F1440001F0A0F88B
:103A90000020BDE8FC8100003D4800085F4A0008A6
:103AA000F0E905124A60D0E9001211604060006040
:103AB0007047000004490A685206FCD5024AC1B2A8
:103AC000121D116070470000004800402DE9F047CA
:103AD00004468A46D4E900152846FCF715FC8146C1
:103AE00029460846FCF710FC6169FCF70DFCE1680B
:103AF000FCF7B2FBA76880463946FCF705FC054693
:103B00003946FCF701FC2169FCF7A6FB0146284673
:103B1000FCF72CFC0646A06149463846FCF7F4FB4E
:103B20005146FCF7EEFB3146FCF7EEFB4946FCF74D
:103B300093FB0546206039463046FCF7E5FB4FF025
:103B40007E51FCF7DEFB4146FCF7DEFB6061284658
:103B5000BDE8F08701604FF07E5141608160C16037
:103B60000149C0E9041270470000A0412DE9F04F5F
:103B700099B0BC48002510902E46142104A8FCF7EB
:103B800060FB142109A8FCF75CFBB74912A80A46A0
:103B9000FFF7E0FFDFF8D4B2612142F210708BF83A
:103BA000061075218BF802100021CDE900010B46AB
:103BB000AF4AB0A1B14801F00BF80A2406E0092091
:103BC000FDF75CF90544142000F035FE641EE4B2F4
:103BD000F5D22846FCF721FDA94AAA4BFCF7ABFC1D
:103BE000A94AAA4BFCF7A7FC0022A94BFCF79DFCB5
:103BF000FCF768FD9D4D00270C3D6860A5481190BD
:103C00009E4800F0FDFF0820FDF720F9064409203A
:103C1000FDF734F9641CE4B20744092C7DD9002473
:103C20001198FCF724FDCDE900018046894638460D
:103C3000FCF7F3FC924A934BFCF77DFC924A934BC2
:103C4000FCF779FC0022924BFCF76FFC42464B4696
:103C5000FCF76BFCFCF736FD074610F1FF4F01D374
:103C600080F00047A868FCF702FD80468946394687
:103C700012A8FFF72BFFFCF7FAFC874A874BFCF7EB
:103C80005AFC42464B46FCF750FCFCF71BFD6860B3
:103C900010F1FF4F02D380F000406860FCF7CEFCCB
:103CA00002901098FCF7E3FC074606EB86004FEA0B
:103CB000001A40F6FF799AFBF9F08846FCF7ADFC54
:103CC000714A724BFCF737FC43463A46FCF78CFBD3
:103CD000FCF7F8FC0646384641466B4A6B4BFCF74E
:103CE00083FB074688463046FCF7C1FC3A4643460C
:103CF000FCF7D0FC0FD29AFBF9F0FCF78EFC624A7D
:103D0000624BFCF718FCFCF7DDFC064610F1FF4F98
:103D100001D380F00046304600E09EE0FCF78EFCC8
:103D200007460298B42801DC462F04DD01202870E4
:103D300019B0BDE8F08F0EAA04A9FEF793FF9DF815
:103D40003800012809D0022815D0032841D02D21A0
:103D50008BF803108BF804101FE051496868FCF7DA
:103D6000D3FAFCF76BFC0EAA04A9FEF77BFF0699B9
:103D700058462E312FE04B496868FCF7C5FAFCF72E
:103D80005DFC0EAA04A9FEF76DFF06998BF80310DF
:103D9000059958462E31017104998BF805104FF0A2
:103DA0000008CDF81880CDF814800FAA09A938466C
:103DB000CDF81080FEF756FF9DF83C0001280DD08D
:103DC00002281CD02D218BF800108BF801107521D2
:103DD00027E006995846C1700599DCE7304930461E
:103DE000FCF792FAFCF72AFC0FAA09A9FEF73AFFA2
:103DF0000B9958462E318BF800100A990FE029498B
:103E00003046FCF781FAFCF719FC0FAA09A9FEF766
:103E100029FF0B998BF800100A9958462E314170F2
:103E200009998BF80210CDF82C80CDF82880DDE9B7
:103E3000007188463046FCF71AFC064689466868D9
:103E4000FCF715FCCDE90069CDE9027802460B4686
:103E500015A0FFF74FF900273E46192000F0EBFCB4
:103E6000D1E600003333B33FCDCC4C3F900000206F
:103E7000954F000874696D65723100005011002083
:103E8000053411363CBDB23F9A9999999999B93F39
:103E900000C067409A9999BE3C4ED1915CFEF13FBB
:103EA0000000C842000020416375723A0920252EA7
:103EB000336620092041200920766F6C3A20252E98
:103EC0003366205620204572723A20252E33660D27
:103ED0000A0000001CB50F482F210F4A4170002135
:103EE000817042F21070CDE900010B460BA10D4824
:103EF00000F06EFE0B4800F083FE064C143C607828
:103F0000012804D0034800BFFCF7F8FEF7E701489A
:103F10000838F9E798000020C14F000874696D6502
:103F2000723200007C1100207FB5FEF713F8FEF717
:103F3000EAFEFEF725FEFEF7EFFDFEF75BFEFEF75D
:103F400087FDFEF7B7FDFEF761FD142503204FF452
:103F500080641D49CDE90014CDE9020500231B4A08
:103F60001BA11D4800F0E8FC1B4800F041FD0520A6
:103F7000CDE902051949CDE9001417480023184A74
:103F800018A1783000F0D8FC1348783000F030FDEC
:103F90000420CDE902051549CDE900140A480023A3
:103FA000134A14A1783800F0C7FC0748783800F0AD
:103FB0001FFD00F039FC00F03DFC11A0FFF79AF85E
:103FC00004B0002070BD0000500500206D3B0008CB
:103FD0006C65643000000000E803002050090020F8
:103FE000D53E00086C65643100000000500D0020D3
:103FF000890C000843414E5F53656E640000000069
:10400000496E6974204F6B0D0A00000010B500F076
:10401000C7F8BDE81040FFF787BF00002DE9F04F5B
:1040200085B09946DDE90EA5109C630602D5DFF840
:1040300014C103E0DFF80CC1ACF1110CE30601D5AB
:1040400024F00104E30701D0302300E02023002600
:104050000493A3070BD5002A02DA2D26524206E06C
:10406000630701D52B2602E0230700D52026002375
:104070004FF0300EEB461AB98DF800E001230CE04A
:10408000B9F10A0F14D002F00F0812091CF80880C9
:104090000BF803805B1C002AF2D1AB4200DD1D4609
:1040A000AAEB050214F0110F4FF0200708D015E01D
:1040B0000A27B2FBF7F807FB1828B2FBF7F2E5E78F
:1040C0003EB1002A05DD521E03E0884200D8077089
:1040D000401CB2F1000CA2F10102F6DC26B18842CC
:1040E00001D80670521E401CE40605D508E088423F
:1040F00001D8049C0470401C141EA2F10102F6DCDD
:1041000074462E466D1E9E420ADD884200D8047019
:10411000401CF6E7884201D8E55C0570401C00E0D1
:104120005C461D1EA3F10103F4DC03E0884200D8C5
:104130000770401C131EA2F10102F7DC05B0BDE8B8
:10414000F08F0000DD5000081FB50A4C0222142336
:10415000D101A4F580708DE80F000023064A07A165
:10416000204600F0E9FB04B02046BDE8104000F016
:104170003FBC0000B80100200D4000086D61696E71
:104180000000000070B5044C044D02E02068804738
:10419000241DAC42FAD370BD0C5100081051000828
:1041A00070B5044C044D02E020688047241DAC42E9
:1041B000FAD370BD105100081451000810B5FBF778
:1041C0009FFF044A5188491C5180BDE81040FBF70D
:1041D0009BBF00005800002010B5FBF791FF094974
:1041E0004A88521E12B24A80002A07DC00224A8006
:1041F000FBF78AFFBDE8104000F0FCB9BDE81040B5
:10420000FBF782BF580000202DE9F041FEF7B8FD12
:10421000114864254FF0807604680022B4FBF5F164
:104220000723491E4FF0E020B14206D241610B4FF7
:10423000F02187F8141D82610361B4FBF5F1491E7A
:10424000B14205D2064C4161FF21217003618261B8
:10425000BDE8F041FFF796BFA40000200FE000E0AA
:1042600023ED00E07047000070B50546041D2B48A3
:10427000016819B12846884700284DD028A0E16B75
:1042800000F024F92AA0216A00F020F92CA0616A2C
:1042900000F01CF92EA0A16A00F018F930A0E16A24
:1042A00000F014F932A0216800F010F934A0616820
:1042B00000F00CF936A0A16800F008F938A0E16818
:1042C00000F004F93AA0216900F000F93CA061690E
:1042D00000F0FCF83EA0A16900F0F8F840A0E16908
:1042E00000F0F4F842A0216B00F0F0F844A0616BFC
:1042F00000F0ECF846A0A16B00F0E8F82878400741
:1043000006D500F04FFB014645A000F0DFF802E0C3
:104310004BA000F0DBF8FEE770BD000000000020BD
:104320007073723A203078253038780A0000000027
:104330007230303A203078253038780A000000009A
:104340007230313A203078253038780A0000000089
:104350007230323A203078253038780A0000000078
:104360007230333A203078253038780A0000000067
:104370007230343A203078253038780A0000000056
:104380007230353A203078253038780A0000000045
:104390007230363A203078253038780A0000000034
:1043A0007230373A203078253038780A0000000023
:1043B0007230383A203078253038780A0000000012
:1043C0007230393A203078253038780A0000000001
:1043D0007231303A203078253038780A00000000F9
:1043E0007231313A203078253038780A00000000E8
:1043F0007231323A203078253038780A00000000D7
:10440000206C723A203078253038780A000000009D
:104410002070633A203078253038780A0000000098
:1044200068617264206661756C74206F6E207468B8
:10443000726561643A2025730D0A0D0A00000000C0
:1044400068617264206661756C74206F6E206861AB
:104450006E646C65720D0A0D0A00000070B50446AA
:10446000121D22F007000022094D403840F822506A
:10447000521C102AFAD301620021416281624FF07E
:10448000807200F13005C263C16285E81A0070BD18
:10449000EFBEADDE10B5FBF733FE044A1178491CC0
:1044A0001170BDE81040FBF72FBE00001400002083
:1044B00010B5FBF725FE044A1178491E1170BDE8BE
:1044C0001040FBF721BE0000140000200FB47F2134
:1044D00010B503AB0448029A00F0F0FB0248FFF766
:1044E000C1FE10BC5DF814FB280300200268516077
:1044F00002680A60016048607047026851600268A3
:104500000A60016048607047D0E900124A60D0E953
:1045100000121160406000607047000010B5034653
:10452000CCB2042A1AD3810718D1194644EA0423CD
:1045300043EA034306E008C1103A08C141F8083BCA
:1045400041F8043C102AF6D201E008C1121F042AE7
:10455000FBD20B4602E000BF03F8014B521EFBD218
:1045600010BD10B50446FBF7CBFDF4E903124A6019
:10457000D4E90012116064602460BDE81040FBF7CC
:10458000C3BD0000074A002102EB01131B788342E0
:1045900002D102EB01107047491C0429F4DB002012
:1045A00070470000180000202DE9F041044617462E
:1045B0000E460846FFF7E6FF054646F080002072EB
:1045C00008223946204600F0EDF8FBF799FD55F832
:1045D000041F0C344C60296821602C606560BDE8C4
:1045E000F041FBF791BD007A000601D5012070472C
:1045F0000020704770B5FBF783FD114C05466088BD
:10460000B0B9A068FEF786FD0E49401E626851F8F9
:104610003010143991420BD020700B486160007843
:1046200001F11C01002802F11C0006D0FBF76FFD10
:104630002846BDE87040FBF767BDFBF768FDF7E76C
:1046400058000020A80300201400002010B50446E4
:10465000FBF756FD024694F834000E4920F00F0097
:10466000401C84F8340094F8350001EBC00104F1DB
:1046700014004B6818604B68A3614860064861618C
:10468000A16B836819438160BDE810401046FBF7B9
:104690003BBD0000A80300205800002010B50446D0
:1046A000FBF72EFD04F11401D1E900235360D1E999
:1046B00000231A60A161616194F83520074951F81F
:1046C000323001EBC2018B4204D10549A36B8A68E9
:1046D0009A438A60BDE81040FBF716BDA80300208E
:1046E0005800002008B509A0FFF7F0FE0AA0FFF768
:1046F000EDFE12A0032300900022194612A0FFF73E
:10470000E5FEBDE8084018A0FFF7E0BE0A205C20E7
:104710007C202F0A000000002D205254202D202044
:10472000202020546872656164204F706572617446
:10473000696E672053797374656D0A004D6172204C
:104740003131203230313900202F207C205C202074
:1047500020202025642E25642E2564206275696C36
:10476000642025730A0000002032303036202D20CE
:104770003230313820436F70797269676874206213
:10478000792072742D746872656164207465616D3E
:104790000A000000014600E0491C0A78002AFBD10B
:1047A000081A704710B5002A07D0034611F8014BCC
:1047B00003F8014B2CB1521EF8D110BD03F8011BB8
:1047C00000E00021521EF9D110BD000010B50A49C9
:1047D00000230A4C4B80184604EBC002401C526078
:1047E00012600828F8DB0720087003484B600C3083
:1047F0008B604060006010BD58000020A8030020BE
:1048000010B5074CA068FEF785FC0649401E51F81C
:10481000300014386060BDE810401C30FBF7A5BCC8
:1048200058000020A8030020014840600060704745
:1048300070000020704700F0BBB8000070B513484E
:104840000468FBF75DFC05462046FFF727FF0420C0
:1048500084F8340004F1440000F0AAF92046FFF780
:10486000C2FE012801D1206F58B104F1140108489B
:10487000FFF73CFE2846FBF747FCBDE87040FFF71A
:10488000B9BE2046FFF76DFEF4E700005C00002093
:104890006400002000F002F8FCE7000070B521E0A1
:1048A000FBF72EFC0546FEF719FD10B3134801680F
:1048B000A1F11404D1E900024260D1E900021060C4
:1048C00049600960FFF77AFC216F09B120468847EB
:1048D0002046FFF788FE012809D0FFF77DFC284617
:1048E000FBF712FCFEF7FAFC0028D9D170BDFFF7E8
:1048F00073FC2846BDE87040FBF706BC640000204E
:104900001FB509482023072280218DE80F000023CE
:10491000064A07A1783800F00FF804B00248BDE855
:104920001040783800F064B8A802002095480008CC
:104930007469646C650000002DE9FF5F92460EAA61
:104940000C4692E8E0010A46994683460021FFF7AB
:104950002BFE8DE8E0014B46524621465846FFF7B4
:104960005FF804B0BDE8F09F70B5044690F83400DD
:1049700000F00F00022802D04FF0FF3070BDFBF7AF
:10498000BFFB054604F11400FFF7BEFD04F144002F
:1049900000F07CF92846FBF7B7FB2046FFF756FEF0
:1049A000002070BD01480068704700005C000020D6
:1049B000F1B5FBF7A5FB05460C480468204600F05E
:1049C0002DF804F144006A460021064600F0D8F8AC
:1049D000304600F015F92846FBF796FBFFF70AFE74
:1049E000206B801C00D120630020F8BD5C000020FB
:1049F00010B590F83610012280F835108A40022157
:104A0000826380F83410FFF7AFFF0348006808B1F5
:104A1000FFF7F0FD002010BD5C00002070B50446DB
:104A200090F8340000F00F00012802D04FF0FF3062
:104A300070BDFBF765FB054694F8340020F00F00CD
:104A4000801C84F834002046FFF728FE04F144005F
:104A500000F01CF92846FBF757FB002070BD10B58D
:104A600004466FF00100206304F11400FFF74CFDD1
:104A70002046FFF7EBFDBDE81040FFF7BBBD00008F
:104A800070B5FBF73DFB06461348046894F8340004
:104A900000F00F00012819D1D4E90501884215D092
:104AA00004F114000546FFF72FFD94F835000B497B
:104AB00001EBC00041680D60416869604560286095
:104AC0003046FBF721FBFFF795FD02E03046FBF790
:104AD0001BFB002070BD00005C000020A80300202C
:104AE000014800687047000010000020094810B518
:104AF0000168491C0160FFF755FF016C491E016404
:104B000003D1C16B0164FFF7BBFFBDE8104000F0AB
:104B100003B80000100000202DE9F041FFF7E0FF8E
:104B20000646FBF7EDFA0746144D1EE060696FF08C
:104B30000041301A143C88421AD22046FEF7B0FFDA
:104B4000D4E907108847FFF7CBFF0646607A810754
:104B500008D5C10706D020F001006072204600F0A1
:104B60004FF802E020F0010060722C68AC42DDD109
:104B70003846BDE8F041FBF7C7BA000070000020DE
:104B800049B1012904D0022908D003290ED109E036
:104B9000406A10600AE01168416207E0417A21F042
:104BA000020102E0417A41F00201417200207047A7
:104BB00070B50546FBF7A4FA04462846FEF770FFD9
:104BC0002046FBF7A1FA2846FFF7CBFC002070BD7A
:104BD0002DE9F0411746DDE906580A461E4604460F
:104BE0000921FFF7E1FC28F0010161720021C4E90D
:104BF0000951C4E90776143464602460BDE8F0818B
:104C0000F8B50446FBF77CFA05462046FEF748FF58
:104C1000607A20F0010060722846FBF775FAFFF712
:104C20005FFF616A0844A062FBF76AFA0546164A0C
:104C30000020009202EBC002694653686FF0004CFE
:104C40005DF820200BE01268A2EBC0067769A66A27
:104C5000B74202D0BE1B664503D341F820209A42DA
:104C6000F1D10948001F0168491C016004F11401D9
:104C70000098FFF742FC607A40F00100607228461D
:104C8000FBF742FA0020F8BD7000002070B5044622
:104C9000407AC0070ED0FBF733FA05462046FEF7F0
:104CA000FFFE2846FBF730FA607A20F001006072C0
:104CB000002070BD4FF0FF3070BD00002DE9FF4FA8
:104CC000471804467F1E83B080464FF0FF394FF0EF
:104CD000200A4FF0250BA74200D24F4608E12528B5
:104CE00003D0BC4200D8207081E000260599491C01
:104CF000059108782D2811D02B2812D0202813D008
:104D0000232814D0302815D00A784D46303A0A2A84
:104D100013D205A800F029F905461AE046F010065E
:104D2000E4E746F00406E1E746F00806DEE746F071
:104D30002006DBE746F00106D8E72A2809D10698C5
:104D4000491C059120C80690002D02DA6D4246F0FC
:104D50001006CDF80090059801782E2918D1401C36
:104D600005900178A1F130020A2A04D205A800F0CA
:104D7000FCF8009008E02A2908D1401C059006980C
:104D800002C8069000910846002801DA0020009031
:104D9000059A00201178682901D06C2902D1521C93
:104DA0000846059211780A236F296ED00CDC63291E
:104DB0001FD004DC252979D058290DD17FE0642942
:104DC00001D0692908D17EE0702960D073292CD0E8
:104DD00075297AD0782974D0BC4201D884F800B003
:104DE0000598641C0178D1B3BC4200D82170641CC2
:104DF0007BE0F00608D450466D1E002D04DDBC4259
:104E000000D82070641CF7E70698BC4210F8041B19
:104E1000069000D82170504602E0BC4200D82070B5
:104E2000641C6D1E002DF8DC5FE0069808C8069033
:104E300003B93DA31846FFF7ADFC0099002902DD38
:104E4000884200DD0846F1060AD451462A466D1E06
:104E5000824205DDBC4200D82170641CF6E750E0B8
:104E6000002106E0BC4201D81A782270491C5B1C64
:104E7000641C8142F6DB524629466D1E814234DDB8
:104E8000BC4200D82270641CF6E716E00EE0681CF5
:104E900002D1082546F0010600980296CDE900509F
:104EA00006981023394604C806901AE0BC429ED8E2
:104EB00084F800B09BE708E003E0082305E046F033
:104EC0004006102301E046F002066C2801D0682855
:104ED0001AD0069804C8069000983946CDE90050CB
:104EE00002962046FFF79AF804460598401C059064
:104EF0000598007800287FF4F2AEBC420DD82070EF
:104F00000CE0401E0590F0E7069830F8041B069070
:104F10008AB2B007E0D512B2DEE7387007B0A4EB72
:104F20000800BDE8F08F0000284E554C4C290000C9
:104F30000020704700207047002070470020704715
:104F400010B5FBF7DDF8FFF75FF9FFF7CBFBFFF7D5
:104F50006BFCFFF73BFCFFF7F7F8FFF76BFCFFF785
:104F6000CFFCFFF74DFC002010BD10B5014600201E
:104F70006FF02F0307E0541C0C60127800EB8000E8
:104F800003EB400010440A681478303C0A2CF2D33A
:104F900010BD000002484168816002A0FEF7AAB877
:104FA00084000020706572696F6469632074696DA4
:104FB00065722069732074696D656F75740A0000ED
:104FC0000149012048707047840000200000010062
:104FD00002000100030001000200010004000100C2
:104FE00002000100030001000200010005000100B1
:104FF00002000100030001000200010004000100A2
:10500000020001000300010002000100060001008F
:105010000200010003000100020001000400010081
:105020000200010003000100020001000500010070
:105030000200010003000100020001000400010061
:10504000020001000300010002000100070001004E
:105050000200010003000100020001000400010041
:105060000200010003000100020001000500010030
:105070000200010003000100020001000400010021
:10508000020001000300010002000100060001000F
:105090000200010003000100020001000400010001
:1050A00002000100030001000200010005000100F0
:1050B00002000100030001000200010004000100E1
:1050C0000200010003000100020001003031323310
:1050D00034353637383961626364656600303132A1
:1050E00033343536373839414243444546000000B1
:1050F0000000000000000102030406070809000088
:1051000000000102030400003D4F0008354F000875
:10511000314F0008394F00083851000800000020C6
:10512000B400000058310008EC510008B400002021
:105130008416000068310008000000000000000034
:10514000000000000000000000000000000000005F
:10515000000000001C0000201C000020780000005F
:10516000010000002C0000202C0000202000000086
:10517000040000003C0000203C0000203000000043
:10518000090000004C0000204C0000202C00000012
:10519000000000000000000000000000000000000F
:1051A00000000000000000000000000000000000FF
:1051B00001000000100000000000000000000000DE
:1051C00000000000000000002020202020202020DF
:1051D000722020686F6E6F000000000000A24A0479
:0C51E000010204081020408000000000C4
:04000005080000ED02
:00000001FF
