:020000040800F2
:10000000480500209D0100085F190008CF16000870
:100010005D190008090500086521000800000000BE
:10002000000000000000000000000000831900082C
:100030000B05000800000000811900088519000860
:10004000B7010008B7010008B7010008B7010008B0
:10005000B7010008B70100080D050008B701000846
:10006000B7010008B7010008B7010008B701000890
:10007000B7010008B7010008B7010008B701000880
:10008000B7010008B7010008B7010008B701000870
:10009000B7010008B7010008B7010008B701000860
:1000A000B7010008B7010008B7010008B701000850
:1000B000B7010008891A0008B7010008B701000855
:1000C000B7010008B7010008B7010008B701000830
:1000D000B7010008B7010008B7010008B701000820
:1000E000B7010008B7010008B7010008B701000810
:1000F000B7010008B7010008B7010008B701000800
:10010000B7010008B7010008DD1A0008B7010008B0
:10011000B7010008B7010008B7010008B7010008DF
:10012000B7010008B7010008B7010008B7010008CF
:10013000B7010008B7010008B7010008B7010008BF
:10014000B7010008B7010008B7010008B7010008AF
:10015000B7010008B7010008B7010008B70100089F
:10016000B7010008B7010008B7010008B70100088F
:10017000B7010008B7010008B7010008000000003F
:10018000B7010008B7010008DFF80CD000F0AAF9A9
:10019000004800470525000848050020064880471C
:1001A00006480047FEE7FEE7FEE7FEE7FEE7FEE75C
:1001B000FEE7FEE7FEE7FEE7351A000889010008C2
:1001C0002DE9F05F0546002092469B46884606468C
:1001D000814640241BE0284641464746224600F01F
:1001E000DDF853465A46C01A914110D311461846BD
:1001F000224600F0C4F82D1A67EB01084F4622464C
:100200000120002100F0BBF817EB00094E41201E31
:10021000A4F10104DFDC484631462A464346BDE8E6
:10022000F09F2DE9F04D81EA030404F0004B21F02A
:10023000004514464FF0000A23F0004150EA050241
:1002400020D054EA01021DD0C5F30A570246C5F377
:100250001303C1F31300C1F30A5640F4801543F4AD
:100260008013A7EB0608101BD64608F2FD3873EB87
:10027000050002D308F1010801E092185B41B8F1D2
:10028000000F03DA00200146BDE8F08D00204FF496
:100290008011064684460EE0171B73EB050705D355
:1002A000121B63EB050306434CEA010C49084FEAB5
:1002B000300092185B4150EA0107EDD152EA030089
:1002C00012D082EA040083EA0501084305D0101B1E
:1002D000AB4106D20122002306E000224FF000438A
:1002E00002E06FF0010253101AEB06004CEB0851CC
:1002F00010EB0A0041EB0B01BDE8F04D00F095B8A2
:100300000EB540F2334102910021CDE900110A46B9
:100310000B4600F099F803B000BD01F0004330B483
:1003200021F0004150EA010206D00A0DA2F56072E8
:10033000C1F31301002A02DC30BC00207047440FD7
:1003400044EAC104C100E01830BC00EBC25000F028
:1003500035B830B50B46014600202022012409E0C3
:1003600021FA02F59D4205D303FA02F5491B04FA6E
:1003700002F52844151EA2F10102F1DC30BD202A4D
:1003800004DB203A00FA02F1002070479140C2F1EC
:10039000200320FA03F3194390407047202A04DB1E
:1003A000203A21FA02F00021704721FA02F3D040EE
:1003B000C2F1200291400843194670470029A8BFA6
:1003C0007047401C490008BF20F00100704710B47E
:1003D000B0FA80FC00FA0CF050EA010404BF10BC33
:1003E000704749B1CCF1200421FA04F411FA0CF160
:1003F00018BF012121430843A3EB0C01CB1D4FEA99
:1004000000614FEA102042BF002010BC704700EB93
:10041000C35010440029A4BF10BC7047401C4900C1
:1004200008BF20F0010010BC704710B5141E73F116
:10043000000408DA401C41F1000192185B411A43A4
:1004400001D120F0010010BD2DE9F04D92469B46F0
:1004500011B1B1FA81F202E0B0FA80F22032904696
:10046000FFF78DFF04460F4640EA0A0041EA0B0100
:1004700053465A46084313D0114653EA010019D097
:10048000C8F140025046FFF789FF05460E46504628
:1004900059464246FFF773FF084305D0012004E0A8
:1004A00020463946BDE8F08D0020054346EAE07657
:1004B0002C4337430A986305E40AA0EB08000022A6
:1004C000FD0A44EA47540A3002D500200146E9E714
:1004D000010510196941DDE9084500196941BDE8C8
:1004E000F04DA2E7064C074D06E0E06840F001033E
:1004F00094E8070098471034AC42F6D3FFF748FE63
:100500002027000840270008FEE77047012000F080
:100510000FB831B500F0FAF8009C0546601C00D019
:10052000641C00F0F3F8401BA042FAD338BD7047BA
:10053000044910B50A68024202D00860FFF7F7FFCD
:1005400010BD0000143C01402DE9F84FDFF87CB1EC
:1005500000224FF001084FF0030A4FF00F090BF192
:10056000040E00BF0B6808FA02F42340A3426ED1C8
:100570004D68022D01D0122D0ED1D50800EB850C4F
:10058000DCF820505607F70E09FA07F6B5430E6956
:10059000BE402E43CCF82060066855000F790AFA59
:1005A00005FC07F0030726EA0C06AF403743076057
:1005B0004E68012E05D0022E03D0112E01D0122E2E
:1005C0000ED18668CF6826EA0C06AF4037438760B5
:1005D0004668A6430C79C4F3001494403443446045
:1005E000C6688C6826EA0C06AC403443C4604C688C
:1005F000E40065D5364C256845F4804525602468BF
:1006000022F0030504F480440094324C2E19D6F8ED
:10061000084895072F0F09FA07F5AC432E4DA8425D
:1006200001D1002524E02D4DA84201D101251FE074
:100630002B4DA84201D102251AE02A4DA84201D132
:10064000032515E0284DA84202D1042510E037E02B
:10065000264DA84201D105250AE0254DA84201D129
:10066000062505E0234DA84201D1072500E0082515
:10067000BD402543C6F80858DBF800405D464E688B
:100680009C43F60300D51C432C60DEF80040754601
:100690004E689C43B60300D51C432C600B4D0835B7
:1006A0002C684E689C43F60200D51C432C60074D15
:1006B0000C352C684E689C43B60200D51C432C6058
:1006C000521C102AFFF44EAFBDE8F88F003C0140E9
:1006D0004438024000300140000002400004024063
:1006E00000080240000C02400010024000140240CA
:1006F00000180240001C024042694A4042617047B3
:100700000AB1816170470904FBE7000001480068F5
:10071000704700000400002002480168491C016085
:1007200070470000040000200B4810B5016841F438
:1007300000710160016841F480610160016841F469
:1007400080710160032000F075F8002000F006F8C9
:1007500000F018F8002010BD003C024010B504461F
:1007600007484FF47A710068B0FBF1F000F0E7FA47
:1007700000222146501E00F03DF8002010BD000070
:100780000000002010B5032000F054F800221146AC
:100790006FF00B0000F02EF8002211466FF00A00F7
:1007A00000F028F8002211466FF0090000F022F84E
:1007B00000221146501F00F01DF800221146101FA4
:1007C00000F018F800221146901E00F013F80022E5
:1007D000BDE810401146501E00F00CB800F01F029A
:1007E000012191404009800000F1E020C0F8001193
:1007F00070470000F0B40E4B1B680C46C3F3022395
:10080000C3F10705042D00D90425191D072901D2BC
:10081000002300E0DB1E012606FA05F1491E2140F7
:1008200099409E40761E16403143F0BC01F098B8C6
:100830000CED00E0064900F0070208684FF6FF03E0
:10084000184040EA0220034A104308607047000045
:100850000CED00E00000FA052DE9F0470E4605001A
:1008600065D0DFF81481D8F80000F7B200F00F006F
:10087000B04207D288F80070D8F8000000F00F00EE
:10088000B04254D128683D4C810712D5400703D5AA
:10089000206840F4E05020602878000703D52068E5
:1008A00040F4604020602068A96820F0F000084310
:1008B00020602878C0072DD03049686808390128A1
:1008C00012D0022813D0032811D009688907002903
:1008D0002DDA216821F0030101432160FFF716FFA3
:1008E000814641F2883A0EE009688903EFE709681A
:1008F0008901ECE7FFF70AFFA0EB0901514502D996
:100900000320BDE8F0872068696800F00C00B0EBB8
:10091000810FEFD1D8F80010404601F00F01B1422D
:1009200007D90770006800F00F00B04201D0012025
:10093000E7E72878400705D52068E96820F4E0500B
:10094000084320602878000706D52068296920F42C
:10095000604040EAC100206000F03CF82168084A8D
:10096000C1F30311515CC840064908600020FFF73D
:10097000F5FE0020C5E70000003C024008380240B8
:10098000B8260008000000200148006870470000F9
:10099000000000200448054900680968044AC1F3C2
:1009A0008221515CC8407047000000200838024096
:1009B000C82600080448054900680968044AC1F3CC
:1009C0004231515CC84070470000002008380240A6
:1009D000C8260008154810B5006810F00C0214482D
:1009E00013D04110042A0FD0082A0ED10F4C241F17
:1009F0002268236802F03F025B0207D52068C0F33B
:100A00008810A0FB010106E0084610BD2168C1F373
:100A10008811A1FB00010023FFF7D2FB2168C1F37D
:100A20000141491C4900B0FBF1F010BD08380240FB
:100A30000024F4002DE9F84F050071D0DFF8D092C2
:100A40002878A9F1040BC007ABF104044AD0D9F807
:100A500000104846C1F38101012908D00068C0F3A5
:100A6000810002280AD1DBF80000400206D5206888
:100A7000800337D568680028DFD033E06868B0F5B8
:100A8000803F10D0B0F5A02F206810D020F4803027
:100A90002060206820F4802020606868A8B1FFF7FB
:100AA00035FE06460DE0206840F48030F4E740F45F
:100AB00080202060F7E700BFFFF728FE801B642836
:100AC00073D820688003F7D50CE0FFF71FFE0646B9
:100AD00005E000BFFFF71AFE801B6428F0D82068ED
:100AE0008003F7D428788B4F80074FF0010A4FF02E
:100AF00000083DD5D9F80010484611F00C0F08D079
:100B00000068C0F3810002280BD1DBF8000040022E
:100B100007D42068800715D5E868012800D111E0C6
:100B2000F3E0E868B0B1C7F800A0FFF7EFFD0646B4
:100B300005E000BFFFF7EAFD801B022835D82068DA
:100B40008007F7D52068296920F0F80040EAC10045
:100B500020600DE0C7F80080FFF7D8FD064604E0EE
:100B6000FFF7D4FD801B02281FD820688007F7D428
:100B70002878000724D56848696981B1C0F800A0C9
:100B8000FFF7C4FD064604E0FFF7C0FD801B022806
:100B90000BD85F486C3000688007F5D510E0C0F8CE
:100BA0000080FFF7B3FD064605E074E0FFF7AEFDF9
:100BB000801B02286FD856486C3000688007F5D437
:100BC0002878400753D552483830016841F08051A9
:100BD0000160006800F0805000905048016841F4C6
:100BE00080710160FFF792FD064604E0FFF78EFD7D
:100BF000801B02284FD849480068C005F6D5444EEE
:100C0000A868683601280FD00528306810D020F079
:100C100001003060306820F004003060A868B8B18E
:100C2000FFF774FD00900FE0306840F00100F4E73A
:100C300040F004003060F7E7FFF768FD0099411AC3
:100C400041F28830814258D830688007F4D50EE0F0
:100C5000FFF75CFD009007E0FFF758FD0099411A8F
:100C600041F28830814248D830688007F4D4A869BE
:100C700090B3D9F80010C1F38101022945D00228B0
:100C8000C7F8608003D0FFF741FD054638E0FFF765
:100C90003DFD064605E030E0FFF738FD801B0228E9
:100CA0002BD820688001F7D4D5E907010843A96A49
:100CB0001B4A490802EB01416A6A41EA8211084372
:100CC00095F82C1040EA0161CBF80010C7F860A03D
:100CD000FFF71CFD054606E015E000BFFFF716FD17
:100CE000401B022809D820688001F7D50BE000BF1F
:100CF000FFF70CFD401B022802D90320BDE8F88F46
:100D000020688001F4D40020F8E70120F6E7000015
:100D10000838024000004742800E47420070004001
:100D20000000FFFF4FF0E0210428086903D020F005
:100D300004000861704740F00400FAE7704710B5FE
:100D4000401EB0F1807F01D3012010BD4FF0E024A0
:100D500060610F21601700F003FE0020A0610720F2
:100D60002061002010BD10B5FFF7E8FF10BD7047EF
:100D7000704730B590F83820012A20D0012280F841
:100D80003820022380F8393003685C6824F070044E
:100D90005C6003685C680D682C435C6003689C6859
:100DA00024F080049C6003689C6849680C439C6044
:100DB00080F83920002180F83810084630BD022024
:100DC00030BD10B5040003D094F8390010B107E02D
:100DD000012010BD002084F83800204600F00CF8F7
:100DE000022084F83900211D206800F07DFE0120DA
:100DF00084F83900002010BD08B5114A0168114877
:100E0000914211D1016841F00201016000680022A5
:100E100000F00200009011461D20FFF7EBFCBDE83A
:100E200008401D20FFF7DABC074A914207D101684C
:100E300041F480710160006800F48070009008BD8A
:100E400000040040403802400020004070B50446D5
:100E500090F83800012817D0012584F83850022076
:100E600084F839002068826822F0770222F47F42F9
:100E700082600868502837D00DDC202859D005DC66
:100E800088B3102841D151E0022070BD302853D0E2
:100E900040283AD13FE060282ED070280BD0B0F522
:100EA000805F03D0B0F5005F2FD110E0206881682B
:100EB00021F0070115E0CB68D1E90121206800F09D
:100EC0007EFE2168886840F0770088601DE0CB686E
:100ED000D1E90121206800F072FE2068816841F4A8
:100EE0008041816011E01EE0CA684968206800F016
:100EF0002FFF5021206806E0CA684968206800F08A
:100F00007BFF6021206800F064FE84F839500020E7
:100F100084F8380070BDCA684968206800F018FF7E
:100F200040212068EFE700212068ECE710212068CD
:100F3000E9E720212068E6E730212068E3E70000A8
:100F400070B51C4C2078010613D41B4D41064FF69A
:100F5000F5760FD540F0800020700021284600F083
:100F6000DFFA60602868016A314001622868016A1E
:100F7000016270BD00214020616020702868026A13
:100F800041F211131A4207D1026A9B101A4203D18F
:100F9000026822F001020260286841622868016A42
:100FA000314001622868016A0162016841F0010173
:100FB000016070BD08000020C80000202DE9F0414C
:100FC000044690F838000D4601283DD0012684F8EB
:100FD0003860022084F83900AAB3042A46D0206879
:100FE000082A55D0D5E90027E968036A23F480531D
:100FF0000362D0F81CC0036A2CF4407C4CEA07273B
:101000004FF6FF7C27F470470CEA013139434FF467
:10101000204723F4204307EA02321A43C1610262E7
:101020002068C16921F44061C1612068C169AA6872
:1010300041EA0221C0F81C1084F83960002084F8CD
:101040003800BDE8F08101E00220FAE7D5E900129E
:10105000EB68206800F08EFE2068816921F00C01A9
:10106000816120688169AA6811430FE0D5E9001207
:10107000EB68206800F0D2FE2068816921F44061AD
:10108000816120688169AA6841EA02218161D3E710
:10109000D5E9002C2F7B016A21F480710162C169BE
:1010A000036A21F0030141EA0C0121F0F00C390739
:1010B0004FF420674CEA116123F4206307EA02220F
:1010C0001A43C16102622068C16921F00C01C1614B
:1010D0002068C169AA681143ACE710B5040003D0C9
:1010E00094F8390010B107E0012010BD002084F809
:1010F0003800204600F00CF8022084F83900211D49
:10110000206800F0F1FC012084F83900002010BDB7
:10111000194800B5016887B041F008010160016815
:1011200001F008010591016841F0020101600068C9
:1011300000F00200059010481038016841F00101EC
:1011400001600068032100F001000590012000907B
:101150000220CDE902010190049069460748FFF79B
:10116000F3F9002202213220FFF744FB3220FFF77F
:1011700035FB07B000BD00004038024000000240CF
:1011800010B50268044631B1042908D0082915D0E9
:101190000C2908D116E0D06840F0020002E0D068C7
:1011A00040F00400D0600122206800F0FDFC2068BF
:1011B000016841F001010160002010BDD06840F0DD
:1011C0000800EFE7D06840F01000EBE770B5044688
:1011D000006801694FF00005C943890715D4C1684B
:1011E000C943890711D4E91E0161012020762068D6
:1011F00080698007204602D0FFF7A2FE04E000F0DD
:10120000C3F8204600F058F9257620680169C943E3
:10121000490717D4C168C943490713D46FF00401C3
:101220000161022020762068806910F4407F20460A
:1012300002D0FFF785FE04E000F0A6F8204600F09B
:101240003BF9257620680169C943090716D4C168AE
:10125000C943090712D46FF0080101610420207608
:101260002068C0698007204602D0FFF769FE04E0CD
:1012700000F08AF8204600F01FF925762068016901
:10128000C943C90617D4C168C943C90613D46FF04E
:1012900010010161082020762068C06910F4407FA9
:1012A000204602D0FFF74CFE04E000F06DF8204627
:1012B00000F002F9257620680169C943C90708D101
:1012C000C168C943C90704D1891E0161204600F0E5
:1012D00011F920680169C943090609D4C168C943E5
:1012E000090605D46FF0800101612046FFF73FFD3C
:1012F00020680169C943490609D4C168C943490640
:1013000005D46FF040010161204600F02BF9206800
:101310000169C94389060BD4C168C943890607D44A
:101320006FF0200101612046BDE87040FFF720BD4D
:1013300070BD000000B5104B02680021022085B08E
:101340009A4208D140220092CDE90101CDE9031073
:1013500069460A480BE00A4B9A420AD1521500929C
:10136000CDE9010103900920049069460548FFF783
:10137000EBF805B000BD000000080040000402408A
:101380000020004000140240704770B5044690F8F9
:1013900038000D4601280DD0012684F8386002205F
:1013A00084F8390042B1042A18D0082A2AD00C2A1D
:1013B0004DD139E0022070BD206800F013FC206898
:1013C000816941F0080181612068816921F004018F
:1013D0008161206881692A69114311E0206800F069
:1013E0002DFC2068816941F4006181612068816978
:1013F00021F480618161206881692A6941EA0221C2
:10140000816124E0206800F04BFC2068C16941F054
:101410000801C1612068C16921F00401C16120682F
:10142000C1692A69114311E0206800F069FC206855
:10143000C16941F40061C1612068C16921F4806122
:10144000C1612068C1692A6941EA0221C16184F849
:101450003960002084F8380070BD10B5040003D056
:1014600094F8390010B107E0012010BD002084F885
:101470003800204600F00CF8022084F83900211DC5
:10148000206800F031FB012084F83900002010BDF5
:1014900008B500680649884208D10648016841F04D
:1014A00004010160006800F00400009008BD000025
:1014B00000080040403802407047000010B5044664
:1014C0000068012200F070FB08492068884202D0C1
:1014D0000749884203D1416C41F4004141642068CE
:1014E000016841F001010160002010BD00000140D1
:1014F0000004014009490878020606D4420604D5D2
:10150000C243920602D0401C0870704740F0800031
:1015100008704FF0FF30486070470000080000205E
:1015200090F838300022012B0AD0012380F838309F
:1015300041B1042909D008290AD00C290DD10AE0AB
:101540000220704701684A6B07E001688A6B04E07B
:101550000168CA6B01E001680A6C002180F838104C
:1015600010467047704770B5040004D094F83900F5
:10157000002510B106E0012070BD84F838502046E7
:1015800000F022F8242084F839002068C16821F492
:101590000051C160204600F05DFC2068016921F423
:1015A000904101612068416921F02A014161206870
:1015B000C16841F40051C160E563202084F839001E
:1015C00084F83A00002070BD00B500680E4987B06D
:1015D000884217D10D48016841F010010160006890
:1015E000694600F0100005904FF4C06000900220A2
:1015F00001900120029003200390072004900448EA
:10160000FEF7A2FF07B000BD0010014044380240C1
:10161000000002402DE9F843044690F839001F46C7
:1016200016460D46202850D1A5B19EB194F8380039
:1016300001284AD0012084F838004FF00008C4F88F
:101640003C80212084F83900FFF760F8A6848146A9
:10165000E68426E00120BDE8F883E08C401EE084AB
:10166000A0684B46B0F5805F4FF000024FF080015C
:101670002046009703D000F043FDE8B90DE000F0EC
:101680003FFDC8B928882168C0F308004860206978
:1016900008B16D1C05E0AD1C03E0216815F8010BD5
:1016A0004860E08C0028D8D14B46002240212046DB
:1016B000009700F025FD08B10320CCE7202084F836
:1016C000390084F838800020C5E70220C3E7FEE730
:1016D00070B52F4886B00024016841F01001016008
:1016E000016801F010010591016841F004010160F9
:1016F000016801F004010591016841F020010160D9
:10170000016801F020010591016841F0800101604C
:10171000016801F080010591016841F0010101605B
:10172000016801F001010591016841F002010160C9
:101730000068184E00F002004FF48065059000220A
:1017400029463046FEF7DCFF3820CDE90004694623
:1017500011480294FEF7F8FE00950125CDE90154E9
:10176000694630460394FEF7EFFE0C480095CDE93C
:10177000010469460A48FEF7E7FE002211460620EA
:10178000FFF738F80620FFF729F806B070BD000013
:1017900030380240001402400010024000001110D6
:1017A0000000024010B5194888B01749016040F2A6
:1017B00047310024C0E9011440F2CF71C0E903149D
:1017C000FFF7FFFA18B1802111A000F0CCFC0F4800
:1017D000FFF743FE18B185210DA000F0C4FC602086
:1017E000CDE9000402940022694608480494FFF7FA
:1017F000CCFD18B18E2106A000F0B5FC0348FFF720
:1018000099FD08B010BD0000002000408C000020B1
:101810002E2E2F5372632F74696D2E63000000000B
:1018200010B5164886B014490024C0E9001484603D
:10183000C4600461FFF7C5FA18B1402110A000F0A0
:1018400092FC4FF48050009069460C48FFF7FEFA76
:1018500018B146210AA000F086FC049404A90748A8
:101860000594FFF786FA002803D04D2104A000F06C
:101870007AFC06B010BD00000004004014000020F7
:101880002E2E2F5372632F74696D2E63000000009B
:1018900010B51A488AB01849016040F24731002457
:1018A000C0E9011440F2D771C0E90314FFF7D5FD78
:1018B00018B15E2112A000F056FC079407A90F484A
:1018C0000894FFF756FA18B165210DA000F04BFC03
:1018D0006020CDE900040294002269460748049480
:1018E000FFF753FD18B16E2105A000F03CFC034842
:1018F000FFF720FD0AB010BD000800405000002096
:101900002E2E2F5372632F74696D2E63000000001A
:101910000D4810B50B4901604FF4E13141600021E1
:1019200081600C22C160C0E904128161C161FFF7CE
:101930001AFE002805D0BDE81040422103A000F0A7
:1019400012BC10BD00100140040100202E2E2F53A8
:1019500072632F75736172742E630000FEE7704727
:101960000907090E002806DA00F00F0000F1E02058
:1019700080F8141D704700F1E02080F800147047D3
:101980007047704710B5FEF7C7FEBDE81040FFF77F
:10199000EAB9000030B5254893B00025016841F050
:1019A00080510160006800F080501190204801686B
:1019B00041F4804101600068022400F480401190ED
:1019C0000120039010200490009406940820CDE993
:1019D0000750A820CDE9090404200B906846FFF7C2
:1019E00029F800B1FEE70CA90F2081E831004FF47F
:1019F000A0500F904FF48050109005210CA8FEF7D6
:101A00002BFF00B1FEE7FEF7BFFF4FF47A71B0FB8A
:101A1000F1F0FFF794F90420FFF784F90022114652
:101A2000501EFEF7E7FE13B030BD00004038024004
:101A3000007000401048016841F4700101600F48D7
:101A4000016841F0010101600C4A00210832116077
:101A500002680B4B1A400260031D0A4A1A600268B2
:101A600022F48022026005480C30016002495806C9
:101A7000803908607047000088ED00E000380240BF
:101A8000FFFFF6FE103000240148FFF79FBB000067
:101A9000140000207FB5104C00250E4AC4E9025006
:101AA0002561C4E900212046FFF717FB0120CDE99D
:101AB000005002950022694620460395FFF77EFA02
:101AC00000212046FFF75CFB2068C16841F001015E
:101AD000C1607FBD000C0040C80000200148FFF736
:101AE00075BB0000C8000020F0B50268234B244DF0
:101AF000244E254F254C4FF0804C984209D060452C
:101B000007D0A84205D0B04203D0B84201D0A042CD
:101B100004D122F0700E4A6842EA0E0298421BD0AD
:101B2000604519D0A84217D0B04215D0B84213D0A2
:101B3000A04211D0164DA8420ED0164DA8420BD08F
:101B4000154DA84208D0154DA84205D0144DA84205
:101B500002D0144DA84203D122F44075CA682A432A
:101B600002608A68C2620A688262984201D0A0421A
:101B700001D10969016301214161F0BD000001400B
:101B80000004004000080040000C00400004014038
:101B9000004001400044014000480140001800405E
:101BA000001C00400020004010B50123046A8B4057
:101BB0009C430462036A8A401343036210BD10B55C
:101BC000846842EA032224F47F440A432243826069
:101BD00010BD826822F070020A4342F00701816062
:101BE0007047000030B5026A22F001020262026A08
:101BF000436884690D6824F07304254322F00204CD
:101C00008A6822430B4CA04202D00B4CA0420BD15D
:101C100022F00804CA6823F4407322434C6922F07E
:101C200004021C438B692343436085614968416317
:101C3000026230BD000001400004014030B5026A7C
:101C400022F010020262026A436884690D6824F47B
:101C5000E64444EA05248D6822F0200242EA051297
:101C60000D4DA84202D00D4DA8420ED1CD6822F0F4
:101C7000800242EA05124D6923F4406343EA85037A
:101C80008D6922F0400243EA85034360846149681C
:101C90008163026230BD0000000001400004014089
:101CA00030B5026A22F480720262036A4268C46933
:101CB00023F4007324F073050C682C438D6843EA09
:101CC00005230D4DA84202D00C4DA8420ED1CD687F
:101CD00023F4006343EA05234D6922F4405242EAAB
:101CE00005128D6923F4806342EA05124260C461E3
:101CF0004968C163036230BD000001400004014037
:101D000030B5026A22F480520262046A4268C369F2
:101D10000D6823F4E64343EA05238D6824F4005458
:101D200044EA0534084DA84202D0084DA84204D127
:101D30004D6922F4804242EA85124260C3614968DB
:101D40000164046230BD0000000001400004014055
:101D500010B5036A046A24F001040462846924F063
:101D6000F00444EA021423F00A020A438461026286
:101D700010BD000070B5046A24F001040462846997
:101D8000056A164EB04214D0B0F1804F11D0144EF7
:101D9000B0420ED0134EB0420BD0134EB04208D01A
:101DA000124EB04205D0124EB04202D0114EB04297
:101DB00003D124F00304144303E024F0030242F0AF
:101DC00001041A0724F0F00444EA126225F00A0321
:101DD00001F00A0119438261016270BD00000140F7
:101DE0000004004000080040000C004000040140D6
:101DF000004001400018004010B5036A23F01003B2
:101E000003628369046A23F4704343EA023224F0D4
:101E1000A00343EA01118261016210BD30B5046A7A
:101E200024F0100404628469056A24F4407444EACE
:101E3000022222F470444FF6FF7202EA0332224378
:101E4000A02425F0A00304EA011119438261016274
:101E500030BD00002DE9F04104460068016921F41D
:101E60004052E168114301612168C86849F20C627F
:101E700090432369A268E5691A4363692B431A43B7
:101E80000243CA602168486920F44072A069104387
:101E90004861E1696425B1F5004F9748974A216888
:101EA0004FF032083FD0914201D081427CD1FEF701
:101EB00081FD00EBC00101EB001061688900B0FBFF
:101EC000F1F6FEF777FD00EBC00101EB0010616851
:101ED0008900B0FBF1F0B0FBF5F06FF0180148435A
:101EE00006EB800108EB0110B0FBF5F000F0F00606
:101EF000FEF760FD00EBC00101EB00106168890096
:101F0000B0FBF1F0B0FBF5F006EB0016FEF752FD6A
:101F100000EBC00101EB001061688900B0FBF1F734
:101F2000FEF748FDD2E0914201D081423DD1FEF75B
:101F300041FD00EBC00101EB001061684900B0FBFE
:101F4000F1F0B0FBF5F00601FEF734FD00EBC00147
:101F500001EB001061684900B0FBF1F7FEF72AFDC4
:101F600000EBC00101EB001061684900B0FBF1F02B
:101F7000B0FBF5F06FF01801484307EB800108EB68
:101F8000C100B0FBF5F000F0F80006EB4006FEF7EC
:101F900011FD00EBC00101EB001061684900B0FBCE
:101FA000F1F7FEF707FD3CE055E0FEF7F3FC00EB30
:101FB000C00101EB001061684900B0FBF1F0B0FB1B
:101FC000F5F00601FEF7E6FC00EBC00101EB0010A6
:101FD00061684900B0FBF1F7FEF7DCFC00EBC001E3
:101FE00001EB001061684900B0FBF1F0B0FBF5F0C7
:101FF0006FF01801484307EB800108EBC100B0FB0C
:10200000F5F000F0F80006EB4006FEF7C3FC00EB2D
:10201000C00101EB001061684900B0FBF1F7FEF769
:10202000B9FC00EBC00101EB001061684900B0FB96
:10203000F1F0B0FBF5F06FF01801484307EB8001B9
:1020400008EBC100B0FBF5F000F007002168304458
:102050008860BDE8F081FEF79DFC00EBC00101EB5C
:10206000001061688900B0FBF1F6FEF793FC00EB0D
:10207000C00101EB001061688900B0FBF1F0B0FB1A
:10208000F5F06FF01801484306EB800108EB0110F2
:10209000B0FBF5F000F0F006FEF77CFC00EBC001B1
:1020A00001EB001061688900B0FBF1F0B0FBF5F0C6
:1020B00006EB0016FEF76EFC00EBC00101EB001012
:1020C00061688900B0FBF1F7FEF764FC00EBC0012A
:1020D00001EB001061688900B0FBF1F0B0FBF5F096
:1020E0006FF01801484307EB800108EB0110B0FBCB
:1020F000F5F000F00F00A9E70014014000100140C6
:102100002DE9F041984617460E460446069D1DE00F
:10211000681C1BD02DB1FEF7F9FAA0EB0800A8420D
:1021200014D92068C16821F4D071C1602068416968
:1021300021F001014161202084F8390084F83A003F
:10214000002084F838000320BDE8F0812068006892
:1021500036EA000004D00020B842D9D00020F3E7CE
:102160000120F9E7FEE7FEE70FB4054B10B503A920
:10217000044A029800F018F810BC5DF814FB000047
:10218000ED2400081000002002E008C8121F08C15A
:10219000002AFAD170477047002001E001C1121FE8
:1021A000002AFBD1704700002DE9FF4F8BB0884615
:1021B0000546002606E025280BD0DDE90D129047E4
:1021C0006D1C761C28780028F5D10FB03046BDE88C
:1021D000F08F0024A146A2460122AE4900E004434C
:1021E00015F8013F203B02FA03F00842F7D12878A6
:1021F0002A2810D06FF02F022878A0F13001092989
:1022000015D809EB890102EB410144F0020400EB0F
:1022100001096D1CF0E758F8041B5FEA010903D5BA
:1022200044F40054C9F1000944F002046D1C2878FC
:102230002E2817D115F8010F44F004042A280ED0D7
:102240006FF02F022878A0F1300109290AD80AEB93
:102250008A0102EB410100EB010A6D1CF2E758F81C
:1022600004AB6D1C28786C280FD006DC4C2817D0E6
:1022700068280DD06A2814D104E0742810D07A2878
:102280000FD10DE044F400140AE044F4801401E09E
:1022900044F440146978814202D104F580146D1C25
:1022A0006D1C2878692865D006DC00288DD063284D
:1022B00027D0642806D15DE06E2808D073282AD084
:1022C000752877D0DDE90D129047761CE0E0C4F365
:1022D0000250022809D003280DD0D8F80010042895
:1022E0000DD00E6008F10408D2E0D8F80010F21703
:1022F000C1E90062F6E7D8F800100E80F2E70E7030
:10230000F0E718F8041B8DF8001000208DF801008C
:10231000EB46012003E058F804BB4FF0FF306107A3
:102320004FF0000701D40AE07F1C57450DDA8742C1
:10233000FADB1BF807100029F6D106E07F1C874264
:10234000FCDB1BF807100029F8D1DDE90D23A9EB10
:1023500007008146214600F0B1F83044C61904E078
:10236000DDE90D121BF8010B90477F1EF8D22146C4
:10237000484688E058F8040BC4F302514FF00A0BAA
:10238000032900D100B2042900D140B2002802DAAA
:1023900040422D2102E0210505D52B218DF8241086
:1023A000012104E006E0E10710D02021F6E708AFA4
:1023B000089113E058F8040BC4F302514FF00A0BD4
:1023C000032900D180B2042900D1C0B20021EEE778
:1023D0005946FDF7BEFF303107F8011D0028F7D13F
:1023E000ADEB070000F1200B600702D524F4803428
:1023F00001E04FF0010ADA4502DDAAEB0B0000E034
:102400000020824600EB0B0108980144A9EB010073
:102410000A90E00306D4DDE90D2321460A9800F076
:102420004DF806444FF0000908E009A911F8090029
:10243000DDE90D12904709F10109761C08998945DB
:10244000F3DBE0030CD5DDE90D2321460A9800F00B
:1024500035F8064404E0DDE90D1230209047761C83
:10246000BAF10001AAF1010AF5DC05E0DDE90D127F
:1024700017F8010B9047761CBBF10001ABF1010B83
:10248000F4DC0A982146DDE90D2300F005F8064446
:102490006D1C97E6092801002DE9F041044600254E
:1024A0001E461746880404D405E039462020B0476C
:1024B0006D1C641EF9D52846BDE8F0812DE9F04178
:1024C000044600251E469046C80301D5302700E08B
:1024D0002027880404D505E041463846B0476D1CE6
:1024E000641EF9D52846BDE8F081000013B54FF60B
:1024F000FF73012269460248FFF78CF800981CBD63
:1025000004010020C8260025FEF70EF9FFF742FA65
:10251000FFF7DEF8FFF784F9FFF744F9FFF7F8F962
:10252000FFF7B6F900213C48FEF7C8FF00213B4801
:10253000FEF7C4FF5321681EFFF7ACFA3848FFF7D7
:1025400013FE642000F0A2F841F288384046FDF7FF
:10255000E0FF01240BE000BF04F16400814600F0BD
:1025600095F83220FDF7D5FFB9F1820F02D3641E32
:10257000E4B2F1D244464046FDF7CBFF2046FDF7DA
:10258000C8FFDFF8A08000BF98F800100A0626D523
:1025900001F03F00244940420988084484B22146A2
:1025A00022A0FFF7E1FD2046FDF7AAFE9FED231BC9
:1025B00053EC112BFDF735FEFDF7AFFE00EE100AD0
:1025C000DFED200A80EE801ABCEEC10A10EE100A80
:1025D00081B21DA0FFF7C8FD002188F80010C82EA9
:1025E00003D0B6F5FA6F02D003E0642701E04FF69E
:1025F0009C77F01986B2304600F032F86D1CEDB2CF
:102600003220FDF786FF052DBED900254FF48061ED
:102610001248FEF771F8B7E78C0000205000002048
:10262000D0260008080000200C0000204652454437
:102630003A25642075730D0A0000000000000000B8
:1026400000408F4000E80546D7AACBD93A25313162
:1026500064206E2F706D0D0A00000000001402400F
:1026600000B587B06021CDE900100020029002463D
:10267000049069460448FEF788FE00210248FEF7F0
:102680001DFF07B000BD00008C00002000B587B022
:102690006021CDE9001000200290024604906946B6
:1026A0000448FEF772FE00210248FEF707FF07B05C
:1026B00000BD0000500000200000000000000000ED
:1026C00001020304060708090000000001020304D8
:1026D0000A0D2055415254205072696E746620458F
:1026E00078616D706C653A207265746172676574AB
:1026F000207468652043206C696272617279207071
:1027000072696E74662066756E6374696F6E20748C
:102710006F2074686520554152540A0D0000000076
:102720004027000800000020140000008821000855
:1027300054270008140000203405000098210008E8
:102740000024F40000000000000000000000000071
:042750000000000085
:040000050800018965
:00000001FF
