:020000040800F2
:1000000028050020010100086B0D0008450C0008C0
:10001000690D0008EB010008151000080000000041
:100020000000000000000000000000008F0D00082C
:10003000ED010008000000008D0D0008910D000882
:100040001B0100081B0100081B0100081B01000820
:100050001B0100081B0100081B0100081B01000810
:100060001B0100081B0100081B0100081B01000800
:100070001B0100081B0100081B0100081B010008F0
:100080001B0100081B0100081B0100081B010008E0
:100090001B0100081B0100081B0100081B010008D0
:1000A0001B0100081B0100081B0100081B010008C0
:1000B0001B0100081B0100081B0100081B010008B0
:1000C0001B0100081B0100081B0100081B010008A0
:1000D0001B0100081B0100081B010008BD0F0008E0
:1000E0001B0100081B0100081B010008DFF80CD0F1
:1000F00000F05AF800480047311300082805002096
:100100000648804706480047FEE7FEE7FEE7FEE7B1
:10011000FEE7FEE7FEE7FEE7FEE7FEE7050E000866
:10012000ED000008202A04DB203A21FA02F0002129
:10013000704721FA02F3D040C2F1200291400843F7
:10014000194670472DE9F05F0546002092469B4610
:1001500088460646814640241BE0284641464746DD
:100160002246FFF7DFFF53465A46C01A914110D38B
:1001700011461846224600F029F82D1A67EB0108AF
:100180004F4622460120002100F020F817EB00091D
:100190004E41201EA4F10104DFDC484631462A46C8
:1001A0004346BDE8F09F0000064C074D06E0E068BE
:1001B00040F0010394E8070098471034AC42F6D3AE
:1001C000FFF798FF7014000890140008202A04DB41
:1001D000203A00FA02F1002070479140C2F120035A
:1001E00020FA03F3194390407047FEE77047000080
:1001F0002D4AD2F828312D48012B01783CD021F02E
:1002000001010170D2F82C110129017837D021F0B9
:1002100002010170D2F824110129017832D021F0B5
:10022000040101702249D1F83831012B03782CD018
:1002300023F008030370D2F82021012ADAB227D074
:1002400022F010020270D1F83421012A027822D063
:1002500022F020020270D1F83C21012A02781DD040
:1002600022F040020270D1F830110129D1B218D029
:1002700021F080010170704741F00101C1E741F0B8
:100280000201C6E741F00401CBE743F00803D1E7E0
:1002900042F01002D6E742F02002DBE742F04002D3
:1002A000E0E741F08001E5E7000021421400002072
:1002B0000080214270B5044600F0ECF80546601C51
:1002C00002D004480078044400F0E4F8401BA04247
:1002D000FAD370BD000000202DE9F84FDFF890A19F
:1002E00000220AF1040B144601274FF00F090BF10D
:1002F000040E00BF0B6807FA04F52B40AB4274D123
:10030000DFF870C14E68A6EB0C0866452BD00DDCFB
:10031000032E34D005DC36B3012E19D0022E2FD196
:100320001BE0112E16D0122E2AD119E0B8F5881F25
:1003300019D006DCB8F5803F15D0B8F5801F1FD165
:1003400011E0B8F5001F0ED0B8F5041F18D10AE06F
:10035000CA6815E0CA68121D12E0CA6808320FE0C8
:10036000CA680C320CE08A682AB1012A4FF00802F0
:1003700003D0456104E0042202E0056100E00022B0
:10038000FF2B01D8064601E000F104064FEA840580
:1003900001D9A5F12005D6F800C009FA05F82CEA24
:1003A000080C02FA05F54CEA050CC6F800C04D68C9
:1003B000ED0057D5304DAE6946F00106AE61AD692E
:1003C00024F0030605F0010500952C4D06EB050C05
:1003D000DCF80850A6074FEA167809FA08F6B54384
:1003E000274EB04202D1002610E03BE0254EB0423D
:1003F00001D101260AE0244EB04201D1022605E0D7
:10040000224EB04201D1032600E0042606FA08F687
:100410002E43CCF808604D68DAF80060ED035546CD
:1004200001D51E4300E09E432E604D68DBF800605E
:10043000AD035D4601D51E4300E09E432E604D682E
:10044000DEF80060ED02754601D51E4300E09E43D4
:100450002E604D68AD020E4D2E6801D51E4300E0A2
:100460009E432E60641C102CFFF444AFBDE8F88F4F
:100470000004014000001110001002400000014083
:1004800000080140000C0140001001400014014030
:100490000C04014001488068704700000000002003
:1004A0000248816802781144816070470000002092
:1004B000074810B5016841F010010160052000F007
:1004C00095F8002000F006F800F024F8002010BD98
:1004D0000020024070B50D4D04464FF47A71287823
:1004E000B1FBF0F00A490968B1FBF0F000F025FB20
:1004F00048B9102C07D200222146501E00F056F8B1
:1005000000206C6070BD012070BD00000000002064
:10051000100000201D4808B5816941F0010181618A
:10052000806900F001000090052000F05FF80022D3
:1005300011466FF00B0000F039F8002211466FF001
:100540000A0000F033F8002211466FF0090000F0B5
:100550002DF800221146501F00F028F80022114605
:10056000101F00F023F800221146901E00F01EF824
:1005700000221146501E00F019F80548416821F08C
:10058000E06141F00071416008BD000000100240D0
:100590000000014000F01F0201219140400980004D
:1005A00000F1E020C0F8001170470000F0B40E4BDD
:1005B0001B680C46C3F30223C3F10705042D00D9C1
:1005C0000425191D072901D2002300E0DB1E0126A6
:1005D00006FA05F1491E214099409E40761E1640BC
:1005E0003143F0BC00F0C2BB0CED00E0064900F066
:1005F000070208684FF6FF03184040EA0220034A4A
:1006000010430860704700000CED00E00000FA05A0
:100610002DE9F047DFF83C8105460E46D8F800008A
:1006200000F00700B0420CD2D8F8001021F007010A
:100630003143C8F80010D8F8000000F00700B042BD
:1006400063D12878444C800705D56068A96820F0FC
:10065000F000084360602878C00745D0686801282A
:1006600016D02168022816D0890700294DDA616862
:1006700021F0030101436160FFF70CFF6968074641
:1006800041F2883001290FD00229814619D027E094
:1006900021688903E9E78901E7E700BFFFF7FAFE70
:1006A000C11B494501D918E081466068C0F381004B
:1006B0000128F3D118E000BFFFF7ECFEC11B49454C
:1006C0000BD86068C0F381000228F5D10CE000BFB0
:1006D000FFF7E0FEC11B494502D90320BDE8F087C2
:1006E000606810F00C0FF3D1D8F80010404601F00C
:1006F0000701B1420BD9016821F0070131430160C4
:10070000006800F00700B04201D00120E6E7287839
:10071000400705D56068E96820F4E0600843606040
:100720002878000706D56068296920F4605040EAFF
:10073000C100606000F03CF86168084AC1F3031131
:10074000515CC840064908600020FFF7C3FE002046
:10075000C4E70000002002400010024058140008C6
:1007600010000020014800687047000010000020C1
:100770000448054900684968044AC1F30221515CF4
:10078000C8407047100000200010024068140008A4
:100790000448054900684968044AC1F3C221515C14
:1007A000C840704710000020001002406814000884
:1007B00012A185B00FC98DE80F0014A0144A00687B
:1007C00004905168134801F00C03042B10D0082B3F
:1007D0000ED1C1F38343C9031DF803000AD5516844
:1007E00004AAC1F34041515C0A4A5043B0FBF1F006
:1007F00005B0704708494843FAE7000002030405C2
:10080000060708090A0B0C0D0E0F1010010200005C
:100810000010024000127A0000093D002DE9F84F57
:1008200004460078B94DC00748D06868C0F381001D
:10083000012807D06868C0F38100022809D16868E0
:10084000C00306D52868800338D5606800286FD0BB
:1008500034E06068B0F5803F0BD010B1B0F5A02F48
:1008600011D0286820F480302860286820F4802087
:1008700002E0286840F480302860606888B1FFF7A3
:1008800009FE064609E0286840F480202860F0E769
:10089000FFF700FE801B642875D828688003F7D511
:1008A0000CE0FFF7F7FD064605E000BFFFF7F2FD9D
:1008B000801B6428F0D828688003F7D42078944EF1
:1008C00080074FF001094FF000083BD5686810F031
:1008D0000C0F07D06868C0F38100022809D168684E
:1008E000C00306D42868800714D5206901281FD1C9
:1008F00010E02069B0B1C6F80090FFF7CBFD0746C5
:1009000005E000BFFFF7C6FDC01B0228C4D8286859
:100910008007F7D52868616920F0F80040EAC10037
:1009200028600FE0C6F80080FFF7B4FD074606E038
:10093000E9E000BFFFF7AEFDC01B022823D82868FE
:100940008007F7D4207800072CD57248A169D9B167
:10095000C0F80090FFF79EFD074604E0FFF79AFD00
:10096000C01B02280FD8686A8007F7D56A484FF481
:10097000FA510068B0FBF1F0009000BF0098411EF2
:100980000091FAD20EE080E0C0F80080FFF782FD0F
:10099000074604E0FFF77EFDC01B022875D8686A91
:1009A0008007F7D42078400760D5E8690027C000A9
:1009B00008D4E86940F08050E861E869012700F058
:1009C0008050009055480168C90513D401688346DA
:1009D00041F480710160FFF75DFD824606E000BFD3
:1009E000FFF758FDA0EB0A0064284ED8DBF80000A2
:1009F000C005F5D5E06801280AD008B1052813D054
:100A0000286A20F001002862286A20F0040002E031
:100A1000286A40F001002862E06841F2883B98B102
:100A2000FFF738FD82460BE0286A40F00400286298
:100A3000EEE700BFFFF72EFDA0EB0A0159455AD89B
:100A4000286A8007F6D50CE0FFF724FD824605E012
:100A5000FFF720FDA0EB0A0159454CD8286A800712
:100A6000F6D41FB1E86920F08050E861E06988B3EE
:100A70006968C1F38101022945D00228C6F8608067
:100A800004D0FFF707FD044638E034E0FFF702FD2D
:100A9000074604E0FFF7FEFCC01B02282BD828689D
:100AA0008001F7D4206AB0F5803F05D16868A1685D
:100AB00020F4003008436860D4E9080108436968FD
:100AC00021F4741108436860C6F86090FFF7E2FCF7
:100AD000044606E015E000BFFFF7DCFC001B02281F
:100AE00009D828688001F7D50BE000BFFFF7D2FCDA
:100AF000001B022802D90320BDE8F88F2868800176
:100B0000F4D40020F8E70120F6E7000000100240CE
:100B10000000424280044242100000200070004069
:100B20004FF0E0210428086903D020F00400086198
:100B3000704740F00400FAE7704710B5401EB0F16E
:100B4000807F01D3012010BD4FF0E02460610F21B0
:100B5000601700F00BF90020A06107202061002041
:100B600010BD10B5FFF7E8FF10BD70B5040004D04C
:100B700094F83900002510B106E0012070BD84F81A
:100B80003850204600F022F8242084F839002068EC
:100B9000C16821F40051C160204600F057F9206877
:100BA000016921F4904101612068416921F02A0125
:100BB00041612068C16841F40051C160E5632020B3
:100BC00084F8390084F83A00002070BD10B5006840
:100BD000184986B088422BD11748C16941F4802159
:100BE000C161C069154C00F4802004904FF480600E
:100BF0000090022001900320039069462046FFF7F1
:100C00006BFB0021E014CDE900010291694620460A
:100C1000FFF762FB002201212720FFF7C7FC2720F6
:100C2000FFF7B8FC06480068C16841F02001C160C8
:100C300006B010BD0048004000100240000C01400A
:100C4000E4000020FEE7000070B50125124C0128E9
:100C500000D1E570FFF7CCFA00F020F8E078A8B1F9
:100C6000A07898B10020E0702078012812D00228E6
:100C700010D004280ED008280CD010280AD0202824
:100C800008D0402806D0802804D002E0207800B99F
:100C9000E570002070BD00001400002010B5052094
:100CA000FFF708FB054801784278914202D109B16B
:100CB000012200E000228270417010BD140000206B
:100CC00030B5134885B0816941F0080181618169BF
:100CD00001F008010491816941F00401816180699A
:100CE000002400F0040004904FF4704002258DE8C9
:100CF000310069460748FFF7EFFA4FF470608DE85E
:100D0000310069460448FFF7E7FA05B030BD00003E
:100D100000100240000C0140000801400D4810B5D1
:100D20000B4901604FF4E1314160002181600C22E8
:100D3000C160C0E904128161C161FFF716FF00289C
:100D400005D0BDE81040502103A000F064B910BDEB
:100D500000480040E40000202E2E2F5372632F75B0
:100D6000736172742E630000FEE770470907090E75
:100D7000002806DA00F00F0000F1E02080F8141DD2
:100D8000704700F1E02080F800147047704770470A
:100D900010B5FFF785FBBDE81040FFF7E2BE30B5A8
:100DA0008FB00225012004900095102005900024AA
:100DB0004FF46010CDE9084007956846FFF72EFD17
:100DC00000B1FEE70F20CDE90A054FF48060CDE9C0
:100DD0000C4002210AA80E94FFF71AFC00B1FEE7AE
:100DE000FFF7C0FC4FF47A71B0FBF1F0FFF7A5FEFE
:100DF0000420FFF795FE00221146501EFFF7D6FB98
:100E00000FB030BD0D48016841F00101016041683B
:100E10000B4A1140416001680A4A114001600168B3
:100E200021F480210160416821F4FE0141604FF40A
:100E30001F0181600449C003086070470010024030
:100E40000000FFF8FFFFF6FE08ED00E02DE9F0419D
:100E5000044600680169E26821F4405111430161D0
:100E60002169A0680843616908432168CA6841F2A2
:100E70000C639A430243CA6020684169A26921F465
:100E80004071114341614C492068642532268842F3
:100E90003CD1FFF77DFC00EBC00101EB0010616865
:100EA0008900B0FBF1F7FFF773FC00EBC00101EB29
:100EB00000106168B0468900B0FBF1F0B0FBF5F0BE
:100EC0006FF01801484307EB800106EB0110B0FBFF
:100ED000F5F000F0F006FFF75BFC00EBC00101EB62
:100EE000001061688900B0FBF1F0B0FBF5F006EB93
:100EF0000016FFF74DFC00EBC00101EB001061682C
:100F00008900B0FBF1F7FFF743FC3BE0FFF730FC53
:100F100000EBC00101EB001061688900B0FBF1F744
:100F2000FFF726FC00EBC00101EB00106168B04642
:100F30008900B0FBF1F0B0FBF5F06FF01801484309
:100F400007EB800106EB0110B0FBF5F000F0F006B6
:100F5000FFF70EFC00EBC00101EB00106168890097
:100F6000B0FBF1F0B0FBF5F006EB0016FFF700FC6C
:100F700000EBC00101EB001061688900B0FBF1F7E4
:100F8000FFF7F6FB00EBC00101EB00106168890080
:100F9000B0FBF1F0B0FBF5F06FF01801484307EB40
:100FA000800108EB0110B0FBF5F0216800F00F00A4
:100FB00030448860BDE8F0810038014030B5134806
:100FC0000068016889060CD54068C2B21048016803
:100FD0000B0406D44C044FF0000306D50A2A01D0B6
:100FE000036030BD41F400410DE00D2A09D0074DEA
:100FF000C1F30D04C83D491C2A550160C729EFD82B
:1010000030BD41F48041016030BD0000E4000020AB
:101010000C000020FEE7FEE70FB4054B10B503A956
:10102000044A029800F018F810BC5DF814FB0000A8
:10103000191300081800002002E008C8121F08C198
:10104000002AFAD170477047002001E001C1121F49
:10105000002AFBD1704700002DE9FF4F8DB09B4661
:101060000F460446002606E025280BD05A460F9965
:101070009047641C761C20780028F5D111B03046CA
:10108000BDE8F08F0025A8460122984900E00543FD
:1010900014F8013F203B02FA03F00842F7D1207810
:1010A0002E2817D114F8010F45F004052A280ED078
:1010B0006FF02F022078A0F1300109290AD808EB3F
:1010C000880102EB410100EB0108641CF2E757F8CC
:1010D000048B641C20786C280DD004DC4C2812D0C2
:1010E0006A2811D104E074280DD07A280CD10AE0C6
:1010F00045F4001507E0617845F48015814202D17E
:10110000641C05F58015641C2278692A45D008DC2A
:10111000002AB3D0582A69D0632A10D0642A08D193
:101120003BE0702A67D0732A13D0752A5CD0782AE6
:101130005CD010465A460F999047761CD3E017F8BA
:10114000040B8DF8000000208DF80100E946012015
:1011500003E057F8049B4FF0FF3069074FF000059C
:1011600001D40AE06D1C45450DDA8542FADB19F819
:1011700005100029F6D106E06D1C8542FCDB19F84C
:1011800005100029F8D12E4404E019F8010B5A4645
:101190000F9990476D1EF8D2A5E00A200021CDE9F5
:1011A0000801C5F3025002280DD001CFC117031E5C
:1011B00071F100030DDA4FF0000CD0EB0C006CEB7A
:1011C00001012D2308E0FF1D27F00707F7E80201C2
:1011D000EDE72B0504D52B238DF8283001233BE0C8
:1011E000EB0739D02023F7E70A2000E01020002188
:1011F000CDE9080107E01020002145F00405CDE904
:1012000008014FF00808C5F3025002280FD001CFA3
:1012100000214FF0000A2B071FD5702A0DD0DDE901
:1012200008C38CF0100C5CEA030C0CD015E0FF1D19
:1012300027F00707F7E80201EBE740228DF82820A6
:101240004FF0010A0BE050EA010306D030238DF87D
:1012500028308DF8292002239A46582A04D024A247
:101260000DF120090B9209E026A2F9E7DDE9082338
:10127000FEF768FF0B9B9B5C09F8013D50EA0102F9
:10128000F4D1ADEB090020300890680701D44FF08D
:1012900001080899884502DDA8EB010000E0002064
:1012A0008046002506E00AA85A46405D0F999047FF
:1012B0006D1C761C5545F6DB04E030205A460F992C
:1012C0009047761CB8F10001A8F10108F5DC05E0B3
:1012D00019F8010B5A460F999047761C0899481E39
:1012E00008900029F4DC641CC5E600000928010010
:1012F000303132333435363738396162636465668C
:10130000000000003031323334353637383941424D
:10131000434445460000000004490A685206FCD5D3
:10132000024AC1B2121D116070470000004800401F
:10133000002426462546FFF7BBF8FFF730FDFFF7F0
:10134000BFFCFFF7EBFC40F6B830FEF7B3FF2AA076
:10135000FFF762FE40F2DC50FEF7ACFF33A0FFF770
:101360005BFE4FF4FA773846FEF7A4FF33A0FFF791
:1013700053FE3846FEF79EFF344F3888000401D5EF
:10138000002038600120FFF75FFCA04201D101215D
:1013900000E00021082821D007DCF8B101281AD08C
:1013A00002281BD0042808D115E0102813D02028CB
:1013B00014D040280FD0802810D0AA25294624A078
:1013C000FFF72AFE3220FEF775FF761CF6B2052ED7
:1013D000D3D90026D1E704462546EFE711B1AA2567
:1013E0000446EBE7022CFBD0082CF9D0202CF7D0D8
:1013F000802CF5D00546F3E741542B434950535414
:101400004152543D22554450222C223235352E3241
:1014100035352E3235352E323535222C31303030BF
:101420002C353030302C300D0A00000041542B4355
:1014300049504D4F44453D310D0A000041542B4366
:10144000495053454E440D0A000000000C00002096
:10145000305825780D0A0000000000000000000050
:10146000010203040607080900000000010203044A
:1014700090140008000000201C0000003810000834
:10148000AC1400081C0000200C05000048100008E7
:10149000010000001000000000000000000000003B
:0C14A00000A24A0400000001000000004F
:04000005080000ED02
:00000001FF
