:020000040800F2
:1000000098090020010100080F150008870F00085B
:100010000D15000841020008311A00080000000018
:100020000000000000000000000000009B17000816
:100030004302000800000000311500089D17000869
:100040001B0100081B0100081B0100081B01000820
:100050001B0100081B0100081B0100081B01000810
:100060001B0100081B0100081B0100081B01000800
:100070001B0100081B0100081B0100081B010008F0
:100080001B0100081B0100081B0100081B010008E0
:100090001B0100081B0100081B0100081B010008D0
:1000A0001B0100081B0100081B0100081B010008C0
:1000B0001B0100081B0100081B0100081B010008B0
:1000C0001B0100081B0100081B0100081B010008A0
:1000D0001B0100081B0100081B0100081B01000890
:1000E000450200081B0100081B010008DFF80CD0C6
:1000F00000F05AF8004800474D1D000898090020FC
:100100000648804706480047FEE7FEE7FEE7FEE7B1
:10011000FEE7FEE7FEE7FEE7FEE7FEE7151800084C
:10012000ED000008202A04DB203A21FA02F0002129
:10013000704721FA02F3D040C2F1200291400843F7
:10014000194670472DE9F05F0546002092469B4610
:1001500088460646814640241BE0284641464746DD
:100160002246FFF7DFFF53465A46C01A914110D38B
:1001700011461846224600F029F82D1A67EB0108AF
:100180004F4622460120002100F020F817EB00091D
:100190004E41201EA4F10104DFDC484631462A46C8
:1001A0004346BDE8F09F0000064C074D06E0E068BE
:1001B00040F0010394E8070098471034AC42F6D3AE
:1001C000FFF798FFEC1D00080C1E0008202A04DB36
:1001D000203A00FA02F1002070479140C2F120035A
:1001E00020FA03F319439040704770B58C1810F84B
:1001F000015B15F0070301D110F8013B2A1106D16C
:1002000010F8012B03E010F8016B01F8016B5B1E85
:10021000F9D12B0705D40023521E0DD401F8013B60
:10022000FAE710F8013BCB1A921C03E013F8015BCC
:1002300001F8015B521EF9D5A142D8D3002070BD50
:10024000FEE770474FF4804000F02AB870B50446CE
:1002500000F01AF90546601C02D0044800780444F6
:1002600000F012F9401BA042FAD370BDEC0400204C
:1002700010B504460A20FFF7E9FFB4F5804F06D118
:1002800001F070F9BDE8104001A001F0D3BB10BD32
:10029000BDF8C8EBD6D0B6CF31320D0A0000000051
:1002A000044910B50A68024202D00860FFF7E0FF77
:1002B00010BD0000140401402DE9F84FDFF890A1B3
:1002C00000220AF1040B144601274FF00F090BF12D
:1002D000040E00BF0B6807FA04F52B40AB4274D143
:1002E000DFF870C14E68A6EB0C0866452BD00DDC1C
:1002F000032E34D005DC36B3012E19D0022E2FD1B7
:100300001BE0112E16D0122E2AD119E0B8F5881F45
:1003100019D006DCB8F5803F15D0B8F5801F1FD185
:1003200011E0B8F5001F0ED0B8F5041F18D10AE08F
:10033000CA6815E0CA68121D12E0CA6808320FE0E8
:10034000CA680C320CE08A682AB1012A4FF0080210
:1003500003D0456104E0042202E0056100E00022D0
:10036000FF2B01D8064601E000F104064FEA8405A0
:1003700001D9A5F12005D6F800C009FA05F82CEA44
:10038000080C02FA05F54CEA050CC6F800C04D68E9
:10039000ED0057D5304DAE6946F00106AE61AD694E
:1003A00024F0030605F0010500952C4D06EB050C25
:1003B000DCF80850A6074FEA167809FA08F6B543A4
:1003C000274EB04202D1002610E03BE0254EB0425D
:1003D00001D101260AE0244EB04201D1022605E0F7
:1003E000224EB04201D1032600E0042606FA08F6A8
:1003F0002E43CCF808604D68DAF80060ED035546EE
:1004000001D51E4300E09E432E604D68DBF800607E
:10041000AD035D4601D51E4300E09E432E604D684E
:10042000DEF80060ED02754601D51E4300E09E43F4
:100430002E604D68AD020E4D2E6801D51E4300E0C2
:100440009E432E60641C102CFFF444AFBDE8F88F6F
:1004500000040140000011100010024000000140A3
:1004600000080140000C0140001001400014014050
:100470000C040140C2684A40C26070470AB1016181
:1004800070470904FBE700000148806870470000DE
:10049000EC040020024881680278114481607047B2
:1004A000EC040020074810B5016841F0100101601C
:1004B000032000F08DF8002000F006F800F024F88A
:1004C000002010BD0020024070B50D4D04464FF4D1
:1004D0007A712878B1FBF0F00A490968B1FBF0F0B5
:1004E00000F07FFC48B9102C07D200222146501E94
:1004F00000F04EF800206C6070BD012070BD00005F
:10050000EC040020F80400201A4808B5816941F085
:1005100001018161806900F001000090032000F07A
:1005200057F8002211466FF00B0000F031F800225E
:1005300011466FF00A0000F02BF8002211466FF010
:10054000090000F025F800221146501F00F020F8A5
:1005500000221146101F00F01BF800221146901EC9
:1005600000F016F80022BDE808401146501E00F0C9
:100570000FB800000010024000F01F02012191405E
:100580004009800000F1E020C0F800117047000031
:10059000F0B40E4B1B680C46C3F30223C3F10705EE
:1005A000042D00D90425191D072901D2002300E0DC
:1005B000DB1E012606FA05F1491E214099409E40A6
:1005C000761E16403143F0BC00F0A2BF0CED00E0F7
:1005D000064900F0070208684FF6FF03184040EA9A
:1005E0000220034A10430860704700000CED00E051
:1005F0000000FA052DE9F047DFF83C8105460E467C
:10060000D8F8000000F00700B0420CD2D8F8001073
:1006100021F007013143C8F80010D8F8000000F0BD
:100620000700B04263D12878444C800705D5606844
:10063000A96820F0F000084360602878C00745D022
:100640006868012816D02168022816D08907002979
:100650004DDA616821F0030101436160FFF714FF87
:100660006968074641F2883001290FD00229814686
:1006700019D027E021688903E9E78901E7E700BF8E
:10068000FFF702FFC11B494501D918E081466068A8
:10069000C0F381000128F3D118E000BFFFF7F4FE9A
:1006A000C11B49450BD86068C0F381000228F5D111
:1006B0000CE000BFFFF7E8FEC11B494502D903204B
:1006C000BDE8F087606810F00C0FF3D1D8F8001087
:1006D000404601F00701B1420BD9016821F0070142
:1006E00031430160006800F00700B04201D00120F2
:1006F000E6E72878400705D56068E96820F4E060FF
:10070000084360602878000706D56068296920F4EE
:10071000605040EAC100606000F03CF86168084A3F
:10072000C1F30311515CC840064908600020FFF77F
:10073000CBFE0020C4E70000002002400010024071
:10074000D41D0008F804002001480068704700002C
:10075000F80400200448054900684968044AC1F3C8
:100760000221515CC8407047F8040020001002408C
:10077000E41D00080448054900684968044AC1F3BB
:10078000C221515CC8407047F804002000100240AC
:10079000E41D000812A185B00FC98DE80F0014A058
:1007A000144A006804905168134801F00C03042BAC
:1007B00010D0082B0ED1C1F38343C9031DF80300E9
:1007C0000AD5516804AAC1F34041515C0A4A50431A
:1007D000B0FBF1F005B0704708494843FAE7000064
:1007E00002030405060708090A0B0C0D0E0F101072
:1007F000010200000010024000127A0000093D00D2
:100800002DE9F84F04460078B94DC00748D0686814
:10081000C0F38100012807D06868C0F38100022876
:1008200009D16868C00306D52868800338D5606898
:1008300000286FD034E06068B0F5803F0BD010B175
:10084000B0F5A02F11D0286820F4803028602868E7
:1008500020F4802002E0286840F48030286060683E
:1008600088B1FFF711FE064609E0286840F48020B1
:100870002860F0E7FFF708FE801B642875D8286819
:100880008003F7D50CE0FFF7FFFD064605E000BF4B
:10089000FFF7FAFD801B6428F0D828688003F7D49E
:1008A0002078944E80074FF001094FF000083BD5A7
:1008B000686810F00C0F07D06868C0F38100022848
:1008C00009D16868C00306D42868800714D5206958
:1008D00001281FD110E02069B0B1C6F80090FFF7E1
:1008E000D3FD074605E000BFFFF7CEFDC01B022881
:1008F000C4D828688007F7D52868616920F0F80017
:1009000040EAC10028600FE0C6F80080FFF7BCFD98
:10091000074606E0E9E000BFFFF7B6FDC01B02286E
:1009200023D828688007F7D4207800072CD5724890
:10093000A169D9B1C0F80090FFF7A6FD074604E011
:10094000FFF7A2FDC01B02280FD8686A8007F7D501
:100950006A484FF4FA510068B0FBF1F0009000BF14
:100960000098411E0091FAD20EE080E0C0F80080AD
:10097000FFF78AFD074604E0FFF786FDC01B02284B
:1009800075D8686A8007F7D42078400760D5E86991
:100990000027C00008D4E86940F08050E861E869A9
:1009A000012700F08050009055480168C90513D414
:1009B0000168834641F480710160FFF765FD82465E
:1009C00006E000BFFFF760FDA0EB0A0064284ED8E8
:1009D000DBF80000C005F5D5E06801280AD008B1B1
:1009E000052813D0286A20F001002862286A20F028
:1009F000040002E0286A40F001002862E06841F249
:100A0000883B98B1FFF740FD82460BE0286A40F032
:100A100004002862EEE700BFFFF736FDA0EB0A01F5
:100A200059455AD8286A8007F6D50CE0FFF72CFD07
:100A3000824605E0FFF728FDA0EB0A0159454CD896
:100A4000286A8007F6D41FB1E86920F08050E86179
:100A5000E06988B36968C1F38101022945D00228A1
:100A6000C6F8608004D0FFF70FFD044638E034E09C
:100A7000FFF70AFD074604E0FFF706FDC01B02284A
:100A80002BD828688001F7D4206AB0F5803F05D1C3
:100A90006868A16820F4003008436860D4E9080160
:100AA0000843696821F4741108436860C6F86090CF
:100AB000FFF7EAFC044606E015E000BFFFF7E4FCA0
:100AC000001B022809D828688001F7D50BE000BF79
:100AD000FFF7DAFC001B022802D90320BDE8F88FDB
:100AE00028688001F4D40020F8E70120F6E7000030
:100AF000001002400000424280044242F8040020FC
:100B00000070004070B5040005D00025A56294F87F
:100B1000510010B104E0012070BD204600F034F80F
:100B2000022084F851002068016821F04001016032
:100B3000D4E901010843D4E9031211430843616970
:100B40000843218B01F400710843E1690843216ADD
:100B50000843A16A084321680860A069042101EAEA
:100B60001040616A0843216848602168E06A0861B2
:100B70002068C16921F40061C1616565012084F8C4
:100B80005100002070BD000010B50068144986B007
:100B9000884222D11348816941F480518161806982
:100BA000114C00F480500490B0200090022001907D
:100BB0000320039069462046FFF77EFB002140207A
:100BC000CDE90001029169462046FFF775FB074811
:100BD0000068016841F04001016006B010BD0000EE
:100BE0000030014000100240000801404005002094
:100BF0002DE9F84F044690F8500000260A9F9A46C7
:100C000093460D464FF0010801280ED0012084F8CC
:100C10005000FFF739FC814694F8510061680128C3
:100C20000CD0B1F5827F07D102E00220BDE8F88F39
:100C3000A16809B9042801D00226BDE055B1BBF175
:100C4000000F07D0BAF1000F04D094F8510001282A
:100C500002D004E00126AFE0052084F85100002016
:100C60006065C4F838B0A4F83EA0A4F83CA02563A1
:100C7000A4F836A0A4F834A0206460642068016859
:100C8000490603D4016841F040010160E068B0F515
:100C9000006F606804D0E8B3E08E01283BD06AE0C2
:100CA00010B1E08E01282ED1216835F8020BC86002
:100CB000E08E401EE08626E0B8F1000F0DD0E08EF9
:100CC00058B120688168890707D535F8021BC160D3
:100CD000E08E401EE0864FF00008E08F58B120689B
:100CE0008168C90707D0C0682BF8020BE08F401E4F
:100CF000E0874FF00108781C05D0FFF7C5FBA0EB9B
:100D00000900B84246D2E08E0028D5D1E08F0028F5
:100D1000D2D136E0FFE7216815F8010B0873E08EA9
:100D2000401EE08627E000BFB8F1000F0DD0E08E36
:100D300058B120688168890707D515F8011B017330
:100D4000E08E401EE0864FF00008E08F58B120682A
:100D50008168C90707D0C0680BF8010BE08F401EFF
:100D6000E0874FF00108781C05D0FFF78DFBA0EB62
:100D70000900B8420ED2E08E0028D5D1E08F0028BD
:100D8000D2D13B46012202212046CDF8009000F04E
:100D9000B9FC08B103260FE04A463946204600F068
:100DA000A1FC18B101262020606505E0A06818B9F3
:100DB0002068C16880680090012084F851000020FC
:100DC00084F85000304631E74FF0E02104280869EC
:100DD00003D020F004000861704740F00400FAE7F7
:100DE000704710B5401EB0F1807F01D3012010BDC7
:100DF0004FF0E02460610F21601700F089FB0020B4
:100E0000A06107202061002010BD10B5FFF7E8FFAA
:100E100010BD70B5040004D094F83900002510B15D
:100E200006E0012070BD84F83850204600F022F81A
:100E3000242084F839002068C16821F40051C16081
:100E4000204600F00BFD2068016921F4904101610A
:100E50002068416921F02A0141612068C16841F49C
:100E60000051C160E563202084F8390084F83A001D
:100E7000002070BD10B50068114986B088421DD1B0
:100E80001048816941F48041816180690E4C00F411
:100E9000804004904FF400700090022001900320E5
:100EA000039069462046FFF707FA00212015CDE997
:100EB0000001029169462046FFF7FEF906B010BD19
:100EC0000038014000100240000801402DE9F843BD
:100ED000044690F839001F4616460D46202850D18A
:100EE000A5B19EB194F8380001284AD0012084F8B9
:100EF00038004FF00008C4F83C80212084F8390005
:100F0000FFF7C2FAA6848146E68426E00120BDE808
:100F1000F883E08C401EE084A0684B46B0F5805F0B
:100F20004FF000024FF080012046009703D000F000
:100F30004DFDE8B90DE000F049FDC8B928882168E9
:100F4000C0F308004860206908B16D1C05E0AD1CC5
:100F500003E0216815F8010B4860E08C0028D8D127
:100F60004B46002240212046009700F02FFD08B19B
:100F70000320CCE7202084F8390084F83880002052
:100F8000C5E70220C3E7FEE710B50022002103E019
:100F9000C6235B1EFDD2491C8142F9D3521C052A8F
:100FA000F4D310BD7FB510200124CDE90004022543
:100FB000694603951448FFF77FF9E003CDE9000483
:100FC000124E694603953046FFF776F96003CDE986
:100FD0000004694603953046FFF76EF9A0030090C0
:100FE0000B48CDE9010469463046FFF765F9032255
:100FF00002212820FFF7CCFA2820FFF7BDFABDE830
:101000007F4000F08DB9000000080140000C014055
:1010100000002110084910B50871C0F10F00000749
:10102000800E40F0C3018E2000F030F97821BDE839
:101030001040872000F02AB90000002010B5314C84
:101040000020E070062000F0BBF83521172000F0EA
:101050001DF90520FFF798FF062000F0B1F80321E5
:10106000892000F013F90520FFF78EFF4321CF20E0
:1010700000F00CF90520FFF787FF0221CB2000F0DC
:1010800005F90A21112000F001F960784FF0000104
:1010900040284FF01E0029D000F0F8F83F21192019
:1010A00000F0F4F848211B2000F0F0F81F211D206B
:1010B00000F0ECF80520FFF767FF0421CD2000F0D9
:1010C000E5F84C21172000F0E1F80120FFF75CFF64
:1010D0000021B92000F0DAF84F21CF2000F0D6F837
:1010E000FF21BDE810406F2000F0D0B800F0CEF82E
:1010F0000F21192000F0CAF818211B2000F0C6F8B3
:101100002C21D4E7000000202C4910B54020487065
:10111000FFF794FF0221BD2000F0B8F84821172006
:1011200000F0B4F80A20FFF72FFF5221852000F0CD
:10113000ADF800218F2000F0A9F80021812000F0F7
:10114000A5F80021832000F0A1F8FF218E2000F0F7
:101150009DF8FF218D2000F099F80120FFF714FF82
:10116000FF21872000F092F8FF21892000F08EF8FF
:101170000120FFF709FF0021222000F087F800215D
:10118000232000F083F8EF21202000F07FF80721D2
:10119000212000F07BF87721242000F077F803214C
:1011A000252000F073F8BB21262000F06FF8012104
:1011B000BDE81040272000F069B8000000000020C2
:1011C00070B50E4D0446002210212846FFF756F94F
:1011D000002269140A48FFF751F9052000F0E8FDE4
:1011E000204600F0E5FD002000F0E2FD044601226B
:1011F00010212846FFF742F9204670BD0008014043
:10120000000C01402DE9F041154CA078002825D0B4
:1012100014A000F00FFC0620FFF7D2FF2072014659
:1012200015A000F007FC04F1180540F2D346002792
:101230000DE0295C401C6061012000F027F8606926
:10124000B04200D167610620FFF7BAFF2072207A12
:10125000000703D4D4E904108842EAD3BDE8F08142
:101260000000002053746172742052656C6F6164D9
:1012700031200D0A00000000537461727420726501
:1012800067363A202578200D0A00000070B50E4C14
:101290000E460546002210212046FFF7EFF80022F7
:1012A00061140A48FFF7EAF8042000F081FD28469F
:1012B00000F07EFD304600F07BFD2046BDE870402A
:1012C00001221021FFF7DAB800080140000C0140AC
:1012D000124810B5002141610121C1700069002848
:1012E0001BD9FFF78FFF0021BA20FFF7CFFF48215E
:1012F0001720FFF7CBFF01213320FFF7C7FF0421A1
:101300002920FFF7C3FF01210220FFF7BFFF5A2169
:10131000BDE810408520FFF7B9BF10BD00000020D8
:1013200070B50122274DD40321462846FFF7A6F8C1
:101330006420FFF729FE002221462846FFF79EF889
:101340006420FFF721FE012221462846FFF796F888
:101350006420FFF719FE1C4C002210212046FFF7E5
:101360008DF86420FFF710FE012210212046FFF7C0
:1013700085F86420FFF708FE0620FFF721FF3321E0
:101380003520FFF783FF55211B20FFF77FFFAA21A0
:10139000B320FFF77BFF3520FFF712FF01460BA0BC
:1013A00000F048FB1B20FFF70BFF01460BA000F0ED
:1013B00041FBB320FFF704FFBDE8704001460BA0DE
:1013C00000F038BB000C014000080140B6C1BCC4AD
:1013D000B4E6C6F733353A25780D0A00B6C1BCC469
:1013E000B4E6C6F731623A25780D0A00B6C1BCC42E
:1013F000B4E6C6F762333A25780D0A0030B51648D0
:1014000085B0816941F020018161816901F020018D
:101410000491816941F004018161816901F0040155
:101420000491816941F0080181618069012200F025
:1014300008000A4D1403049021462846FFF71EF8C1
:101440000120CDE900400220039069462846FEF7BE
:1014500033FF05B030BD000000100240000C014019
:10146000124810B5104901604FF4827141600021AB
:1014700002228160C0E903121202C0E9051228228B
:10148000C0E9072141624FF4005181620721C16226
:10149000FFF738FB002805D0BDE81040452104A027
:1014A00000F0C7BA10BD0000003001404005002028
:1014B0002E2E2F5372632F7370692E63000000006D
:1014C0000D4810B50B4901604FF4E1314160002136
:1014D00081600C22C160C0E904128161C161FFF723
:1014E00098FC002805D0BDE81040422103A000F080
:1014F000A0BA10BD00380140000500202E2E2F5349
:1015000072632F75736172742E630000FEE770477B
:101510000907090E002806DA00F00F0000F1E020AC
:1015200080F8141D704700F1E02080F80014704727
:101530007047000010B5FFF735FDFFF7F1FE0848D2
:10154000012181700021C16040F2D2410161FFF7A9
:10155000DBFD0520FFF75EFDBDE81040FFF7B8BEDC
:101560000000002070B52B20FFF72AFE504C607160
:101570006078082832D040287AD12920FFF720FE51
:10158000A0710220FFF71CFEE07100212920FFF767
:101590007DFE00210220FFF779FEBA20FFF710FE42
:1015A000800666D500212B20FFF770FE0021BA20AF
:1015B000FFF76CFE0021BC20FFF768FE0020E07002
:1015C00001210820FFF762FE0520FFF7DDFC002166
:1015D0000820FFF75BFE0021332054E00021292082
:1015E000FFF754FE00210220FFF750FE60794FF014
:1015F0001105C00609D5B220FFF7E2FD212804D16C
:10160000BF20FFF7DDFD352802D0257029A00AE0B4
:10161000BA20FFF7D5FD401E032802D81020207005
:1016200003E0257029A000F005FA00212B20FFF728
:101630002DFE00211C20FFF729FE00212920FFF7A5
:1016400025FE00210220FFF721FE00212B20FFF7BD
:101650001DFE0021BA20FFF719FE0021BC20FFF774
:1016600015FE01210820FFF711FE002108200AE0E5
:101670001CE0D4E90401814209D30121BC20FFF719
:1016800005FE10212920BDE87040FFF7FFBDFFF7E0
:10169000B9FDA1792920FFF7F9FDE1790220FFF7D3
:1016A000F5FDBDE870400F20FFF76EBC70BD000077
:1016B00000000020D6BBCAC7D3D0C9F9D2F4CAE40F
:1016C000C8EBB6F8D2D10D0A00000000BACDB4CAFA
:1016D000CCF5B2BBC4DCCDEAC8ABC6A5C5E40D0AE7
:1016E0000000000038B50B4600920446002280211D
:1016F00000F008F8002804D0606D40F0200060651C
:10170000032038BD2DE9F0411D4617460E4604461C
:10171000DDF8188035E0681C33D02DB1FEF7B4FE3B
:10172000A0EB0800A8422CD32068416821F0E0011A
:1017300041606068B0F5827F0BD1A068B0F5004FC2
:1017400002D0B0F5806F04D12068016821F040011B
:101750000160A06AB0F5005F0AD1206801684DF60B
:10176000FF72114001602068016841F4005101607E
:10177000012084F85100002084F850000320BDE8C7
:10178000F0812068806836EA000004D00020B8426A
:10179000C1D10020F3E70120F9E7704710B5FEF74B
:1017A00079FEBDE81040FFF730BB30B58FB00121A6
:1017B0000804CDE900100024029402250491CDE92B
:1017C00007504FF4E01009906846FFF719F800B190
:1017D000FEE70F20CDE90A054FF48060CDE90C400B
:1017E00002210AA80E94FEF705FF00B1FEE7FEF7FE
:1017F000ABFF4FF47A71B0FBF1F0FFF7F2FA04207F
:10180000FFF7E2FA00221146501EFEF7C1FE0FB0AC
:1018100030BD00000D48016841F0010101604168E0
:101820000B4A1140416001680A4A11400160016899
:1018300021F480210160416821F4FE0141604FF4F0
:101840001F0181600449C003086070470010024016
:101850000000FFF8FFFFF6FE08ED00E02DE9F04183
:10186000044600680169E26821F4405111430161B6
:101870002169A0680843616908432168CA6841F288
:101880000C639A430243CA6020684169A26921F44B
:101890004071114341614C492068642532268842D9
:1018A0003CD1FEF767FF00EBC00101EB001061685F
:1018B0008900B0FBF1F7FEF75DFF00EBC00101EB23
:1018C00000106168B0468900B0FBF1F0B0FBF5F0A4
:1018D0006FF01801484307EB800106EB0110B0FBE5
:1018E000F5F000F0F006FEF745FF00EBC00101EB5C
:1018F000001061688900B0FBF1F0B0FBF5F006EB79
:101900000016FEF737FF00EBC00101EB0010616825
:101910008900B0FBF1F7FEF72DFF3BE0FEF71AFF61
:1019200000EBC00101EB001061688900B0FBF1F72A
:10193000FEF710FF00EBC00101EB00106168B0463C
:101940008900B0FBF1F0B0FBF5F06FF018014843EF
:1019500007EB800106EB0110B0FBF5F000F0F0069C
:10196000FEF7F8FE00EBC00101EB00106168890092
:10197000B0FBF1F0B0FBF5F006EB0016FEF7EAFE67
:1019800000EBC00101EB001061688900B0FBF1F7CA
:10199000FEF7E0FE00EBC00101EB0010616889007A
:1019A000B0FBF1F0B0FBF5F06FF01801484307EB26
:1019B000800108EB0110B0FBF5F0216800F00F008A
:1019C00030448860BDE8F081003801402DE9F041E5
:1019D000984617460E460446069D1DE0681C1BD01F
:1019E0002DB1FEF751FDA0EB0800A84214D92068E4
:1019F000C16821F4D071C1602068416921F0010102
:101A00004161202084F8390084F83A00002084F8ED
:101A100038000320BDE8F0812068006836EA000045
:101A200004D00020B842D9D00020F3E70120F9E724
:101A3000FEE7FEE70FB4054B10B503A9044A029870
:101A400000F018F810BC5DF814FB0000351D00080C
:101A5000FC04002002E008C8121F08C1002AFAD1C5
:101A600070477047002001E001C1121F002AFBD11E
:101A7000704700002DE9FF4F8DB09B460F4604468E
:101A8000002606E025280BD05A460F999047641C83
:101A9000761C20780028F5D111B03046BDE8F08FD3
:101AA0000025A8460122984900E0054314F8013FAB
:101AB000203B02FA03F00842F7D120782E2817D1F4
:101AC00014F8010F45F004052A280ED06FF02F02FC
:101AD0002078A0F1300109290AD808EB880102EB2F
:101AE000410100EB0108641CF2E757F8048B641C09
:101AF00020786C280DD004DC4C2812D06A2811D133
:101B000004E074280DD07A280CD10AE045F40015C1
:101B100007E0617845F48015814202D1641C05F527
:101B20008015641C2278692A45D008DC002AB3D0CD
:101B3000582A69D0632A10D0642A08D13BE0702A61
:101B400067D0732A13D0752A5CD0782A5CD01046EF
:101B50005A460F999047761CD3E017F8040B8DF87E
:101B6000000000208DF80100E946012003E057F84D
:101B7000049B4FF0FF3069074FF0000501D40AE0E5
:101B80006D1C45450DDA8542FADB19F80510002970
:101B9000F6D106E06D1C8542FCDB19F80510002922
:101BA000F8D12E4404E019F8010B5A460F999047DA
:101BB0006D1EF8D2A5E00A200021CDE90801C5F389
:101BC000025002280DD001CFC117031E71F100038E
:101BD0000DDA4FF0000CD0EB0C006CEB01012D2363
:101BE00008E0FF1D27F00707F7E80201EDE72B05E6
:101BF00004D52B238DF8283001233BE0EB0739D0A7
:101C00002023F7E70A2000E010200021CDE9080199
:101C100007E01020002145F00405CDE908014FF050
:101C20000808C5F3025002280FD001CF00214FF061
:101C3000000A2B071FD5702A0DD0DDE908C38CF0F0
:101C4000100C5CEA030C0CD015E0FF1D27F0070711
:101C5000F7E80201EBE740228DF828204FF0010A57
:101C60000BE050EA010306D030238DF828308DF8C0
:101C7000292002239A46582A04D024A20DF12009D3
:101C80000B9209E026A2F9E7DDE90823FEF75AFAEC
:101C90000B9B9B5C09F8013D50EA0102F4D1ADEBCE
:101CA000090020300890680701D44FF00108089916
:101CB000884502DDA8EB010000E0002080460025F9
:101CC00006E00AA85A46405D0F9990476D1C761CA5
:101CD0005545F6DB04E030205A460F999047761CB4
:101CE000B8F10001A8F10108F5DC05E019F8010BD5
:101CF0005A460F999047761C0899481E089000296B
:101D0000F4DC641CC5E600000928010030313233E0
:101D10003435363738396162636465660000000027
:101D20003031323334353637383941424344454611
:101D30000000000013B54FF6FF7301226946024808
:101D4000FFF7C4F800981CBD000500200024FEF732
:101D5000A9FBFFF72AFDFFF751FBFFF7B1FBFFF7E8
:101D60007FFB0CA0FFF766FEFFF7E4FB0C4E4FF481
:101D700080550520FEF76AFA641CE4B2322CF8D9CB
:101D8000002429463046FEF775FB06A0FFF752FEF9
:101D9000EFE70000496E6974204F4B0D0A00000008
:101DA000000C014072756E696E67200D0A0000001C
:101DB0000EB501238DF804004FF47A70009002AA4A
:101DC00001A90348FEF714FF9DF808000EBD0000AE
:101DD0004005002000000000000000000102030494
:101DE0000607080900000000010203040C1E000899
:101DF0000000002000050000EA010008A021000802
:101E00000005002098040000641A00084102130F26
:101E1000454944330337017650524956220E100A81
:101E20005065616B56616C75651BFF7F0E4918220A
:101E300011100D417665726167654C6576656C03BE
:101E4000C5A12917FFE210C00BC1100B07F04E808F
:101E5000D0618628F3F628236E040E4CD7B4111CEB
:101E6000821776C93113E51C185C83C6BC85DB91EB
:101E70003E30073E53251C160D3E34200A6C920559
:101E8000082856C5714F20330CE2CE236A07EC0CAC
:101E9000F1DE6BC064CC7BC910063CFFFFFDB15086
:101EA00020205CD70402763A9588F731BEFFE21213
:101EB000C04AC10905B036F42989282741D487E8EA
:101EC000FBBFFFFFE8089FFFD65F680F76CD0C923F
:101ED0007D0F6E5482CA7FFFFFFF3AB1E0B202C7A6
:101EE000ED7969200AB5381807904704B1C718166C
:101EF0009103CE0A82041F80040147F86BC20FFFD2
:101F0000080F6A898A30280EFC11890C8A099CD036
:101F1000C4426D0F49342831E7FC1E07A076FD70DE
:101F2000394A486D908680FC7E0DBDF25D4DD0260D
:101F3000205817FFEB7C4C02EA482AE98D3F601AD3
:101F400082C07E2209EF90C7341022A4C62406580E
:101F5000730990104A48C930CAC606D1E1AFFEB134
:101F6000A83803089D20844A402C7F06100837209B
:101F70007037B185802F4161A20A7113D1280EE913
:101F80005B2F06786F01902850483B3AB92821FF13
:101F90004BAB6FB3B19950470CA5F2268A023EA510
:101FA000E6233A16B08729865D07FC868AD4046941
:101FB000280E4E213B09C9670590114491635334A3
:101FC0001901100DF2E533A0A4318C6941F40888A1
:101FD000281003C12F1680696EECE928B9B6511498
:101FE0001C34280D195C38094992DCC8840490BB64
:101FF000302821FE0D3BE9FCB3EB01F830013F78BE
:10200000F48014203D575A6A2744E954E9968BA579
:10201000430AB034100F90BC3707805AEB840ACEC5
:102020002885FFFF200AB127190D198442032228B1
:10203000178C26FA2AF70315D90A46B2C6F341AF20
:1020400023FFFF51203D67D1100B972D3E0880865E
:10205000A1A14F48100ADFE651A0C529501032183F
:10206000131089BF9A3E246FA012816005C0AE7E16
:10207000251507822808CFB3FE9B58806D69100B89
:10208000F33E4208806B0D1982102826228C0D0425
:102090006FF163C57F8F0F80D0D0321BFA2648FFC7
:1020A000FFFCD05CC7FFC90A881008023FE8A460A3
:1020B0003734200AF0CC4508185F1639CA1811FFCA
:1020C000F83030E45DA35A32D380A6BFFE9A1B5D80
:1020D000100CABB1C81C2E80921B8081F82FC2223D
:1020E00020191AA0342831E93E4907388F057009B4
:1020F000DA4CCACEE2B9271708C1C1D156CD5C0C63
:102100001DFFFFD3344080019024798B6D855A22C6
:10211000989B4652CA2405D128326A2C5107A947F8
:1021200005482984906D4DC977FFFFADC74CA66067
:102130001186C28968512CA2789F199808080A4410
:10214000933FFFFFF057FFFCEAC60369182F5AE9D7
:1021500058083093163008584C21A4016BC00A8FE0
:10216000804886149589C862283A1126552790B868
:1021700089CB3568725488446C1151ADC219340052
:102180000F5EDC6D5C06B08B059008504C544147E7
:102190000A1B2001120C3201821044A24A040000E2
:04000005080000ED02
:00000001FF
