:020000040800F2
:100000000007002001010008BF1E0008051D0008B0
:10001000BD1E0008D50200088D2200080000000067
:10002000000000000000000000000000091F0008A0
:100030003704000800000000E11E00080B1F000844
:100040001B0100081B0100081B0100081B01000820
:100050001B0100081B0100081B0100081B01000810
:100060001B0100081B0100081B0100080104000817
:100070001B0100081B0100081B0100081B010008F0
:100080001B0100081B010008990100081B01000862
:10009000812200081B0100081B0100081B01000849
:1000A0001B0100081B0100081B0100081B010008C0
:1000B0001B0100081B0100081B0100081B010008B0
:1000C0001B0100081B0100081B0100081B010008A0
:1000D0001B0100081B0100081B0100087522000815
:1000E0001B0100081B0100081B010008DFF80CD0F1
:1000F00000F040F8004800473D24000800070020B9
:100100000648804706480047FEE7FEE7FEE7FEE7B1
:10011000FEE7FEE7FEE7FEE7FEE7FEE7951F0008C5
:10012000ED000008D2B201E000F8012B491EFBD21D
:1001300070470022F6E710B513460A4604461946F2
:10014000FFF7F0FF204610BD30B50B4601460020FA
:100150002022012409E021FA02F59D4205D303FA89
:1001600002F5491B04FA02F52844151EA2F101020A
:10017000F1DC30BD064C074D06E0E06840F00103BD
:1001800094E8070098471034AC42F6D3FFF7B2FF6B
:10019000D4250008F4250008014800F036BA000014
:1001A0008802002070B5044600688168C943C90709
:1001B0001CD1816821F00101816001F077F80546CA
:1001C0000FE000BF01F072F8401B022809D9A06AB5
:1001D00040F01000A062E06A40F00100E0620120FF
:1001E00070BD20688068C043C007EBD0002070BDA0
:1001F00010B50146406A826A12F0500F05D0006ABD
:10020000026BBDE8104008461047816A41F4007156
:10021000816201688968C1F3424107290CD1C16834
:1002200051B9816A21F480718162816AC90403D461
:10023000816A41F00101816200F0E4F910BD10B55E
:10024000406A816A41F040018162C16A41F0040163
:10025000C16200F0D9F910BD10B5406A00F0D3F9C1
:1002600010BD0000F8B500260446009600688168BD
:10027000C943C90728D0816841F001018160134852
:1002800013490068B0FBF1F000E0401E0090002828
:10029000FBD101F00BF8054611E000BF01F006F8B4
:1002A000401B02280BD9A06A40F01000A062E06A4F
:1002B00040F00100E06284F824600120F8BD20686D
:1002C0008068C043C007E9D10020F8BD24000020A9
:1002D00040420F00FEE7000010B5002958D0826BA5
:1002E0004FF4D873046803EB0113E45814F00404CA
:1002F00094600468E4584DD0E40854600468E358FE
:1003000003F00203D3604FF4DA73046803EB0113C4
:10031000E45804F00F04146111620468E358C3F355
:100320000723D3614FF4DC73046803EB0113E45833
:1003300014750468E458240A54750468E458240CBD
:1003400094750468E3581B0ED3754FF4DE7304688C
:1003500003EB0113E45814760468E458240A547635
:100360000468E458240C94760468E3581B0ED37692
:100370000368202289B11A610268536923F050038F
:10038000536190F83C20222A0DD0322A0BD00FE086
:10039000426BA5E7640D1460B0E7DA600268536948
:1003A00023F00A03ECE70268536923F40F43536117
:1003B00012220123002990F83C1006D0522915D0B2
:1003C000622916D0722906D115E042290ED0622981
:1003D00008D0722908D080F83C3000BF00F0D8FC6B
:1003E000002010BD322107E0522105E080F83C20BA
:1003F000F4E7222100E0422180F83C10EEE7000003
:10040000014800F05BBD0000B802002030B590F854
:1004100040500124AC40C56B6C6004686360436865
:10042000102B036803D099600068C26030BD9A60E9
:100430000068C16030BD70472DE9FC4FDFF8C09007
:100440000024DFF8B8A00746FF266D464FF01008DD
:10045000A9F1040B385D092841D007DC18D2DFE888
:1004600000F0191B30323436383A3C0064283ED054
:1004700008DC20280CD02D283DD0612831D06328FD
:1004800006D132E0652834D0662801D075282AD0FC
:100490002E5503E0C02000E0F92028551AF804008A
:1004A00001F018FC285D01F015FCC9F80080CBF8BC
:1004B0000080C9F80080641CE4B2072CCAD3BDE8F0
:1004C000FC8FA420E9E7B020E7E79920E5E7922038
:1004D000E3E78220E1E7F820DFE78020DDE79020F6
:1004E000DBE78820D9E7C120D7E7C620D5E7A120E0
:1004F000D3E78620D1E7BF20CFE700002800002007
:100500001408014070470000F8B50024009490F8EA
:1005100024202546012A12D0012280F824204A688E
:100520001F23072A0DD20668776B521E02EB820248
:1005300093409F430B6893401F43776319E0022069
:10054000F8BD06680D2A0AD2376BD21F02EB820271
:1005500093409F430B6893401F43376309E0F76A5A
:100560000D3A02EB820293409F430B6893401F4376
:10057000F7620A68072306680A2A0AD3F7680A3A64
:1005800002EB420293409F438B6893401F43F76006
:1005900008E0376902EB420293409F438B68934027
:1005A0001F4337610A68102A01D0112A20D1124B4B
:1005B00002689A4217D193681B0219D4936843F4D6
:1005C000000393600968102912D10C490C4A09688C
:1005D000B1FBF2F101EB8101490000E0491E0091FD
:1005E0000029FBD104E0816A41F0200181620124ED
:1005F00080F824502046F8BD00240140240000204B
:1006000040420F0070477047704710B504460068BD
:100610004168890626D50168890723D5A16AC906DC
:1006200003D4A16A41F40071A1628168C1F342411F
:10063000072910D1E16871B9416821F020014160BA
:10064000A06A20F48070A062A06AC00403D4A06AEB
:1006500040F00100A0622046FFF7D4FF21686FF050
:10066000120008602068416809062ED50168490714
:100670002BD5A16AC90603D4A16A41F40051A16235
:100680008168C1F30231072909D04168490515D4B1
:100690008168C1F34241072910D1E16871B941680D
:1006A00021F080014160A06A20F48050A062A06A1D
:1006B000C00503D4A06A40F00100A0622046FFF705
:1006C00021FF21686FF00C0008602068416849062E
:1006D0000DD50068C0070AD0A06A40F48030A0623F
:1006E000204600F093F821686FF00100086010BD0B
:1006F0002DE9F0414FF0000704003D467ED0A06A8E
:10070000002628B9E66284F82460204600F080F8CC
:100710002046FFF747FDA16A01F01001014304D014
:10072000A06A40F01000A06268E0A16A21F488513C
:1007300041F00201A1626268E169E3680A4347EAA5
:1007400043010A43A1684FF48077B94208D00129D8
:1007500006D00021D4F814C0BCF1010F02D00AE089
:100760003946F7E7F3B1A36A43F02003A362E36AD3
:1007700043F00103E3622368D3F804C02CF4694C0E
:100780004CEA010CC3F804C023689968DFF870C014
:1007900001EA0C0111439960A168B9420BD001290B
:1007A00009D00CE0DFF85CC0A3690CEB43330B43CA
:1007B00043F40061DFE7218A0D05A5F58015216866
:1007C000CB6A23F470032B43CB62216889680E4BFC
:1007D0001940914208D1E662A16A21F0020141F07C
:1007E0000101A162BDE8F081A06A20F0020040F0A2
:1007F0001000A062E06A40F00100E0620120F1E731
:10080000FDF7E1FF00E0FFFFFE0E1FFF7047000055
:1008100030B5054600681B4985B0884230D11A487A
:10082000816941F4007181618069694600F400705A
:100830000490032000900190144800F053FC154CE4
:1008400013488021206000206060C4E90201890013
:100850002161890061612021C4E90610204600F071
:10086000D7FB18B17D210CA001F011FD2C620022F4
:1008700002211220656200F0A5FD122000F096FD15
:1008800005B030BD0024014000100240000C0140C2
:1008900008000240B80200202E2E2F5372632F61F1
:1008A00064632E63000000002DE9F047894604468A
:1008B0003B4900683B4F0E1D9046884201D0B8422C
:1008C00007D1306810F4702F03D001252846BDE809
:1008D000F08794F8240001280CD0012084F824002B
:1008E0002046FFF7BFFC05004FF0000004D084F85D
:1008F0002400EBE70220EAE7A16A40F60162914397
:1009000041F48071A1622168B94218D1326812F4B1
:10091000702F14D0A16A41F48011A1623168490599
:1009200005D5A16A21F4005141F48051A162A16A68
:10093000C9040AD5E16A21F00601E16206E0A26A73
:1009400022F48012A2624968E9E7E06284F8240098
:10095000216A15488862216A1448C862216A1448CD
:10096000086321686FF0020008602068816841F424
:1009700080718160216843464A464C31206A00F00C
:1009800079FB20688168C1F342410729816803D05F
:1009900041F48011816099E741F4A001FAE7000079
:1009A0000024014000280140F1010008590200081C
:1009B0003F020008704700002DE9F041044600683E
:1009C0000026C168C1F300134169C1F3C0021021C0
:1009D00013B10AB14E01C160206802694369C2F3D4
:1009E0000012C3F380131AB113B146F4806601619B
:1009F000216848694FF00105C043C0074ED18A689D
:100A00007648904323D000208B68754A9A4320D0C3
:100A100000228F68734BBB431DD000231043184343
:100A20003CD088688A68C0F340008B68C2F34022DB
:100A300003F001031043184329D04A69204622F0ED
:100A400001024A6194F83C10122906D00AE0012004
:100A5000DAE70122DDE70123E0E701684A6922F4D1
:100A60000F424A6190F83C10422908D0522908D020
:100A7000722908D080F83C5000F0D2F909E0222118
:100A800002E0322100E0622180F83C10F4E746F4F5
:100A9000006620688168544A114381602168C868F3
:100AA000496910F0030FC1F3400104D019B10021CE
:100AB0002046FFF711FC21680869496910F0030F0F
:100AC000C1F3001104D019B101212046FFF704FC45
:100AD000206C3043206420688169426911F0010F65
:100AE0004369C2F30022C3F3C03305D022B11BB166
:100AF000216C41F0010121648169C1F34003416926
:100B0000C1F340224169C1F3C0312BB122B119B107
:100B1000216C41F0020121648169C1F380034169C4
:100B20004269C1F38021C2F3C0322BB121B11AB1A5
:100B3000216C41F004012164816911F0700F08D02B
:100B400000224169C1F3C0234169C1F3C03112B130
:100B500021E00122F5E7F3B1E9B1816901F070010B
:100B600040292FD006DC102909D020290BD03029AC
:100B70000DD123E0502929D0602908D12AE0216C29
:100B800041F0080102E0216C41F01001216481690B
:100B900021F070018161206C00280DD021680420B3
:100BA000486084F83C502068416948F65B72914384
:100BB00041612046FFF7FEFEBDE8F081216C41F067
:100BC0002001E3E7216C41F04001DFE7216C41F0B7
:100BD0008001DBE7216C41F48071D7E7010000045C
:100BE0000001000800000110090501002DE9F04195
:100BF00004004FF0000504D094F83C00002618B122
:100C000007E00120BDE8F08184F83D60204600F057
:100C100083F8022084F83C002068016821F002017A
:100C200001602068016841F00101016000F03EFBB5
:100C300007464FF0030804E000F038FBC01B0A2809
:100C400053D820684068C007F6D021684868C007BC
:100C500058D0A069012801D145F08005E06901283C
:100C60002FD025F04000226A012A2DD020F020004C
:100C7000626A012A2BD020F01000A26A012A29D032
:100C800020F00800E26A012A27D020F004000A6858
:100C900022F0FC0202430A60D4E902010843D4E9CD
:100CA0000412114308436168491E08432168C86162
:100CB0002068016821F00101016000F0F7FA0546A3
:100CC00018E045F04000CEE740F02000D0E740F0CB
:100CD0001000D2E740F00800D4E740F00400D6E767
:100CE00000F0E4FA401B0A2804D904F83C8F0320E2
:100CF000667087E720684068C007F1D120684068C7
:100D0000C00703D0042084F83C007AE72664012061
:100D100084F83C00002075E710B50068184986B0DB
:100D200088422BD11748C16941F00071C161C06987
:100D3000154C00F0007004904FF40060009000200B
:100D4000019002906946204600F0CCF9A014009072
:100D500002200190032003906946204600F0C2F96A
:100D60000A480068416941F00201416102221146CE
:100D7000142000F027FB142000F018FB06B010BD73
:100D800000640040001002400008014044020020BE
:100D900070B5134D00242868416941F0020141619A
:100DA000686B01680FA001F073FA686B81680FA08F
:100DB00001F06EFA686BC1680FA001F069FA686B08
:100DC000016910A001F064FA696B04F114000A5C77
:100DD00021460FA001F05CFA641C082CF4DB70BD06
:100DE0004402002069643A25640D0A006964653A8A
:100DF00025640D0A000000007274723A25640D0A21
:100E0000000000006C656E3A25640D0A00000000C9
:100E100072786275665B25645D3A25640D0A000090
:100E20007047000010B590F821100024022903D06B
:100E30000421816301243DE001680A6822F00E026A
:100E40000A6001680A6822F001020A601A4A016811
:100E5000914201D1012121E0174A1432914201D17E
:100E600010211BE0144A2832914201D1891515E066
:100E7000114A3C32914201D189140FE00E4A50329E
:100E8000914202D14FF4803108E00B4A6432914222
:100E900002D14FF4801101E04FF08071064A083A08
:100EA0005160012180F82110002180F82010416B51
:100EB00001B18847204610BD080002402DE9F05FCF
:100EC000C16B0C6801680B68D0F840C0042202FABC
:100ED0000CF2494DDFF824A1494E4A4FDFF828B102
:100EE000DFF828E122422CD05A072AD50A68920658
:100EF00003D40A6822F004020A600168A94201D101
:100F0000042219E0514501D1402215E0B14202D13D
:100F10004FF4806210E0B94202D14FF480420BE0FE
:100F2000594502D14FF4802206E0714502D14FF4B9
:100F3000800201E04FF080622F4908394A60C16A9F
:100F40003BE04FF0020808FA0CF818EA040F4FF0E3
:100F500000094FF0010235D05FEA837832D50B6883
:100F60009B0605D40B6823F00A030B6080F8212050
:100F70000168A94201D1022219E0514501D1202284
:100F800015E0B14202D14FF4007210E0B94202D133
:100F90004FF400520BE0594502D14FF4003206E005
:100FA000714502D14FF4001201E04FF00072124976
:100FB00008394A6080F82090816A00291AD0BDE87B
:100FC000F05F0847082505FA0CF5254212D01B07EB
:100FD00010D50B6823F00E030B6090F84010C36B24
:100FE00002FA01F15960826380F8212080F8209094
:100FF000016BE2E7BDE8F09F080002401C000240E0
:101000003000024044000240580002406C000240A0
:1010100030B548B308C8154914221944B1FBF2F1A0
:101020008900C16312498163022141771A6843F63E
:10103000F0718A43D0E900142143D0E902452C43E2
:1010400021430469214344692143846921431143B5
:101050001960002141628162C16201634163012222
:1010600042770177084630BD012030BDF8FFFDBF53
:101070000000024070B5044690F8200000250128C9
:101080000CD0012084F8200094F821600020012E6B
:1010900006D084F820000225284670BD022070BDCD
:1010A000022684F82160A0632068066826F0010605
:1010B00006602046FFF7AAF9E06A00282068016868
:1010C00002D041F00E0106E021F004010160206829
:1010D000016841F00A0101602068016841F00101E6
:1010E0000160D9E72DE9F84FDFF890A100220AF15D
:1010F000040B144601274FF00F090BF1040E00BF3B
:101100000B6807FA04F52B40AB4274D1DFF870C1CD
:101110004E68A6EB0C0866452BD00DDC032E34D0B0
:1011200005DC36B3012E19D0022E2FD11BE0112E73
:1011300016D0122E2AD119E0B8F5881F19D006DC76
:10114000B8F5803F15D0B8F5801F1FD111E0B8F574
:10115000001F0ED0B8F5041F18D10AE0CA6815E0C8
:10116000CA68121D12E0CA6808320FE0CA680C3261
:101170000CE08A682AB1012A4FF0080203D04561C9
:1011800004E0042202E0056100E00022FF2B01D808
:10119000064601E000F104064FEA840501D9A5F1F5
:1011A0002005D6F800C009FA05F82CEA080C02FA66
:1011B00005F54CEA050CC6F800C04D68ED0057D5A2
:1011C000304DAE6946F00106AE61AD6924F003060C
:1011D00005F0010500952C4D06EB050CDCF80850D8
:1011E000A6074FEA167809FA08F6B543274EB0422B
:1011F00002D1002610E03BE0254EB04201D101268D
:101200000AE0244EB04201D1022605E0224EB0424F
:1012100001D1032600E0042606FA08F62E43CCF896
:1012200008604D68DAF80060ED03554601D51E43AD
:1012300000E09E432E604D68DBF80060AD035D4624
:1012400001D51E4300E09E432E604D68DEF800602D
:10125000ED02754601D51E4300E09E432E604D68A9
:10126000AD020E4D2E6801D51E4300E09E432E6058
:10127000641C102CFFF444AFBDE8F88F000401405B
:101280000000111000100240000001400008014061
:10129000000C014000100140001401400C0401400A
:1012A0000AB1016170470904FBE70000014880684A
:1012B0007047000000000020024881680278114455
:1012C0008160704700000020074810B5016841F0B8
:1012D00010010160032000F095F8002000F006F8EE
:1012E00000F024F8002010BD0020024070B50D4D24
:1012F00004464FF47A712878B1FBF0F00A49096886
:10130000B1FBF0F000F09FFB48B9102C07D200228F
:101310002146501E00F056F800206C6070BD012080
:1013200070BD000000000020240000201D4808B50A
:10133000816941F001018161806900F00100009044
:10134000032000F05FF8002211466FF00B0000F060
:1013500039F8002211466FF00A0000F033F800223D
:1013600011466FF0090000F02DF800221146501FC1
:1013700000F028F800221146101F00F023F8002288
:101380001146901E00F01EF800221146501E00F07B
:1013900019F80548416821F0E06141F000714160B1
:1013A00008BD0000001002400000014000F01F02D4
:1013B000012191404009800000F1E020C0F80011B7
:1013C00070470000F0B40E4B1B680C46C3F30223B9
:1013D000C3F10705042D00D90425191D072901D2E1
:1013E000002300E0DB1E012606FA05F1491E21401C
:1013F00099409E40761E16403143F0BC00F060BD1F
:101400000CED00E0064900F0070208684FF6FF0304
:10141000184040EA0220034A104308607047000069
:101420000CED00E00000FA052DE9F84305460078D0
:10143000354CC00754D0E0690026C00008D4E069EC
:1014400040F08050E061E069012600F0805000909B
:101450002E480168C90512D40168804641F48071A4
:101460000160FFF723FF074605E000BFFFF71EFFFF
:10147000C01B642823D8D8F80000C005F6D5206A20
:1014800010F4407021D0A98801F4407181421CD031
:10149000206A1F49012220F440700A6000220A607D
:1014A0002062C00711D0FFF701FF074641F28838DC
:1014B00008E000BFFFF7FAFEC11B414502D9032037
:1014C000BDE8F883206A8007F4D5206A696820F4B3
:1014D0004070084320621EB1E06920F08050E06156
:1014E0002878800705D56068A96820F44040084343
:1014F00060602878C00605D56068E96820F480003F
:10150000084360600020DBE70010024000700040EC
:10151000400442422DE9F047DFF83C8105460E4683
:10152000D8F8000000F00700B0420CD2D8F8001044
:1015300021F007013143C8F80010D8F8000000F08E
:101540000700B04263D12878444C800705D5606815
:10155000A96820F0F000084360602878C00745D0F3
:101560006868012816D02168022816D0890700294A
:101570004DDA616821F0030101436160FFF796FED7
:101580006968074641F2883001290FD00229814657
:1015900019D027E021688903E9E78901E7E700BF5F
:1015A000FFF784FEC11B494501D918E081466068F8
:1015B000C0F381000128F3D118E000BFFFF776FEE9
:1015C000C11B49450BD86068C0F381000228F5D1E2
:1015D0000CE000BFFFF76AFEC11B494502D903209A
:1015E000BDE8F087606810F00C0FF3D1D8F8001058
:1015F000404601F00701B1420BD9016821F0070113
:1016000031430160006800F00700B04201D00120C2
:10161000E6E72878400705D56068E96820F4E060CF
:10162000084360602878000706D56068296920F4BF
:10163000605040EAC100606000F03CF86168084A10
:10164000C1F30311515CC840064908600020FFF750
:101650004DFE0020C4E700000020024000100240C0
:10166000BC250008240000200148006870470000E5
:10167000240000200448054900684968044AC1F371
:101680000221515CC8407047240000200010024035
:10169000CC2500080448054900684968044AC1F39C
:1016A000C221515CC8407047240000200010024055
:1016B000CC25000813A185B00FC98DE80F0015A037
:1016C000154A00680490516801F00C00042804D009
:1016D000082804D0114805B070471148FBE7C1F352
:1016E0008343C9031DF8030009D5516804AAC1F357
:1016F0004041515C0A4A5043B0FBF1F0EBE7094925
:101700004843E8E702030405060708090A0B0C0D25
:101710000E0F1010010200000010024000127A00AB
:1017200000366E0100093D002DE9F84F04460078AF
:10173000B94DC00748D06868C0F38100012807D0C0
:101740006868C0F38100022809D16868C00306D523
:101750002868800338D5606800286FD034E060685E
:10176000B0F5803F0BD010B1B0F5A02F11D0286894
:1017700020F480302860286820F4802002E0286867
:1017800040F480302860606888B1FFF78FFD06461E
:1017900009E0286840F480202860F0E7FFF786FD24
:1017A000801B642875D828688003F7D50CE0FFF704
:1017B0007DFD064605E000BFFFF778FD801B64282D
:1017C000F0D828688003F7D42078944E80074FF033
:1017D00001094FF000083BD5686810F00C0F07D0E6
:1017E0006868C0F38100022809D16868C00306D484
:1017F0002868800714D5206901281FD110E02069CE
:10180000B0B1C6F80090FFF751FD074605E000BFF4
:10181000FFF74CFDC01B0228C4D828688007F7D505
:101820002868616920F0F80040EAC10028600FE0F4
:10183000C6F80080FFF73AFD074606E0E9E000BF82
:10184000FFF734FDC01B022823D828688007F7D48F
:10185000207800072CD57248A169D9B1C0F8009052
:10186000FFF724FD074604E0FFF720FDC01B022818
:101870000FD8686A8007F7D56A484FF4FA510068B4
:10188000B0FBF1F0009000BF0098411E0091FAD229
:101890000EE080E0C0F80080FFF708FD074604E096
:1018A000FFF704FDC01B022875D8686A8007F7D4CB
:1018B0002078400760D5E8690027C00008D4E869AF
:1018C00040F08050E861E869012700F08050009006
:1018D00055480168C90513D40168834641F48071F5
:1018E0000160FFF7E3FC824606E000BFFFF7DEFC85
:1018F000A0EB0A0064284ED8DBF80000C005F5D53F
:10190000E06801280AD008B1052813D0286A20F021
:1019100001002862286A20F0040002E0286A40F0F2
:1019200001002862E06841F2883B98B1FFF7BEFCF5
:1019300082460BE0286A40F004002862EEE700BF10
:10194000FFF7B4FCA0EB0A0159455AD8286A800772
:10195000F6D50CE0FFF7AAFC824605E0FFF7A6FCEF
:10196000A0EB0A0159454CD8286A8007F6D41FB16C
:10197000E86920F08050E861E06988B36968C1F3E4
:101980008101022945D00228C6F8608004D0FFF703
:101990008DFC044638E034E0FFF788FC074604E09D
:1019A000FFF784FCC01B02282BD828688001F7D4DD
:1019B000206AB0F5803F05D16868A16820F4003046
:1019C00008436860D4E908010843696821F4741188
:1019D00008436860C6F86090FFF768FC044606E0BC
:1019E00015E000BFFFF762FC001B022809D8286839
:1019F0008001F7D50BE000BFFFF758FC001B022861
:101A000002D90320BDE8F88F28688001F4D40020B3
:101A1000F8E70120F6E70000001002400000424213
:101A20008004424224000020007000404FF0E0217A
:101A30000428086903D020F004000861704740F0D2
:101A40000400FAE7704710B5401EB0F1807F01D363
:101A5000012010BD4FF0E02460610F21601700F0FD
:101A60002FFA0020A06107202061002010BD10B5D2
:101A7000FFF7E8FF10BD704770B5026804461068B4
:101A8000D168536910F00F0F51D003F0010501F434
:101A9000907635435DD0C20705D0CA0503D5E26B09
:101AA00042F00102E263420705D5DA0703D0E26B98
:101AB00042F00202E263820705D5DA0703D0E26B47
:101AC00042F00402E263020705D5DA0703D0E26BB5
:101AD00042F00802E263E26B002A34D0800604D5AB
:101AE000880602D5204600F08FFA20684069E16B35
:101AF000C0F3801001F008010143204624D000F01B
:101B000075FA2068416949061AD5416921F04001FA
:101B10004161606BA0B11B494163606BFFF782F9C3
:101B2000002810D0606B416BBDE870400847830609
:101B30000FD58B060DD52046BDE8704000F064BA85
:101B40002046FFF798FF70BDFFF795FF0020E06388
:101B500070BD030606D50B0604D52046BDE87040CF
:101B600000F056BB4006F3D54806F1D5D1682046B3
:101B700021F04001D160202184F8391000F09EF856
:101B800070BD0000DD1F000870B5040004D094F89B
:101B90003900002510B106E0012070BD84F83850EE
:101BA000204600F023F8242084F839002068C1681A
:101BB00021F40051C160204600F072FA20680169EA
:101BC00021F4904101612068416921F02A014161BD
:101BD0002068C16841F40051C160E563202084F8A9
:101BE000390084F83A00002070BD000010B500688C
:101BF000184986B088422AD11748C16941F480212A
:101C0000C161C069154C00F4802004904FF48060DD
:101C10000090022001900320039069462046FFF7C0
:101C200061FA0021E014CDE90001029169462046E5
:101C3000FFF758FA002202212720FFF7C3FB2720D5
:101C4000FFF7B4FB01220649064800F00DF806B084
:101C500010BD00000048004000100240000C014090
:101C600020000020C401002090F83A30202B22D11F
:101C7000F9B1F2B190F83830012B1CD08162828525
:101C8000C2850021C163222280F83A2080F83810F2
:101C90000168CA6842F48072CA6001684A6942F009
:101CA00001024A610068C16841F02001C160002062
:101CB000704701207047022070477047704700004E
:101CC00003482021016080210160102101607047DC
:101CD0001008014070B50A4A002180252023141FF6
:101CE0001360060601D5256000E015604006000E71
:101CF00023601360491CC9B20829F1D370BD0000EC
:101D000014080140FEE70000FEB5184816490024FB
:101D10000160891501254461C0E9021502260661AA
:101D20004FF460214460C161FEF7E2FC18B1462126
:101D30000FA000F0ACFA0820CDE900056946029436
:101D40000A48FEF7E1FB18B1502109A000F09FFA04
:101D5000694606480196FEF7D7FB002803D05821B4
:101D600003A000F094FAFEBD002401408802002088
:101D70002E2E2F5372632F6164632E6300000000C8
:101D80000E4810B50C4901601021416000218160AE
:101D9000C160016141618161C16101624162816231
:101DA000C162FEF723FF002805D0BDE810404B219B
:101DB00003A000F06CBA10BD006400404402002093
:101DC0002E2E2F5372632F63616E2E63000000006E
:101DD000094808B5416941F00101416140690022AB
:101DE00000F00100009011460B20FFF7EBFABDE870
:101DF00008400B20FFF7DABA0010024030B51A484D
:101E000085B0816941F020018161816901F0200183
:101E10000491816941F004018161816901F004014B
:101E20000491816941F00801816180690F4D00F0E2
:101E3000080004900022B0212846FFF731FA01245F
:101E40001020CDE90004694628460394FFF74AF9BB
:101E5000A020CDE900040220039069462846FFF740
:101E600041F905B030BD00000010024000080140FB
:101E70000D4810B50B4901604FF4E131416000217C
:101E800081600C22C160C0E904128161C161FFF769
:101E90007BFE002805D0BDE81040512103A000F0D2
:101EA000F6B910BD00480040C40100202E2E2F536B
:101EB00072632F75736172742E630000FEE77047C2
:101EC0000907090E002806DA00F00F0000F1E020F3
:101ED00080F8141D704700F1E02080F8001470476E
:101EE0007047000030B500235FF00A04B0FBF4F542
:101EF00004FB1505B0FBF4F041F823505B1CDBB28A
:101F00000028F3D1137030BD704710B5FFF7D4F936
:101F1000BDE81040FFF7ABBD30B593B001204FF4E2
:101F2000A02100258DE82300049002240004CDE9BF
:101F30000740800009906846FFF7F6FB00B1FEE716
:101F40000AA90F2081E831004FF48060CDE90D052A
:101F500002210AA8FFF7DEFA00B1FEE74FF40040C5
:101F600011900F940FA8FFF75FFA00B1FEE7FFF79B
:101F70007BFB4FF47A71B0FBF1F0FFF764FD0420B6
:101F8000FFF754FD00221146501EFFF71BFA13B055
:101F900030BD00000D48016841F001010160416859
:101FA0000B4A1140416001680A4A11400160016812
:101FB00021F480210160416821F4FE0141604FF469
:101FC0001F0181600449C00308607047001002408F
:101FD0000000FFF8FFFFF6FE08ED00E010B5406AD4
:101FE0000021C185C184FFF746FD10BD0168CA68A4
:101FF00022F49072CA6001684A6922F001024A61C3
:10200000202180F83A10704710B590F83A10222934
:1020100001D0022010BD8168B1F5805F11D0016947
:10202000002901681FD0496801F07F03816A4A1CBA
:1020300082620B70C18D491E0904090CC18518D03C
:102040002BE00269816A002A0268526805D0D2B288
:102050000A80816A491C8162ECE7C2F308020A80A7
:10206000816A891CF7E74A68816A4B1C83620A709F
:10207000E0E70168CA6822F02002CA600168CA6805
:1020800022F48072CA6001684A6922F001024A6142
:10209000202180F83A10FFF710FE002010BD00004C
:1020A0002DE9F041044600680169E26821F44051DD
:1020B000114301612169A0680843616908432168EF
:1020C000CA6841F20C639A430243CA6020684169BE
:1020D000A26921F44071114341614C492068642593
:1020E000322688423CD1FFF7D5FA00EBC00101EB64
:1020F000001061688900B0FBF1F7FFF7CBFA00EB45
:10210000C00101EB00106168B0468900B0FBF1F03E
:10211000B0FBF5F06FF01801484307EB800106EBC8
:102120000110B0FBF5F000F0F006FFF7B3FA00EB9A
:10213000C00101EB001061688900B0FBF1F0B0FB59
:10214000F5F006EB0016FFF7A5FA00EBC00101EB76
:10215000001061688900B0FBF1F7FFF79BFA3BE0E4
:10216000FFF788FA00EBC00101EB001061688900FD
:10217000B0FBF1F7FFF77EFA00EBC00101EB0010B6
:102180006168B0468900B0FBF1F0B0FBF5F06FF08C
:102190001801484307EB800106EB0110B0FBF5F096
:1021A00000F0F006FFF766FA00EBC00101EB00104B
:1021B00061688900B0FBF1F0B0FBF5F006EB0016AA
:1021C000FFF758FA00EBC00101EB001061688900CD
:1021D000B0FBF1F7FFF74EFA00EBC00101EB001086
:1021E00061688900B0FBF1F0B0FBF5F06FF0180109
:1021F000484307EB800108EB0110B0FBF5F02168C4
:1022000000F00F0030448860BDE8F08100380140E4
:1022100090F83910212901D0022070478168B1F56A
:10222000805F016A0BD04A1C026202680978516023
:10223000C18C491E0904090CC1840ED017E009881D
:102240000268C1F30801516001690029016A02D0E6
:10225000491C0162ECE7891CFBE70168CA6822F0AF
:102260008002CA600068C16841F04001C16000207E
:10227000704700000148FFF7FFBB0000C4010020C9
:102280000148FEF799BB000044020020FEE7FEE78C
:102290000FB4054B10B503A9044A029800F018F8D2
:1022A00010BC5DF814FB000025240008300000205D
:1022B00002E008C8121F08C1002AFAD1704770470F
:1022C000002001E001C1121F002AFBD1704700006D
:1022D0002DE9FF4F89B09B460446002506E02528DE
:1022E0000BD05A460B999047641C6D1C207800282F
:1022F000F5D10DB02846BDE8F08F0027B846012281
:10230000474900E0074314F8013F203B02FA03F07D
:102310000842F7D120782E2819D114F8010F47F080
:1023200004072A280ED06FF02F022078A0F1300188
:1023300009290CD808EB880102EB410100EB0108E8
:10234000641CF2E70A98641C50F8048B0A90207809
:102350000028CED0642808D0692806D075281ED061
:102360005A460B9990476D1C58E00A994FF00A099C
:1023700001C90A91002802DA40422D2102E0390504
:1023800004D52B218DF82010012103E0F90704D09A
:102390002021F7E78A4608AE0DE00021FAE70A9906
:1023A0004FF00A0901C90A91F7E74946FDF7CCFE4B
:1023B000303106F8011D0028F7D1ADEB060000F121
:1023C0002009780701D44FF00108C84502DDA8EBC9
:1023D000090000E000208046002706E008A85A46D1
:1023E000C05D0B9990476D1C7F1C5745F6DB04E0E0
:1023F00030205A460B9990476D1CB8F10001A8F1A6
:102400000108F5DC05E016F8010B5A460B999047D8
:102410006D1CB9F10001A9F10109F4DC641C65E748
:102420000928010004490A685206FCD5024AC1B2D3
:10243000121D116070470000004800402DE9F04F68
:102440008DB04FF000084546142105A8FDF771FE38
:1024500014216846FDF76DFEFEF736FFFFF75CFDC1
:10246000FFF7CCFCFFF7B4FCFFF78AFCFFF700FD99
:10247000FFF74AFCFFF724FC642244494448FEF776
:1024800013FADFF810A1612143A08AF80610752124
:102490008AF80210FFF7FCFE0124AAF10C094FF4A0
:1024A000FA6B6BE000242146C9F80440374E012244
:1024B0000846C9F8084000BF56F82270921CD2B2F4
:1024C0003844642AF8D33222B0FBF2F0C9F808008D
:1024D000C82200EB80005143000108EB912605EB78
:1024E0009027B42E01D8462F06D9012189F8001073
:1024F0000DB00020BDE8F08F0AAA05A93046FFF70D
:10250000F1FC9DF82800012819D002281CD00328CE
:1025100021D02D208AF803008AF804008AF80500EB
:102520000BAA69463846FFF7DDFC9DF82C00012810
:1025300017D0022817D02D218AF8001017E020218B
:1025400050468AF8031001E0202105E00171059949
:102550008AF80510E4E707998AF8031050460699AF
:10256000F4E7202100E001998AF8001000998AF828
:1025700001103A4631460BA0FFF78AFE0548FDF7E9
:102580005BFF641C5C45F9D18CE70000340000203F
:102590008802002018000020496E6974204F6B0DDE
:1025A0000A0000006375723A20256420412009204A
:1025B000766F6C3A20256420560D0A00000000005A
:1025C00000000000010203040607080900000000E3
:1025D00001020304F425000800000020340000007C
:1025E000B02200082826000834000020CC06000095
:1025F000C0220008010000001000000000000000E0
:10260000000000000000000000000000202020204A
:10261000202020200000000000A24A04010204083B
:082620001020408000000000C2
:04000005080000ED02
:00000001FF
